{
	"contracts/2_Intermediate/4_Library.sol": {
		"TestArray": {
			"abi": [
				{
					"inputs": [
						{
							"internalType": "uint256",
							"name": "",
							"type": "uint256"
						}
					],
					"name": "arr",
					"outputs": [
						{
							"internalType": "uint256",
							"name": "",
							"type": "uint256"
						}
					],
					"stateMutability": "view",
					"type": "function"
				},
				{
					"inputs": [],
					"name": "func",
					"outputs": [
						{
							"internalType": "uint256[]",
							"name": "",
							"type": "uint256[]"
						}
					],
					"stateMutability": "nonpayable",
					"type": "function"
				},
				{
					"inputs": [
						{
							"internalType": "uint256",
							"name": "_x",
							"type": "uint256"
						}
					],
					"name": "testFind",
					"outputs": [
						{
							"internalType": "uint256",
							"name": "",
							"type": "uint256"
						}
					],
					"stateMutability": "view",
					"type": "function"
				}
			],
			"devdoc": {
				"kind": "dev",
				"methods": {},
				"version": 1
			},
			"evm": {
				"assembly": "    /* \"contracts/2_Intermediate/4_Library.sol\":383:792  contract TestArray {... */\n  mstore(0x40, 0x80)\n    /* \"contracts/2_Intermediate/4_Library.sol\":439:468  uint[] public arr = [1,2,3,4] */\n  mload(0x40)\n  dup1\n  0x80\n  add\n  0x40\n  mstore\n  dup1\n    /* \"contracts/2_Intermediate/4_Library.sol\":460:461  1 */\n  0x01\n    /* \"contracts/2_Intermediate/4_Library.sol\":439:468  uint[] public arr = [1,2,3,4] */\n  0xff\n  and\n  dup2\n  mstore\n  0x20\n  add\n    /* \"contracts/2_Intermediate/4_Library.sol\":462:463  2 */\n  0x02\n    /* \"contracts/2_Intermediate/4_Library.sol\":439:468  uint[] public arr = [1,2,3,4] */\n  0xff\n  and\n  dup2\n  mstore\n  0x20\n  add\n    /* \"contracts/2_Intermediate/4_Library.sol\":464:465  3 */\n  0x03\n    /* \"contracts/2_Intermediate/4_Library.sol\":439:468  uint[] public arr = [1,2,3,4] */\n  0xff\n  and\n  dup2\n  mstore\n  0x20\n  add\n    /* \"contracts/2_Intermediate/4_Library.sol\":466:467  4 */\n  0x04\n    /* \"contracts/2_Intermediate/4_Library.sol\":439:468  uint[] public arr = [1,2,3,4] */\n  0xff\n  and\n  dup2\n  mstore\n  pop\n  0x00\n  swap1\n  0x04\n  tag_1\n  swap3\n  swap2\n  swap1\n  tag_2\n  jump\t// in\ntag_1:\n  pop\n    /* \"contracts/2_Intermediate/4_Library.sol\":383:792  contract TestArray {... */\n  callvalue\n  dup1\n  iszero\n  tag_3\n  jumpi\n  0x00\n  dup1\n  revert\ntag_3:\n  pop\n  jump(tag_4)\ntag_2:\n  dup3\n  dup1\n  sload\n  dup3\n  dup3\n  sstore\n  swap1\n  0x00\n  mstore\n  keccak256(0x00, 0x20)\n  swap1\n  dup2\n  add\n  swap3\n  dup3\n  iszero\n  tag_5\n  jumpi\n  swap2\n  0x20\n  mul\n  dup3\n  add\ntag_6:\n  dup3\n  dup2\n  gt\n  iszero\n  tag_7\n  jumpi\n  dup3\n  mload\n  dup3\n  swap1\n  0xff\n  and\n  swap1\n  sstore\n  swap2\n  0x20\n  add\n  swap2\n  swap1\n  0x01\n  add\n  swap1\n  jump(tag_6)\ntag_7:\ntag_5:\n  pop\n  swap1\n  pop\n  tag_8\n  swap2\n  swap1\n  tag_9\n  jump\t// in\ntag_8:\n  pop\n  swap1\n  jump\t// out\ntag_9:\ntag_10:\n  dup1\n  dup3\n  gt\n  iszero\n  tag_11\n  jumpi\n  0x00\n  dup2\n  0x00\n  swap1\n  sstore\n  pop\n  0x01\n  add\n  jump(tag_10)\ntag_11:\n  pop\n  swap1\n  jump\t// out\ntag_4:\n  dataSize(sub_0)\n  dup1\n  dataOffset(sub_0)\n  0x00\n  codecopy\n  0x00\n  return\nstop\n\nsub_0: assembly {\n        /* \"contracts/2_Intermediate/4_Library.sol\":383:792  contract TestArray {... */\n      mstore(0x40, 0x80)\n      callvalue\n      dup1\n      iszero\n      tag_1\n      jumpi\n      0x00\n      dup1\n      revert\n    tag_1:\n      pop\n      jumpi(tag_2, lt(calldatasize, 0x04))\n      shr(0xe0, calldataload(0x00))\n      dup1\n      0x1ae1420c\n      eq\n      tag_3\n      jumpi\n      dup1\n      0x71e5ee5f\n      eq\n      tag_4\n      jumpi\n      dup1\n      0xbfa814b5\n      eq\n      tag_5\n      jumpi\n    tag_2:\n      0x00\n      dup1\n      revert\n        /* \"contracts/2_Intermediate/4_Library.sol\":475:608  function testFind(uint _x) external view returns (uint) {... */\n    tag_3:\n      tag_6\n      0x04\n      dup1\n      calldatasize\n      sub\n      dup2\n      add\n      swap1\n      tag_7\n      swap2\n      swap1\n      tag_8\n      jump\t// in\n    tag_7:\n      tag_9\n      jump\t// in\n    tag_6:\n      mload(0x40)\n      tag_10\n      swap2\n      swap1\n      tag_11\n      jump\t// in\n    tag_10:\n      mload(0x40)\n      dup1\n      swap2\n      sub\n      swap1\n      return\n        /* \"contracts/2_Intermediate/4_Library.sol\":439:468  uint[] public arr = [1,2,3,4] */\n    tag_4:\n      tag_12\n      0x04\n      dup1\n      calldatasize\n      sub\n      dup2\n      add\n      swap1\n      tag_13\n      swap2\n      swap1\n      tag_8\n      jump\t// in\n    tag_13:\n      tag_14\n      jump\t// in\n    tag_12:\n      mload(0x40)\n      tag_15\n      swap2\n      swap1\n      tag_11\n      jump\t// in\n    tag_15:\n      mload(0x40)\n      dup1\n      swap2\n      sub\n      swap1\n      return\n        /* \"contracts/2_Intermediate/4_Library.sol\":614:788  function func() external  returns (uint[] memory) {... */\n    tag_5:\n      tag_16\n      tag_17\n      jump\t// in\n    tag_16:\n      mload(0x40)\n      tag_18\n      swap2\n      swap1\n      tag_19\n      jump\t// in\n    tag_18:\n      mload(0x40)\n      dup1\n      swap2\n      sub\n      swap1\n      return\n        /* \"contracts/2_Intermediate/4_Library.sol\":475:608  function testFind(uint _x) external view returns (uint) {... */\n    tag_9:\n        /* \"contracts/2_Intermediate/4_Library.sol\":525:529  uint */\n      0x00\n        /* \"contracts/2_Intermediate/4_Library.sol\":589:601  arr.find(_x) */\n      tag_21\n        /* \"contracts/2_Intermediate/4_Library.sol\":598:600  _x */\n      dup3\n        /* \"contracts/2_Intermediate/4_Library.sol\":589:592  arr */\n      0x00\n        /* \"contracts/2_Intermediate/4_Library.sol\":589:597  arr.find */\n      tag_22\n      swap1\n        /* \"contracts/2_Intermediate/4_Library.sol\":589:601  arr.find(_x) */\n      swap2\n      swap1\n      0xffffffff\n      and\n      jump\t// in\n    tag_21:\n        /* \"contracts/2_Intermediate/4_Library.sol\":582:601  return arr.find(_x) */\n      swap1\n      pop\n        /* \"contracts/2_Intermediate/4_Library.sol\":475:608  function testFind(uint _x) external view returns (uint) {... */\n      swap2\n      swap1\n      pop\n      jump\t// out\n        /* \"contracts/2_Intermediate/4_Library.sol\":439:468  uint[] public arr = [1,2,3,4] */\n    tag_14:\n      0x00\n      dup2\n      dup2\n      sload\n      dup2\n      lt\n      tag_23\n      jumpi\n      0x00\n      dup1\n      revert\n    tag_23:\n      swap1\n      0x00\n      mstore\n      keccak256(0x00, 0x20)\n      add\n      0x00\n      swap2\n      pop\n      swap1\n      pop\n      sload\n      dup2\n      jump\t// out\n        /* \"contracts/2_Intermediate/4_Library.sol\":614:788  function func() external  returns (uint[] memory) {... */\n    tag_17:\n        /* \"contracts/2_Intermediate/4_Library.sol\":649:662  uint[] memory */\n      0x60\n        /* \"contracts/2_Intermediate/4_Library.sol\":678:684  uint i */\n      0x00\n        /* \"contracts/2_Intermediate/4_Library.sol\":674:762  for(uint i=0; i<arr.length; i++){... */\n    tag_26:\n        /* \"contracts/2_Intermediate/4_Library.sol\":690:693  arr */\n      0x00\n        /* \"contracts/2_Intermediate/4_Library.sol\":690:700  arr.length */\n      dup1\n      sload\n      swap1\n      pop\n        /* \"contracts/2_Intermediate/4_Library.sol\":688:689  i */\n      dup2\n        /* \"contracts/2_Intermediate/4_Library.sol\":688:700  i<arr.length */\n      lt\n        /* \"contracts/2_Intermediate/4_Library.sol\":674:762  for(uint i=0; i<arr.length; i++){... */\n      iszero\n      tag_27\n      jumpi\n        /* \"contracts/2_Intermediate/4_Library.sol\":729:751  ArrayLib.solve(arr[i]) */\n      tag_29\n        /* \"contracts/2_Intermediate/4_Library.sol\":744:747  arr */\n      0x00\n        /* \"contracts/2_Intermediate/4_Library.sol\":748:749  i */\n      dup3\n        /* \"contracts/2_Intermediate/4_Library.sol\":744:750  arr[i] */\n      dup2\n      sload\n      dup2\n      lt\n      tag_30\n      jumpi\n      tag_31\n      tag_32\n      jump\t// in\n    tag_31:\n    tag_30:\n      swap1\n      0x00\n      mstore\n      keccak256(0x00, 0x20)\n      add\n      sload\n        /* \"contracts/2_Intermediate/4_Library.sol\":729:743  ArrayLib.solve */\n      tag_34\n        /* \"contracts/2_Intermediate/4_Library.sol\":729:751  ArrayLib.solve(arr[i]) */\n      jump\t// in\n    tag_29:\n        /* \"contracts/2_Intermediate/4_Library.sol\":720:723  arr */\n      0x00\n        /* \"contracts/2_Intermediate/4_Library.sol\":724:725  i */\n      dup3\n        /* \"contracts/2_Intermediate/4_Library.sol\":720:726  arr[i] */\n      dup2\n      sload\n      dup2\n      lt\n      tag_35\n      jumpi\n      tag_36\n      tag_32\n      jump\t// in\n    tag_36:\n    tag_35:\n      swap1\n      0x00\n      mstore\n      keccak256(0x00, 0x20)\n      add\n        /* \"contracts/2_Intermediate/4_Library.sol\":720:751  arr[i] = ArrayLib.solve(arr[i]) */\n      dup2\n      swap1\n      sstore\n      pop\n        /* \"contracts/2_Intermediate/4_Library.sol\":702:705  i++ */\n      dup1\n      dup1\n      0x01\n      add\n      swap2\n      pop\n      pop\n        /* \"contracts/2_Intermediate/4_Library.sol\":674:762  for(uint i=0; i<arr.length; i++){... */\n      jump(tag_26)\n    tag_27:\n      pop\n        /* \"contracts/2_Intermediate/4_Library.sol\":778:781  arr */\n      0x00\n        /* \"contracts/2_Intermediate/4_Library.sol\":771:781  return arr */\n      dup1\n      sload\n      dup1\n      0x20\n      mul\n      0x20\n      add\n      mload(0x40)\n      swap1\n      dup2\n      add\n      0x40\n      mstore\n      dup1\n      swap3\n      swap2\n      swap1\n      dup2\n      dup2\n      mstore\n      0x20\n      add\n      dup3\n      dup1\n      sload\n      dup1\n      iszero\n      tag_38\n      jumpi\n      0x20\n      mul\n      dup3\n      add\n      swap2\n      swap1\n      0x00\n      mstore\n      keccak256(0x00, 0x20)\n      swap1\n    tag_39:\n      dup2\n      sload\n      dup2\n      mstore\n      0x20\n      add\n      swap1\n      0x01\n      add\n      swap1\n      dup1\n      dup4\n      gt\n      tag_39\n      jumpi\n    tag_38:\n      pop\n      pop\n      pop\n      pop\n      pop\n      swap1\n      pop\n        /* \"contracts/2_Intermediate/4_Library.sol\":614:788  function func() external  returns (uint[] memory) {... */\n      swap1\n      jump\t// out\n        /* \"contracts/2_Intermediate/4_Library.sol\":92:290  function find(uint[] storage arr, uint x) internal view returns (uint) {... */\n    tag_22:\n        /* \"contracts/2_Intermediate/4_Library.sol\":157:161  uint */\n      0x00\n        /* \"contracts/2_Intermediate/4_Library.sol\":177:183  uint i */\n      dup1\n        /* \"contracts/2_Intermediate/4_Library.sol\":184:185  0 */\n      0x00\n        /* \"contracts/2_Intermediate/4_Library.sol\":177:185  uint i=0 */\n      swap1\n      pop\n        /* \"contracts/2_Intermediate/4_Library.sol\":173:255  for(uint i=0; i<arr.length; i++) {... */\n    tag_41:\n        /* \"contracts/2_Intermediate/4_Library.sol\":189:192  arr */\n      dup4\n        /* \"contracts/2_Intermediate/4_Library.sol\":189:199  arr.length */\n      dup1\n      sload\n      swap1\n      pop\n        /* \"contracts/2_Intermediate/4_Library.sol\":187:188  i */\n      dup2\n        /* \"contracts/2_Intermediate/4_Library.sol\":187:199  i<arr.length */\n      lt\n        /* \"contracts/2_Intermediate/4_Library.sol\":173:255  for(uint i=0; i<arr.length; i++) {... */\n      iszero\n      tag_42\n      jumpi\n        /* \"contracts/2_Intermediate/4_Library.sol\":233:234  x */\n      dup3\n        /* \"contracts/2_Intermediate/4_Library.sol\":223:226  arr */\n      dup5\n        /* \"contracts/2_Intermediate/4_Library.sol\":227:228  i */\n      dup3\n        /* \"contracts/2_Intermediate/4_Library.sol\":223:229  arr[i] */\n      dup2\n      sload\n      dup2\n      lt\n      tag_44\n      jumpi\n      tag_45\n      tag_32\n      jump\t// in\n    tag_45:\n    tag_44:\n      swap1\n      0x00\n      mstore\n      keccak256(0x00, 0x20)\n      add\n      sload\n        /* \"contracts/2_Intermediate/4_Library.sol\":223:234  arr[i] == x */\n      sub\n        /* \"contracts/2_Intermediate/4_Library.sol\":220:244  if(arr[i] == x) return i */\n      tag_47\n      jumpi\n        /* \"contracts/2_Intermediate/4_Library.sol\":243:244  i */\n      dup1\n        /* \"contracts/2_Intermediate/4_Library.sol\":236:244  return i */\n      swap2\n      pop\n      pop\n      jump(tag_40)\n        /* \"contracts/2_Intermediate/4_Library.sol\":220:244  if(arr[i] == x) return i */\n    tag_47:\n        /* \"contracts/2_Intermediate/4_Library.sol\":201:204  i++ */\n      dup1\n      dup1\n      0x01\n      add\n      swap2\n      pop\n      pop\n        /* \"contracts/2_Intermediate/4_Library.sol\":173:255  for(uint i=0; i<arr.length; i++) {... */\n      jump(tag_41)\n    tag_42:\n      pop\n        /* \"contracts/2_Intermediate/4_Library.sol\":264:283  revert(\"Not Found\") */\n      mload(0x40)\n      0x08c379a000000000000000000000000000000000000000000000000000000000\n      dup2\n      mstore\n      0x04\n      add\n      tag_48\n      swap1\n      tag_49\n      jump\t// in\n    tag_48:\n      mload(0x40)\n      dup1\n      swap2\n      sub\n      swap1\n      revert\n        /* \"contracts/2_Intermediate/4_Library.sol\":92:290  function find(uint[] storage arr, uint x) internal view returns (uint) {... */\n    tag_40:\n      swap3\n      swap2\n      pop\n      pop\n      jump\t// out\n        /* \"contracts/2_Intermediate/4_Library.sol\":296:379  function solve(uint x) internal pure returns (uint) {... */\n    tag_34:\n        /* \"contracts/2_Intermediate/4_Library.sol\":342:346  uint */\n      0x00\n        /* \"contracts/2_Intermediate/4_Library.sol\":370:371  x */\n      dup2\n        /* \"contracts/2_Intermediate/4_Library.sol\":366:367  2 */\n      0x02\n        /* \"contracts/2_Intermediate/4_Library.sol\":366:371  2 * x */\n      tag_51\n      swap2\n      swap1\n      tag_52\n      jump\t// in\n    tag_51:\n        /* \"contracts/2_Intermediate/4_Library.sol\":358:372  return (2 * x) */\n      swap1\n      pop\n        /* \"contracts/2_Intermediate/4_Library.sol\":296:379  function solve(uint x) internal pure returns (uint) {... */\n      swap2\n      swap1\n      pop\n      jump\t// out\n        /* \"#utility.yul\":88:205   */\n    tag_54:\n        /* \"#utility.yul\":197:198   */\n      0x00\n        /* \"#utility.yul\":194:195   */\n      dup1\n        /* \"#utility.yul\":187:199   */\n      revert\n        /* \"#utility.yul\":334:411   */\n    tag_56:\n        /* \"#utility.yul\":371:378   */\n      0x00\n        /* \"#utility.yul\":400:405   */\n      dup2\n        /* \"#utility.yul\":389:405   */\n      swap1\n      pop\n        /* \"#utility.yul\":334:411   */\n      swap2\n      swap1\n      pop\n      jump\t// out\n        /* \"#utility.yul\":417:539   */\n    tag_57:\n        /* \"#utility.yul\":490:514   */\n      tag_77\n        /* \"#utility.yul\":508:513   */\n      dup2\n        /* \"#utility.yul\":490:514   */\n      tag_56\n      jump\t// in\n    tag_77:\n        /* \"#utility.yul\":483:488   */\n      dup2\n        /* \"#utility.yul\":480:515   */\n      eq\n        /* \"#utility.yul\":470:533   */\n      tag_78\n      jumpi\n        /* \"#utility.yul\":529:530   */\n      0x00\n        /* \"#utility.yul\":526:527   */\n      dup1\n        /* \"#utility.yul\":519:531   */\n      revert\n        /* \"#utility.yul\":470:533   */\n    tag_78:\n        /* \"#utility.yul\":417:539   */\n      pop\n      jump\t// out\n        /* \"#utility.yul\":545:684   */\n    tag_58:\n        /* \"#utility.yul\":591:596   */\n      0x00\n        /* \"#utility.yul\":629:635   */\n      dup2\n        /* \"#utility.yul\":616:636   */\n      calldataload\n        /* \"#utility.yul\":607:636   */\n      swap1\n      pop\n        /* \"#utility.yul\":645:678   */\n      tag_80\n        /* \"#utility.yul\":672:677   */\n      dup2\n        /* \"#utility.yul\":645:678   */\n      tag_57\n      jump\t// in\n    tag_80:\n        /* \"#utility.yul\":545:684   */\n      swap3\n      swap2\n      pop\n      pop\n      jump\t// out\n        /* \"#utility.yul\":690:1019   */\n    tag_8:\n        /* \"#utility.yul\":749:755   */\n      0x00\n        /* \"#utility.yul\":798:800   */\n      0x20\n        /* \"#utility.yul\":786:795   */\n      dup3\n        /* \"#utility.yul\":777:784   */\n      dup5\n        /* \"#utility.yul\":773:796   */\n      sub\n        /* \"#utility.yul\":769:801   */\n      slt\n        /* \"#utility.yul\":766:885   */\n      iszero\n      tag_82\n      jumpi\n        /* \"#utility.yul\":804:883   */\n      tag_83\n      tag_54\n      jump\t// in\n    tag_83:\n        /* \"#utility.yul\":766:885   */\n    tag_82:\n        /* \"#utility.yul\":924:925   */\n      0x00\n        /* \"#utility.yul\":949:1002   */\n      tag_84\n        /* \"#utility.yul\":994:1001   */\n      dup5\n        /* \"#utility.yul\":985:991   */\n      dup3\n        /* \"#utility.yul\":974:983   */\n      dup6\n        /* \"#utility.yul\":970:992   */\n      add\n        /* \"#utility.yul\":949:1002   */\n      tag_58\n      jump\t// in\n    tag_84:\n        /* \"#utility.yul\":939:1002   */\n      swap2\n      pop\n        /* \"#utility.yul\":895:1012   */\n      pop\n        /* \"#utility.yul\":690:1019   */\n      swap3\n      swap2\n      pop\n      pop\n      jump\t// out\n        /* \"#utility.yul\":1025:1143   */\n    tag_59:\n        /* \"#utility.yul\":1112:1136   */\n      tag_86\n        /* \"#utility.yul\":1130:1135   */\n      dup2\n        /* \"#utility.yul\":1112:1136   */\n      tag_56\n      jump\t// in\n    tag_86:\n        /* \"#utility.yul\":1107:1110   */\n      dup3\n        /* \"#utility.yul\":1100:1137   */\n      mstore\n        /* \"#utility.yul\":1025:1143   */\n      pop\n      pop\n      jump\t// out\n        /* \"#utility.yul\":1149:1371   */\n    tag_11:\n        /* \"#utility.yul\":1242:1246   */\n      0x00\n        /* \"#utility.yul\":1280:1282   */\n      0x20\n        /* \"#utility.yul\":1269:1278   */\n      dup3\n        /* \"#utility.yul\":1265:1283   */\n      add\n        /* \"#utility.yul\":1257:1283   */\n      swap1\n      pop\n        /* \"#utility.yul\":1293:1364   */\n      tag_88\n        /* \"#utility.yul\":1361:1362   */\n      0x00\n        /* \"#utility.yul\":1350:1359   */\n      dup4\n        /* \"#utility.yul\":1346:1363   */\n      add\n        /* \"#utility.yul\":1337:1343   */\n      dup5\n        /* \"#utility.yul\":1293:1364   */\n      tag_59\n      jump\t// in\n    tag_88:\n        /* \"#utility.yul\":1149:1371   */\n      swap3\n      swap2\n      pop\n      pop\n      jump\t// out\n        /* \"#utility.yul\":1377:1491   */\n    tag_60:\n        /* \"#utility.yul\":1444:1450   */\n      0x00\n        /* \"#utility.yul\":1478:1483   */\n      dup2\n        /* \"#utility.yul\":1472:1484   */\n      mload\n        /* \"#utility.yul\":1462:1484   */\n      swap1\n      pop\n        /* \"#utility.yul\":1377:1491   */\n      swap2\n      swap1\n      pop\n      jump\t// out\n        /* \"#utility.yul\":1497:1681   */\n    tag_61:\n        /* \"#utility.yul\":1596:1607   */\n      0x00\n        /* \"#utility.yul\":1630:1636   */\n      dup3\n        /* \"#utility.yul\":1625:1628   */\n      dup3\n        /* \"#utility.yul\":1618:1637   */\n      mstore\n        /* \"#utility.yul\":1670:1674   */\n      0x20\n        /* \"#utility.yul\":1665:1668   */\n      dup3\n        /* \"#utility.yul\":1661:1675   */\n      add\n        /* \"#utility.yul\":1646:1675   */\n      swap1\n      pop\n        /* \"#utility.yul\":1497:1681   */\n      swap3\n      swap2\n      pop\n      pop\n      jump\t// out\n        /* \"#utility.yul\":1687:1819   */\n    tag_62:\n        /* \"#utility.yul\":1754:1758   */\n      0x00\n        /* \"#utility.yul\":1777:1780   */\n      dup2\n        /* \"#utility.yul\":1769:1780   */\n      swap1\n      pop\n        /* \"#utility.yul\":1807:1811   */\n      0x20\n        /* \"#utility.yul\":1802:1805   */\n      dup3\n        /* \"#utility.yul\":1798:1812   */\n      add\n        /* \"#utility.yul\":1790:1812   */\n      swap1\n      pop\n        /* \"#utility.yul\":1687:1819   */\n      swap2\n      swap1\n      pop\n      jump\t// out\n        /* \"#utility.yul\":1825:1933   */\n    tag_63:\n        /* \"#utility.yul\":1902:1926   */\n      tag_93\n        /* \"#utility.yul\":1920:1925   */\n      dup2\n        /* \"#utility.yul\":1902:1926   */\n      tag_56\n      jump\t// in\n    tag_93:\n        /* \"#utility.yul\":1897:1900   */\n      dup3\n        /* \"#utility.yul\":1890:1927   */\n      mstore\n        /* \"#utility.yul\":1825:1933   */\n      pop\n      pop\n      jump\t// out\n        /* \"#utility.yul\":1939:2118   */\n    tag_64:\n        /* \"#utility.yul\":2008:2018   */\n      0x00\n        /* \"#utility.yul\":2029:2075   */\n      tag_95\n        /* \"#utility.yul\":2071:2074   */\n      dup4\n        /* \"#utility.yul\":2063:2069   */\n      dup4\n        /* \"#utility.yul\":2029:2075   */\n      tag_63\n      jump\t// in\n    tag_95:\n        /* \"#utility.yul\":2107:2111   */\n      0x20\n        /* \"#utility.yul\":2102:2105   */\n      dup4\n        /* \"#utility.yul\":2098:2112   */\n      add\n        /* \"#utility.yul\":2084:2112   */\n      swap1\n      pop\n        /* \"#utility.yul\":1939:2118   */\n      swap3\n      swap2\n      pop\n      pop\n      jump\t// out\n        /* \"#utility.yul\":2124:2237   */\n    tag_65:\n        /* \"#utility.yul\":2194:2198   */\n      0x00\n        /* \"#utility.yul\":2226:2230   */\n      0x20\n        /* \"#utility.yul\":2221:2224   */\n      dup3\n        /* \"#utility.yul\":2217:2231   */\n      add\n        /* \"#utility.yul\":2209:2231   */\n      swap1\n      pop\n        /* \"#utility.yul\":2124:2237   */\n      swap2\n      swap1\n      pop\n      jump\t// out\n        /* \"#utility.yul\":2273:3005   */\n    tag_66:\n        /* \"#utility.yul\":2392:2395   */\n      0x00\n        /* \"#utility.yul\":2421:2475   */\n      tag_98\n        /* \"#utility.yul\":2469:2474   */\n      dup3\n        /* \"#utility.yul\":2421:2475   */\n      tag_60\n      jump\t// in\n    tag_98:\n        /* \"#utility.yul\":2491:2577   */\n      tag_99\n        /* \"#utility.yul\":2570:2576   */\n      dup2\n        /* \"#utility.yul\":2565:2568   */\n      dup6\n        /* \"#utility.yul\":2491:2577   */\n      tag_61\n      jump\t// in\n    tag_99:\n        /* \"#utility.yul\":2484:2577   */\n      swap4\n      pop\n        /* \"#utility.yul\":2601:2657   */\n      tag_100\n        /* \"#utility.yul\":2651:2656   */\n      dup4\n        /* \"#utility.yul\":2601:2657   */\n      tag_62\n      jump\t// in\n    tag_100:\n        /* \"#utility.yul\":2680:2687   */\n      dup1\n        /* \"#utility.yul\":2711:2712   */\n      0x00\n        /* \"#utility.yul\":2696:2980   */\n    tag_101:\n        /* \"#utility.yul\":2721:2727   */\n      dup4\n        /* \"#utility.yul\":2718:2719   */\n      dup2\n        /* \"#utility.yul\":2715:2728   */\n      lt\n        /* \"#utility.yul\":2696:2980   */\n      iszero\n      tag_103\n      jumpi\n        /* \"#utility.yul\":2797:2803   */\n      dup2\n        /* \"#utility.yul\":2791:2804   */\n      mload\n        /* \"#utility.yul\":2824:2887   */\n      tag_104\n        /* \"#utility.yul\":2883:2886   */\n      dup9\n        /* \"#utility.yul\":2868:2881   */\n      dup3\n        /* \"#utility.yul\":2824:2887   */\n      tag_64\n      jump\t// in\n    tag_104:\n        /* \"#utility.yul\":2817:2887   */\n      swap8\n      pop\n        /* \"#utility.yul\":2910:2970   */\n      tag_105\n        /* \"#utility.yul\":2963:2969   */\n      dup4\n        /* \"#utility.yul\":2910:2970   */\n      tag_65\n      jump\t// in\n    tag_105:\n        /* \"#utility.yul\":2900:2970   */\n      swap3\n      pop\n        /* \"#utility.yul\":2756:2980   */\n      pop\n        /* \"#utility.yul\":2743:2744   */\n      0x01\n        /* \"#utility.yul\":2740:2741   */\n      dup2\n        /* \"#utility.yul\":2736:2745   */\n      add\n        /* \"#utility.yul\":2731:2745   */\n      swap1\n      pop\n        /* \"#utility.yul\":2696:2980   */\n      jump(tag_101)\n    tag_103:\n        /* \"#utility.yul\":2700:2714   */\n      pop\n        /* \"#utility.yul\":2996:2999   */\n      dup6\n        /* \"#utility.yul\":2989:2999   */\n      swap4\n      pop\n        /* \"#utility.yul\":2397:3005   */\n      pop\n      pop\n      pop\n        /* \"#utility.yul\":2273:3005   */\n      swap3\n      swap2\n      pop\n      pop\n      jump\t// out\n        /* \"#utility.yul\":3011:3384   */\n    tag_19:\n        /* \"#utility.yul\":3154:3158   */\n      0x00\n        /* \"#utility.yul\":3192:3194   */\n      0x20\n        /* \"#utility.yul\":3181:3190   */\n      dup3\n        /* \"#utility.yul\":3177:3195   */\n      add\n        /* \"#utility.yul\":3169:3195   */\n      swap1\n      pop\n        /* \"#utility.yul\":3241:3250   */\n      dup2\n        /* \"#utility.yul\":3235:3239   */\n      dup2\n        /* \"#utility.yul\":3231:3251   */\n      sub\n        /* \"#utility.yul\":3227:3228   */\n      0x00\n        /* \"#utility.yul\":3216:3225   */\n      dup4\n        /* \"#utility.yul\":3212:3229   */\n      add\n        /* \"#utility.yul\":3205:3252   */\n      mstore\n        /* \"#utility.yul\":3269:3377   */\n      tag_107\n        /* \"#utility.yul\":3372:3376   */\n      dup2\n        /* \"#utility.yul\":3363:3369   */\n      dup5\n        /* \"#utility.yul\":3269:3377   */\n      tag_66\n      jump\t// in\n    tag_107:\n        /* \"#utility.yul\":3261:3377   */\n      swap1\n      pop\n        /* \"#utility.yul\":3011:3384   */\n      swap3\n      swap2\n      pop\n      pop\n      jump\t// out\n        /* \"#utility.yul\":3390:3570   */\n    tag_32:\n        /* \"#utility.yul\":3438:3515   */\n      0x4e487b7100000000000000000000000000000000000000000000000000000000\n        /* \"#utility.yul\":3435:3436   */\n      0x00\n        /* \"#utility.yul\":3428:3516   */\n      mstore\n        /* \"#utility.yul\":3535:3539   */\n      0x32\n        /* \"#utility.yul\":3532:3533   */\n      0x04\n        /* \"#utility.yul\":3525:3540   */\n      mstore\n        /* \"#utility.yul\":3559:3563   */\n      0x24\n        /* \"#utility.yul\":3556:3557   */\n      0x00\n        /* \"#utility.yul\":3549:3564   */\n      revert\n        /* \"#utility.yul\":3576:3745   */\n    tag_67:\n        /* \"#utility.yul\":3660:3671   */\n      0x00\n        /* \"#utility.yul\":3694:3700   */\n      dup3\n        /* \"#utility.yul\":3689:3692   */\n      dup3\n        /* \"#utility.yul\":3682:3701   */\n      mstore\n        /* \"#utility.yul\":3734:3738   */\n      0x20\n        /* \"#utility.yul\":3729:3732   */\n      dup3\n        /* \"#utility.yul\":3725:3739   */\n      add\n        /* \"#utility.yul\":3710:3739   */\n      swap1\n      pop\n        /* \"#utility.yul\":3576:3745   */\n      swap3\n      swap2\n      pop\n      pop\n      jump\t// out\n        /* \"#utility.yul\":3751:3910   */\n    tag_68:\n        /* \"#utility.yul\":3891:3902   */\n      0x4e6f7420466f756e640000000000000000000000000000000000000000000000\n        /* \"#utility.yul\":3887:3888   */\n      0x00\n        /* \"#utility.yul\":3879:3885   */\n      dup3\n        /* \"#utility.yul\":3875:3889   */\n      add\n        /* \"#utility.yul\":3868:3903   */\n      mstore\n        /* \"#utility.yul\":3751:3910   */\n      pop\n      jump\t// out\n        /* \"#utility.yul\":3916:4281   */\n    tag_69:\n        /* \"#utility.yul\":4058:4061   */\n      0x00\n        /* \"#utility.yul\":4079:4145   */\n      tag_112\n        /* \"#utility.yul\":4143:4144   */\n      0x09\n        /* \"#utility.yul\":4138:4141   */\n      dup4\n        /* \"#utility.yul\":4079:4145   */\n      tag_67\n      jump\t// in\n    tag_112:\n        /* \"#utility.yul\":4072:4145   */\n      swap2\n      pop\n        /* \"#utility.yul\":4154:4247   */\n      tag_113\n        /* \"#utility.yul\":4243:4246   */\n      dup3\n        /* \"#utility.yul\":4154:4247   */\n      tag_68\n      jump\t// in\n    tag_113:\n        /* \"#utility.yul\":4272:4274   */\n      0x20\n        /* \"#utility.yul\":4267:4270   */\n      dup3\n        /* \"#utility.yul\":4263:4275   */\n      add\n        /* \"#utility.yul\":4256:4275   */\n      swap1\n      pop\n        /* \"#utility.yul\":3916:4281   */\n      swap2\n      swap1\n      pop\n      jump\t// out\n        /* \"#utility.yul\":4287:4706   */\n    tag_49:\n        /* \"#utility.yul\":4453:4457   */\n      0x00\n        /* \"#utility.yul\":4491:4493   */\n      0x20\n        /* \"#utility.yul\":4480:4489   */\n      dup3\n        /* \"#utility.yul\":4476:4494   */\n      add\n        /* \"#utility.yul\":4468:4494   */\n      swap1\n      pop\n        /* \"#utility.yul\":4540:4549   */\n      dup2\n        /* \"#utility.yul\":4534:4538   */\n      dup2\n        /* \"#utility.yul\":4530:4550   */\n      sub\n        /* \"#utility.yul\":4526:4527   */\n      0x00\n        /* \"#utility.yul\":4515:4524   */\n      dup4\n        /* \"#utility.yul\":4511:4528   */\n      add\n        /* \"#utility.yul\":4504:4551   */\n      mstore\n        /* \"#utility.yul\":4568:4699   */\n      tag_115\n        /* \"#utility.yul\":4694:4698   */\n      dup2\n        /* \"#utility.yul\":4568:4699   */\n      tag_69\n      jump\t// in\n    tag_115:\n        /* \"#utility.yul\":4560:4699   */\n      swap1\n      pop\n        /* \"#utility.yul\":4287:4706   */\n      swap2\n      swap1\n      pop\n      jump\t// out\n        /* \"#utility.yul\":4712:4892   */\n    tag_70:\n        /* \"#utility.yul\":4760:4837   */\n      0x4e487b7100000000000000000000000000000000000000000000000000000000\n        /* \"#utility.yul\":4757:4758   */\n      0x00\n        /* \"#utility.yul\":4750:4838   */\n      mstore\n        /* \"#utility.yul\":4857:4861   */\n      0x11\n        /* \"#utility.yul\":4854:4855   */\n      0x04\n        /* \"#utility.yul\":4847:4862   */\n      mstore\n        /* \"#utility.yul\":4881:4885   */\n      0x24\n        /* \"#utility.yul\":4878:4879   */\n      0x00\n        /* \"#utility.yul\":4871:4886   */\n      revert\n        /* \"#utility.yul\":4898:5308   */\n    tag_52:\n        /* \"#utility.yul\":4938:4945   */\n      0x00\n        /* \"#utility.yul\":4961:4981   */\n      tag_118\n        /* \"#utility.yul\":4979:4980   */\n      dup3\n        /* \"#utility.yul\":4961:4981   */\n      tag_56\n      jump\t// in\n    tag_118:\n        /* \"#utility.yul\":4956:4981   */\n      swap2\n      pop\n        /* \"#utility.yul\":4995:5015   */\n      tag_119\n        /* \"#utility.yul\":5013:5014   */\n      dup4\n        /* \"#utility.yul\":4995:5015   */\n      tag_56\n      jump\t// in\n    tag_119:\n        /* \"#utility.yul\":4990:5015   */\n      swap3\n      pop\n        /* \"#utility.yul\":5050:5051   */\n      dup3\n        /* \"#utility.yul\":5047:5048   */\n      dup3\n        /* \"#utility.yul\":5043:5052   */\n      mul\n        /* \"#utility.yul\":5072:5102   */\n      tag_120\n        /* \"#utility.yul\":5090:5101   */\n      dup2\n        /* \"#utility.yul\":5072:5102   */\n      tag_56\n      jump\t// in\n    tag_120:\n        /* \"#utility.yul\":5061:5102   */\n      swap2\n      pop\n        /* \"#utility.yul\":5251:5252   */\n      dup3\n        /* \"#utility.yul\":5242:5249   */\n      dup3\n        /* \"#utility.yul\":5238:5253   */\n      div\n        /* \"#utility.yul\":5235:5236   */\n      dup5\n        /* \"#utility.yul\":5232:5254   */\n      eq\n        /* \"#utility.yul\":5212:5213   */\n      dup4\n        /* \"#utility.yul\":5205:5214   */\n      iszero\n        /* \"#utility.yul\":5185:5268   */\n      or\n        /* \"#utility.yul\":5162:5301   */\n      tag_121\n      jumpi\n        /* \"#utility.yul\":5281:5299   */\n      tag_122\n      tag_70\n      jump\t// in\n    tag_122:\n        /* \"#utility.yul\":5162:5301   */\n    tag_121:\n        /* \"#utility.yul\":4946:5308   */\n      pop\n        /* \"#utility.yul\":4898:5308   */\n      swap3\n      swap2\n      pop\n      pop\n      jump\t// out\n\n    auxdata: 0xa2646970667358221220c8a1375de50addaab8a25e70c4380a847f1b65cc1894de19b44b4943df7b40f064736f6c634300081a0033\n}\n",
				"bytecode": {
					"linkReferences": {},
					"object": "60806040526040518060800160405280600160ff168152602001600260ff168152602001600360ff168152602001600460ff168152505f90600460429291906052565b50348015604d575f80fd5b5060b6565b828054828255905f5260205f20908101928215608e579160200282015b82811115608d578251829060ff16905591602001919060010190606f565b5b50905060999190609d565b5090565b5b8082111560b2575f815f905550600101609e565b5090565b6104fa806100c35f395ff3fe608060405234801561000f575f80fd5b506004361061003f575f3560e01c80631ae1420c1461004357806371e5ee5f14610073578063bfa814b5146100a3575b5f80fd5b61005d60048036038101906100589190610287565b6100c1565b60405161006a91906102c1565b60405180910390f35b61008d60048036038101906100889190610287565b6100dc565b60405161009a91906102c1565b60405180910390f35b6100ab6100fb565b6040516100b89190610391565b60405180910390f35b5f6100d5825f6101af90919063ffffffff16565b9050919050565b5f81815481106100ea575f80fd5b905f5260205f20015f915090505481565b60605f5b5f8054905081101561015b5761012f5f8281548110610121576101206103b1565b5b905f5260205f20015461023b565b5f8281548110610142576101416103b1565b5b905f5260205f20018190555080806001019150506100ff565b505f8054806020026020016040519081016040528092919081815260200182805480156101a557602002820191905f5260205f20905b815481526020019060010190808311610191575b5050505050905090565b5f805f90505b83805490508110156101f957828482815481106101d5576101d46103b1565b5b905f5260205f200154036101ec5780915050610235565b80806001019150506101b5565b506040517f08c379a000000000000000000000000000000000000000000000000000000000815260040161022c90610438565b60405180910390fd5b92915050565b5f8160026102499190610483565b9050919050565b5f80fd5b5f819050919050565b61026681610254565b8114610270575f80fd5b50565b5f813590506102818161025d565b92915050565b5f6020828403121561029c5761029b610250565b5b5f6102a984828501610273565b91505092915050565b6102bb81610254565b82525050565b5f6020820190506102d45f8301846102b2565b92915050565b5f81519050919050565b5f82825260208201905092915050565b5f819050602082019050919050565b61030c81610254565b82525050565b5f61031d8383610303565b60208301905092915050565b5f602082019050919050565b5f61033f826102da565b61034981856102e4565b9350610354836102f4565b805f5b8381101561038457815161036b8882610312565b975061037683610329565b925050600181019050610357565b5085935050505092915050565b5f6020820190508181035f8301526103a98184610335565b905092915050565b7f4e487b71000000000000000000000000000000000000000000000000000000005f52603260045260245ffd5b5f82825260208201905092915050565b7f4e6f7420466f756e6400000000000000000000000000000000000000000000005f82015250565b5f6104226009836103de565b915061042d826103ee565b602082019050919050565b5f6020820190508181035f83015261044f81610416565b9050919050565b7f4e487b71000000000000000000000000000000000000000000000000000000005f52601160045260245ffd5b5f61048d82610254565b915061049883610254565b92508282026104a681610254565b915082820484148315176104bd576104bc610456565b5b509291505056fea2646970667358221220c8a1375de50addaab8a25e70c4380a847f1b65cc1894de19b44b4943df7b40f064736f6c634300081a0033",
					"opcodes": "PUSH1 0x80 PUSH1 0x40 MSTORE PUSH1 0x40 MLOAD DUP1 PUSH1 0x80 ADD PUSH1 0x40 MSTORE DUP1 PUSH1 0x1 PUSH1 0xFF AND DUP2 MSTORE PUSH1 0x20 ADD PUSH1 0x2 PUSH1 0xFF AND DUP2 MSTORE PUSH1 0x20 ADD PUSH1 0x3 PUSH1 0xFF AND DUP2 MSTORE PUSH1 0x20 ADD PUSH1 0x4 PUSH1 0xFF AND DUP2 MSTORE POP PUSH0 SWAP1 PUSH1 0x4 PUSH1 0x42 SWAP3 SWAP2 SWAP1 PUSH1 0x52 JUMP JUMPDEST POP CALLVALUE DUP1 ISZERO PUSH1 0x4D JUMPI PUSH0 DUP1 REVERT JUMPDEST POP PUSH1 0xB6 JUMP JUMPDEST DUP3 DUP1 SLOAD DUP3 DUP3 SSTORE SWAP1 PUSH0 MSTORE PUSH1 0x20 PUSH0 KECCAK256 SWAP1 DUP2 ADD SWAP3 DUP3 ISZERO PUSH1 0x8E JUMPI SWAP2 PUSH1 0x20 MUL DUP3 ADD JUMPDEST DUP3 DUP2 GT ISZERO PUSH1 0x8D JUMPI DUP3 MLOAD DUP3 SWAP1 PUSH1 0xFF AND SWAP1 SSTORE SWAP2 PUSH1 0x20 ADD SWAP2 SWAP1 PUSH1 0x1 ADD SWAP1 PUSH1 0x6F JUMP JUMPDEST JUMPDEST POP SWAP1 POP PUSH1 0x99 SWAP2 SWAP1 PUSH1 0x9D JUMP JUMPDEST POP SWAP1 JUMP JUMPDEST JUMPDEST DUP1 DUP3 GT ISZERO PUSH1 0xB2 JUMPI PUSH0 DUP2 PUSH0 SWAP1 SSTORE POP PUSH1 0x1 ADD PUSH1 0x9E JUMP JUMPDEST POP SWAP1 JUMP JUMPDEST PUSH2 0x4FA DUP1 PUSH2 0xC3 PUSH0 CODECOPY PUSH0 RETURN INVALID PUSH1 0x80 PUSH1 0x40 MSTORE CALLVALUE DUP1 ISZERO PUSH2 0xF JUMPI PUSH0 DUP1 REVERT JUMPDEST POP PUSH1 0x4 CALLDATASIZE LT PUSH2 0x3F JUMPI PUSH0 CALLDATALOAD PUSH1 0xE0 SHR DUP1 PUSH4 0x1AE1420C EQ PUSH2 0x43 JUMPI DUP1 PUSH4 0x71E5EE5F EQ PUSH2 0x73 JUMPI DUP1 PUSH4 0xBFA814B5 EQ PUSH2 0xA3 JUMPI JUMPDEST PUSH0 DUP1 REVERT JUMPDEST PUSH2 0x5D PUSH1 0x4 DUP1 CALLDATASIZE SUB DUP2 ADD SWAP1 PUSH2 0x58 SWAP2 SWAP1 PUSH2 0x287 JUMP JUMPDEST PUSH2 0xC1 JUMP JUMPDEST PUSH1 0x40 MLOAD PUSH2 0x6A SWAP2 SWAP1 PUSH2 0x2C1 JUMP JUMPDEST PUSH1 0x40 MLOAD DUP1 SWAP2 SUB SWAP1 RETURN JUMPDEST PUSH2 0x8D PUSH1 0x4 DUP1 CALLDATASIZE SUB DUP2 ADD SWAP1 PUSH2 0x88 SWAP2 SWAP1 PUSH2 0x287 JUMP JUMPDEST PUSH2 0xDC JUMP JUMPDEST PUSH1 0x40 MLOAD PUSH2 0x9A SWAP2 SWAP1 PUSH2 0x2C1 JUMP JUMPDEST PUSH1 0x40 MLOAD DUP1 SWAP2 SUB SWAP1 RETURN JUMPDEST PUSH2 0xAB PUSH2 0xFB JUMP JUMPDEST PUSH1 0x40 MLOAD PUSH2 0xB8 SWAP2 SWAP1 PUSH2 0x391 JUMP JUMPDEST PUSH1 0x40 MLOAD DUP1 SWAP2 SUB SWAP1 RETURN JUMPDEST PUSH0 PUSH2 0xD5 DUP3 PUSH0 PUSH2 0x1AF SWAP1 SWAP2 SWAP1 PUSH4 0xFFFFFFFF AND JUMP JUMPDEST SWAP1 POP SWAP2 SWAP1 POP JUMP JUMPDEST PUSH0 DUP2 DUP2 SLOAD DUP2 LT PUSH2 0xEA JUMPI PUSH0 DUP1 REVERT JUMPDEST SWAP1 PUSH0 MSTORE PUSH1 0x20 PUSH0 KECCAK256 ADD PUSH0 SWAP2 POP SWAP1 POP SLOAD DUP2 JUMP JUMPDEST PUSH1 0x60 PUSH0 JUMPDEST PUSH0 DUP1 SLOAD SWAP1 POP DUP2 LT ISZERO PUSH2 0x15B JUMPI PUSH2 0x12F PUSH0 DUP3 DUP2 SLOAD DUP2 LT PUSH2 0x121 JUMPI PUSH2 0x120 PUSH2 0x3B1 JUMP JUMPDEST JUMPDEST SWAP1 PUSH0 MSTORE PUSH1 0x20 PUSH0 KECCAK256 ADD SLOAD PUSH2 0x23B JUMP JUMPDEST PUSH0 DUP3 DUP2 SLOAD DUP2 LT PUSH2 0x142 JUMPI PUSH2 0x141 PUSH2 0x3B1 JUMP JUMPDEST JUMPDEST SWAP1 PUSH0 MSTORE PUSH1 0x20 PUSH0 KECCAK256 ADD DUP2 SWAP1 SSTORE POP DUP1 DUP1 PUSH1 0x1 ADD SWAP2 POP POP PUSH2 0xFF JUMP JUMPDEST POP PUSH0 DUP1 SLOAD DUP1 PUSH1 0x20 MUL PUSH1 0x20 ADD PUSH1 0x40 MLOAD SWAP1 DUP2 ADD PUSH1 0x40 MSTORE DUP1 SWAP3 SWAP2 SWAP1 DUP2 DUP2 MSTORE PUSH1 0x20 ADD DUP3 DUP1 SLOAD DUP1 ISZERO PUSH2 0x1A5 JUMPI PUSH1 0x20 MUL DUP3 ADD SWAP2 SWAP1 PUSH0 MSTORE PUSH1 0x20 PUSH0 KECCAK256 SWAP1 JUMPDEST DUP2 SLOAD DUP2 MSTORE PUSH1 0x20 ADD SWAP1 PUSH1 0x1 ADD SWAP1 DUP1 DUP4 GT PUSH2 0x191 JUMPI JUMPDEST POP POP POP POP POP SWAP1 POP SWAP1 JUMP JUMPDEST PUSH0 DUP1 PUSH0 SWAP1 POP JUMPDEST DUP4 DUP1 SLOAD SWAP1 POP DUP2 LT ISZERO PUSH2 0x1F9 JUMPI DUP3 DUP5 DUP3 DUP2 SLOAD DUP2 LT PUSH2 0x1D5 JUMPI PUSH2 0x1D4 PUSH2 0x3B1 JUMP JUMPDEST JUMPDEST SWAP1 PUSH0 MSTORE PUSH1 0x20 PUSH0 KECCAK256 ADD SLOAD SUB PUSH2 0x1EC JUMPI DUP1 SWAP2 POP POP PUSH2 0x235 JUMP JUMPDEST DUP1 DUP1 PUSH1 0x1 ADD SWAP2 POP POP PUSH2 0x1B5 JUMP JUMPDEST POP PUSH1 0x40 MLOAD PUSH32 0x8C379A000000000000000000000000000000000000000000000000000000000 DUP2 MSTORE PUSH1 0x4 ADD PUSH2 0x22C SWAP1 PUSH2 0x438 JUMP JUMPDEST PUSH1 0x40 MLOAD DUP1 SWAP2 SUB SWAP1 REVERT JUMPDEST SWAP3 SWAP2 POP POP JUMP JUMPDEST PUSH0 DUP2 PUSH1 0x2 PUSH2 0x249 SWAP2 SWAP1 PUSH2 0x483 JUMP JUMPDEST SWAP1 POP SWAP2 SWAP1 POP JUMP JUMPDEST PUSH0 DUP1 REVERT JUMPDEST PUSH0 DUP2 SWAP1 POP SWAP2 SWAP1 POP JUMP JUMPDEST PUSH2 0x266 DUP2 PUSH2 0x254 JUMP JUMPDEST DUP2 EQ PUSH2 0x270 JUMPI PUSH0 DUP1 REVERT JUMPDEST POP JUMP JUMPDEST PUSH0 DUP2 CALLDATALOAD SWAP1 POP PUSH2 0x281 DUP2 PUSH2 0x25D JUMP JUMPDEST SWAP3 SWAP2 POP POP JUMP JUMPDEST PUSH0 PUSH1 0x20 DUP3 DUP5 SUB SLT ISZERO PUSH2 0x29C JUMPI PUSH2 0x29B PUSH2 0x250 JUMP JUMPDEST JUMPDEST PUSH0 PUSH2 0x2A9 DUP5 DUP3 DUP6 ADD PUSH2 0x273 JUMP JUMPDEST SWAP2 POP POP SWAP3 SWAP2 POP POP JUMP JUMPDEST PUSH2 0x2BB DUP2 PUSH2 0x254 JUMP JUMPDEST DUP3 MSTORE POP POP JUMP JUMPDEST PUSH0 PUSH1 0x20 DUP3 ADD SWAP1 POP PUSH2 0x2D4 PUSH0 DUP4 ADD DUP5 PUSH2 0x2B2 JUMP JUMPDEST SWAP3 SWAP2 POP POP JUMP JUMPDEST PUSH0 DUP2 MLOAD SWAP1 POP SWAP2 SWAP1 POP JUMP JUMPDEST PUSH0 DUP3 DUP3 MSTORE PUSH1 0x20 DUP3 ADD SWAP1 POP SWAP3 SWAP2 POP POP JUMP JUMPDEST PUSH0 DUP2 SWAP1 POP PUSH1 0x20 DUP3 ADD SWAP1 POP SWAP2 SWAP1 POP JUMP JUMPDEST PUSH2 0x30C DUP2 PUSH2 0x254 JUMP JUMPDEST DUP3 MSTORE POP POP JUMP JUMPDEST PUSH0 PUSH2 0x31D DUP4 DUP4 PUSH2 0x303 JUMP JUMPDEST PUSH1 0x20 DUP4 ADD SWAP1 POP SWAP3 SWAP2 POP POP JUMP JUMPDEST PUSH0 PUSH1 0x20 DUP3 ADD SWAP1 POP SWAP2 SWAP1 POP JUMP JUMPDEST PUSH0 PUSH2 0x33F DUP3 PUSH2 0x2DA JUMP JUMPDEST PUSH2 0x349 DUP2 DUP6 PUSH2 0x2E4 JUMP JUMPDEST SWAP4 POP PUSH2 0x354 DUP4 PUSH2 0x2F4 JUMP JUMPDEST DUP1 PUSH0 JUMPDEST DUP4 DUP2 LT ISZERO PUSH2 0x384 JUMPI DUP2 MLOAD PUSH2 0x36B DUP9 DUP3 PUSH2 0x312 JUMP JUMPDEST SWAP8 POP PUSH2 0x376 DUP4 PUSH2 0x329 JUMP JUMPDEST SWAP3 POP POP PUSH1 0x1 DUP2 ADD SWAP1 POP PUSH2 0x357 JUMP JUMPDEST POP DUP6 SWAP4 POP POP POP POP SWAP3 SWAP2 POP POP JUMP JUMPDEST PUSH0 PUSH1 0x20 DUP3 ADD SWAP1 POP DUP2 DUP2 SUB PUSH0 DUP4 ADD MSTORE PUSH2 0x3A9 DUP2 DUP5 PUSH2 0x335 JUMP JUMPDEST SWAP1 POP SWAP3 SWAP2 POP POP JUMP JUMPDEST PUSH32 0x4E487B7100000000000000000000000000000000000000000000000000000000 PUSH0 MSTORE PUSH1 0x32 PUSH1 0x4 MSTORE PUSH1 0x24 PUSH0 REVERT JUMPDEST PUSH0 DUP3 DUP3 MSTORE PUSH1 0x20 DUP3 ADD SWAP1 POP SWAP3 SWAP2 POP POP JUMP JUMPDEST PUSH32 0x4E6F7420466F756E640000000000000000000000000000000000000000000000 PUSH0 DUP3 ADD MSTORE POP JUMP JUMPDEST PUSH0 PUSH2 0x422 PUSH1 0x9 DUP4 PUSH2 0x3DE JUMP JUMPDEST SWAP2 POP PUSH2 0x42D DUP3 PUSH2 0x3EE JUMP JUMPDEST PUSH1 0x20 DUP3 ADD SWAP1 POP SWAP2 SWAP1 POP JUMP JUMPDEST PUSH0 PUSH1 0x20 DUP3 ADD SWAP1 POP DUP2 DUP2 SUB PUSH0 DUP4 ADD MSTORE PUSH2 0x44F DUP2 PUSH2 0x416 JUMP JUMPDEST SWAP1 POP SWAP2 SWAP1 POP JUMP JUMPDEST PUSH32 0x4E487B7100000000000000000000000000000000000000000000000000000000 PUSH0 MSTORE PUSH1 0x11 PUSH1 0x4 MSTORE PUSH1 0x24 PUSH0 REVERT JUMPDEST PUSH0 PUSH2 0x48D DUP3 PUSH2 0x254 JUMP JUMPDEST SWAP2 POP PUSH2 0x498 DUP4 PUSH2 0x254 JUMP JUMPDEST SWAP3 POP DUP3 DUP3 MUL PUSH2 0x4A6 DUP2 PUSH2 0x254 JUMP JUMPDEST SWAP2 POP DUP3 DUP3 DIV DUP5 EQ DUP4 ISZERO OR PUSH2 0x4BD JUMPI PUSH2 0x4BC PUSH2 0x456 JUMP JUMPDEST JUMPDEST POP SWAP3 SWAP2 POP POP JUMP INVALID LOG2 PUSH5 0x6970667358 0x22 SLT KECCAK256 0xC8 LOG1 CALLDATACOPY TSTORE 0xE5 EXP 0xDD 0xAA 0xB8 LOG2 MCOPY PUSH17 0xC4380A847F1B65CC1894DE19B44B4943DF PUSH28 0x40F064736F6C634300081A0033000000000000000000000000000000 "
				},
				"gasEstimates": {
					"creation": {
						"codeDepositCost": "254800",
						"executionCost": "infinite",
						"totalCost": "infinite"
					},
					"external": {
						"arr(uint256)": "infinite",
						"func()": "infinite",
						"testFind(uint256)": "infinite"
					}
				},
				"methodIdentifiers": {
					"arr(uint256)": "71e5ee5f",
					"func()": "bfa814b5",
					"testFind(uint256)": "1ae1420c"
				}
			},
			"storageLayout": {
				"storage": [
					{
						"astId": 63,
						"contract": "contracts/2_Intermediate/4_Library.sol:TestArray",
						"label": "arr",
						"offset": 0,
						"slot": "0",
						"type": "t_array(t_uint256)dyn_storage"
					}
				],
				"types": {
					"t_array(t_uint256)dyn_storage": {
						"base": "t_uint256",
						"encoding": "dynamic_array",
						"label": "uint256[]",
						"numberOfBytes": "32"
					},
					"t_uint256": {
						"encoding": "inplace",
						"label": "uint256",
						"numberOfBytes": "32"
					}
				}
			},
			"userdoc": {
				"kind": "user",
				"methods": {},
				"version": 1
			}
		}
	}
}