{
	"contracts/2_Intermediate/3_New.sol": {
		"AccountFactory": {
			"abi": [
				{
					"anonymous": false,
					"inputs": [
						{
							"indexed": false,
							"internalType": "address",
							"name": "accountAddress",
							"type": "address"
						},
						{
							"indexed": false,
							"internalType": "address",
							"name": "owner",
							"type": "address"
						},
						{
							"indexed": false,
							"internalType": "uint256",
							"name": "value",
							"type": "uint256"
						}
					],
					"name": "AccountCreated",
					"type": "event"
				},
				{
					"inputs": [
						{
							"internalType": "uint256",
							"name": "",
							"type": "uint256"
						}
					],
					"name": "accounts",
					"outputs": [
						{
							"internalType": "contract Account",
							"name": "",
							"type": "address"
						}
					],
					"stateMutability": "view",
					"type": "function"
				},
				{
					"inputs": [
						{
							"internalType": "address",
							"name": "_owner",
							"type": "address"
						}
					],
					"name": "createAccount",
					"outputs": [],
					"stateMutability": "payable",
					"type": "function"
				},
				{
					"inputs": [],
					"name": "getAccounts",
					"outputs": [
						{
							"internalType": "contract Account[]",
							"name": "",
							"type": "address[]"
						}
					],
					"stateMutability": "view",
					"type": "function"
				}
			],
			"devdoc": {
				"kind": "dev",
				"methods": {},
				"version": 1
			},
			"evm": {
				"assembly": "    /* \"contracts/2_Intermediate/3_New.sol\":327:847  contract AccountFactory {... */\n  mstore(0x40, 0x80)\n  callvalue\n  dup1\n  iszero\n  tag_1\n  jumpi\n  0x00\n  dup1\n  revert\ntag_1:\n  pop\n  dataSize(sub_0)\n  dup1\n  dataOffset(sub_0)\n  0x00\n  codecopy\n  0x00\n  return\nstop\n\nsub_0: assembly {\n        /* \"contracts/2_Intermediate/3_New.sol\":327:847  contract AccountFactory {... */\n      mstore(0x40, 0x80)\n      jumpi(tag_1, lt(calldatasize, 0x04))\n      shr(0xe0, calldataload(0x00))\n      dup1\n      0x8a48ac03\n      eq\n      tag_2\n      jumpi\n      dup1\n      0x9859387b\n      eq\n      tag_3\n      jumpi\n      dup1\n      0xf2a40db8\n      eq\n      tag_4\n      jumpi\n    tag_1:\n      0x00\n      dup1\n      revert\n        /* \"contracts/2_Intermediate/3_New.sol\":749:845  function getAccounts() external view returns (Account[] memory) {... */\n    tag_2:\n      callvalue\n      dup1\n      iszero\n      tag_5\n      jumpi\n      0x00\n      dup1\n      revert\n    tag_5:\n      pop\n      tag_6\n      tag_7\n      jump\t// in\n    tag_6:\n      mload(0x40)\n      tag_8\n      swap2\n      swap1\n      tag_9\n      jump\t// in\n    tag_8:\n      mload(0x40)\n      dup1\n      swap2\n      sub\n      swap1\n      return\n        /* \"contracts/2_Intermediate/3_New.sol\":467:743  function createAccount(address _owner) external payable {... */\n    tag_3:\n      tag_10\n      0x04\n      dup1\n      calldatasize\n      sub\n      dup2\n      add\n      swap1\n      tag_11\n      swap2\n      swap1\n      tag_12\n      jump\t// in\n    tag_11:\n      tag_13\n      jump\t// in\n    tag_10:\n      stop\n        /* \"contracts/2_Intermediate/3_New.sol\":357:382  Account[] public accounts */\n    tag_4:\n      callvalue\n      dup1\n      iszero\n      tag_14\n      jumpi\n      0x00\n      dup1\n      revert\n    tag_14:\n      pop\n      tag_15\n      0x04\n      dup1\n      calldatasize\n      sub\n      dup2\n      add\n      swap1\n      tag_16\n      swap2\n      swap1\n      tag_17\n      jump\t// in\n    tag_16:\n      tag_18\n      jump\t// in\n    tag_15:\n      mload(0x40)\n      tag_19\n      swap2\n      swap1\n      tag_20\n      jump\t// in\n    tag_19:\n      mload(0x40)\n      dup1\n      swap2\n      sub\n      swap1\n      return\n        /* \"contracts/2_Intermediate/3_New.sol\":749:845  function getAccounts() external view returns (Account[] memory) {... */\n    tag_7:\n        /* \"contracts/2_Intermediate/3_New.sol\":795:811  Account[] memory */\n      0x60\n        /* \"contracts/2_Intermediate/3_New.sol\":830:838  accounts */\n      0x00\n        /* \"contracts/2_Intermediate/3_New.sol\":823:838  return accounts */\n      dup1\n      sload\n      dup1\n      0x20\n      mul\n      0x20\n      add\n      mload(0x40)\n      swap1\n      dup2\n      add\n      0x40\n      mstore\n      dup1\n      swap3\n      swap2\n      swap1\n      dup2\n      dup2\n      mstore\n      0x20\n      add\n      dup3\n      dup1\n      sload\n      dup1\n      iszero\n      tag_22\n      jumpi\n      0x20\n      mul\n      dup3\n      add\n      swap2\n      swap1\n      0x00\n      mstore\n      keccak256(0x00, 0x20)\n      swap1\n    tag_23:\n      dup2\n      0x00\n      swap1\n      sload\n      swap1\n      0x0100\n      exp\n      swap1\n      div\n      0xffffffffffffffffffffffffffffffffffffffff\n      and\n      0xffffffffffffffffffffffffffffffffffffffff\n      and\n      dup2\n      mstore\n      0x20\n      add\n      swap1\n      0x01\n      add\n      swap1\n      dup1\n      dup4\n      gt\n      tag_23\n      jumpi\n    tag_22:\n      pop\n      pop\n      pop\n      pop\n      pop\n      swap1\n      pop\n        /* \"contracts/2_Intermediate/3_New.sol\":749:845  function getAccounts() external view returns (Account[] memory) {... */\n      swap1\n      jump\t// out\n        /* \"contracts/2_Intermediate/3_New.sol\":467:743  function createAccount(address _owner) external payable {... */\n    tag_13:\n        /* \"contracts/2_Intermediate/3_New.sol\":554:557  100 */\n      0x64\n        /* \"contracts/2_Intermediate/3_New.sol\":541:550  msg.value */\n      callvalue\n        /* \"contracts/2_Intermediate/3_New.sol\":541:557  msg.value >= 100 */\n      lt\n      iszero\n        /* \"contracts/2_Intermediate/3_New.sol\":533:585  require(msg.value >= 100, \"Insufficient funds sent\") */\n      tag_25\n      jumpi\n      mload(0x40)\n      0x08c379a000000000000000000000000000000000000000000000000000000000\n      dup2\n      mstore\n      0x04\n      add\n      tag_26\n      swap1\n      tag_27\n      jump\t// in\n    tag_26:\n      mload(0x40)\n      dup1\n      swap2\n      sub\n      swap1\n      revert\n    tag_25:\n        /* \"contracts/2_Intermediate/3_New.sol\":595:606  Account acc */\n      0x00\n        /* \"contracts/2_Intermediate/3_New.sol\":628:637  msg.value */\n      callvalue\n        /* \"contracts/2_Intermediate/3_New.sol\":639:645  _owner */\n      dup3\n        /* \"contracts/2_Intermediate/3_New.sol\":609:646  new Account{value: msg.value}(_owner) */\n      mload(0x40)\n      tag_28\n      swap1\n      tag_29\n      jump\t// in\n    tag_28:\n      tag_30\n      swap2\n      swap1\n      tag_31\n      jump\t// in\n    tag_30:\n      mload(0x40)\n      dup1\n      swap2\n      sub\n      swap1\n      dup3\n      create\n      swap1\n      pop\n      dup1\n      iszero\n      dup1\n      iszero\n      tag_32\n      jumpi\n      returndatasize\n      0x00\n      dup1\n      returndatacopy\n      revert(0x00, returndatasize)\n    tag_32:\n      pop\n        /* \"contracts/2_Intermediate/3_New.sol\":595:646  Account acc = new Account{value: msg.value}(_owner) */\n      swap1\n      pop\n        /* \"contracts/2_Intermediate/3_New.sol\":656:664  accounts */\n      0x00\n        /* \"contracts/2_Intermediate/3_New.sol\":670:673  acc */\n      dup2\n        /* \"contracts/2_Intermediate/3_New.sol\":656:674  accounts.push(acc) */\n      swap1\n      dup1\n      0x01\n      dup2\n      sload\n      add\n      dup1\n      dup3\n      sstore\n      dup1\n      swap2\n      pop\n      pop\n      0x01\n      swap1\n      sub\n      swap1\n      0x00\n      mstore\n      keccak256(0x00, 0x20)\n      add\n      0x00\n      swap1\n      swap2\n      swap1\n      swap2\n      swap1\n      swap2\n      0x0100\n      exp\n      dup2\n      sload\n      dup2\n      0xffffffffffffffffffffffffffffffffffffffff\n      mul\n      not\n      and\n      swap1\n      dup4\n      0xffffffffffffffffffffffffffffffffffffffff\n      and\n      mul\n      or\n      swap1\n      sstore\n      pop\n        /* \"contracts/2_Intermediate/3_New.sol\":689:736  AccountCreated(address(acc), _owner, msg.value) */\n      0x33310a89c32d8cc00057ad6ef6274d2f8fe22389a992cf89983e09fc84f6cfff\n        /* \"contracts/2_Intermediate/3_New.sol\":712:715  acc */\n      dup2\n        /* \"contracts/2_Intermediate/3_New.sol\":718:724  _owner */\n      dup4\n        /* \"contracts/2_Intermediate/3_New.sol\":726:735  msg.value */\n      callvalue\n        /* \"contracts/2_Intermediate/3_New.sol\":689:736  AccountCreated(address(acc), _owner, msg.value) */\n      mload(0x40)\n      tag_34\n      swap4\n      swap3\n      swap2\n      swap1\n      tag_35\n      jump\t// in\n    tag_34:\n      mload(0x40)\n      dup1\n      swap2\n      sub\n      swap1\n      log1\n        /* \"contracts/2_Intermediate/3_New.sol\":523:743  {... */\n      pop\n        /* \"contracts/2_Intermediate/3_New.sol\":467:743  function createAccount(address _owner) external payable {... */\n      pop\n      jump\t// out\n        /* \"contracts/2_Intermediate/3_New.sol\":357:382  Account[] public accounts */\n    tag_18:\n      0x00\n      dup2\n      dup2\n      sload\n      dup2\n      lt\n      tag_36\n      jumpi\n      0x00\n      dup1\n      revert\n    tag_36:\n      swap1\n      0x00\n      mstore\n      keccak256(0x00, 0x20)\n      add\n      0x00\n      swap2\n      pop\n      sload\n      swap1\n      0x0100\n      exp\n      swap1\n      div\n      0xffffffffffffffffffffffffffffffffffffffff\n      and\n      dup2\n      jump\t// out\n    tag_29:\n      dataSize(sub_0)\n      dup1\n      dataOffset(sub_0)\n      dup4\n      codecopy\n      add\n      swap1\n      jump\t// out\n        /* \"#utility.yul\":7:135   */\n    tag_38:\n        /* \"#utility.yul\":88:94   */\n      0x00\n        /* \"#utility.yul\":122:127   */\n      dup2\n        /* \"#utility.yul\":116:128   */\n      mload\n        /* \"#utility.yul\":106:128   */\n      swap1\n      pop\n        /* \"#utility.yul\":7:135   */\n      swap2\n      swap1\n      pop\n      jump\t// out\n        /* \"#utility.yul\":141:325   */\n    tag_39:\n        /* \"#utility.yul\":240:251   */\n      0x00\n        /* \"#utility.yul\":274:280   */\n      dup3\n        /* \"#utility.yul\":269:272   */\n      dup3\n        /* \"#utility.yul\":262:281   */\n      mstore\n        /* \"#utility.yul\":314:318   */\n      0x20\n        /* \"#utility.yul\":309:312   */\n      dup3\n        /* \"#utility.yul\":305:319   */\n      add\n        /* \"#utility.yul\":290:319   */\n      swap1\n      pop\n        /* \"#utility.yul\":141:325   */\n      swap3\n      swap2\n      pop\n      pop\n      jump\t// out\n        /* \"#utility.yul\":331:477   */\n    tag_40:\n        /* \"#utility.yul\":412:416   */\n      0x00\n        /* \"#utility.yul\":435:438   */\n      dup2\n        /* \"#utility.yul\":427:438   */\n      swap1\n      pop\n        /* \"#utility.yul\":465:469   */\n      0x20\n        /* \"#utility.yul\":460:463   */\n      dup3\n        /* \"#utility.yul\":456:470   */\n      add\n        /* \"#utility.yul\":448:470   */\n      swap1\n      pop\n        /* \"#utility.yul\":331:477   */\n      swap2\n      swap1\n      pop\n      jump\t// out\n        /* \"#utility.yul\":483:609   */\n    tag_41:\n        /* \"#utility.yul\":520:527   */\n      0x00\n        /* \"#utility.yul\":560:602   */\n      0xffffffffffffffffffffffffffffffffffffffff\n        /* \"#utility.yul\":553:558   */\n      dup3\n        /* \"#utility.yul\":549:603   */\n      and\n        /* \"#utility.yul\":538:603   */\n      swap1\n      pop\n        /* \"#utility.yul\":483:609   */\n      swap2\n      swap1\n      pop\n      jump\t// out\n        /* \"#utility.yul\":615:675   */\n    tag_42:\n        /* \"#utility.yul\":643:646   */\n      0x00\n        /* \"#utility.yul\":664:669   */\n      dup2\n        /* \"#utility.yul\":657:669   */\n      swap1\n      pop\n        /* \"#utility.yul\":615:675   */\n      swap2\n      swap1\n      pop\n      jump\t// out\n        /* \"#utility.yul\":681:823   */\n    tag_43:\n        /* \"#utility.yul\":731:740   */\n      0x00\n        /* \"#utility.yul\":764:817   */\n      tag_72\n        /* \"#utility.yul\":782:816   */\n      tag_73\n        /* \"#utility.yul\":791:815   */\n      tag_74\n        /* \"#utility.yul\":809:814   */\n      dup5\n        /* \"#utility.yul\":791:815   */\n      tag_41\n      jump\t// in\n    tag_74:\n        /* \"#utility.yul\":782:816   */\n      tag_42\n      jump\t// in\n    tag_73:\n        /* \"#utility.yul\":764:817   */\n      tag_41\n      jump\t// in\n    tag_72:\n        /* \"#utility.yul\":751:817   */\n      swap1\n      pop\n        /* \"#utility.yul\":681:823   */\n      swap2\n      swap1\n      pop\n      jump\t// out\n        /* \"#utility.yul\":829:955   */\n    tag_44:\n        /* \"#utility.yul\":879:888   */\n      0x00\n        /* \"#utility.yul\":912:949   */\n      tag_76\n        /* \"#utility.yul\":943:948   */\n      dup3\n        /* \"#utility.yul\":912:949   */\n      tag_43\n      jump\t// in\n    tag_76:\n        /* \"#utility.yul\":899:949   */\n      swap1\n      pop\n        /* \"#utility.yul\":829:955   */\n      swap2\n      swap1\n      pop\n      jump\t// out\n        /* \"#utility.yul\":961:1101   */\n    tag_45:\n        /* \"#utility.yul\":1025:1034   */\n      0x00\n        /* \"#utility.yul\":1058:1095   */\n      tag_78\n        /* \"#utility.yul\":1089:1094   */\n      dup3\n        /* \"#utility.yul\":1058:1095   */\n      tag_44\n      jump\t// in\n    tag_78:\n        /* \"#utility.yul\":1045:1095   */\n      swap1\n      pop\n        /* \"#utility.yul\":961:1101   */\n      swap2\n      swap1\n      pop\n      jump\t// out\n        /* \"#utility.yul\":1107:1256   */\n    tag_46:\n        /* \"#utility.yul\":1198:1249   */\n      tag_80\n        /* \"#utility.yul\":1243:1248   */\n      dup2\n        /* \"#utility.yul\":1198:1249   */\n      tag_45\n      jump\t// in\n    tag_80:\n        /* \"#utility.yul\":1193:1196   */\n      dup3\n        /* \"#utility.yul\":1186:1250   */\n      mstore\n        /* \"#utility.yul\":1107:1256   */\n      pop\n      pop\n      jump\t// out\n        /* \"#utility.yul\":1262:1469   */\n    tag_47:\n        /* \"#utility.yul\":1345:1355   */\n      0x00\n        /* \"#utility.yul\":1366:1426   */\n      tag_82\n        /* \"#utility.yul\":1422:1425   */\n      dup4\n        /* \"#utility.yul\":1414:1420   */\n      dup4\n        /* \"#utility.yul\":1366:1426   */\n      tag_46\n      jump\t// in\n    tag_82:\n        /* \"#utility.yul\":1458:1462   */\n      0x20\n        /* \"#utility.yul\":1453:1456   */\n      dup4\n        /* \"#utility.yul\":1449:1463   */\n      add\n        /* \"#utility.yul\":1435:1463   */\n      swap1\n      pop\n        /* \"#utility.yul\":1262:1469   */\n      swap3\n      swap2\n      pop\n      pop\n      jump\t// out\n        /* \"#utility.yul\":1475:1602   */\n    tag_48:\n        /* \"#utility.yul\":1559:1563   */\n      0x00\n        /* \"#utility.yul\":1591:1595   */\n      0x20\n        /* \"#utility.yul\":1586:1589   */\n      dup3\n        /* \"#utility.yul\":1582:1596   */\n      add\n        /* \"#utility.yul\":1574:1596   */\n      swap1\n      pop\n        /* \"#utility.yul\":1475:1602   */\n      swap2\n      swap1\n      pop\n      jump\t// out\n        /* \"#utility.yul\":1647:2449   */\n    tag_49:\n        /* \"#utility.yul\":1780:1783   */\n      0x00\n        /* \"#utility.yul\":1809:1877   */\n      tag_85\n        /* \"#utility.yul\":1871:1876   */\n      dup3\n        /* \"#utility.yul\":1809:1877   */\n      tag_38\n      jump\t// in\n    tag_85:\n        /* \"#utility.yul\":1893:1979   */\n      tag_86\n        /* \"#utility.yul\":1972:1978   */\n      dup2\n        /* \"#utility.yul\":1967:1970   */\n      dup6\n        /* \"#utility.yul\":1893:1979   */\n      tag_39\n      jump\t// in\n    tag_86:\n        /* \"#utility.yul\":1886:1979   */\n      swap4\n      pop\n        /* \"#utility.yul\":2003:2073   */\n      tag_87\n        /* \"#utility.yul\":2067:2072   */\n      dup4\n        /* \"#utility.yul\":2003:2073   */\n      tag_40\n      jump\t// in\n    tag_87:\n        /* \"#utility.yul\":2096:2103   */\n      dup1\n        /* \"#utility.yul\":2127:2128   */\n      0x00\n        /* \"#utility.yul\":2112:2424   */\n    tag_88:\n        /* \"#utility.yul\":2137:2143   */\n      dup4\n        /* \"#utility.yul\":2134:2135   */\n      dup2\n        /* \"#utility.yul\":2131:2144   */\n      lt\n        /* \"#utility.yul\":2112:2424   */\n      iszero\n      tag_90\n      jumpi\n        /* \"#utility.yul\":2213:2219   */\n      dup2\n        /* \"#utility.yul\":2207:2220   */\n      mload\n        /* \"#utility.yul\":2240:2317   */\n      tag_91\n        /* \"#utility.yul\":2313:2316   */\n      dup9\n        /* \"#utility.yul\":2298:2311   */\n      dup3\n        /* \"#utility.yul\":2240:2317   */\n      tag_47\n      jump\t// in\n    tag_91:\n        /* \"#utility.yul\":2233:2317   */\n      swap8\n      pop\n        /* \"#utility.yul\":2340:2414   */\n      tag_92\n        /* \"#utility.yul\":2407:2413   */\n      dup4\n        /* \"#utility.yul\":2340:2414   */\n      tag_48\n      jump\t// in\n    tag_92:\n        /* \"#utility.yul\":2330:2414   */\n      swap3\n      pop\n        /* \"#utility.yul\":2172:2424   */\n      pop\n        /* \"#utility.yul\":2159:2160   */\n      0x01\n        /* \"#utility.yul\":2156:2157   */\n      dup2\n        /* \"#utility.yul\":2152:2161   */\n      add\n        /* \"#utility.yul\":2147:2161   */\n      swap1\n      pop\n        /* \"#utility.yul\":2112:2424   */\n      jump(tag_88)\n    tag_90:\n        /* \"#utility.yul\":2116:2130   */\n      pop\n        /* \"#utility.yul\":2440:2443   */\n      dup6\n        /* \"#utility.yul\":2433:2443   */\n      swap4\n      pop\n        /* \"#utility.yul\":1785:2449   */\n      pop\n      pop\n      pop\n        /* \"#utility.yul\":1647:2449   */\n      swap3\n      swap2\n      pop\n      pop\n      jump\t// out\n        /* \"#utility.yul\":2455:2856   */\n    tag_9:\n        /* \"#utility.yul\":2612:2616   */\n      0x00\n        /* \"#utility.yul\":2650:2652   */\n      0x20\n        /* \"#utility.yul\":2639:2648   */\n      dup3\n        /* \"#utility.yul\":2635:2653   */\n      add\n        /* \"#utility.yul\":2627:2653   */\n      swap1\n      pop\n        /* \"#utility.yul\":2699:2708   */\n      dup2\n        /* \"#utility.yul\":2693:2697   */\n      dup2\n        /* \"#utility.yul\":2689:2709   */\n      sub\n        /* \"#utility.yul\":2685:2686   */\n      0x00\n        /* \"#utility.yul\":2674:2683   */\n      dup4\n        /* \"#utility.yul\":2670:2687   */\n      add\n        /* \"#utility.yul\":2663:2710   */\n      mstore\n        /* \"#utility.yul\":2727:2849   */\n      tag_94\n        /* \"#utility.yul\":2844:2848   */\n      dup2\n        /* \"#utility.yul\":2835:2841   */\n      dup5\n        /* \"#utility.yul\":2727:2849   */\n      tag_49\n      jump\t// in\n    tag_94:\n        /* \"#utility.yul\":2719:2849   */\n      swap1\n      pop\n        /* \"#utility.yul\":2455:2856   */\n      swap3\n      swap2\n      pop\n      pop\n      jump\t// out\n        /* \"#utility.yul\":2943:3060   */\n    tag_51:\n        /* \"#utility.yul\":3052:3053   */\n      0x00\n        /* \"#utility.yul\":3049:3050   */\n      dup1\n        /* \"#utility.yul\":3042:3054   */\n      revert\n        /* \"#utility.yul\":3189:3285   */\n    tag_53:\n        /* \"#utility.yul\":3226:3233   */\n      0x00\n        /* \"#utility.yul\":3255:3279   */\n      tag_99\n        /* \"#utility.yul\":3273:3278   */\n      dup3\n        /* \"#utility.yul\":3255:3279   */\n      tag_41\n      jump\t// in\n    tag_99:\n        /* \"#utility.yul\":3244:3279   */\n      swap1\n      pop\n        /* \"#utility.yul\":3189:3285   */\n      swap2\n      swap1\n      pop\n      jump\t// out\n        /* \"#utility.yul\":3291:3413   */\n    tag_54:\n        /* \"#utility.yul\":3364:3388   */\n      tag_101\n        /* \"#utility.yul\":3382:3387   */\n      dup2\n        /* \"#utility.yul\":3364:3388   */\n      tag_53\n      jump\t// in\n    tag_101:\n        /* \"#utility.yul\":3357:3362   */\n      dup2\n        /* \"#utility.yul\":3354:3389   */\n      eq\n        /* \"#utility.yul\":3344:3407   */\n      tag_102\n      jumpi\n        /* \"#utility.yul\":3403:3404   */\n      0x00\n        /* \"#utility.yul\":3400:3401   */\n      dup1\n        /* \"#utility.yul\":3393:3405   */\n      revert\n        /* \"#utility.yul\":3344:3407   */\n    tag_102:\n        /* \"#utility.yul\":3291:3413   */\n      pop\n      jump\t// out\n        /* \"#utility.yul\":3419:3558   */\n    tag_55:\n        /* \"#utility.yul\":3465:3470   */\n      0x00\n        /* \"#utility.yul\":3503:3509   */\n      dup2\n        /* \"#utility.yul\":3490:3510   */\n      calldataload\n        /* \"#utility.yul\":3481:3510   */\n      swap1\n      pop\n        /* \"#utility.yul\":3519:3552   */\n      tag_104\n        /* \"#utility.yul\":3546:3551   */\n      dup2\n        /* \"#utility.yul\":3519:3552   */\n      tag_54\n      jump\t// in\n    tag_104:\n        /* \"#utility.yul\":3419:3558   */\n      swap3\n      swap2\n      pop\n      pop\n      jump\t// out\n        /* \"#utility.yul\":3564:3893   */\n    tag_12:\n        /* \"#utility.yul\":3623:3629   */\n      0x00\n        /* \"#utility.yul\":3672:3674   */\n      0x20\n        /* \"#utility.yul\":3660:3669   */\n      dup3\n        /* \"#utility.yul\":3651:3658   */\n      dup5\n        /* \"#utility.yul\":3647:3670   */\n      sub\n        /* \"#utility.yul\":3643:3675   */\n      slt\n        /* \"#utility.yul\":3640:3759   */\n      iszero\n      tag_106\n      jumpi\n        /* \"#utility.yul\":3678:3757   */\n      tag_107\n      tag_51\n      jump\t// in\n    tag_107:\n        /* \"#utility.yul\":3640:3759   */\n    tag_106:\n        /* \"#utility.yul\":3798:3799   */\n      0x00\n        /* \"#utility.yul\":3823:3876   */\n      tag_108\n        /* \"#utility.yul\":3868:3875   */\n      dup5\n        /* \"#utility.yul\":3859:3865   */\n      dup3\n        /* \"#utility.yul\":3848:3857   */\n      dup6\n        /* \"#utility.yul\":3844:3866   */\n      add\n        /* \"#utility.yul\":3823:3876   */\n      tag_55\n      jump\t// in\n    tag_108:\n        /* \"#utility.yul\":3813:3876   */\n      swap2\n      pop\n        /* \"#utility.yul\":3769:3886   */\n      pop\n        /* \"#utility.yul\":3564:3893   */\n      swap3\n      swap2\n      pop\n      pop\n      jump\t// out\n        /* \"#utility.yul\":3899:3976   */\n    tag_56:\n        /* \"#utility.yul\":3936:3943   */\n      0x00\n        /* \"#utility.yul\":3965:3970   */\n      dup2\n        /* \"#utility.yul\":3954:3970   */\n      swap1\n      pop\n        /* \"#utility.yul\":3899:3976   */\n      swap2\n      swap1\n      pop\n      jump\t// out\n        /* \"#utility.yul\":3982:4104   */\n    tag_57:\n        /* \"#utility.yul\":4055:4079   */\n      tag_111\n        /* \"#utility.yul\":4073:4078   */\n      dup2\n        /* \"#utility.yul\":4055:4079   */\n      tag_56\n      jump\t// in\n    tag_111:\n        /* \"#utility.yul\":4048:4053   */\n      dup2\n        /* \"#utility.yul\":4045:4080   */\n      eq\n        /* \"#utility.yul\":4035:4098   */\n      tag_112\n      jumpi\n        /* \"#utility.yul\":4094:4095   */\n      0x00\n        /* \"#utility.yul\":4091:4092   */\n      dup1\n        /* \"#utility.yul\":4084:4096   */\n      revert\n        /* \"#utility.yul\":4035:4098   */\n    tag_112:\n        /* \"#utility.yul\":3982:4104   */\n      pop\n      jump\t// out\n        /* \"#utility.yul\":4110:4249   */\n    tag_58:\n        /* \"#utility.yul\":4156:4161   */\n      0x00\n        /* \"#utility.yul\":4194:4200   */\n      dup2\n        /* \"#utility.yul\":4181:4201   */\n      calldataload\n        /* \"#utility.yul\":4172:4201   */\n      swap1\n      pop\n        /* \"#utility.yul\":4210:4243   */\n      tag_114\n        /* \"#utility.yul\":4237:4242   */\n      dup2\n        /* \"#utility.yul\":4210:4243   */\n      tag_57\n      jump\t// in\n    tag_114:\n        /* \"#utility.yul\":4110:4249   */\n      swap3\n      swap2\n      pop\n      pop\n      jump\t// out\n        /* \"#utility.yul\":4255:4584   */\n    tag_17:\n        /* \"#utility.yul\":4314:4320   */\n      0x00\n        /* \"#utility.yul\":4363:4365   */\n      0x20\n        /* \"#utility.yul\":4351:4360   */\n      dup3\n        /* \"#utility.yul\":4342:4349   */\n      dup5\n        /* \"#utility.yul\":4338:4361   */\n      sub\n        /* \"#utility.yul\":4334:4366   */\n      slt\n        /* \"#utility.yul\":4331:4450   */\n      iszero\n      tag_116\n      jumpi\n        /* \"#utility.yul\":4369:4448   */\n      tag_117\n      tag_51\n      jump\t// in\n    tag_117:\n        /* \"#utility.yul\":4331:4450   */\n    tag_116:\n        /* \"#utility.yul\":4489:4490   */\n      0x00\n        /* \"#utility.yul\":4514:4567   */\n      tag_118\n        /* \"#utility.yul\":4559:4566   */\n      dup5\n        /* \"#utility.yul\":4550:4556   */\n      dup3\n        /* \"#utility.yul\":4539:4548   */\n      dup6\n        /* \"#utility.yul\":4535:4557   */\n      add\n        /* \"#utility.yul\":4514:4567   */\n      tag_58\n      jump\t// in\n    tag_118:\n        /* \"#utility.yul\":4504:4567   */\n      swap2\n      pop\n        /* \"#utility.yul\":4460:4577   */\n      pop\n        /* \"#utility.yul\":4255:4584   */\n      swap3\n      swap2\n      pop\n      pop\n      jump\t// out\n        /* \"#utility.yul\":4590:4749   */\n    tag_59:\n        /* \"#utility.yul\":4691:4742   */\n      tag_120\n        /* \"#utility.yul\":4736:4741   */\n      dup2\n        /* \"#utility.yul\":4691:4742   */\n      tag_45\n      jump\t// in\n    tag_120:\n        /* \"#utility.yul\":4686:4689   */\n      dup3\n        /* \"#utility.yul\":4679:4743   */\n      mstore\n        /* \"#utility.yul\":4590:4749   */\n      pop\n      pop\n      jump\t// out\n        /* \"#utility.yul\":4755:5005   */\n    tag_20:\n        /* \"#utility.yul\":4862:4866   */\n      0x00\n        /* \"#utility.yul\":4900:4902   */\n      0x20\n        /* \"#utility.yul\":4889:4898   */\n      dup3\n        /* \"#utility.yul\":4885:4903   */\n      add\n        /* \"#utility.yul\":4877:4903   */\n      swap1\n      pop\n        /* \"#utility.yul\":4913:4998   */\n      tag_122\n        /* \"#utility.yul\":4995:4996   */\n      0x00\n        /* \"#utility.yul\":4984:4993   */\n      dup4\n        /* \"#utility.yul\":4980:4997   */\n      add\n        /* \"#utility.yul\":4971:4977   */\n      dup5\n        /* \"#utility.yul\":4913:4998   */\n      tag_59\n      jump\t// in\n    tag_122:\n        /* \"#utility.yul\":4755:5005   */\n      swap3\n      swap2\n      pop\n      pop\n      jump\t// out\n        /* \"#utility.yul\":5011:5180   */\n    tag_60:\n        /* \"#utility.yul\":5095:5106   */\n      0x00\n        /* \"#utility.yul\":5129:5135   */\n      dup3\n        /* \"#utility.yul\":5124:5127   */\n      dup3\n        /* \"#utility.yul\":5117:5136   */\n      mstore\n        /* \"#utility.yul\":5169:5173   */\n      0x20\n        /* \"#utility.yul\":5164:5167   */\n      dup3\n        /* \"#utility.yul\":5160:5174   */\n      add\n        /* \"#utility.yul\":5145:5174   */\n      swap1\n      pop\n        /* \"#utility.yul\":5011:5180   */\n      swap3\n      swap2\n      pop\n      pop\n      jump\t// out\n        /* \"#utility.yul\":5186:5359   */\n    tag_61:\n        /* \"#utility.yul\":5326:5351   */\n      0x496e73756666696369656e742066756e64732073656e74000000000000000000\n        /* \"#utility.yul\":5322:5323   */\n      0x00\n        /* \"#utility.yul\":5314:5320   */\n      dup3\n        /* \"#utility.yul\":5310:5324   */\n      add\n        /* \"#utility.yul\":5303:5352   */\n      mstore\n        /* \"#utility.yul\":5186:5359   */\n      pop\n      jump\t// out\n        /* \"#utility.yul\":5365:5731   */\n    tag_62:\n        /* \"#utility.yul\":5507:5510   */\n      0x00\n        /* \"#utility.yul\":5528:5595   */\n      tag_126\n        /* \"#utility.yul\":5592:5594   */\n      0x17\n        /* \"#utility.yul\":5587:5590   */\n      dup4\n        /* \"#utility.yul\":5528:5595   */\n      tag_60\n      jump\t// in\n    tag_126:\n        /* \"#utility.yul\":5521:5595   */\n      swap2\n      pop\n        /* \"#utility.yul\":5604:5697   */\n      tag_127\n        /* \"#utility.yul\":5693:5696   */\n      dup3\n        /* \"#utility.yul\":5604:5697   */\n      tag_61\n      jump\t// in\n    tag_127:\n        /* \"#utility.yul\":5722:5724   */\n      0x20\n        /* \"#utility.yul\":5717:5720   */\n      dup3\n        /* \"#utility.yul\":5713:5725   */\n      add\n        /* \"#utility.yul\":5706:5725   */\n      swap1\n      pop\n        /* \"#utility.yul\":5365:5731   */\n      swap2\n      swap1\n      pop\n      jump\t// out\n        /* \"#utility.yul\":5737:6156   */\n    tag_27:\n        /* \"#utility.yul\":5903:5907   */\n      0x00\n        /* \"#utility.yul\":5941:5943   */\n      0x20\n        /* \"#utility.yul\":5930:5939   */\n      dup3\n        /* \"#utility.yul\":5926:5944   */\n      add\n        /* \"#utility.yul\":5918:5944   */\n      swap1\n      pop\n        /* \"#utility.yul\":5990:5999   */\n      dup2\n        /* \"#utility.yul\":5984:5988   */\n      dup2\n        /* \"#utility.yul\":5980:6000   */\n      sub\n        /* \"#utility.yul\":5976:5977   */\n      0x00\n        /* \"#utility.yul\":5965:5974   */\n      dup4\n        /* \"#utility.yul\":5961:5978   */\n      add\n        /* \"#utility.yul\":5954:6001   */\n      mstore\n        /* \"#utility.yul\":6018:6149   */\n      tag_129\n        /* \"#utility.yul\":6144:6148   */\n      dup2\n        /* \"#utility.yul\":6018:6149   */\n      tag_62\n      jump\t// in\n    tag_129:\n        /* \"#utility.yul\":6010:6149   */\n      swap1\n      pop\n        /* \"#utility.yul\":5737:6156   */\n      swap2\n      swap1\n      pop\n      jump\t// out\n        /* \"#utility.yul\":6162:6280   */\n    tag_63:\n        /* \"#utility.yul\":6249:6273   */\n      tag_131\n        /* \"#utility.yul\":6267:6272   */\n      dup2\n        /* \"#utility.yul\":6249:6273   */\n      tag_53\n      jump\t// in\n    tag_131:\n        /* \"#utility.yul\":6244:6247   */\n      dup3\n        /* \"#utility.yul\":6237:6274   */\n      mstore\n        /* \"#utility.yul\":6162:6280   */\n      pop\n      pop\n      jump\t// out\n        /* \"#utility.yul\":6286:6508   */\n    tag_31:\n        /* \"#utility.yul\":6379:6383   */\n      0x00\n        /* \"#utility.yul\":6417:6419   */\n      0x20\n        /* \"#utility.yul\":6406:6415   */\n      dup3\n        /* \"#utility.yul\":6402:6420   */\n      add\n        /* \"#utility.yul\":6394:6420   */\n      swap1\n      pop\n        /* \"#utility.yul\":6430:6501   */\n      tag_133\n        /* \"#utility.yul\":6498:6499   */\n      0x00\n        /* \"#utility.yul\":6487:6496   */\n      dup4\n        /* \"#utility.yul\":6483:6500   */\n      add\n        /* \"#utility.yul\":6474:6480   */\n      dup5\n        /* \"#utility.yul\":6430:6501   */\n      tag_63\n      jump\t// in\n    tag_133:\n        /* \"#utility.yul\":6286:6508   */\n      swap3\n      swap2\n      pop\n      pop\n      jump\t// out\n        /* \"#utility.yul\":6514:6632   */\n    tag_64:\n        /* \"#utility.yul\":6601:6625   */\n      tag_135\n        /* \"#utility.yul\":6619:6624   */\n      dup2\n        /* \"#utility.yul\":6601:6625   */\n      tag_56\n      jump\t// in\n    tag_135:\n        /* \"#utility.yul\":6596:6599   */\n      dup3\n        /* \"#utility.yul\":6589:6626   */\n      mstore\n        /* \"#utility.yul\":6514:6632   */\n      pop\n      pop\n      jump\t// out\n        /* \"#utility.yul\":6638:7080   */\n    tag_35:\n        /* \"#utility.yul\":6787:6791   */\n      0x00\n        /* \"#utility.yul\":6825:6827   */\n      0x60\n        /* \"#utility.yul\":6814:6823   */\n      dup3\n        /* \"#utility.yul\":6810:6828   */\n      add\n        /* \"#utility.yul\":6802:6828   */\n      swap1\n      pop\n        /* \"#utility.yul\":6838:6909   */\n      tag_137\n        /* \"#utility.yul\":6906:6907   */\n      0x00\n        /* \"#utility.yul\":6895:6904   */\n      dup4\n        /* \"#utility.yul\":6891:6908   */\n      add\n        /* \"#utility.yul\":6882:6888   */\n      dup7\n        /* \"#utility.yul\":6838:6909   */\n      tag_63\n      jump\t// in\n    tag_137:\n        /* \"#utility.yul\":6919:6991   */\n      tag_138\n        /* \"#utility.yul\":6987:6989   */\n      0x20\n        /* \"#utility.yul\":6976:6985   */\n      dup4\n        /* \"#utility.yul\":6972:6990   */\n      add\n        /* \"#utility.yul\":6963:6969   */\n      dup6\n        /* \"#utility.yul\":6919:6991   */\n      tag_63\n      jump\t// in\n    tag_138:\n        /* \"#utility.yul\":7001:7073   */\n      tag_139\n        /* \"#utility.yul\":7069:7071   */\n      0x40\n        /* \"#utility.yul\":7058:7067   */\n      dup4\n        /* \"#utility.yul\":7054:7072   */\n      add\n        /* \"#utility.yul\":7045:7051   */\n      dup5\n        /* \"#utility.yul\":7001:7073   */\n      tag_64\n      jump\t// in\n    tag_139:\n        /* \"#utility.yul\":6638:7080   */\n      swap5\n      swap4\n      pop\n      pop\n      pop\n      pop\n      jump\t// out\n    stop\n\n    sub_0: assembly {\n            /* \"contracts/2_Intermediate/3_New.sol\":69:325  contract Account {... */\n          mstore(0x40, 0x80)\n            /* \"contracts/2_Intermediate/3_New.sol\":144:238  constructor(address _owner) payable {... */\n          mload(0x40)\n          sub(codesize, bytecodeSize)\n          dup1\n          bytecodeSize\n          dup4\n          codecopy\n          dup2\n          dup2\n          add\n          0x40\n          mstore\n          dup2\n          add\n          swap1\n          tag_1\n          swap2\n          swap1\n          tag_2\n          jump\t// in\n        tag_1:\n            /* \"contracts/2_Intermediate/3_New.sol\":197:207  msg.sender */\n          caller\n            /* \"contracts/2_Intermediate/3_New.sol\":190:194  bank */\n          0x00\n          dup1\n            /* \"contracts/2_Intermediate/3_New.sol\":190:207  bank = msg.sender */\n          0x0100\n          exp\n          dup2\n          sload\n          dup2\n          0xffffffffffffffffffffffffffffffffffffffff\n          mul\n          not\n          and\n          swap1\n          dup4\n          0xffffffffffffffffffffffffffffffffffffffff\n          and\n          mul\n          or\n          swap1\n          sstore\n          pop\n            /* \"contracts/2_Intermediate/3_New.sol\":225:231  _owner */\n          dup1\n            /* \"contracts/2_Intermediate/3_New.sol\":217:222  owner */\n          0x01\n          0x00\n            /* \"contracts/2_Intermediate/3_New.sol\":217:231  owner = _owner */\n          0x0100\n          exp\n          dup2\n          sload\n          dup2\n          0xffffffffffffffffffffffffffffffffffffffff\n          mul\n          not\n          and\n          swap1\n          dup4\n          0xffffffffffffffffffffffffffffffffffffffff\n          and\n          mul\n          or\n          swap1\n          sstore\n          pop\n            /* \"contracts/2_Intermediate/3_New.sol\":144:238  constructor(address _owner) payable {... */\n          pop\n            /* \"contracts/2_Intermediate/3_New.sol\":69:325  contract Account {... */\n          jump(tag_5)\n            /* \"#utility.yul\":88:205   */\n        tag_7:\n            /* \"#utility.yul\":197:198   */\n          0x00\n            /* \"#utility.yul\":194:195   */\n          dup1\n            /* \"#utility.yul\":187:199   */\n          revert\n            /* \"#utility.yul\":334:460   */\n        tag_9:\n            /* \"#utility.yul\":371:378   */\n          0x00\n            /* \"#utility.yul\":411:453   */\n          0xffffffffffffffffffffffffffffffffffffffff\n            /* \"#utility.yul\":404:409   */\n          dup3\n            /* \"#utility.yul\":400:454   */\n          and\n            /* \"#utility.yul\":389:454   */\n          swap1\n          pop\n            /* \"#utility.yul\":334:460   */\n          swap2\n          swap1\n          pop\n          jump\t// out\n            /* \"#utility.yul\":466:562   */\n        tag_10:\n            /* \"#utility.yul\":503:510   */\n          0x00\n            /* \"#utility.yul\":532:556   */\n          tag_19\n            /* \"#utility.yul\":550:555   */\n          dup3\n            /* \"#utility.yul\":532:556   */\n          tag_9\n          jump\t// in\n        tag_19:\n            /* \"#utility.yul\":521:556   */\n          swap1\n          pop\n            /* \"#utility.yul\":466:562   */\n          swap2\n          swap1\n          pop\n          jump\t// out\n            /* \"#utility.yul\":568:690   */\n        tag_11:\n            /* \"#utility.yul\":641:665   */\n          tag_21\n            /* \"#utility.yul\":659:664   */\n          dup2\n            /* \"#utility.yul\":641:665   */\n          tag_10\n          jump\t// in\n        tag_21:\n            /* \"#utility.yul\":634:639   */\n          dup2\n            /* \"#utility.yul\":631:666   */\n          eq\n            /* \"#utility.yul\":621:684   */\n          tag_22\n          jumpi\n            /* \"#utility.yul\":680:681   */\n          0x00\n            /* \"#utility.yul\":677:678   */\n          dup1\n            /* \"#utility.yul\":670:682   */\n          revert\n            /* \"#utility.yul\":621:684   */\n        tag_22:\n            /* \"#utility.yul\":568:690   */\n          pop\n          jump\t// out\n            /* \"#utility.yul\":696:839   */\n        tag_12:\n            /* \"#utility.yul\":753:758   */\n          0x00\n            /* \"#utility.yul\":784:790   */\n          dup2\n            /* \"#utility.yul\":778:791   */\n          mload\n            /* \"#utility.yul\":769:791   */\n          swap1\n          pop\n            /* \"#utility.yul\":800:833   */\n          tag_24\n            /* \"#utility.yul\":827:832   */\n          dup2\n            /* \"#utility.yul\":800:833   */\n          tag_11\n          jump\t// in\n        tag_24:\n            /* \"#utility.yul\":696:839   */\n          swap3\n          swap2\n          pop\n          pop\n          jump\t// out\n            /* \"#utility.yul\":845:1196   */\n        tag_2:\n            /* \"#utility.yul\":915:921   */\n          0x00\n            /* \"#utility.yul\":964:966   */\n          0x20\n            /* \"#utility.yul\":952:961   */\n          dup3\n            /* \"#utility.yul\":943:950   */\n          dup5\n            /* \"#utility.yul\":939:962   */\n          sub\n            /* \"#utility.yul\":935:967   */\n          slt\n            /* \"#utility.yul\":932:1051   */\n          iszero\n          tag_26\n          jumpi\n            /* \"#utility.yul\":970:1049   */\n          tag_27\n          tag_7\n          jump\t// in\n        tag_27:\n            /* \"#utility.yul\":932:1051   */\n        tag_26:\n            /* \"#utility.yul\":1090:1091   */\n          0x00\n            /* \"#utility.yul\":1115:1179   */\n          tag_28\n            /* \"#utility.yul\":1171:1178   */\n          dup5\n            /* \"#utility.yul\":1162:1168   */\n          dup3\n            /* \"#utility.yul\":1151:1160   */\n          dup6\n            /* \"#utility.yul\":1147:1169   */\n          add\n            /* \"#utility.yul\":1115:1179   */\n          tag_12\n          jump\t// in\n        tag_28:\n            /* \"#utility.yul\":1105:1179   */\n          swap2\n          pop\n            /* \"#utility.yul\":1061:1189   */\n          pop\n            /* \"#utility.yul\":845:1196   */\n          swap3\n          swap2\n          pop\n          pop\n          jump\t// out\n            /* \"contracts/2_Intermediate/3_New.sol\":69:325  contract Account {... */\n        tag_5:\n          dataSize(sub_0)\n          dup1\n          dataOffset(sub_0)\n          0x00\n          codecopy\n          0x00\n          return\n        stop\n\n        sub_0: assembly {\n                /* \"contracts/2_Intermediate/3_New.sol\":69:325  contract Account {... */\n              mstore(0x40, 0x80)\n              callvalue\n              dup1\n              iszero\n              tag_1\n              jumpi\n              0x00\n              dup1\n              revert\n            tag_1:\n              pop\n              jumpi(tag_2, lt(calldatasize, 0x04))\n              shr(0xe0, calldataload(0x00))\n              dup1\n              0x76cdb03b\n              eq\n              tag_3\n              jumpi\n              dup1\n              0x893d20e8\n              eq\n              tag_4\n              jumpi\n              dup1\n              0x8da5cb5b\n              eq\n              tag_5\n              jumpi\n            tag_2:\n              0x00\n              dup1\n              revert\n                /* \"contracts/2_Intermediate/3_New.sol\":92:111  address public bank */\n            tag_3:\n              tag_6\n              tag_7\n              jump\t// in\n            tag_6:\n              mload(0x40)\n              tag_8\n              swap2\n              swap1\n              tag_9\n              jump\t// in\n            tag_8:\n              mload(0x40)\n              dup1\n              swap2\n              sub\n              swap1\n              return\n                /* \"contracts/2_Intermediate/3_New.sol\":244:323  function getOwner() view public returns (address) {... */\n            tag_4:\n              tag_10\n              tag_11\n              jump\t// in\n            tag_10:\n              mload(0x40)\n              tag_12\n              swap2\n              swap1\n              tag_9\n              jump\t// in\n            tag_12:\n              mload(0x40)\n              dup1\n              swap2\n              sub\n              swap1\n              return\n                /* \"contracts/2_Intermediate/3_New.sol\":117:137  address public owner */\n            tag_5:\n              tag_13\n              tag_14\n              jump\t// in\n            tag_13:\n              mload(0x40)\n              tag_15\n              swap2\n              swap1\n              tag_9\n              jump\t// in\n            tag_15:\n              mload(0x40)\n              dup1\n              swap2\n              sub\n              swap1\n              return\n                /* \"contracts/2_Intermediate/3_New.sol\":92:111  address public bank */\n            tag_7:\n              0x00\n              dup1\n              sload\n              swap1\n              0x0100\n              exp\n              swap1\n              div\n              0xffffffffffffffffffffffffffffffffffffffff\n              and\n              dup2\n              jump\t// out\n                /* \"contracts/2_Intermediate/3_New.sol\":244:323  function getOwner() view public returns (address) {... */\n            tag_11:\n                /* \"contracts/2_Intermediate/3_New.sol\":285:292  address */\n              0x00\n                /* \"contracts/2_Intermediate/3_New.sol\":311:316  owner */\n              0x01\n              0x00\n              swap1\n              sload\n              swap1\n              0x0100\n              exp\n              swap1\n              div\n              0xffffffffffffffffffffffffffffffffffffffff\n              and\n                /* \"contracts/2_Intermediate/3_New.sol\":304:316  return owner */\n              swap1\n              pop\n                /* \"contracts/2_Intermediate/3_New.sol\":244:323  function getOwner() view public returns (address) {... */\n              swap1\n              jump\t// out\n                /* \"contracts/2_Intermediate/3_New.sol\":117:137  address public owner */\n            tag_14:\n              0x01\n              0x00\n              swap1\n              sload\n              swap1\n              0x0100\n              exp\n              swap1\n              div\n              0xffffffffffffffffffffffffffffffffffffffff\n              and\n              dup2\n              jump\t// out\n                /* \"#utility.yul\":7:133   */\n            tag_17:\n                /* \"#utility.yul\":44:51   */\n              0x00\n                /* \"#utility.yul\":84:126   */\n              0xffffffffffffffffffffffffffffffffffffffff\n                /* \"#utility.yul\":77:82   */\n              dup3\n                /* \"#utility.yul\":73:127   */\n              and\n                /* \"#utility.yul\":62:127   */\n              swap1\n              pop\n                /* \"#utility.yul\":7:133   */\n              swap2\n              swap1\n              pop\n              jump\t// out\n                /* \"#utility.yul\":139:235   */\n            tag_18:\n                /* \"#utility.yul\":176:183   */\n              0x00\n                /* \"#utility.yul\":205:229   */\n              tag_23\n                /* \"#utility.yul\":223:228   */\n              dup3\n                /* \"#utility.yul\":205:229   */\n              tag_17\n              jump\t// in\n            tag_23:\n                /* \"#utility.yul\":194:229   */\n              swap1\n              pop\n                /* \"#utility.yul\":139:235   */\n              swap2\n              swap1\n              pop\n              jump\t// out\n                /* \"#utility.yul\":241:359   */\n            tag_19:\n                /* \"#utility.yul\":328:352   */\n              tag_25\n                /* \"#utility.yul\":346:351   */\n              dup2\n                /* \"#utility.yul\":328:352   */\n              tag_18\n              jump\t// in\n            tag_25:\n                /* \"#utility.yul\":323:326   */\n              dup3\n                /* \"#utility.yul\":316:353   */\n              mstore\n                /* \"#utility.yul\":241:359   */\n              pop\n              pop\n              jump\t// out\n                /* \"#utility.yul\":365:587   */\n            tag_9:\n                /* \"#utility.yul\":458:462   */\n              0x00\n                /* \"#utility.yul\":496:498   */\n              0x20\n                /* \"#utility.yul\":485:494   */\n              dup3\n                /* \"#utility.yul\":481:499   */\n              add\n                /* \"#utility.yul\":473:499   */\n              swap1\n              pop\n                /* \"#utility.yul\":509:580   */\n              tag_27\n                /* \"#utility.yul\":577:578   */\n              0x00\n                /* \"#utility.yul\":566:575   */\n              dup4\n                /* \"#utility.yul\":562:579   */\n              add\n                /* \"#utility.yul\":553:559   */\n              dup5\n                /* \"#utility.yul\":509:580   */\n              tag_19\n              jump\t// in\n            tag_27:\n                /* \"#utility.yul\":365:587   */\n              swap3\n              swap2\n              pop\n              pop\n              jump\t// out\n\n            auxdata: 0xa264697066735822122051676b2bd80c0f3dce808ab4a4d01fe323681ef3a7be20bc0f5aed1a7db7342664736f6c634300081a0033\n        }\n    }\n\n    auxdata: 0xa2646970667358221220ffe995b8c3480085411769ba8dfff59029a74a85de8dae616510bd015cd4712a64736f6c634300081a0033\n}\n",
				"bytecode": {
					"linkReferences": {},
					"object": "6080604052348015600e575f80fd5b506108ca8061001c5f395ff3fe608060405260043610610033575f3560e01c80638a48ac03146100375780639859387b14610061578063f2a40db81461007d575b5f80fd5b348015610042575f80fd5b5061004b6100b9565b60405161005891906103c5565b60405180910390f35b61007b60048036038101906100769190610424565b610143565b005b348015610088575f80fd5b506100a3600480360381019061009e9190610482565b61025c565b6040516100b091906104bc565b60405180910390f35b60605f80548060200260200160405190810160405280929190818152602001828054801561013957602002820191905f5260205f20905b815f9054906101000a900473ffffffffffffffffffffffffffffffffffffffff1673ffffffffffffffffffffffffffffffffffffffff16815260200190600101908083116100f0575b5050505050905090565b6064341015610187576040517f08c379a000000000000000000000000000000000000000000000000000000000815260040161017e9061052f565b60405180910390fd5b5f348260405161019690610296565b6101a0919061055c565b6040518091039082f09050801580156101bb573d5f803e3d5ffd5b5090505f81908060018154018082558091505060019003905f5260205f20015f9091909190916101000a81548173ffffffffffffffffffffffffffffffffffffffff021916908373ffffffffffffffffffffffffffffffffffffffff1602179055507f33310a89c32d8cc00057ad6ef6274d2f8fe22389a992cf89983e09fc84f6cfff81833460405161025093929190610584565b60405180910390a15050565b5f818154811061026a575f80fd5b905f5260205f20015f915054906101000a900473ffffffffffffffffffffffffffffffffffffffff1681565b6102db806105ba83390190565b5f81519050919050565b5f82825260208201905092915050565b5f819050602082019050919050565b5f73ffffffffffffffffffffffffffffffffffffffff82169050919050565b5f819050919050565b5f61030e610309610304846102cc565b6102eb565b6102cc565b9050919050565b5f61031f826102f4565b9050919050565b5f61033082610315565b9050919050565b61034081610326565b82525050565b5f6103518383610337565b60208301905092915050565b5f602082019050919050565b5f610373826102a3565b61037d81856102ad565b9350610388836102bd565b805f5b838110156103b857815161039f8882610346565b97506103aa8361035d565b92505060018101905061038b565b5085935050505092915050565b5f6020820190508181035f8301526103dd8184610369565b905092915050565b5f80fd5b5f6103f3826102cc565b9050919050565b610403816103e9565b811461040d575f80fd5b50565b5f8135905061041e816103fa565b92915050565b5f60208284031215610439576104386103e5565b5b5f61044684828501610410565b91505092915050565b5f819050919050565b6104618161044f565b811461046b575f80fd5b50565b5f8135905061047c81610458565b92915050565b5f60208284031215610497576104966103e5565b5b5f6104a48482850161046e565b91505092915050565b6104b681610326565b82525050565b5f6020820190506104cf5f8301846104ad565b92915050565b5f82825260208201905092915050565b7f496e73756666696369656e742066756e64732073656e740000000000000000005f82015250565b5f6105196017836104d5565b9150610524826104e5565b602082019050919050565b5f6020820190508181035f8301526105468161050d565b9050919050565b610556816103e9565b82525050565b5f60208201905061056f5f83018461054d565b92915050565b61057e8161044f565b82525050565b5f6060820190506105975f83018661054d565b6105a4602083018561054d565b6105b16040830184610575565b94935050505056fe60806040526040516102db3803806102db83398181016040528101906100259190610108565b335f806101000a81548173ffffffffffffffffffffffffffffffffffffffff021916908373ffffffffffffffffffffffffffffffffffffffff1602179055508060015f6101000a81548173ffffffffffffffffffffffffffffffffffffffff021916908373ffffffffffffffffffffffffffffffffffffffff16021790555050610133565b5f80fd5b5f73ffffffffffffffffffffffffffffffffffffffff82169050919050565b5f6100d7826100ae565b9050919050565b6100e7816100cd565b81146100f1575f80fd5b50565b5f81519050610102816100de565b92915050565b5f6020828403121561011d5761011c6100aa565b5b5f61012a848285016100f4565b91505092915050565b61019b806101405f395ff3fe608060405234801561000f575f80fd5b506004361061003f575f3560e01c806376cdb03b14610043578063893d20e8146100615780638da5cb5b1461007f575b5f80fd5b61004b61009d565b604051610058919061014c565b60405180910390f35b6100696100c0565b604051610076919061014c565b60405180910390f35b6100876100e8565b604051610094919061014c565b60405180910390f35b5f8054906101000a900473ffffffffffffffffffffffffffffffffffffffff1681565b5f60015f9054906101000a900473ffffffffffffffffffffffffffffffffffffffff16905090565b60015f9054906101000a900473ffffffffffffffffffffffffffffffffffffffff1681565b5f73ffffffffffffffffffffffffffffffffffffffff82169050919050565b5f6101368261010d565b9050919050565b6101468161012c565b82525050565b5f60208201905061015f5f83018461013d565b9291505056fea264697066735822122051676b2bd80c0f3dce808ab4a4d01fe323681ef3a7be20bc0f5aed1a7db7342664736f6c634300081a0033a2646970667358221220ffe995b8c3480085411769ba8dfff59029a74a85de8dae616510bd015cd4712a64736f6c634300081a0033",
					"opcodes": "PUSH1 0x80 PUSH1 0x40 MSTORE CALLVALUE DUP1 ISZERO PUSH1 0xE JUMPI PUSH0 DUP1 REVERT JUMPDEST POP PUSH2 0x8CA DUP1 PUSH2 0x1C PUSH0 CODECOPY PUSH0 RETURN INVALID PUSH1 0x80 PUSH1 0x40 MSTORE PUSH1 0x4 CALLDATASIZE LT PUSH2 0x33 JUMPI PUSH0 CALLDATALOAD PUSH1 0xE0 SHR DUP1 PUSH4 0x8A48AC03 EQ PUSH2 0x37 JUMPI DUP1 PUSH4 0x9859387B EQ PUSH2 0x61 JUMPI DUP1 PUSH4 0xF2A40DB8 EQ PUSH2 0x7D JUMPI JUMPDEST PUSH0 DUP1 REVERT JUMPDEST CALLVALUE DUP1 ISZERO PUSH2 0x42 JUMPI PUSH0 DUP1 REVERT JUMPDEST POP PUSH2 0x4B PUSH2 0xB9 JUMP JUMPDEST PUSH1 0x40 MLOAD PUSH2 0x58 SWAP2 SWAP1 PUSH2 0x3C5 JUMP JUMPDEST PUSH1 0x40 MLOAD DUP1 SWAP2 SUB SWAP1 RETURN JUMPDEST PUSH2 0x7B PUSH1 0x4 DUP1 CALLDATASIZE SUB DUP2 ADD SWAP1 PUSH2 0x76 SWAP2 SWAP1 PUSH2 0x424 JUMP JUMPDEST PUSH2 0x143 JUMP JUMPDEST STOP JUMPDEST CALLVALUE DUP1 ISZERO PUSH2 0x88 JUMPI PUSH0 DUP1 REVERT JUMPDEST POP PUSH2 0xA3 PUSH1 0x4 DUP1 CALLDATASIZE SUB DUP2 ADD SWAP1 PUSH2 0x9E SWAP2 SWAP1 PUSH2 0x482 JUMP JUMPDEST PUSH2 0x25C JUMP JUMPDEST PUSH1 0x40 MLOAD PUSH2 0xB0 SWAP2 SWAP1 PUSH2 0x4BC JUMP JUMPDEST PUSH1 0x40 MLOAD DUP1 SWAP2 SUB SWAP1 RETURN JUMPDEST PUSH1 0x60 PUSH0 DUP1 SLOAD DUP1 PUSH1 0x20 MUL PUSH1 0x20 ADD PUSH1 0x40 MLOAD SWAP1 DUP2 ADD PUSH1 0x40 MSTORE DUP1 SWAP3 SWAP2 SWAP1 DUP2 DUP2 MSTORE PUSH1 0x20 ADD DUP3 DUP1 SLOAD DUP1 ISZERO PUSH2 0x139 JUMPI PUSH1 0x20 MUL DUP3 ADD SWAP2 SWAP1 PUSH0 MSTORE PUSH1 0x20 PUSH0 KECCAK256 SWAP1 JUMPDEST DUP2 PUSH0 SWAP1 SLOAD SWAP1 PUSH2 0x100 EXP SWAP1 DIV PUSH20 0xFFFFFFFFFFFFFFFFFFFFFFFFFFFFFFFFFFFFFFFF AND PUSH20 0xFFFFFFFFFFFFFFFFFFFFFFFFFFFFFFFFFFFFFFFF AND DUP2 MSTORE PUSH1 0x20 ADD SWAP1 PUSH1 0x1 ADD SWAP1 DUP1 DUP4 GT PUSH2 0xF0 JUMPI JUMPDEST POP POP POP POP POP SWAP1 POP SWAP1 JUMP JUMPDEST PUSH1 0x64 CALLVALUE LT ISZERO PUSH2 0x187 JUMPI PUSH1 0x40 MLOAD PUSH32 0x8C379A000000000000000000000000000000000000000000000000000000000 DUP2 MSTORE PUSH1 0x4 ADD PUSH2 0x17E SWAP1 PUSH2 0x52F JUMP JUMPDEST PUSH1 0x40 MLOAD DUP1 SWAP2 SUB SWAP1 REVERT JUMPDEST PUSH0 CALLVALUE DUP3 PUSH1 0x40 MLOAD PUSH2 0x196 SWAP1 PUSH2 0x296 JUMP JUMPDEST PUSH2 0x1A0 SWAP2 SWAP1 PUSH2 0x55C JUMP JUMPDEST PUSH1 0x40 MLOAD DUP1 SWAP2 SUB SWAP1 DUP3 CREATE SWAP1 POP DUP1 ISZERO DUP1 ISZERO PUSH2 0x1BB JUMPI RETURNDATASIZE PUSH0 DUP1 RETURNDATACOPY RETURNDATASIZE PUSH0 REVERT JUMPDEST POP SWAP1 POP PUSH0 DUP2 SWAP1 DUP1 PUSH1 0x1 DUP2 SLOAD ADD DUP1 DUP3 SSTORE DUP1 SWAP2 POP POP PUSH1 0x1 SWAP1 SUB SWAP1 PUSH0 MSTORE PUSH1 0x20 PUSH0 KECCAK256 ADD PUSH0 SWAP1 SWAP2 SWAP1 SWAP2 SWAP1 SWAP2 PUSH2 0x100 EXP DUP2 SLOAD DUP2 PUSH20 0xFFFFFFFFFFFFFFFFFFFFFFFFFFFFFFFFFFFFFFFF MUL NOT AND SWAP1 DUP4 PUSH20 0xFFFFFFFFFFFFFFFFFFFFFFFFFFFFFFFFFFFFFFFF AND MUL OR SWAP1 SSTORE POP PUSH32 0x33310A89C32D8CC00057AD6EF6274D2F8FE22389A992CF89983E09FC84F6CFFF DUP2 DUP4 CALLVALUE PUSH1 0x40 MLOAD PUSH2 0x250 SWAP4 SWAP3 SWAP2 SWAP1 PUSH2 0x584 JUMP JUMPDEST PUSH1 0x40 MLOAD DUP1 SWAP2 SUB SWAP1 LOG1 POP POP JUMP JUMPDEST PUSH0 DUP2 DUP2 SLOAD DUP2 LT PUSH2 0x26A JUMPI PUSH0 DUP1 REVERT JUMPDEST SWAP1 PUSH0 MSTORE PUSH1 0x20 PUSH0 KECCAK256 ADD PUSH0 SWAP2 POP SLOAD SWAP1 PUSH2 0x100 EXP SWAP1 DIV PUSH20 0xFFFFFFFFFFFFFFFFFFFFFFFFFFFFFFFFFFFFFFFF AND DUP2 JUMP JUMPDEST PUSH2 0x2DB DUP1 PUSH2 0x5BA DUP4 CODECOPY ADD SWAP1 JUMP JUMPDEST PUSH0 DUP2 MLOAD SWAP1 POP SWAP2 SWAP1 POP JUMP JUMPDEST PUSH0 DUP3 DUP3 MSTORE PUSH1 0x20 DUP3 ADD SWAP1 POP SWAP3 SWAP2 POP POP JUMP JUMPDEST PUSH0 DUP2 SWAP1 POP PUSH1 0x20 DUP3 ADD SWAP1 POP SWAP2 SWAP1 POP JUMP JUMPDEST PUSH0 PUSH20 0xFFFFFFFFFFFFFFFFFFFFFFFFFFFFFFFFFFFFFFFF DUP3 AND SWAP1 POP SWAP2 SWAP1 POP JUMP JUMPDEST PUSH0 DUP2 SWAP1 POP SWAP2 SWAP1 POP JUMP JUMPDEST PUSH0 PUSH2 0x30E PUSH2 0x309 PUSH2 0x304 DUP5 PUSH2 0x2CC JUMP JUMPDEST PUSH2 0x2EB JUMP JUMPDEST PUSH2 0x2CC JUMP JUMPDEST SWAP1 POP SWAP2 SWAP1 POP JUMP JUMPDEST PUSH0 PUSH2 0x31F DUP3 PUSH2 0x2F4 JUMP JUMPDEST SWAP1 POP SWAP2 SWAP1 POP JUMP JUMPDEST PUSH0 PUSH2 0x330 DUP3 PUSH2 0x315 JUMP JUMPDEST SWAP1 POP SWAP2 SWAP1 POP JUMP JUMPDEST PUSH2 0x340 DUP2 PUSH2 0x326 JUMP JUMPDEST DUP3 MSTORE POP POP JUMP JUMPDEST PUSH0 PUSH2 0x351 DUP4 DUP4 PUSH2 0x337 JUMP JUMPDEST PUSH1 0x20 DUP4 ADD SWAP1 POP SWAP3 SWAP2 POP POP JUMP JUMPDEST PUSH0 PUSH1 0x20 DUP3 ADD SWAP1 POP SWAP2 SWAP1 POP JUMP JUMPDEST PUSH0 PUSH2 0x373 DUP3 PUSH2 0x2A3 JUMP JUMPDEST PUSH2 0x37D DUP2 DUP6 PUSH2 0x2AD JUMP JUMPDEST SWAP4 POP PUSH2 0x388 DUP4 PUSH2 0x2BD JUMP JUMPDEST DUP1 PUSH0 JUMPDEST DUP4 DUP2 LT ISZERO PUSH2 0x3B8 JUMPI DUP2 MLOAD PUSH2 0x39F DUP9 DUP3 PUSH2 0x346 JUMP JUMPDEST SWAP8 POP PUSH2 0x3AA DUP4 PUSH2 0x35D JUMP JUMPDEST SWAP3 POP POP PUSH1 0x1 DUP2 ADD SWAP1 POP PUSH2 0x38B JUMP JUMPDEST POP DUP6 SWAP4 POP POP POP POP SWAP3 SWAP2 POP POP JUMP JUMPDEST PUSH0 PUSH1 0x20 DUP3 ADD SWAP1 POP DUP2 DUP2 SUB PUSH0 DUP4 ADD MSTORE PUSH2 0x3DD DUP2 DUP5 PUSH2 0x369 JUMP JUMPDEST SWAP1 POP SWAP3 SWAP2 POP POP JUMP JUMPDEST PUSH0 DUP1 REVERT JUMPDEST PUSH0 PUSH2 0x3F3 DUP3 PUSH2 0x2CC JUMP JUMPDEST SWAP1 POP SWAP2 SWAP1 POP JUMP JUMPDEST PUSH2 0x403 DUP2 PUSH2 0x3E9 JUMP JUMPDEST DUP2 EQ PUSH2 0x40D JUMPI PUSH0 DUP1 REVERT JUMPDEST POP JUMP JUMPDEST PUSH0 DUP2 CALLDATALOAD SWAP1 POP PUSH2 0x41E DUP2 PUSH2 0x3FA JUMP JUMPDEST SWAP3 SWAP2 POP POP JUMP JUMPDEST PUSH0 PUSH1 0x20 DUP3 DUP5 SUB SLT ISZERO PUSH2 0x439 JUMPI PUSH2 0x438 PUSH2 0x3E5 JUMP JUMPDEST JUMPDEST PUSH0 PUSH2 0x446 DUP5 DUP3 DUP6 ADD PUSH2 0x410 JUMP JUMPDEST SWAP2 POP POP SWAP3 SWAP2 POP POP JUMP JUMPDEST PUSH0 DUP2 SWAP1 POP SWAP2 SWAP1 POP JUMP JUMPDEST PUSH2 0x461 DUP2 PUSH2 0x44F JUMP JUMPDEST DUP2 EQ PUSH2 0x46B JUMPI PUSH0 DUP1 REVERT JUMPDEST POP JUMP JUMPDEST PUSH0 DUP2 CALLDATALOAD SWAP1 POP PUSH2 0x47C DUP2 PUSH2 0x458 JUMP JUMPDEST SWAP3 SWAP2 POP POP JUMP JUMPDEST PUSH0 PUSH1 0x20 DUP3 DUP5 SUB SLT ISZERO PUSH2 0x497 JUMPI PUSH2 0x496 PUSH2 0x3E5 JUMP JUMPDEST JUMPDEST PUSH0 PUSH2 0x4A4 DUP5 DUP3 DUP6 ADD PUSH2 0x46E JUMP JUMPDEST SWAP2 POP POP SWAP3 SWAP2 POP POP JUMP JUMPDEST PUSH2 0x4B6 DUP2 PUSH2 0x326 JUMP JUMPDEST DUP3 MSTORE POP POP JUMP JUMPDEST PUSH0 PUSH1 0x20 DUP3 ADD SWAP1 POP PUSH2 0x4CF PUSH0 DUP4 ADD DUP5 PUSH2 0x4AD JUMP JUMPDEST SWAP3 SWAP2 POP POP JUMP JUMPDEST PUSH0 DUP3 DUP3 MSTORE PUSH1 0x20 DUP3 ADD SWAP1 POP SWAP3 SWAP2 POP POP JUMP JUMPDEST PUSH32 0x496E73756666696369656E742066756E64732073656E74000000000000000000 PUSH0 DUP3 ADD MSTORE POP JUMP JUMPDEST PUSH0 PUSH2 0x519 PUSH1 0x17 DUP4 PUSH2 0x4D5 JUMP JUMPDEST SWAP2 POP PUSH2 0x524 DUP3 PUSH2 0x4E5 JUMP JUMPDEST PUSH1 0x20 DUP3 ADD SWAP1 POP SWAP2 SWAP1 POP JUMP JUMPDEST PUSH0 PUSH1 0x20 DUP3 ADD SWAP1 POP DUP2 DUP2 SUB PUSH0 DUP4 ADD MSTORE PUSH2 0x546 DUP2 PUSH2 0x50D JUMP JUMPDEST SWAP1 POP SWAP2 SWAP1 POP JUMP JUMPDEST PUSH2 0x556 DUP2 PUSH2 0x3E9 JUMP JUMPDEST DUP3 MSTORE POP POP JUMP JUMPDEST PUSH0 PUSH1 0x20 DUP3 ADD SWAP1 POP PUSH2 0x56F PUSH0 DUP4 ADD DUP5 PUSH2 0x54D JUMP JUMPDEST SWAP3 SWAP2 POP POP JUMP JUMPDEST PUSH2 0x57E DUP2 PUSH2 0x44F JUMP JUMPDEST DUP3 MSTORE POP POP JUMP JUMPDEST PUSH0 PUSH1 0x60 DUP3 ADD SWAP1 POP PUSH2 0x597 PUSH0 DUP4 ADD DUP7 PUSH2 0x54D JUMP JUMPDEST PUSH2 0x5A4 PUSH1 0x20 DUP4 ADD DUP6 PUSH2 0x54D JUMP JUMPDEST PUSH2 0x5B1 PUSH1 0x40 DUP4 ADD DUP5 PUSH2 0x575 JUMP JUMPDEST SWAP5 SWAP4 POP POP POP POP JUMP INVALID PUSH1 0x80 PUSH1 0x40 MSTORE PUSH1 0x40 MLOAD PUSH2 0x2DB CODESIZE SUB DUP1 PUSH2 0x2DB DUP4 CODECOPY DUP2 DUP2 ADD PUSH1 0x40 MSTORE DUP2 ADD SWAP1 PUSH2 0x25 SWAP2 SWAP1 PUSH2 0x108 JUMP JUMPDEST CALLER PUSH0 DUP1 PUSH2 0x100 EXP DUP2 SLOAD DUP2 PUSH20 0xFFFFFFFFFFFFFFFFFFFFFFFFFFFFFFFFFFFFFFFF MUL NOT AND SWAP1 DUP4 PUSH20 0xFFFFFFFFFFFFFFFFFFFFFFFFFFFFFFFFFFFFFFFF AND MUL OR SWAP1 SSTORE POP DUP1 PUSH1 0x1 PUSH0 PUSH2 0x100 EXP DUP2 SLOAD DUP2 PUSH20 0xFFFFFFFFFFFFFFFFFFFFFFFFFFFFFFFFFFFFFFFF MUL NOT AND SWAP1 DUP4 PUSH20 0xFFFFFFFFFFFFFFFFFFFFFFFFFFFFFFFFFFFFFFFF AND MUL OR SWAP1 SSTORE POP POP PUSH2 0x133 JUMP JUMPDEST PUSH0 DUP1 REVERT JUMPDEST PUSH0 PUSH20 0xFFFFFFFFFFFFFFFFFFFFFFFFFFFFFFFFFFFFFFFF DUP3 AND SWAP1 POP SWAP2 SWAP1 POP JUMP JUMPDEST PUSH0 PUSH2 0xD7 DUP3 PUSH2 0xAE JUMP JUMPDEST SWAP1 POP SWAP2 SWAP1 POP JUMP JUMPDEST PUSH2 0xE7 DUP2 PUSH2 0xCD JUMP JUMPDEST DUP2 EQ PUSH2 0xF1 JUMPI PUSH0 DUP1 REVERT JUMPDEST POP JUMP JUMPDEST PUSH0 DUP2 MLOAD SWAP1 POP PUSH2 0x102 DUP2 PUSH2 0xDE JUMP JUMPDEST SWAP3 SWAP2 POP POP JUMP JUMPDEST PUSH0 PUSH1 0x20 DUP3 DUP5 SUB SLT ISZERO PUSH2 0x11D JUMPI PUSH2 0x11C PUSH2 0xAA JUMP JUMPDEST JUMPDEST PUSH0 PUSH2 0x12A DUP5 DUP3 DUP6 ADD PUSH2 0xF4 JUMP JUMPDEST SWAP2 POP POP SWAP3 SWAP2 POP POP JUMP JUMPDEST PUSH2 0x19B DUP1 PUSH2 0x140 PUSH0 CODECOPY PUSH0 RETURN INVALID PUSH1 0x80 PUSH1 0x40 MSTORE CALLVALUE DUP1 ISZERO PUSH2 0xF JUMPI PUSH0 DUP1 REVERT JUMPDEST POP PUSH1 0x4 CALLDATASIZE LT PUSH2 0x3F JUMPI PUSH0 CALLDATALOAD PUSH1 0xE0 SHR DUP1 PUSH4 0x76CDB03B EQ PUSH2 0x43 JUMPI DUP1 PUSH4 0x893D20E8 EQ PUSH2 0x61 JUMPI DUP1 PUSH4 0x8DA5CB5B EQ PUSH2 0x7F JUMPI JUMPDEST PUSH0 DUP1 REVERT JUMPDEST PUSH2 0x4B PUSH2 0x9D JUMP JUMPDEST PUSH1 0x40 MLOAD PUSH2 0x58 SWAP2 SWAP1 PUSH2 0x14C JUMP JUMPDEST PUSH1 0x40 MLOAD DUP1 SWAP2 SUB SWAP1 RETURN JUMPDEST PUSH2 0x69 PUSH2 0xC0 JUMP JUMPDEST PUSH1 0x40 MLOAD PUSH2 0x76 SWAP2 SWAP1 PUSH2 0x14C JUMP JUMPDEST PUSH1 0x40 MLOAD DUP1 SWAP2 SUB SWAP1 RETURN JUMPDEST PUSH2 0x87 PUSH2 0xE8 JUMP JUMPDEST PUSH1 0x40 MLOAD PUSH2 0x94 SWAP2 SWAP1 PUSH2 0x14C JUMP JUMPDEST PUSH1 0x40 MLOAD DUP1 SWAP2 SUB SWAP1 RETURN JUMPDEST PUSH0 DUP1 SLOAD SWAP1 PUSH2 0x100 EXP SWAP1 DIV PUSH20 0xFFFFFFFFFFFFFFFFFFFFFFFFFFFFFFFFFFFFFFFF AND DUP2 JUMP JUMPDEST PUSH0 PUSH1 0x1 PUSH0 SWAP1 SLOAD SWAP1 PUSH2 0x100 EXP SWAP1 DIV PUSH20 0xFFFFFFFFFFFFFFFFFFFFFFFFFFFFFFFFFFFFFFFF AND SWAP1 POP SWAP1 JUMP JUMPDEST PUSH1 0x1 PUSH0 SWAP1 SLOAD SWAP1 PUSH2 0x100 EXP SWAP1 DIV PUSH20 0xFFFFFFFFFFFFFFFFFFFFFFFFFFFFFFFFFFFFFFFF AND DUP2 JUMP JUMPDEST PUSH0 PUSH20 0xFFFFFFFFFFFFFFFFFFFFFFFFFFFFFFFFFFFFFFFF DUP3 AND SWAP1 POP SWAP2 SWAP1 POP JUMP JUMPDEST PUSH0 PUSH2 0x136 DUP3 PUSH2 0x10D JUMP JUMPDEST SWAP1 POP SWAP2 SWAP1 POP JUMP JUMPDEST PUSH2 0x146 DUP2 PUSH2 0x12C JUMP JUMPDEST DUP3 MSTORE POP POP JUMP JUMPDEST PUSH0 PUSH1 0x20 DUP3 ADD SWAP1 POP PUSH2 0x15F PUSH0 DUP4 ADD DUP5 PUSH2 0x13D JUMP JUMPDEST SWAP3 SWAP2 POP POP JUMP INVALID LOG2 PUSH5 0x6970667358 0x22 SLT KECCAK256 MLOAD PUSH8 0x6B2BD80C0F3DCE80 DUP11 0xB4 LOG4 0xD0 0x1F 0xE3 0x23 PUSH9 0x1EF3A7BE20BC0F5AED BYTE PUSH30 0xB7342664736F6C634300081A0033A2646970667358221220FFE995B8C348 STOP DUP6 COINBASE OR PUSH10 0xBA8DFFF59029A74A85DE DUP14 0xAE PUSH2 0x6510 0xBD ADD TLOAD 0xD4 PUSH18 0x2A64736F6C634300081A0033000000000000 "
				},
				"gasEstimates": {
					"creation": {
						"codeDepositCost": "450000",
						"executionCost": "484",
						"totalCost": "450484"
					},
					"external": {
						"accounts(uint256)": "infinite",
						"createAccount(address)": "infinite",
						"getAccounts()": "infinite"
					}
				},
				"methodIdentifiers": {
					"accounts(uint256)": "f2a40db8",
					"createAccount(address)": "9859387b",
					"getAccounts()": "8a48ac03"
				}
			},
			"storageLayout": {
				"storage": [
					{
						"astId": 33,
						"contract": "contracts/2_Intermediate/3_New.sol:AccountFactory",
						"label": "accounts",
						"offset": 0,
						"slot": "0",
						"type": "t_array(t_contract(Account)29)dyn_storage"
					}
				],
				"types": {
					"t_array(t_contract(Account)29)dyn_storage": {
						"base": "t_contract(Account)29",
						"encoding": "dynamic_array",
						"label": "contract Account[]",
						"numberOfBytes": "32"
					},
					"t_contract(Account)29": {
						"encoding": "inplace",
						"label": "contract Account",
						"numberOfBytes": "20"
					}
				}
			},
			"userdoc": {
				"kind": "user",
				"methods": {},
				"version": 1
			}
		}
	}
}