{
	"data": {
		"bytecode": {
			"linkReferences": {},
			"object": "60806040525f80553480156011575f80fd5b506101528061001f5f395ff3fe608060405234801561000f575f80fd5b5060043610610034575f3560e01c80632baeceb714610038578063e8927fbc14610042575b5f80fd5b61004061004c565b005b61004a610066565b005b60015f8082825461005d91906100b6565b92505081905550565b60015f8082825461007791906100e9565b92505081905550565b5f819050919050565b7f4e487b71000000000000000000000000000000000000000000000000000000005f52601160045260245ffd5b5f6100c082610080565b91506100cb83610080565b92508282039050818111156100e3576100e2610089565b5b92915050565b5f6100f382610080565b91506100fe83610080565b925082820190508082111561011657610115610089565b5b9291505056fea264697066735822122075c136ab90909b2ea39508208811e864d6aafcdf7548894ed9be93d5152214a064736f6c634300081a0033",
			"opcodes": "PUSH1 0x80 PUSH1 0x40 MSTORE PUSH0 DUP1 SSTORE CALLVALUE DUP1 ISZERO PUSH1 0x11 JUMPI PUSH0 DUP1 REVERT JUMPDEST POP PUSH2 0x152 DUP1 PUSH2 0x1F PUSH0 CODECOPY PUSH0 RETURN INVALID PUSH1 0x80 PUSH1 0x40 MSTORE CALLVALUE DUP1 ISZERO PUSH2 0xF JUMPI PUSH0 DUP1 REVERT JUMPDEST POP PUSH1 0x4 CALLDATASIZE LT PUSH2 0x34 JUMPI PUSH0 CALLDATALOAD PUSH1 0xE0 SHR DUP1 PUSH4 0x2BAECEB7 EQ PUSH2 0x38 JUMPI DUP1 PUSH4 0xE8927FBC EQ PUSH2 0x42 JUMPI JUMPDEST PUSH0 DUP1 REVERT JUMPDEST PUSH2 0x40 PUSH2 0x4C JUMP JUMPDEST STOP JUMPDEST PUSH2 0x4A PUSH2 0x66 JUMP JUMPDEST STOP JUMPDEST PUSH1 0x1 PUSH0 DUP1 DUP3 DUP3 SLOAD PUSH2 0x5D SWAP2 SWAP1 PUSH2 0xB6 JUMP JUMPDEST SWAP3 POP POP DUP2 SWAP1 SSTORE POP JUMP JUMPDEST PUSH1 0x1 PUSH0 DUP1 DUP3 DUP3 SLOAD PUSH2 0x77 SWAP2 SWAP1 PUSH2 0xE9 JUMP JUMPDEST SWAP3 POP POP DUP2 SWAP1 SSTORE POP JUMP JUMPDEST PUSH0 DUP2 SWAP1 POP SWAP2 SWAP1 POP JUMP JUMPDEST PUSH32 0x4E487B7100000000000000000000000000000000000000000000000000000000 PUSH0 MSTORE PUSH1 0x11 PUSH1 0x4 MSTORE PUSH1 0x24 PUSH0 REVERT JUMPDEST PUSH0 PUSH2 0xC0 DUP3 PUSH2 0x80 JUMP JUMPDEST SWAP2 POP PUSH2 0xCB DUP4 PUSH2 0x80 JUMP JUMPDEST SWAP3 POP DUP3 DUP3 SUB SWAP1 POP DUP2 DUP2 GT ISZERO PUSH2 0xE3 JUMPI PUSH2 0xE2 PUSH2 0x89 JUMP JUMPDEST JUMPDEST SWAP3 SWAP2 POP POP JUMP JUMPDEST PUSH0 PUSH2 0xF3 DUP3 PUSH2 0x80 JUMP JUMPDEST SWAP2 POP PUSH2 0xFE DUP4 PUSH2 0x80 JUMP JUMPDEST SWAP3 POP DUP3 DUP3 ADD SWAP1 POP DUP1 DUP3 GT ISZERO PUSH2 0x116 JUMPI PUSH2 0x115 PUSH2 0x89 JUMP JUMPDEST JUMPDEST SWAP3 SWAP2 POP POP JUMP INVALID LOG2 PUSH5 0x6970667358 0x22 SLT KECCAK256 PUSH22 0xC136AB90909B2EA39508208811E864D6AAFCDF754889 0x4E 0xD9 0xBE SWAP4 0xD5 ISZERO 0x22 EQ LOG0 PUSH5 0x736F6C6343 STOP ADDMOD BYTE STOP CALLER "
		},
		"gasEstimates": {
			"creation": {
				"codeDepositCost": "67600",
				"executionCost": "5120",
				"totalCost": "72720"
			},
			"external": {
				"decrement()": "infinite",
				"increase()": "infinite"
			}
		},
		"methodIdentifiers": {
			"decrement()": "2baeceb7",
			"increase()": "e8927fbc"
		}
	},
	"abi": [
		{
			"inputs": [],
			"name": "decrement",
			"outputs": [],
			"stateMutability": "nonpayable",
			"type": "function"
		},
		{
			"inputs": [],
			"name": "increase",
			"outputs": [],
			"stateMutability": "nonpayable",
			"type": "function"
		}
	]
}