{
	"data": {
		"bytecode": {
			"linkReferences": {},
			"object": "6080604052348015600e575f80fd5b5061096f8061001c5f395ff3fe608060405260043610610037575f3560e01c80630c55699c146100b25780630f638c8b146100dc578063e21f37ce1461010d57610077565b36610077577f59e04c3f0d44b7caf6e8ef854b61d9a51cf1960d7a88ff6356cc5e946b4b5832333460405161006d9291906102db565b60405180910390a1005b7f59e04c3f0d44b7caf6e8ef854b61d9a51cf1960d7a88ff6356cc5e946b4b583233346040516100a892919061035f565b60405180910390a1005b3480156100bd575f80fd5b506100c6610137565b6040516100d39190610399565b60405180910390f35b6100f660048036038101906100f19190610529565b61013c565b60405161010492919061059d565b60405180910390f35b348015610118575f80fd5b5061012161019e565b60405161012e9190610614565b60405180910390f35b5f5481565b5f80836001908161014d919061082e565b50825f819055507f59e04c3f0d44b7caf6e8ef854b61d9a51cf1960d7a88ff6356cc5e946b4b5832333486604051610187939291906108fd565b60405180910390a160016064915091509250929050565b600180546101ab90610661565b80601f01602080910402602001604051908101604052809291908181526020018280546101d790610661565b80156102225780601f106101f957610100808354040283529160200191610222565b820191905f5260205f20905b81548152906001019060200180831161020557829003601f168201915b505050505081565b5f73ffffffffffffffffffffffffffffffffffffffff82169050919050565b5f6102538261022a565b9050919050565b61026381610249565b82525050565b5f819050919050565b61027b81610269565b82525050565b5f82825260208201905092915050565b7f457468657220726563656976656420776974686f75742063616c6c64617461005f82015250565b5f6102c5601f83610281565b91506102d082610291565b602082019050919050565b5f6060820190506102ee5f83018561025a565b6102fb6020830184610272565b818103604083015261030c816102b9565b90509392505050565b7f46616c6c6261636b207761732063616c6c6564000000000000000000000000005f82015250565b5f610349601383610281565b915061035482610315565b602082019050919050565b5f6060820190506103725f83018561025a565b61037f6020830184610272565b81810360408301526103908161033d565b90509392505050565b5f6020820190506103ac5f830184610272565b92915050565b5f604051905090565b5f80fd5b5f80fd5b5f80fd5b5f80fd5b5f601f19601f8301169050919050565b7f4e487b71000000000000000000000000000000000000000000000000000000005f52604160045260245ffd5b610411826103cb565b810181811067ffffffffffffffff821117156104305761042f6103db565b5b80604052505050565b5f6104426103b2565b905061044e8282610408565b919050565b5f67ffffffffffffffff82111561046d5761046c6103db565b5b610476826103cb565b9050602081019050919050565b828183375f83830152505050565b5f6104a361049e84610453565b610439565b9050828152602081018484840111156104bf576104be6103c7565b5b6104ca848285610483565b509392505050565b5f82601f8301126104e6576104e56103c3565b5b81356104f6848260208601610491565b91505092915050565b61050881610269565b8114610512575f80fd5b50565b5f81359050610523816104ff565b92915050565b5f806040838503121561053f5761053e6103bb565b5b5f83013567ffffffffffffffff81111561055c5761055b6103bf565b5b610568858286016104d2565b925050602061057985828601610515565b9150509250929050565b5f8115159050919050565b61059781610583565b82525050565b5f6040820190506105b05f83018561058e565b6105bd6020830184610272565b9392505050565b5f81519050919050565b8281835e5f83830152505050565b5f6105e6826105c4565b6105f08185610281565b93506106008185602086016105ce565b610609816103cb565b840191505092915050565b5f6020820190508181035f83015261062c81846105dc565b905092915050565b7f4e487b71000000000000000000000000000000000000000000000000000000005f52602260045260245ffd5b5f600282049050600182168061067857607f821691505b60208210810361068b5761068a610634565b5b50919050565b5f819050815f5260205f209050919050565b5f6020601f8301049050919050565b5f82821b905092915050565b5f600883026106ed7fffffffffffffffffffffffffffffffffffffffffffffffffffffffffffffffff826106b2565b6106f786836106b2565b95508019841693508086168417925050509392505050565b5f819050919050565b5f61073261072d61072884610269565b61070f565b610269565b9050919050565b5f819050919050565b61074b83610718565b61075f61075782610739565b8484546106be565b825550505050565b5f90565b610773610767565b61077e818484610742565b505050565b5b818110156107a1576107965f8261076b565b600181019050610784565b5050565b601f8211156107e6576107b781610691565b6107c0846106a3565b810160208510156107cf578190505b6107e36107db856106a3565b830182610783565b50505b505050565b5f82821c905092915050565b5f6108065f19846008026107eb565b1980831691505092915050565b5f61081e83836107f7565b9150826002028217905092915050565b610837826105c4565b67ffffffffffffffff8111156108505761084f6103db565b5b61085a8254610661565b6108658282856107a5565b5f60209050601f831160018114610896575f8415610884578287015190505b61088e8582610813565b8655506108f5565b601f1984166108a486610691565b5f5b828110156108cb578489015182556001820191506020850194506020810190506108a6565b868310156108e857848901516108e4601f8916826107f7565b8355505b6001600288020188555050505b505050505050565b5f6060820190506109105f83018661025a565b61091d6020830185610272565b818103604083015261092f81846105dc565b905094935050505056fea2646970667358221220385066cd9831b584d173eaca33f82268ce9de02cf8b35307f54387d11de4257b64736f6c634300081a0033",
			"opcodes": "PUSH1 0x80 PUSH1 0x40 MSTORE CALLVALUE DUP1 ISZERO PUSH1 0xE JUMPI PUSH0 DUP1 REVERT JUMPDEST POP PUSH2 0x96F DUP1 PUSH2 0x1C PUSH0 CODECOPY PUSH0 RETURN INVALID PUSH1 0x80 PUSH1 0x40 MSTORE PUSH1 0x4 CALLDATASIZE LT PUSH2 0x37 JUMPI PUSH0 CALLDATALOAD PUSH1 0xE0 SHR DUP1 PUSH4 0xC55699C EQ PUSH2 0xB2 JUMPI DUP1 PUSH4 0xF638C8B EQ PUSH2 0xDC JUMPI DUP1 PUSH4 0xE21F37CE EQ PUSH2 0x10D JUMPI PUSH2 0x77 JUMP JUMPDEST CALLDATASIZE PUSH2 0x77 JUMPI PUSH32 0x59E04C3F0D44B7CAF6E8EF854B61D9A51CF1960D7A88FF6356CC5E946B4B5832 CALLER CALLVALUE PUSH1 0x40 MLOAD PUSH2 0x6D SWAP3 SWAP2 SWAP1 PUSH2 0x2DB JUMP JUMPDEST PUSH1 0x40 MLOAD DUP1 SWAP2 SUB SWAP1 LOG1 STOP JUMPDEST PUSH32 0x59E04C3F0D44B7CAF6E8EF854B61D9A51CF1960D7A88FF6356CC5E946B4B5832 CALLER CALLVALUE PUSH1 0x40 MLOAD PUSH2 0xA8 SWAP3 SWAP2 SWAP1 PUSH2 0x35F JUMP JUMPDEST PUSH1 0x40 MLOAD DUP1 SWAP2 SUB SWAP1 LOG1 STOP JUMPDEST CALLVALUE DUP1 ISZERO PUSH2 0xBD JUMPI PUSH0 DUP1 REVERT JUMPDEST POP PUSH2 0xC6 PUSH2 0x137 JUMP JUMPDEST PUSH1 0x40 MLOAD PUSH2 0xD3 SWAP2 SWAP1 PUSH2 0x399 JUMP JUMPDEST PUSH1 0x40 MLOAD DUP1 SWAP2 SUB SWAP1 RETURN JUMPDEST PUSH2 0xF6 PUSH1 0x4 DUP1 CALLDATASIZE SUB DUP2 ADD SWAP1 PUSH2 0xF1 SWAP2 SWAP1 PUSH2 0x529 JUMP JUMPDEST PUSH2 0x13C JUMP JUMPDEST PUSH1 0x40 MLOAD PUSH2 0x104 SWAP3 SWAP2 SWAP1 PUSH2 0x59D JUMP JUMPDEST PUSH1 0x40 MLOAD DUP1 SWAP2 SUB SWAP1 RETURN JUMPDEST CALLVALUE DUP1 ISZERO PUSH2 0x118 JUMPI PUSH0 DUP1 REVERT JUMPDEST POP PUSH2 0x121 PUSH2 0x19E JUMP JUMPDEST PUSH1 0x40 MLOAD PUSH2 0x12E SWAP2 SWAP1 PUSH2 0x614 JUMP JUMPDEST PUSH1 0x40 MLOAD DUP1 SWAP2 SUB SWAP1 RETURN JUMPDEST PUSH0 SLOAD DUP2 JUMP JUMPDEST PUSH0 DUP1 DUP4 PUSH1 0x1 SWAP1 DUP2 PUSH2 0x14D SWAP2 SWAP1 PUSH2 0x82E JUMP JUMPDEST POP DUP3 PUSH0 DUP2 SWAP1 SSTORE POP PUSH32 0x59E04C3F0D44B7CAF6E8EF854B61D9A51CF1960D7A88FF6356CC5E946B4B5832 CALLER CALLVALUE DUP7 PUSH1 0x40 MLOAD PUSH2 0x187 SWAP4 SWAP3 SWAP2 SWAP1 PUSH2 0x8FD JUMP JUMPDEST PUSH1 0x40 MLOAD DUP1 SWAP2 SUB SWAP1 LOG1 PUSH1 0x1 PUSH1 0x64 SWAP2 POP SWAP2 POP SWAP3 POP SWAP3 SWAP1 POP JUMP JUMPDEST PUSH1 0x1 DUP1 SLOAD PUSH2 0x1AB SWAP1 PUSH2 0x661 JUMP JUMPDEST DUP1 PUSH1 0x1F ADD PUSH1 0x20 DUP1 SWAP2 DIV MUL PUSH1 0x20 ADD PUSH1 0x40 MLOAD SWAP1 DUP2 ADD PUSH1 0x40 MSTORE DUP1 SWAP3 SWAP2 SWAP1 DUP2 DUP2 MSTORE PUSH1 0x20 ADD DUP3 DUP1 SLOAD PUSH2 0x1D7 SWAP1 PUSH2 0x661 JUMP JUMPDEST DUP1 ISZERO PUSH2 0x222 JUMPI DUP1 PUSH1 0x1F LT PUSH2 0x1F9 JUMPI PUSH2 0x100 DUP1 DUP4 SLOAD DIV MUL DUP4 MSTORE SWAP2 PUSH1 0x20 ADD SWAP2 PUSH2 0x222 JUMP JUMPDEST DUP3 ADD SWAP2 SWAP1 PUSH0 MSTORE PUSH1 0x20 PUSH0 KECCAK256 SWAP1 JUMPDEST DUP2 SLOAD DUP2 MSTORE SWAP1 PUSH1 0x1 ADD SWAP1 PUSH1 0x20 ADD DUP1 DUP4 GT PUSH2 0x205 JUMPI DUP3 SWAP1 SUB PUSH1 0x1F AND DUP3 ADD SWAP2 JUMPDEST POP POP POP POP POP DUP2 JUMP JUMPDEST PUSH0 PUSH20 0xFFFFFFFFFFFFFFFFFFFFFFFFFFFFFFFFFFFFFFFF DUP3 AND SWAP1 POP SWAP2 SWAP1 POP JUMP JUMPDEST PUSH0 PUSH2 0x253 DUP3 PUSH2 0x22A JUMP JUMPDEST SWAP1 POP SWAP2 SWAP1 POP JUMP JUMPDEST PUSH2 0x263 DUP2 PUSH2 0x249 JUMP JUMPDEST DUP3 MSTORE POP POP JUMP JUMPDEST PUSH0 DUP2 SWAP1 POP SWAP2 SWAP1 POP JUMP JUMPDEST PUSH2 0x27B DUP2 PUSH2 0x269 JUMP JUMPDEST DUP3 MSTORE POP POP JUMP JUMPDEST PUSH0 DUP3 DUP3 MSTORE PUSH1 0x20 DUP3 ADD SWAP1 POP SWAP3 SWAP2 POP POP JUMP JUMPDEST PUSH32 0x457468657220726563656976656420776974686F75742063616C6C6461746100 PUSH0 DUP3 ADD MSTORE POP JUMP JUMPDEST PUSH0 PUSH2 0x2C5 PUSH1 0x1F DUP4 PUSH2 0x281 JUMP JUMPDEST SWAP2 POP PUSH2 0x2D0 DUP3 PUSH2 0x291 JUMP JUMPDEST PUSH1 0x20 DUP3 ADD SWAP1 POP SWAP2 SWAP1 POP JUMP JUMPDEST PUSH0 PUSH1 0x60 DUP3 ADD SWAP1 POP PUSH2 0x2EE PUSH0 DUP4 ADD DUP6 PUSH2 0x25A JUMP JUMPDEST PUSH2 0x2FB PUSH1 0x20 DUP4 ADD DUP5 PUSH2 0x272 JUMP JUMPDEST DUP2 DUP2 SUB PUSH1 0x40 DUP4 ADD MSTORE PUSH2 0x30C DUP2 PUSH2 0x2B9 JUMP JUMPDEST SWAP1 POP SWAP4 SWAP3 POP POP POP JUMP JUMPDEST PUSH32 0x46616C6C6261636B207761732063616C6C656400000000000000000000000000 PUSH0 DUP3 ADD MSTORE POP JUMP JUMPDEST PUSH0 PUSH2 0x349 PUSH1 0x13 DUP4 PUSH2 0x281 JUMP JUMPDEST SWAP2 POP PUSH2 0x354 DUP3 PUSH2 0x315 JUMP JUMPDEST PUSH1 0x20 DUP3 ADD SWAP1 POP SWAP2 SWAP1 POP JUMP JUMPDEST PUSH0 PUSH1 0x60 DUP3 ADD SWAP1 POP PUSH2 0x372 PUSH0 DUP4 ADD DUP6 PUSH2 0x25A JUMP JUMPDEST PUSH2 0x37F PUSH1 0x20 DUP4 ADD DUP5 PUSH2 0x272 JUMP JUMPDEST DUP2 DUP2 SUB PUSH1 0x40 DUP4 ADD MSTORE PUSH2 0x390 DUP2 PUSH2 0x33D JUMP JUMPDEST SWAP1 POP SWAP4 SWAP3 POP POP POP JUMP JUMPDEST PUSH0 PUSH1 0x20 DUP3 ADD SWAP1 POP PUSH2 0x3AC PUSH0 DUP4 ADD DUP5 PUSH2 0x272 JUMP JUMPDEST SWAP3 SWAP2 POP POP JUMP JUMPDEST PUSH0 PUSH1 0x40 MLOAD SWAP1 POP SWAP1 JUMP JUMPDEST PUSH0 DUP1 REVERT JUMPDEST PUSH0 DUP1 REVERT JUMPDEST PUSH0 DUP1 REVERT JUMPDEST PUSH0 DUP1 REVERT JUMPDEST PUSH0 PUSH1 0x1F NOT PUSH1 0x1F DUP4 ADD AND SWAP1 POP SWAP2 SWAP1 POP JUMP JUMPDEST PUSH32 0x4E487B7100000000000000000000000000000000000000000000000000000000 PUSH0 MSTORE PUSH1 0x41 PUSH1 0x4 MSTORE PUSH1 0x24 PUSH0 REVERT JUMPDEST PUSH2 0x411 DUP3 PUSH2 0x3CB JUMP JUMPDEST DUP2 ADD DUP2 DUP2 LT PUSH8 0xFFFFFFFFFFFFFFFF DUP3 GT OR ISZERO PUSH2 0x430 JUMPI PUSH2 0x42F PUSH2 0x3DB JUMP JUMPDEST JUMPDEST DUP1 PUSH1 0x40 MSTORE POP POP POP JUMP JUMPDEST PUSH0 PUSH2 0x442 PUSH2 0x3B2 JUMP JUMPDEST SWAP1 POP PUSH2 0x44E DUP3 DUP3 PUSH2 0x408 JUMP JUMPDEST SWAP2 SWAP1 POP JUMP JUMPDEST PUSH0 PUSH8 0xFFFFFFFFFFFFFFFF DUP3 GT ISZERO PUSH2 0x46D JUMPI PUSH2 0x46C PUSH2 0x3DB JUMP JUMPDEST JUMPDEST PUSH2 0x476 DUP3 PUSH2 0x3CB JUMP JUMPDEST SWAP1 POP PUSH1 0x20 DUP2 ADD SWAP1 POP SWAP2 SWAP1 POP JUMP JUMPDEST DUP3 DUP2 DUP4 CALLDATACOPY PUSH0 DUP4 DUP4 ADD MSTORE POP POP POP JUMP JUMPDEST PUSH0 PUSH2 0x4A3 PUSH2 0x49E DUP5 PUSH2 0x453 JUMP JUMPDEST PUSH2 0x439 JUMP JUMPDEST SWAP1 POP DUP3 DUP2 MSTORE PUSH1 0x20 DUP2 ADD DUP5 DUP5 DUP5 ADD GT ISZERO PUSH2 0x4BF JUMPI PUSH2 0x4BE PUSH2 0x3C7 JUMP JUMPDEST JUMPDEST PUSH2 0x4CA DUP5 DUP3 DUP6 PUSH2 0x483 JUMP JUMPDEST POP SWAP4 SWAP3 POP POP POP JUMP JUMPDEST PUSH0 DUP3 PUSH1 0x1F DUP4 ADD SLT PUSH2 0x4E6 JUMPI PUSH2 0x4E5 PUSH2 0x3C3 JUMP JUMPDEST JUMPDEST DUP2 CALLDATALOAD PUSH2 0x4F6 DUP5 DUP3 PUSH1 0x20 DUP7 ADD PUSH2 0x491 JUMP JUMPDEST SWAP2 POP POP SWAP3 SWAP2 POP POP JUMP JUMPDEST PUSH2 0x508 DUP2 PUSH2 0x269 JUMP JUMPDEST DUP2 EQ PUSH2 0x512 JUMPI PUSH0 DUP1 REVERT JUMPDEST POP JUMP JUMPDEST PUSH0 DUP2 CALLDATALOAD SWAP1 POP PUSH2 0x523 DUP2 PUSH2 0x4FF JUMP JUMPDEST SWAP3 SWAP2 POP POP JUMP JUMPDEST PUSH0 DUP1 PUSH1 0x40 DUP4 DUP6 SUB SLT ISZERO PUSH2 0x53F JUMPI PUSH2 0x53E PUSH2 0x3BB JUMP JUMPDEST JUMPDEST PUSH0 DUP4 ADD CALLDATALOAD PUSH8 0xFFFFFFFFFFFFFFFF DUP2 GT ISZERO PUSH2 0x55C JUMPI PUSH2 0x55B PUSH2 0x3BF JUMP JUMPDEST JUMPDEST PUSH2 0x568 DUP6 DUP3 DUP7 ADD PUSH2 0x4D2 JUMP JUMPDEST SWAP3 POP POP PUSH1 0x20 PUSH2 0x579 DUP6 DUP3 DUP7 ADD PUSH2 0x515 JUMP JUMPDEST SWAP2 POP POP SWAP3 POP SWAP3 SWAP1 POP JUMP JUMPDEST PUSH0 DUP2 ISZERO ISZERO SWAP1 POP SWAP2 SWAP1 POP JUMP JUMPDEST PUSH2 0x597 DUP2 PUSH2 0x583 JUMP JUMPDEST DUP3 MSTORE POP POP JUMP JUMPDEST PUSH0 PUSH1 0x40 DUP3 ADD SWAP1 POP PUSH2 0x5B0 PUSH0 DUP4 ADD DUP6 PUSH2 0x58E JUMP JUMPDEST PUSH2 0x5BD PUSH1 0x20 DUP4 ADD DUP5 PUSH2 0x272 JUMP JUMPDEST SWAP4 SWAP3 POP POP POP JUMP JUMPDEST PUSH0 DUP2 MLOAD SWAP1 POP SWAP2 SWAP1 POP JUMP JUMPDEST DUP3 DUP2 DUP4 MCOPY PUSH0 DUP4 DUP4 ADD MSTORE POP POP POP JUMP JUMPDEST PUSH0 PUSH2 0x5E6 DUP3 PUSH2 0x5C4 JUMP JUMPDEST PUSH2 0x5F0 DUP2 DUP6 PUSH2 0x281 JUMP JUMPDEST SWAP4 POP PUSH2 0x600 DUP2 DUP6 PUSH1 0x20 DUP7 ADD PUSH2 0x5CE JUMP JUMPDEST PUSH2 0x609 DUP2 PUSH2 0x3CB JUMP JUMPDEST DUP5 ADD SWAP2 POP POP SWAP3 SWAP2 POP POP JUMP JUMPDEST PUSH0 PUSH1 0x20 DUP3 ADD SWAP1 POP DUP2 DUP2 SUB PUSH0 DUP4 ADD MSTORE PUSH2 0x62C DUP2 DUP5 PUSH2 0x5DC JUMP JUMPDEST SWAP1 POP SWAP3 SWAP2 POP POP JUMP JUMPDEST PUSH32 0x4E487B7100000000000000000000000000000000000000000000000000000000 PUSH0 MSTORE PUSH1 0x22 PUSH1 0x4 MSTORE PUSH1 0x24 PUSH0 REVERT JUMPDEST PUSH0 PUSH1 0x2 DUP3 DIV SWAP1 POP PUSH1 0x1 DUP3 AND DUP1 PUSH2 0x678 JUMPI PUSH1 0x7F DUP3 AND SWAP2 POP JUMPDEST PUSH1 0x20 DUP3 LT DUP2 SUB PUSH2 0x68B JUMPI PUSH2 0x68A PUSH2 0x634 JUMP JUMPDEST JUMPDEST POP SWAP2 SWAP1 POP JUMP JUMPDEST PUSH0 DUP2 SWAP1 POP DUP2 PUSH0 MSTORE PUSH1 0x20 PUSH0 KECCAK256 SWAP1 POP SWAP2 SWAP1 POP JUMP JUMPDEST PUSH0 PUSH1 0x20 PUSH1 0x1F DUP4 ADD DIV SWAP1 POP SWAP2 SWAP1 POP JUMP JUMPDEST PUSH0 DUP3 DUP3 SHL SWAP1 POP SWAP3 SWAP2 POP POP JUMP JUMPDEST PUSH0 PUSH1 0x8 DUP4 MUL PUSH2 0x6ED PUSH32 0xFFFFFFFFFFFFFFFFFFFFFFFFFFFFFFFFFFFFFFFFFFFFFFFFFFFFFFFFFFFFFFFF DUP3 PUSH2 0x6B2 JUMP JUMPDEST PUSH2 0x6F7 DUP7 DUP4 PUSH2 0x6B2 JUMP JUMPDEST SWAP6 POP DUP1 NOT DUP5 AND SWAP4 POP DUP1 DUP7 AND DUP5 OR SWAP3 POP POP POP SWAP4 SWAP3 POP POP POP JUMP JUMPDEST PUSH0 DUP2 SWAP1 POP SWAP2 SWAP1 POP JUMP JUMPDEST PUSH0 PUSH2 0x732 PUSH2 0x72D PUSH2 0x728 DUP5 PUSH2 0x269 JUMP JUMPDEST PUSH2 0x70F JUMP JUMPDEST PUSH2 0x269 JUMP JUMPDEST SWAP1 POP SWAP2 SWAP1 POP JUMP JUMPDEST PUSH0 DUP2 SWAP1 POP SWAP2 SWAP1 POP JUMP JUMPDEST PUSH2 0x74B DUP4 PUSH2 0x718 JUMP JUMPDEST PUSH2 0x75F PUSH2 0x757 DUP3 PUSH2 0x739 JUMP JUMPDEST DUP5 DUP5 SLOAD PUSH2 0x6BE JUMP JUMPDEST DUP3 SSTORE POP POP POP POP JUMP JUMPDEST PUSH0 SWAP1 JUMP JUMPDEST PUSH2 0x773 PUSH2 0x767 JUMP JUMPDEST PUSH2 0x77E DUP2 DUP5 DUP5 PUSH2 0x742 JUMP JUMPDEST POP POP POP JUMP JUMPDEST JUMPDEST DUP2 DUP2 LT ISZERO PUSH2 0x7A1 JUMPI PUSH2 0x796 PUSH0 DUP3 PUSH2 0x76B JUMP JUMPDEST PUSH1 0x1 DUP2 ADD SWAP1 POP PUSH2 0x784 JUMP JUMPDEST POP POP JUMP JUMPDEST PUSH1 0x1F DUP3 GT ISZERO PUSH2 0x7E6 JUMPI PUSH2 0x7B7 DUP2 PUSH2 0x691 JUMP JUMPDEST PUSH2 0x7C0 DUP5 PUSH2 0x6A3 JUMP JUMPDEST DUP2 ADD PUSH1 0x20 DUP6 LT ISZERO PUSH2 0x7CF JUMPI DUP2 SWAP1 POP JUMPDEST PUSH2 0x7E3 PUSH2 0x7DB DUP6 PUSH2 0x6A3 JUMP JUMPDEST DUP4 ADD DUP3 PUSH2 0x783 JUMP JUMPDEST POP POP JUMPDEST POP POP POP JUMP JUMPDEST PUSH0 DUP3 DUP3 SHR SWAP1 POP SWAP3 SWAP2 POP POP JUMP JUMPDEST PUSH0 PUSH2 0x806 PUSH0 NOT DUP5 PUSH1 0x8 MUL PUSH2 0x7EB JUMP JUMPDEST NOT DUP1 DUP4 AND SWAP2 POP POP SWAP3 SWAP2 POP POP JUMP JUMPDEST PUSH0 PUSH2 0x81E DUP4 DUP4 PUSH2 0x7F7 JUMP JUMPDEST SWAP2 POP DUP3 PUSH1 0x2 MUL DUP3 OR SWAP1 POP SWAP3 SWAP2 POP POP JUMP JUMPDEST PUSH2 0x837 DUP3 PUSH2 0x5C4 JUMP JUMPDEST PUSH8 0xFFFFFFFFFFFFFFFF DUP2 GT ISZERO PUSH2 0x850 JUMPI PUSH2 0x84F PUSH2 0x3DB JUMP JUMPDEST JUMPDEST PUSH2 0x85A DUP3 SLOAD PUSH2 0x661 JUMP JUMPDEST PUSH2 0x865 DUP3 DUP3 DUP6 PUSH2 0x7A5 JUMP JUMPDEST PUSH0 PUSH1 0x20 SWAP1 POP PUSH1 0x1F DUP4 GT PUSH1 0x1 DUP2 EQ PUSH2 0x896 JUMPI PUSH0 DUP5 ISZERO PUSH2 0x884 JUMPI DUP3 DUP8 ADD MLOAD SWAP1 POP JUMPDEST PUSH2 0x88E DUP6 DUP3 PUSH2 0x813 JUMP JUMPDEST DUP7 SSTORE POP PUSH2 0x8F5 JUMP JUMPDEST PUSH1 0x1F NOT DUP5 AND PUSH2 0x8A4 DUP7 PUSH2 0x691 JUMP JUMPDEST PUSH0 JUMPDEST DUP3 DUP2 LT ISZERO PUSH2 0x8CB JUMPI DUP5 DUP10 ADD MLOAD DUP3 SSTORE PUSH1 0x1 DUP3 ADD SWAP2 POP PUSH1 0x20 DUP6 ADD SWAP5 POP PUSH1 0x20 DUP2 ADD SWAP1 POP PUSH2 0x8A6 JUMP JUMPDEST DUP7 DUP4 LT ISZERO PUSH2 0x8E8 JUMPI DUP5 DUP10 ADD MLOAD PUSH2 0x8E4 PUSH1 0x1F DUP10 AND DUP3 PUSH2 0x7F7 JUMP JUMPDEST DUP4 SSTORE POP JUMPDEST PUSH1 0x1 PUSH1 0x2 DUP9 MUL ADD DUP9 SSTORE POP POP POP JUMPDEST POP POP POP POP POP POP JUMP JUMPDEST PUSH0 PUSH1 0x60 DUP3 ADD SWAP1 POP PUSH2 0x910 PUSH0 DUP4 ADD DUP7 PUSH2 0x25A JUMP JUMPDEST PUSH2 0x91D PUSH1 0x20 DUP4 ADD DUP6 PUSH2 0x272 JUMP JUMPDEST DUP2 DUP2 SUB PUSH1 0x40 DUP4 ADD MSTORE PUSH2 0x92F DUP2 DUP5 PUSH2 0x5DC JUMP JUMPDEST SWAP1 POP SWAP5 SWAP4 POP POP POP POP JUMP INVALID LOG2 PUSH5 0x6970667358 0x22 SLT KECCAK256 CODESIZE POP PUSH7 0xCD9831B584D173 0xEA 0xCA CALLER 0xF8 0x22 PUSH9 0xCE9DE02CF8B35307F5 NUMBER DUP8 0xD1 SAR 0xE4 0x25 PUSH28 0x64736F6C634300081A00330000000000000000000000000000000000 "
		},
		"gasEstimates": {
			"creation": {
				"codeDepositCost": "483000",
				"executionCost": "516",
				"totalCost": "483516"
			},
			"external": {
				"": "2687",
				"fun(string,uint256)": "infinite",
				"message()": "infinite",
				"x()": "2402"
			}
		},
		"methodIdentifiers": {
			"fun(string,uint256)": "0f638c8b",
			"message()": "e21f37ce",
			"x()": "0c55699c"
		}
	},
	"abi": [
		{
			"anonymous": false,
			"inputs": [
				{
					"indexed": false,
					"internalType": "address",
					"name": "caller",
					"type": "address"
				},
				{
					"indexed": false,
					"internalType": "uint256",
					"name": "amount",
					"type": "uint256"
				},
				{
					"indexed": false,
					"internalType": "string",
					"name": "message",
					"type": "string"
				}
			],
			"name": "Received",
			"type": "event"
		},
		{
			"stateMutability": "payable",
			"type": "fallback"
		},
		{
			"inputs": [
				{
					"internalType": "string",
					"name": "_message",
					"type": "string"
				},
				{
					"internalType": "uint256",
					"name": "_x",
					"type": "uint256"
				}
			],
			"name": "fun",
			"outputs": [
				{
					"internalType": "bool",
					"name": "",
					"type": "bool"
				},
				{
					"internalType": "uint256",
					"name": "",
					"type": "uint256"
				}
			],
			"stateMutability": "payable",
			"type": "function"
		},
		{
			"inputs": [],
			"name": "message",
			"outputs": [
				{
					"internalType": "string",
					"name": "",
					"type": "string"
				}
			],
			"stateMutability": "view",
			"type": "function"
		},
		{
			"inputs": [],
			"name": "x",
			"outputs": [
				{
					"internalType": "uint256",
					"name": "",
					"type": "uint256"
				}
			],
			"stateMutability": "view",
			"type": "function"
		},
		{
			"stateMutability": "payable",
			"type": "receive"
		}
	]
}