{
	"contracts/1_Storage.sol": {
		"Storage": {
			"abi": [
				{
					"inputs": [],
					"name": "max",
					"outputs": [
						{
							"internalType": "uint8",
							"name": "",
							"type": "uint8"
						}
					],
					"stateMutability": "pure",
					"type": "function"
				},
				{
					"inputs": [],
					"name": "min",
					"outputs": [
						{
							"internalType": "uint256",
							"name": "",
							"type": "uint256"
						}
					],
					"stateMutability": "pure",
					"type": "function"
				},
				{
					"inputs": [],
					"name": "testMath",
					"outputs": [
						{
							"internalType": "uint256",
							"name": "",
							"type": "uint256"
						}
					],
					"stateMutability": "pure",
					"type": "function"
				}
			],
			"devdoc": {
				"custom:dev-run-script": "./scripts/deploy_with_ethers.ts",
				"details": "Store & retrieve value in a variable",
				"kind": "dev",
				"methods": {},
				"title": "Storage",
				"version": 1
			},
			"evm": {
				"assembly": "    /* \"contracts/1_Storage.sol\":199:578  contract Storage {... */\n  mstore(0x40, 0x80)\n  callvalue\n  dup1\n  iszero\n  tag_1\n  jumpi\n  0x00\n  dup1\n  revert\ntag_1:\n  pop\n  dataSize(sub_0)\n  dup1\n  dataOffset(sub_0)\n  0x00\n  codecopy\n  0x00\n  return\nstop\n\nsub_0: assembly {\n        /* \"contracts/1_Storage.sol\":199:578  contract Storage {... */\n      mstore(0x40, 0x80)\n      callvalue\n      dup1\n      iszero\n      tag_1\n      jumpi\n      0x00\n      dup1\n      revert\n    tag_1:\n      pop\n      jumpi(tag_2, lt(calldatasize, 0x04))\n      shr(0xe0, calldataload(0x00))\n      dup1\n      0x6ac5db19\n      eq\n      tag_3\n      jumpi\n      dup1\n      0xb073e2b7\n      eq\n      tag_4\n      jumpi\n      dup1\n      0xf8897945\n      eq\n      tag_5\n      jumpi\n    tag_2:\n      0x00\n      dup1\n      revert\n        /* \"contracts/1_Storage.sol\":463:572  function max() public pure returns (uint8) {... */\n    tag_3:\n      tag_6\n      tag_7\n      jump\t// in\n    tag_6:\n      mload(0x40)\n      tag_8\n      swap2\n      swap1\n      tag_9\n      jump\t// in\n    tag_8:\n      mload(0x40)\n      dup1\n      swap2\n      sub\n      swap1\n      return\n        /* \"contracts/1_Storage.sol\":228:344  function testMath() public pure returns (uint) {... */\n    tag_4:\n      tag_10\n      tag_11\n      jump\t// in\n    tag_10:\n      mload(0x40)\n      tag_12\n      swap2\n      swap1\n      tag_13\n      jump\t// in\n    tag_12:\n      mload(0x40)\n      dup1\n      swap2\n      sub\n      swap1\n      return\n        /* \"contracts/1_Storage.sol\":349:457  function min() public pure returns (uint) {... */\n    tag_5:\n      tag_14\n      tag_15\n      jump\t// in\n    tag_14:\n      mload(0x40)\n      tag_16\n      swap2\n      swap1\n      tag_13\n      jump\t// in\n    tag_16:\n      mload(0x40)\n      dup1\n      swap2\n      sub\n      swap1\n      return\n        /* \"contracts/1_Storage.sol\":463:572  function max() public pure returns (uint8) {... */\n    tag_7:\n        /* \"contracts/1_Storage.sol\":499:504  uint8 */\n      0x00\n        /* \"contracts/1_Storage.sol\":516:526  uint8 maxi */\n      dup1\n        /* \"contracts/1_Storage.sol\":529:544  type(uint8).max */\n      0xff\n        /* \"contracts/1_Storage.sol\":516:544  uint8 maxi = type(uint8).max */\n      swap1\n      pop\n        /* \"contracts/1_Storage.sol\":561:565  maxi */\n      dup1\n        /* \"contracts/1_Storage.sol\":554:565  return maxi */\n      swap2\n      pop\n      pop\n        /* \"contracts/1_Storage.sol\":463:572  function max() public pure returns (uint8) {... */\n      swap1\n      jump\t// out\n        /* \"contracts/1_Storage.sol\":228:344  function testMath() public pure returns (uint) {... */\n    tag_11:\n        /* \"contracts/1_Storage.sol\":269:273  uint */\n      0x00\n        /* \"contracts/1_Storage.sol\":284:290  uint a */\n      dup1\n        /* \"contracts/1_Storage.sol\":293:294  0 */\n      0x00\n        /* \"contracts/1_Storage.sol\":284:294  uint a = 0 */\n      swap1\n      pop\n        /* \"contracts/1_Storage.sol\":315:318  a-- */\n      dup1\n      dup1\n      0x01\n      swap1\n      sub\n      swap2\n      pop\n      pop\n        /* \"contracts/1_Storage.sol\":336:337  a */\n      dup1\n        /* \"contracts/1_Storage.sol\":329:337  return a */\n      swap2\n      pop\n      pop\n        /* \"contracts/1_Storage.sol\":228:344  function testMath() public pure returns (uint) {... */\n      swap1\n      jump\t// out\n        /* \"contracts/1_Storage.sol\":349:457  function min() public pure returns (uint) {... */\n    tag_15:\n        /* \"contracts/1_Storage.sol\":385:389  uint */\n      0x00\n        /* \"contracts/1_Storage.sol\":402:411  uint mini */\n      dup1\n        /* \"contracts/1_Storage.sol\":414:428  type(uint).min */\n      0x00\n        /* \"contracts/1_Storage.sol\":402:428  uint mini = type(uint).min */\n      swap1\n      pop\n        /* \"contracts/1_Storage.sol\":446:450  mini */\n      dup1\n        /* \"contracts/1_Storage.sol\":439:450  return mini */\n      swap2\n      pop\n      pop\n        /* \"contracts/1_Storage.sol\":349:457  function min() public pure returns (uint) {... */\n      swap1\n      jump\t// out\n        /* \"#utility.yul\":7:93   */\n    tag_20:\n        /* \"#utility.yul\":42:49   */\n      0x00\n        /* \"#utility.yul\":82:86   */\n      0xff\n        /* \"#utility.yul\":75:80   */\n      dup3\n        /* \"#utility.yul\":71:87   */\n      and\n        /* \"#utility.yul\":60:87   */\n      swap1\n      pop\n        /* \"#utility.yul\":7:93   */\n      swap2\n      swap1\n      pop\n      jump\t// out\n        /* \"#utility.yul\":99:211   */\n    tag_21:\n        /* \"#utility.yul\":182:204   */\n      tag_27\n        /* \"#utility.yul\":198:203   */\n      dup2\n        /* \"#utility.yul\":182:204   */\n      tag_20\n      jump\t// in\n    tag_27:\n        /* \"#utility.yul\":177:180   */\n      dup3\n        /* \"#utility.yul\":170:205   */\n      mstore\n        /* \"#utility.yul\":99:211   */\n      pop\n      pop\n      jump\t// out\n        /* \"#utility.yul\":217:431   */\n    tag_9:\n        /* \"#utility.yul\":306:310   */\n      0x00\n        /* \"#utility.yul\":344:346   */\n      0x20\n        /* \"#utility.yul\":333:342   */\n      dup3\n        /* \"#utility.yul\":329:347   */\n      add\n        /* \"#utility.yul\":321:347   */\n      swap1\n      pop\n        /* \"#utility.yul\":357:424   */\n      tag_29\n        /* \"#utility.yul\":421:422   */\n      0x00\n        /* \"#utility.yul\":410:419   */\n      dup4\n        /* \"#utility.yul\":406:423   */\n      add\n        /* \"#utility.yul\":397:403   */\n      dup5\n        /* \"#utility.yul\":357:424   */\n      tag_21\n      jump\t// in\n    tag_29:\n        /* \"#utility.yul\":217:431   */\n      swap3\n      swap2\n      pop\n      pop\n      jump\t// out\n        /* \"#utility.yul\":437:514   */\n    tag_22:\n        /* \"#utility.yul\":474:481   */\n      0x00\n        /* \"#utility.yul\":503:508   */\n      dup2\n        /* \"#utility.yul\":492:508   */\n      swap1\n      pop\n        /* \"#utility.yul\":437:514   */\n      swap2\n      swap1\n      pop\n      jump\t// out\n        /* \"#utility.yul\":520:638   */\n    tag_23:\n        /* \"#utility.yul\":607:631   */\n      tag_32\n        /* \"#utility.yul\":625:630   */\n      dup2\n        /* \"#utility.yul\":607:631   */\n      tag_22\n      jump\t// in\n    tag_32:\n        /* \"#utility.yul\":602:605   */\n      dup3\n        /* \"#utility.yul\":595:632   */\n      mstore\n        /* \"#utility.yul\":520:638   */\n      pop\n      pop\n      jump\t// out\n        /* \"#utility.yul\":644:866   */\n    tag_13:\n        /* \"#utility.yul\":737:741   */\n      0x00\n        /* \"#utility.yul\":775:777   */\n      0x20\n        /* \"#utility.yul\":764:773   */\n      dup3\n        /* \"#utility.yul\":760:778   */\n      add\n        /* \"#utility.yul\":752:778   */\n      swap1\n      pop\n        /* \"#utility.yul\":788:859   */\n      tag_34\n        /* \"#utility.yul\":856:857   */\n      0x00\n        /* \"#utility.yul\":845:854   */\n      dup4\n        /* \"#utility.yul\":841:858   */\n      add\n        /* \"#utility.yul\":832:838   */\n      dup5\n        /* \"#utility.yul\":788:859   */\n      tag_23\n      jump\t// in\n    tag_34:\n        /* \"#utility.yul\":644:866   */\n      swap3\n      swap2\n      pop\n      pop\n      jump\t// out\n\n    auxdata: 0xa2646970667358221220a10291255b44905260f6e463bc343ed24e8f647f90455586d43b3d002e722c1c64736f6c634300081a0033\n}\n",
				"bytecode": {
					"linkReferences": {},
					"object": "6080604052348015600e575f80fd5b506101668061001c5f395ff3fe608060405234801561000f575f80fd5b506004361061003f575f3560e01c80636ac5db1914610043578063b073e2b714610061578063f88979451461007f575b5f80fd5b61004b61009d565b60405161005891906100e6565b60405180910390f35b6100696100aa565b6040516100769190610117565b60405180910390f35b6100876100bf565b6040516100949190610117565b60405180910390f35b5f8060ff90508091505090565b5f805f90508080600190039150508091505090565b5f805f90508091505090565b5f60ff82169050919050565b6100e0816100cb565b82525050565b5f6020820190506100f95f8301846100d7565b92915050565b5f819050919050565b610111816100ff565b82525050565b5f60208201905061012a5f830184610108565b9291505056fea2646970667358221220a10291255b44905260f6e463bc343ed24e8f647f90455586d43b3d002e722c1c64736f6c634300081a0033",
					"opcodes": "PUSH1 0x80 PUSH1 0x40 MSTORE CALLVALUE DUP1 ISZERO PUSH1 0xE JUMPI PUSH0 DUP1 REVERT JUMPDEST POP PUSH2 0x166 DUP1 PUSH2 0x1C PUSH0 CODECOPY PUSH0 RETURN INVALID PUSH1 0x80 PUSH1 0x40 MSTORE CALLVALUE DUP1 ISZERO PUSH2 0xF JUMPI PUSH0 DUP1 REVERT JUMPDEST POP PUSH1 0x4 CALLDATASIZE LT PUSH2 0x3F JUMPI PUSH0 CALLDATALOAD PUSH1 0xE0 SHR DUP1 PUSH4 0x6AC5DB19 EQ PUSH2 0x43 JUMPI DUP1 PUSH4 0xB073E2B7 EQ PUSH2 0x61 JUMPI DUP1 PUSH4 0xF8897945 EQ PUSH2 0x7F JUMPI JUMPDEST PUSH0 DUP1 REVERT JUMPDEST PUSH2 0x4B PUSH2 0x9D JUMP JUMPDEST PUSH1 0x40 MLOAD PUSH2 0x58 SWAP2 SWAP1 PUSH2 0xE6 JUMP JUMPDEST PUSH1 0x40 MLOAD DUP1 SWAP2 SUB SWAP1 RETURN JUMPDEST PUSH2 0x69 PUSH2 0xAA JUMP JUMPDEST PUSH1 0x40 MLOAD PUSH2 0x76 SWAP2 SWAP1 PUSH2 0x117 JUMP JUMPDEST PUSH1 0x40 MLOAD DUP1 SWAP2 SUB SWAP1 RETURN JUMPDEST PUSH2 0x87 PUSH2 0xBF JUMP JUMPDEST PUSH1 0x40 MLOAD PUSH2 0x94 SWAP2 SWAP1 PUSH2 0x117 JUMP JUMPDEST PUSH1 0x40 MLOAD DUP1 SWAP2 SUB SWAP1 RETURN JUMPDEST PUSH0 DUP1 PUSH1 0xFF SWAP1 POP DUP1 SWAP2 POP POP SWAP1 JUMP JUMPDEST PUSH0 DUP1 PUSH0 SWAP1 POP DUP1 DUP1 PUSH1 0x1 SWAP1 SUB SWAP2 POP POP DUP1 SWAP2 POP POP SWAP1 JUMP JUMPDEST PUSH0 DUP1 PUSH0 SWAP1 POP DUP1 SWAP2 POP POP SWAP1 JUMP JUMPDEST PUSH0 PUSH1 0xFF DUP3 AND SWAP1 POP SWAP2 SWAP1 POP JUMP JUMPDEST PUSH2 0xE0 DUP2 PUSH2 0xCB JUMP JUMPDEST DUP3 MSTORE POP POP JUMP JUMPDEST PUSH0 PUSH1 0x20 DUP3 ADD SWAP1 POP PUSH2 0xF9 PUSH0 DUP4 ADD DUP5 PUSH2 0xD7 JUMP JUMPDEST SWAP3 SWAP2 POP POP JUMP JUMPDEST PUSH0 DUP2 SWAP1 POP SWAP2 SWAP1 POP JUMP JUMPDEST PUSH2 0x111 DUP2 PUSH2 0xFF JUMP JUMPDEST DUP3 MSTORE POP POP JUMP JUMPDEST PUSH0 PUSH1 0x20 DUP3 ADD SWAP1 POP PUSH2 0x12A PUSH0 DUP4 ADD DUP5 PUSH2 0x108 JUMP JUMPDEST SWAP3 SWAP2 POP POP JUMP INVALID LOG2 PUSH5 0x6970667358 0x22 SLT KECCAK256 LOG1 MUL SWAP2 0x25 JUMPDEST PREVRANDAO SWAP1 MSTORE PUSH1 0xF6 0xE4 PUSH4 0xBC343ED2 0x4E DUP16 PUSH5 0x7F90455586 0xD4 EXTCODESIZE RETURNDATASIZE STOP 0x2E PUSH19 0x2C1C64736F6C634300081A0033000000000000 "
				},
				"gasEstimates": {
					"creation": {
						"codeDepositCost": "71600",
						"executionCost": "121",
						"totalCost": "71721"
					},
					"external": {
						"max()": "329",
						"min()": "366",
						"testMath()": "366"
					}
				},
				"methodIdentifiers": {
					"max()": "6ac5db19",
					"min()": "f8897945",
					"testMath()": "b073e2b7"
				}
			},
			"storageLayout": {
				"storage": [],
				"types": null
			},
			"userdoc": {
				"kind": "user",
				"methods": {},
				"version": 1
			}
		}
	}
}