{
	"contracts/Conditions.sol": {
		"Conditions": {
			"abi": [
				{
					"inputs": [
						{
							"internalType": "uint256",
							"name": "_num",
							"type": "uint256"
						}
					],
					"name": "isEven",
					"outputs": [
						{
							"internalType": "string",
							"name": "",
							"type": "string"
						}
					],
					"stateMutability": "pure",
					"type": "function"
				},
				{
					"inputs": [
						{
							"internalType": "uint256",
							"name": "_age",
							"type": "uint256"
						}
					],
					"name": "isLegal",
					"outputs": [
						{
							"internalType": "bool",
							"name": "",
							"type": "bool"
						}
					],
					"stateMutability": "pure",
					"type": "function"
				}
			],
			"devdoc": {
				"kind": "dev",
				"methods": {},
				"version": 1
			},
			"evm": {
				"assembly": "    /* \"contracts/Conditions.sol\":70:420  contract Conditions {... */\n  mstore(0x40, 0x80)\n  callvalue\n  dup1\n  iszero\n  tag_1\n  jumpi\n  0x00\n  dup1\n  revert\ntag_1:\n  pop\n  dataSize(sub_0)\n  dup1\n  dataOffset(sub_0)\n  0x00\n  codecopy\n  0x00\n  return\nstop\n\nsub_0: assembly {\n        /* \"contracts/Conditions.sol\":70:420  contract Conditions {... */\n      mstore(0x40, 0x80)\n      callvalue\n      dup1\n      iszero\n      tag_1\n      jumpi\n      0x00\n      dup1\n      revert\n    tag_1:\n      pop\n      jumpi(tag_2, lt(calldatasize, 0x04))\n      shr(0xe0, calldataload(0x00))\n      dup1\n      0x2a2e1320\n      eq\n      tag_3\n      jumpi\n      dup1\n      0xafee59d7\n      eq\n      tag_4\n      jumpi\n    tag_2:\n      0x00\n      dup1\n      revert\n        /* \"contracts/Conditions.sol\":302:417  function isEven(uint _num) public pure returns (string memory) {... */\n    tag_3:\n      tag_5\n      0x04\n      dup1\n      calldatasize\n      sub\n      dup2\n      add\n      swap1\n      tag_6\n      swap2\n      swap1\n      tag_7\n      jump\t// in\n    tag_6:\n      tag_8\n      jump\t// in\n    tag_5:\n      mload(0x40)\n      tag_9\n      swap2\n      swap1\n      tag_10\n      jump\t// in\n    tag_9:\n      mload(0x40)\n      dup1\n      swap2\n      sub\n      swap1\n      return\n        /* \"contracts/Conditions.sol\":110:281  function isLegal(uint _age) public pure returns (bool) {... */\n    tag_4:\n      tag_11\n      0x04\n      dup1\n      calldatasize\n      sub\n      dup2\n      add\n      swap1\n      tag_12\n      swap2\n      swap1\n      tag_7\n      jump\t// in\n    tag_12:\n      tag_13\n      jump\t// in\n    tag_11:\n      mload(0x40)\n      tag_14\n      swap2\n      swap1\n      tag_15\n      jump\t// in\n    tag_14:\n      mload(0x40)\n      dup1\n      swap2\n      sub\n      swap1\n      return\n        /* \"contracts/Conditions.sol\":302:417  function isEven(uint _num) public pure returns (string memory) {... */\n    tag_8:\n        /* \"contracts/Conditions.sol\":350:363  string memory */\n      0x60\n        /* \"contracts/Conditions.sol\":391:392  0 */\n      0x00\n        /* \"contracts/Conditions.sol\":388:389  2 */\n      0x02\n        /* \"contracts/Conditions.sol\":383:387  _num */\n      dup4\n        /* \"contracts/Conditions.sol\":383:389  _num%2 */\n      tag_17\n      swap2\n      swap1\n      tag_18\n      jump\t// in\n    tag_17:\n        /* \"contracts/Conditions.sol\":383:392  _num%2==0 */\n      eq\n        /* \"contracts/Conditions.sol\":382:410  (_num%2==0) ? \"Even\" : \"Odd\" */\n      tag_19\n      jumpi\n      mload(0x40)\n      dup1\n      0x40\n      add\n      0x40\n      mstore\n      dup1\n      0x03\n      dup2\n      mstore\n      0x20\n      add\n      0x4f64640000000000000000000000000000000000000000000000000000000000\n      dup2\n      mstore\n      pop\n      jump(tag_20)\n    tag_19:\n      mload(0x40)\n      dup1\n      0x40\n      add\n      0x40\n      mstore\n      dup1\n      0x04\n      dup2\n      mstore\n      0x20\n      add\n      0x4576656e00000000000000000000000000000000000000000000000000000000\n      dup2\n      mstore\n      pop\n    tag_20:\n        /* \"contracts/Conditions.sol\":375:410  return (_num%2==0) ? \"Even\" : \"Odd\" */\n      swap1\n      pop\n        /* \"contracts/Conditions.sol\":302:417  function isEven(uint _num) public pure returns (string memory) {... */\n      swap2\n      swap1\n      pop\n      jump\t// out\n        /* \"contracts/Conditions.sol\":110:281  function isLegal(uint _age) public pure returns (bool) {... */\n    tag_13:\n        /* \"contracts/Conditions.sol\":159:163  bool */\n      0x00\n        /* \"contracts/Conditions.sol\":186:188  18 */\n      0x12\n        /* \"contracts/Conditions.sol\":178:182  _age */\n      dup3\n        /* \"contracts/Conditions.sol\":178:188  _age >= 18 */\n      lt\n        /* \"contracts/Conditions.sol\":175:275  if(_age >= 18){... */\n      tag_22\n      jumpi\n        /* \"contracts/Conditions.sol\":210:214  true */\n      0x01\n        /* \"contracts/Conditions.sol\":203:214  return true */\n      swap1\n      pop\n      jump(tag_21)\n        /* \"contracts/Conditions.sol\":175:275  if(_age >= 18){... */\n    tag_22:\n        /* \"contracts/Conditions.sol\":259:264  false */\n      0x00\n        /* \"contracts/Conditions.sol\":252:264  return false */\n      swap1\n      pop\n        /* \"contracts/Conditions.sol\":110:281  function isLegal(uint _age) public pure returns (bool) {... */\n    tag_21:\n      swap2\n      swap1\n      pop\n      jump\t// out\n        /* \"#utility.yul\":88:205   */\n    tag_25:\n        /* \"#utility.yul\":197:198   */\n      0x00\n        /* \"#utility.yul\":194:195   */\n      dup1\n        /* \"#utility.yul\":187:199   */\n      revert\n        /* \"#utility.yul\":334:411   */\n    tag_27:\n        /* \"#utility.yul\":371:378   */\n      0x00\n        /* \"#utility.yul\":400:405   */\n      dup2\n        /* \"#utility.yul\":389:405   */\n      swap1\n      pop\n        /* \"#utility.yul\":334:411   */\n      swap2\n      swap1\n      pop\n      jump\t// out\n        /* \"#utility.yul\":417:539   */\n    tag_28:\n        /* \"#utility.yul\":490:514   */\n      tag_44\n        /* \"#utility.yul\":508:513   */\n      dup2\n        /* \"#utility.yul\":490:514   */\n      tag_27\n      jump\t// in\n    tag_44:\n        /* \"#utility.yul\":483:488   */\n      dup2\n        /* \"#utility.yul\":480:515   */\n      eq\n        /* \"#utility.yul\":470:533   */\n      tag_45\n      jumpi\n        /* \"#utility.yul\":529:530   */\n      0x00\n        /* \"#utility.yul\":526:527   */\n      dup1\n        /* \"#utility.yul\":519:531   */\n      revert\n        /* \"#utility.yul\":470:533   */\n    tag_45:\n        /* \"#utility.yul\":417:539   */\n      pop\n      jump\t// out\n        /* \"#utility.yul\":545:684   */\n    tag_29:\n        /* \"#utility.yul\":591:596   */\n      0x00\n        /* \"#utility.yul\":629:635   */\n      dup2\n        /* \"#utility.yul\":616:636   */\n      calldataload\n        /* \"#utility.yul\":607:636   */\n      swap1\n      pop\n        /* \"#utility.yul\":645:678   */\n      tag_47\n        /* \"#utility.yul\":672:677   */\n      dup2\n        /* \"#utility.yul\":645:678   */\n      tag_28\n      jump\t// in\n    tag_47:\n        /* \"#utility.yul\":545:684   */\n      swap3\n      swap2\n      pop\n      pop\n      jump\t// out\n        /* \"#utility.yul\":690:1019   */\n    tag_7:\n        /* \"#utility.yul\":749:755   */\n      0x00\n        /* \"#utility.yul\":798:800   */\n      0x20\n        /* \"#utility.yul\":786:795   */\n      dup3\n        /* \"#utility.yul\":777:784   */\n      dup5\n        /* \"#utility.yul\":773:796   */\n      sub\n        /* \"#utility.yul\":769:801   */\n      slt\n        /* \"#utility.yul\":766:885   */\n      iszero\n      tag_49\n      jumpi\n        /* \"#utility.yul\":804:883   */\n      tag_50\n      tag_25\n      jump\t// in\n    tag_50:\n        /* \"#utility.yul\":766:885   */\n    tag_49:\n        /* \"#utility.yul\":924:925   */\n      0x00\n        /* \"#utility.yul\":949:1002   */\n      tag_51\n        /* \"#utility.yul\":994:1001   */\n      dup5\n        /* \"#utility.yul\":985:991   */\n      dup3\n        /* \"#utility.yul\":974:983   */\n      dup6\n        /* \"#utility.yul\":970:992   */\n      add\n        /* \"#utility.yul\":949:1002   */\n      tag_29\n      jump\t// in\n    tag_51:\n        /* \"#utility.yul\":939:1002   */\n      swap2\n      pop\n        /* \"#utility.yul\":895:1012   */\n      pop\n        /* \"#utility.yul\":690:1019   */\n      swap3\n      swap2\n      pop\n      pop\n      jump\t// out\n        /* \"#utility.yul\":1025:1124   */\n    tag_30:\n        /* \"#utility.yul\":1077:1083   */\n      0x00\n        /* \"#utility.yul\":1111:1116   */\n      dup2\n        /* \"#utility.yul\":1105:1117   */\n      mload\n        /* \"#utility.yul\":1095:1117   */\n      swap1\n      pop\n        /* \"#utility.yul\":1025:1124   */\n      swap2\n      swap1\n      pop\n      jump\t// out\n        /* \"#utility.yul\":1130:1299   */\n    tag_31:\n        /* \"#utility.yul\":1214:1225   */\n      0x00\n        /* \"#utility.yul\":1248:1254   */\n      dup3\n        /* \"#utility.yul\":1243:1246   */\n      dup3\n        /* \"#utility.yul\":1236:1255   */\n      mstore\n        /* \"#utility.yul\":1288:1292   */\n      0x20\n        /* \"#utility.yul\":1283:1286   */\n      dup3\n        /* \"#utility.yul\":1279:1293   */\n      add\n        /* \"#utility.yul\":1264:1293   */\n      swap1\n      pop\n        /* \"#utility.yul\":1130:1299   */\n      swap3\n      swap2\n      pop\n      pop\n      jump\t// out\n        /* \"#utility.yul\":1305:1444   */\n    tag_32:\n        /* \"#utility.yul\":1394:1400   */\n      dup3\n        /* \"#utility.yul\":1389:1392   */\n      dup2\n        /* \"#utility.yul\":1384:1387   */\n      dup4\n        /* \"#utility.yul\":1378:1401   */\n      mcopy\n        /* \"#utility.yul\":1435:1436   */\n      0x00\n        /* \"#utility.yul\":1426:1432   */\n      dup4\n        /* \"#utility.yul\":1421:1424   */\n      dup4\n        /* \"#utility.yul\":1417:1433   */\n      add\n        /* \"#utility.yul\":1410:1437   */\n      mstore\n        /* \"#utility.yul\":1305:1444   */\n      pop\n      pop\n      pop\n      jump\t// out\n        /* \"#utility.yul\":1450:1552   */\n    tag_33:\n        /* \"#utility.yul\":1491:1497   */\n      0x00\n        /* \"#utility.yul\":1542:1544   */\n      0x1f\n        /* \"#utility.yul\":1538:1545   */\n      not\n        /* \"#utility.yul\":1533:1535   */\n      0x1f\n        /* \"#utility.yul\":1526:1531   */\n      dup4\n        /* \"#utility.yul\":1522:1536   */\n      add\n        /* \"#utility.yul\":1518:1546   */\n      and\n        /* \"#utility.yul\":1508:1546   */\n      swap1\n      pop\n        /* \"#utility.yul\":1450:1552   */\n      swap2\n      swap1\n      pop\n      jump\t// out\n        /* \"#utility.yul\":1558:1935   */\n    tag_34:\n        /* \"#utility.yul\":1646:1649   */\n      0x00\n        /* \"#utility.yul\":1674:1713   */\n      tag_57\n        /* \"#utility.yul\":1707:1712   */\n      dup3\n        /* \"#utility.yul\":1674:1713   */\n      tag_30\n      jump\t// in\n    tag_57:\n        /* \"#utility.yul\":1729:1800   */\n      tag_58\n        /* \"#utility.yul\":1793:1799   */\n      dup2\n        /* \"#utility.yul\":1788:1791   */\n      dup6\n        /* \"#utility.yul\":1729:1800   */\n      tag_31\n      jump\t// in\n    tag_58:\n        /* \"#utility.yul\":1722:1800   */\n      swap4\n      pop\n        /* \"#utility.yul\":1809:1874   */\n      tag_59\n        /* \"#utility.yul\":1867:1873   */\n      dup2\n        /* \"#utility.yul\":1862:1865   */\n      dup6\n        /* \"#utility.yul\":1855:1859   */\n      0x20\n        /* \"#utility.yul\":1848:1853   */\n      dup7\n        /* \"#utility.yul\":1844:1860   */\n      add\n        /* \"#utility.yul\":1809:1874   */\n      tag_32\n      jump\t// in\n    tag_59:\n        /* \"#utility.yul\":1899:1928   */\n      tag_60\n        /* \"#utility.yul\":1921:1927   */\n      dup2\n        /* \"#utility.yul\":1899:1928   */\n      tag_33\n      jump\t// in\n    tag_60:\n        /* \"#utility.yul\":1894:1897   */\n      dup5\n        /* \"#utility.yul\":1890:1929   */\n      add\n        /* \"#utility.yul\":1883:1929   */\n      swap2\n      pop\n        /* \"#utility.yul\":1650:1935   */\n      pop\n        /* \"#utility.yul\":1558:1935   */\n      swap3\n      swap2\n      pop\n      pop\n      jump\t// out\n        /* \"#utility.yul\":1941:2254   */\n    tag_10:\n        /* \"#utility.yul\":2054:2058   */\n      0x00\n        /* \"#utility.yul\":2092:2094   */\n      0x20\n        /* \"#utility.yul\":2081:2090   */\n      dup3\n        /* \"#utility.yul\":2077:2095   */\n      add\n        /* \"#utility.yul\":2069:2095   */\n      swap1\n      pop\n        /* \"#utility.yul\":2141:2150   */\n      dup2\n        /* \"#utility.yul\":2135:2139   */\n      dup2\n        /* \"#utility.yul\":2131:2151   */\n      sub\n        /* \"#utility.yul\":2127:2128   */\n      0x00\n        /* \"#utility.yul\":2116:2125   */\n      dup4\n        /* \"#utility.yul\":2112:2129   */\n      add\n        /* \"#utility.yul\":2105:2152   */\n      mstore\n        /* \"#utility.yul\":2169:2247   */\n      tag_62\n        /* \"#utility.yul\":2242:2246   */\n      dup2\n        /* \"#utility.yul\":2233:2239   */\n      dup5\n        /* \"#utility.yul\":2169:2247   */\n      tag_34\n      jump\t// in\n    tag_62:\n        /* \"#utility.yul\":2161:2247   */\n      swap1\n      pop\n        /* \"#utility.yul\":1941:2254   */\n      swap3\n      swap2\n      pop\n      pop\n      jump\t// out\n        /* \"#utility.yul\":2260:2350   */\n    tag_35:\n        /* \"#utility.yul\":2294:2301   */\n      0x00\n        /* \"#utility.yul\":2337:2342   */\n      dup2\n        /* \"#utility.yul\":2330:2343   */\n      iszero\n        /* \"#utility.yul\":2323:2344   */\n      iszero\n        /* \"#utility.yul\":2312:2344   */\n      swap1\n      pop\n        /* \"#utility.yul\":2260:2350   */\n      swap2\n      swap1\n      pop\n      jump\t// out\n        /* \"#utility.yul\":2356:2465   */\n    tag_36:\n        /* \"#utility.yul\":2437:2458   */\n      tag_65\n        /* \"#utility.yul\":2452:2457   */\n      dup2\n        /* \"#utility.yul\":2437:2458   */\n      tag_35\n      jump\t// in\n    tag_65:\n        /* \"#utility.yul\":2432:2435   */\n      dup3\n        /* \"#utility.yul\":2425:2459   */\n      mstore\n        /* \"#utility.yul\":2356:2465   */\n      pop\n      pop\n      jump\t// out\n        /* \"#utility.yul\":2471:2681   */\n    tag_15:\n        /* \"#utility.yul\":2558:2562   */\n      0x00\n        /* \"#utility.yul\":2596:2598   */\n      0x20\n        /* \"#utility.yul\":2585:2594   */\n      dup3\n        /* \"#utility.yul\":2581:2599   */\n      add\n        /* \"#utility.yul\":2573:2599   */\n      swap1\n      pop\n        /* \"#utility.yul\":2609:2674   */\n      tag_67\n        /* \"#utility.yul\":2671:2672   */\n      0x00\n        /* \"#utility.yul\":2660:2669   */\n      dup4\n        /* \"#utility.yul\":2656:2673   */\n      add\n        /* \"#utility.yul\":2647:2653   */\n      dup5\n        /* \"#utility.yul\":2609:2674   */\n      tag_36\n      jump\t// in\n    tag_67:\n        /* \"#utility.yul\":2471:2681   */\n      swap3\n      swap2\n      pop\n      pop\n      jump\t// out\n        /* \"#utility.yul\":2687:2867   */\n    tag_37:\n        /* \"#utility.yul\":2735:2812   */\n      0x4e487b7100000000000000000000000000000000000000000000000000000000\n        /* \"#utility.yul\":2732:2733   */\n      0x00\n        /* \"#utility.yul\":2725:2813   */\n      mstore\n        /* \"#utility.yul\":2832:2836   */\n      0x12\n        /* \"#utility.yul\":2829:2830   */\n      0x04\n        /* \"#utility.yul\":2822:2837   */\n      mstore\n        /* \"#utility.yul\":2856:2860   */\n      0x24\n        /* \"#utility.yul\":2853:2854   */\n      0x00\n        /* \"#utility.yul\":2846:2861   */\n      revert\n        /* \"#utility.yul\":2873:3049   */\n    tag_18:\n        /* \"#utility.yul\":2905:2906   */\n      0x00\n        /* \"#utility.yul\":2922:2942   */\n      tag_70\n        /* \"#utility.yul\":2940:2941   */\n      dup3\n        /* \"#utility.yul\":2922:2942   */\n      tag_27\n      jump\t// in\n    tag_70:\n        /* \"#utility.yul\":2917:2942   */\n      swap2\n      pop\n        /* \"#utility.yul\":2956:2976   */\n      tag_71\n        /* \"#utility.yul\":2974:2975   */\n      dup4\n        /* \"#utility.yul\":2956:2976   */\n      tag_27\n      jump\t// in\n    tag_71:\n        /* \"#utility.yul\":2951:2976   */\n      swap3\n      pop\n        /* \"#utility.yul\":2995:2996   */\n      dup3\n        /* \"#utility.yul\":2985:3020   */\n      tag_72\n      jumpi\n        /* \"#utility.yul\":3000:3018   */\n      tag_73\n      tag_37\n      jump\t// in\n    tag_73:\n        /* \"#utility.yul\":2985:3020   */\n    tag_72:\n        /* \"#utility.yul\":3041:3042   */\n      dup3\n        /* \"#utility.yul\":3038:3039   */\n      dup3\n        /* \"#utility.yul\":3034:3043   */\n      mod\n        /* \"#utility.yul\":3029:3043   */\n      swap1\n      pop\n        /* \"#utility.yul\":2873:3049   */\n      swap3\n      swap2\n      pop\n      pop\n      jump\t// out\n\n    auxdata: 0xa26469706673582212209de9ec960e6b61f4b99cdbb317e102fb199d4f6e58b9becac7c82ee9e3bcc6ce64736f6c634300081a0033\n}\n",
				"bytecode": {
					"linkReferences": {},
					"object": "6080604052348015600e575f80fd5b506102f98061001c5f395ff3fe608060405234801561000f575f80fd5b5060043610610034575f3560e01c80632a2e132014610038578063afee59d714610068575b5f80fd5b610052600480360381019061004d9190610178565b610098565b60405161005f9190610213565b60405180910390f35b610082600480360381019061007d9190610178565b610126565b60405161008f919061024d565b60405180910390f35b60605f6002836100a89190610293565b146100e8576040518060400160405280600381526020017f4f6464000000000000000000000000000000000000000000000000000000000081525061011f565b6040518060400160405280600481526020017f4576656e000000000000000000000000000000000000000000000000000000008152505b9050919050565b5f60128210610138576001905061013c565b5f90505b919050565b5f80fd5b5f819050919050565b61015781610145565b8114610161575f80fd5b50565b5f813590506101728161014e565b92915050565b5f6020828403121561018d5761018c610141565b5b5f61019a84828501610164565b91505092915050565b5f81519050919050565b5f82825260208201905092915050565b8281835e5f83830152505050565b5f601f19601f8301169050919050565b5f6101e5826101a3565b6101ef81856101ad565b93506101ff8185602086016101bd565b610208816101cb565b840191505092915050565b5f6020820190508181035f83015261022b81846101db565b905092915050565b5f8115159050919050565b61024781610233565b82525050565b5f6020820190506102605f83018461023e565b92915050565b7f4e487b71000000000000000000000000000000000000000000000000000000005f52601260045260245ffd5b5f61029d82610145565b91506102a883610145565b9250826102b8576102b7610266565b5b82820690509291505056fea26469706673582212209de9ec960e6b61f4b99cdbb317e102fb199d4f6e58b9becac7c82ee9e3bcc6ce64736f6c634300081a0033",
					"opcodes": "PUSH1 0x80 PUSH1 0x40 MSTORE CALLVALUE DUP1 ISZERO PUSH1 0xE JUMPI PUSH0 DUP1 REVERT JUMPDEST POP PUSH2 0x2F9 DUP1 PUSH2 0x1C PUSH0 CODECOPY PUSH0 RETURN INVALID PUSH1 0x80 PUSH1 0x40 MSTORE CALLVALUE DUP1 ISZERO PUSH2 0xF JUMPI PUSH0 DUP1 REVERT JUMPDEST POP PUSH1 0x4 CALLDATASIZE LT PUSH2 0x34 JUMPI PUSH0 CALLDATALOAD PUSH1 0xE0 SHR DUP1 PUSH4 0x2A2E1320 EQ PUSH2 0x38 JUMPI DUP1 PUSH4 0xAFEE59D7 EQ PUSH2 0x68 JUMPI JUMPDEST PUSH0 DUP1 REVERT JUMPDEST PUSH2 0x52 PUSH1 0x4 DUP1 CALLDATASIZE SUB DUP2 ADD SWAP1 PUSH2 0x4D SWAP2 SWAP1 PUSH2 0x178 JUMP JUMPDEST PUSH2 0x98 JUMP JUMPDEST PUSH1 0x40 MLOAD PUSH2 0x5F SWAP2 SWAP1 PUSH2 0x213 JUMP JUMPDEST PUSH1 0x40 MLOAD DUP1 SWAP2 SUB SWAP1 RETURN JUMPDEST PUSH2 0x82 PUSH1 0x4 DUP1 CALLDATASIZE SUB DUP2 ADD SWAP1 PUSH2 0x7D SWAP2 SWAP1 PUSH2 0x178 JUMP JUMPDEST PUSH2 0x126 JUMP JUMPDEST PUSH1 0x40 MLOAD PUSH2 0x8F SWAP2 SWAP1 PUSH2 0x24D JUMP JUMPDEST PUSH1 0x40 MLOAD DUP1 SWAP2 SUB SWAP1 RETURN JUMPDEST PUSH1 0x60 PUSH0 PUSH1 0x2 DUP4 PUSH2 0xA8 SWAP2 SWAP1 PUSH2 0x293 JUMP JUMPDEST EQ PUSH2 0xE8 JUMPI PUSH1 0x40 MLOAD DUP1 PUSH1 0x40 ADD PUSH1 0x40 MSTORE DUP1 PUSH1 0x3 DUP2 MSTORE PUSH1 0x20 ADD PUSH32 0x4F64640000000000000000000000000000000000000000000000000000000000 DUP2 MSTORE POP PUSH2 0x11F JUMP JUMPDEST PUSH1 0x40 MLOAD DUP1 PUSH1 0x40 ADD PUSH1 0x40 MSTORE DUP1 PUSH1 0x4 DUP2 MSTORE PUSH1 0x20 ADD PUSH32 0x4576656E00000000000000000000000000000000000000000000000000000000 DUP2 MSTORE POP JUMPDEST SWAP1 POP SWAP2 SWAP1 POP JUMP JUMPDEST PUSH0 PUSH1 0x12 DUP3 LT PUSH2 0x138 JUMPI PUSH1 0x1 SWAP1 POP PUSH2 0x13C JUMP JUMPDEST PUSH0 SWAP1 POP JUMPDEST SWAP2 SWAP1 POP JUMP JUMPDEST PUSH0 DUP1 REVERT JUMPDEST PUSH0 DUP2 SWAP1 POP SWAP2 SWAP1 POP JUMP JUMPDEST PUSH2 0x157 DUP2 PUSH2 0x145 JUMP JUMPDEST DUP2 EQ PUSH2 0x161 JUMPI PUSH0 DUP1 REVERT JUMPDEST POP JUMP JUMPDEST PUSH0 DUP2 CALLDATALOAD SWAP1 POP PUSH2 0x172 DUP2 PUSH2 0x14E JUMP JUMPDEST SWAP3 SWAP2 POP POP JUMP JUMPDEST PUSH0 PUSH1 0x20 DUP3 DUP5 SUB SLT ISZERO PUSH2 0x18D JUMPI PUSH2 0x18C PUSH2 0x141 JUMP JUMPDEST JUMPDEST PUSH0 PUSH2 0x19A DUP5 DUP3 DUP6 ADD PUSH2 0x164 JUMP JUMPDEST SWAP2 POP POP SWAP3 SWAP2 POP POP JUMP JUMPDEST PUSH0 DUP2 MLOAD SWAP1 POP SWAP2 SWAP1 POP JUMP JUMPDEST PUSH0 DUP3 DUP3 MSTORE PUSH1 0x20 DUP3 ADD SWAP1 POP SWAP3 SWAP2 POP POP JUMP JUMPDEST DUP3 DUP2 DUP4 MCOPY PUSH0 DUP4 DUP4 ADD MSTORE POP POP POP JUMP JUMPDEST PUSH0 PUSH1 0x1F NOT PUSH1 0x1F DUP4 ADD AND SWAP1 POP SWAP2 SWAP1 POP JUMP JUMPDEST PUSH0 PUSH2 0x1E5 DUP3 PUSH2 0x1A3 JUMP JUMPDEST PUSH2 0x1EF DUP2 DUP6 PUSH2 0x1AD JUMP JUMPDEST SWAP4 POP PUSH2 0x1FF DUP2 DUP6 PUSH1 0x20 DUP7 ADD PUSH2 0x1BD JUMP JUMPDEST PUSH2 0x208 DUP2 PUSH2 0x1CB JUMP JUMPDEST DUP5 ADD SWAP2 POP POP SWAP3 SWAP2 POP POP JUMP JUMPDEST PUSH0 PUSH1 0x20 DUP3 ADD SWAP1 POP DUP2 DUP2 SUB PUSH0 DUP4 ADD MSTORE PUSH2 0x22B DUP2 DUP5 PUSH2 0x1DB JUMP JUMPDEST SWAP1 POP SWAP3 SWAP2 POP POP JUMP JUMPDEST PUSH0 DUP2 ISZERO ISZERO SWAP1 POP SWAP2 SWAP1 POP JUMP JUMPDEST PUSH2 0x247 DUP2 PUSH2 0x233 JUMP JUMPDEST DUP3 MSTORE POP POP JUMP JUMPDEST PUSH0 PUSH1 0x20 DUP3 ADD SWAP1 POP PUSH2 0x260 PUSH0 DUP4 ADD DUP5 PUSH2 0x23E JUMP JUMPDEST SWAP3 SWAP2 POP POP JUMP JUMPDEST PUSH32 0x4E487B7100000000000000000000000000000000000000000000000000000000 PUSH0 MSTORE PUSH1 0x12 PUSH1 0x4 MSTORE PUSH1 0x24 PUSH0 REVERT JUMPDEST PUSH0 PUSH2 0x29D DUP3 PUSH2 0x145 JUMP JUMPDEST SWAP2 POP PUSH2 0x2A8 DUP4 PUSH2 0x145 JUMP JUMPDEST SWAP3 POP DUP3 PUSH2 0x2B8 JUMPI PUSH2 0x2B7 PUSH2 0x266 JUMP JUMPDEST JUMPDEST DUP3 DUP3 MOD SWAP1 POP SWAP3 SWAP2 POP POP JUMP INVALID LOG2 PUSH5 0x6970667358 0x22 SLT KECCAK256 SWAP14 0xE9 0xEC SWAP7 0xE PUSH12 0x61F4B99CDBB317E102FB199D 0x4F PUSH15 0x58B9BECAC7C82EE9E3BCC6CE64736F PUSH13 0x634300081A0033000000000000 "
				},
				"gasEstimates": {
					"creation": {
						"codeDepositCost": "152200",
						"executionCost": "194",
						"totalCost": "152394"
					},
					"external": {
						"isEven(uint256)": "infinite",
						"isLegal(uint256)": "633"
					}
				},
				"methodIdentifiers": {
					"isEven(uint256)": "2a2e1320",
					"isLegal(uint256)": "afee59d7"
				}
			},
			"storageLayout": {
				"storage": [],
				"types": null
			},
			"userdoc": {
				"kind": "user",
				"methods": {},
				"version": 1
			}
		}
	}
}