{
	"contracts/Errors.sol": {
		"Errors": {
			"abi": [
				{
					"inputs": [
						{
							"internalType": "uint8",
							"name": "_age",
							"type": "uint8"
						}
					],
					"name": "setAge",
					"outputs": [],
					"stateMutability": "nonpayable",
					"type": "function"
				},
				{
					"inputs": [],
					"name": "testAssert",
					"outputs": [],
					"stateMutability": "view",
					"type": "function"
				},
				{
					"inputs": [
						{
							"internalType": "int256",
							"name": "_amount",
							"type": "int256"
						}
					],
					"name": "testRequire",
					"outputs": [],
					"stateMutability": "nonpayable",
					"type": "function"
				}
			],
			"devdoc": {
				"kind": "dev",
				"methods": {},
				"version": 1
			},
			"evm": {
				"assembly": "    /* \"contracts/Errors.sol\":70:490  contract Errors {... */\n  mstore(0x40, 0x80)\n  callvalue\n  dup1\n  iszero\n  tag_1\n  jumpi\n  0x00\n  dup1\n  revert\ntag_1:\n  pop\n  dataSize(sub_0)\n  dup1\n  dataOffset(sub_0)\n  0x00\n  codecopy\n  0x00\n  return\nstop\n\nsub_0: assembly {\n        /* \"contracts/Errors.sol\":70:490  contract Errors {... */\n      mstore(0x40, 0x80)\n      callvalue\n      dup1\n      iszero\n      tag_1\n      jumpi\n      0x00\n      dup1\n      revert\n    tag_1:\n      pop\n      jumpi(tag_2, lt(calldatasize, 0x04))\n      shr(0xe0, calldataload(0x00))\n      dup1\n      0x2b813bc0\n      eq\n      tag_3\n      jumpi\n      dup1\n      0x5b0c8d70\n      eq\n      tag_4\n      jumpi\n      dup1\n      0xb3e07bf8\n      eq\n      tag_5\n      jumpi\n    tag_2:\n      0x00\n      dup1\n      revert\n        /* \"contracts/Errors.sol\":413:484  function testAssert() public view {... */\n    tag_3:\n      tag_6\n      tag_7\n      jump\t// in\n    tag_6:\n      stop\n        /* \"contracts/Errors.sol\":271:407  function setAge(uint8 _age) public {... */\n    tag_4:\n      tag_8\n      0x04\n      dup1\n      calldatasize\n      sub\n      dup2\n      add\n      swap1\n      tag_9\n      swap2\n      swap1\n      tag_10\n      jump\t// in\n    tag_9:\n      tag_11\n      jump\t// in\n    tag_8:\n      stop\n        /* \"contracts/Errors.sol\":124:265  function testRequire(int _amount) public {... */\n    tag_5:\n      tag_12\n      0x04\n      dup1\n      calldatasize\n      sub\n      dup2\n      add\n      swap1\n      tag_13\n      swap2\n      swap1\n      tag_14\n      jump\t// in\n    tag_13:\n      tag_15\n      jump\t// in\n    tag_12:\n      stop\n        /* \"contracts/Errors.sol\":413:484  function testAssert() public view {... */\n    tag_7:\n        /* \"contracts/Errors.sol\":473:476  100 */\n      0x64\n        /* \"contracts/Errors.sol\":464:470  amount */\n      sload(0x00)\n        /* \"contracts/Errors.sol\":464:476  amount > 100 */\n      sgt\n        /* \"contracts/Errors.sol\":457:477  assert(amount > 100) */\n      tag_17\n      jumpi\n      tag_18\n      tag_19\n      jump\t// in\n    tag_18:\n    tag_17:\n        /* \"contracts/Errors.sol\":413:484  function testAssert() public view {... */\n      jump\t// out\n        /* \"contracts/Errors.sol\":271:407  function setAge(uint8 _age) public {... */\n    tag_11:\n        /* \"contracts/Errors.sol\":326:328  18 */\n      0x12\n        /* \"contracts/Errors.sol\":319:323  _age */\n      dup2\n        /* \"contracts/Errors.sol\":319:328  _age < 18 */\n      0xff\n      and\n      lt\n        /* \"contracts/Errors.sol\":316:381  if(_age < 18){... */\n      iszero\n      tag_21\n      jumpi\n        /* \"contracts/Errors.sol\":343:370  revert(\"you're too young!\") */\n      mload(0x40)\n      0x08c379a000000000000000000000000000000000000000000000000000000000\n      dup2\n      mstore\n      0x04\n      add\n      tag_22\n      swap1\n      tag_23\n      jump\t// in\n    tag_22:\n      mload(0x40)\n      dup1\n      swap2\n      sub\n      swap1\n      revert\n        /* \"contracts/Errors.sol\":316:381  if(_age < 18){... */\n    tag_21:\n        /* \"contracts/Errors.sol\":396:400  _age */\n      dup1\n        /* \"contracts/Errors.sol\":390:393  age */\n      0x01\n      0x00\n        /* \"contracts/Errors.sol\":390:400  age = _age */\n      0x0100\n      exp\n      dup2\n      sload\n      dup2\n      0xff\n      mul\n      not\n      and\n      swap1\n      dup4\n      0xff\n      and\n      mul\n      or\n      swap1\n      sstore\n      pop\n        /* \"contracts/Errors.sol\":271:407  function setAge(uint8 _age) public {... */\n      pop\n      jump\t// out\n        /* \"contracts/Errors.sol\":124:265  function testRequire(int _amount) public {... */\n    tag_15:\n        /* \"contracts/Errors.sol\":193:194  0 */\n      0x00\n        /* \"contracts/Errors.sol\":183:190  _amount */\n      dup2\n        /* \"contracts/Errors.sol\":183:194  _amount > 0 */\n      sgt\n        /* \"contracts/Errors.sol\":175:231  require(_amount > 0, \"the amount must be bigger than 0\") */\n      tag_25\n      jumpi\n      mload(0x40)\n      0x08c379a000000000000000000000000000000000000000000000000000000000\n      dup2\n      mstore\n      0x04\n      add\n      tag_26\n      swap1\n      tag_27\n      jump\t// in\n    tag_26:\n      mload(0x40)\n      dup1\n      swap2\n      sub\n      swap1\n      revert\n    tag_25:\n        /* \"contracts/Errors.sol\":251:258  _amount */\n      dup1\n        /* \"contracts/Errors.sol\":241:247  amount */\n      0x00\n      dup1\n        /* \"contracts/Errors.sol\":241:258  amount += _amount */\n      dup3\n      dup3\n      sload\n      tag_28\n      swap2\n      swap1\n      tag_29\n      jump\t// in\n    tag_28:\n      swap3\n      pop\n      pop\n      dup2\n      swap1\n      sstore\n      pop\n        /* \"contracts/Errors.sol\":124:265  function testRequire(int _amount) public {... */\n      pop\n      jump\t// out\n        /* \"#utility.yul\":88:205   */\n    tag_31:\n        /* \"#utility.yul\":197:198   */\n      0x00\n        /* \"#utility.yul\":194:195   */\n      dup1\n        /* \"#utility.yul\":187:199   */\n      revert\n        /* \"#utility.yul\":334:420   */\n    tag_33:\n        /* \"#utility.yul\":369:376   */\n      0x00\n        /* \"#utility.yul\":409:413   */\n      0xff\n        /* \"#utility.yul\":402:407   */\n      dup3\n        /* \"#utility.yul\":398:414   */\n      and\n        /* \"#utility.yul\":387:414   */\n      swap1\n      pop\n        /* \"#utility.yul\":334:420   */\n      swap2\n      swap1\n      pop\n      jump\t// out\n        /* \"#utility.yul\":426:544   */\n    tag_34:\n        /* \"#utility.yul\":497:519   */\n      tag_51\n        /* \"#utility.yul\":513:518   */\n      dup2\n        /* \"#utility.yul\":497:519   */\n      tag_33\n      jump\t// in\n    tag_51:\n        /* \"#utility.yul\":490:495   */\n      dup2\n        /* \"#utility.yul\":487:520   */\n      eq\n        /* \"#utility.yul\":477:538   */\n      tag_52\n      jumpi\n        /* \"#utility.yul\":534:535   */\n      0x00\n        /* \"#utility.yul\":531:532   */\n      dup1\n        /* \"#utility.yul\":524:536   */\n      revert\n        /* \"#utility.yul\":477:538   */\n    tag_52:\n        /* \"#utility.yul\":426:544   */\n      pop\n      jump\t// out\n        /* \"#utility.yul\":550:685   */\n    tag_35:\n        /* \"#utility.yul\":594:599   */\n      0x00\n        /* \"#utility.yul\":632:638   */\n      dup2\n        /* \"#utility.yul\":619:639   */\n      calldataload\n        /* \"#utility.yul\":610:639   */\n      swap1\n      pop\n        /* \"#utility.yul\":648:679   */\n      tag_54\n        /* \"#utility.yul\":673:678   */\n      dup2\n        /* \"#utility.yul\":648:679   */\n      tag_34\n      jump\t// in\n    tag_54:\n        /* \"#utility.yul\":550:685   */\n      swap3\n      swap2\n      pop\n      pop\n      jump\t// out\n        /* \"#utility.yul\":691:1016   */\n    tag_10:\n        /* \"#utility.yul\":748:754   */\n      0x00\n        /* \"#utility.yul\":797:799   */\n      0x20\n        /* \"#utility.yul\":785:794   */\n      dup3\n        /* \"#utility.yul\":776:783   */\n      dup5\n        /* \"#utility.yul\":772:795   */\n      sub\n        /* \"#utility.yul\":768:800   */\n      slt\n        /* \"#utility.yul\":765:884   */\n      iszero\n      tag_56\n      jumpi\n        /* \"#utility.yul\":803:882   */\n      tag_57\n      tag_31\n      jump\t// in\n    tag_57:\n        /* \"#utility.yul\":765:884   */\n    tag_56:\n        /* \"#utility.yul\":923:924   */\n      0x00\n        /* \"#utility.yul\":948:999   */\n      tag_58\n        /* \"#utility.yul\":991:998   */\n      dup5\n        /* \"#utility.yul\":982:988   */\n      dup3\n        /* \"#utility.yul\":971:980   */\n      dup6\n        /* \"#utility.yul\":967:989   */\n      add\n        /* \"#utility.yul\":948:999   */\n      tag_35\n      jump\t// in\n    tag_58:\n        /* \"#utility.yul\":938:999   */\n      swap2\n      pop\n        /* \"#utility.yul\":894:1009   */\n      pop\n        /* \"#utility.yul\":691:1016   */\n      swap3\n      swap2\n      pop\n      pop\n      jump\t// out\n        /* \"#utility.yul\":1022:1098   */\n    tag_36:\n        /* \"#utility.yul\":1058:1065   */\n      0x00\n        /* \"#utility.yul\":1087:1092   */\n      dup2\n        /* \"#utility.yul\":1076:1092   */\n      swap1\n      pop\n        /* \"#utility.yul\":1022:1098   */\n      swap2\n      swap1\n      pop\n      jump\t// out\n        /* \"#utility.yul\":1104:1224   */\n    tag_37:\n        /* \"#utility.yul\":1176:1199   */\n      tag_61\n        /* \"#utility.yul\":1193:1198   */\n      dup2\n        /* \"#utility.yul\":1176:1199   */\n      tag_36\n      jump\t// in\n    tag_61:\n        /* \"#utility.yul\":1169:1174   */\n      dup2\n        /* \"#utility.yul\":1166:1200   */\n      eq\n        /* \"#utility.yul\":1156:1218   */\n      tag_62\n      jumpi\n        /* \"#utility.yul\":1214:1215   */\n      0x00\n        /* \"#utility.yul\":1211:1212   */\n      dup1\n        /* \"#utility.yul\":1204:1216   */\n      revert\n        /* \"#utility.yul\":1156:1218   */\n    tag_62:\n        /* \"#utility.yul\":1104:1224   */\n      pop\n      jump\t// out\n        /* \"#utility.yul\":1230:1367   */\n    tag_38:\n        /* \"#utility.yul\":1275:1280   */\n      0x00\n        /* \"#utility.yul\":1313:1319   */\n      dup2\n        /* \"#utility.yul\":1300:1320   */\n      calldataload\n        /* \"#utility.yul\":1291:1320   */\n      swap1\n      pop\n        /* \"#utility.yul\":1329:1361   */\n      tag_64\n        /* \"#utility.yul\":1355:1360   */\n      dup2\n        /* \"#utility.yul\":1329:1361   */\n      tag_37\n      jump\t// in\n    tag_64:\n        /* \"#utility.yul\":1230:1367   */\n      swap3\n      swap2\n      pop\n      pop\n      jump\t// out\n        /* \"#utility.yul\":1373:1700   */\n    tag_14:\n        /* \"#utility.yul\":1431:1437   */\n      0x00\n        /* \"#utility.yul\":1480:1482   */\n      0x20\n        /* \"#utility.yul\":1468:1477   */\n      dup3\n        /* \"#utility.yul\":1459:1466   */\n      dup5\n        /* \"#utility.yul\":1455:1478   */\n      sub\n        /* \"#utility.yul\":1451:1483   */\n      slt\n        /* \"#utility.yul\":1448:1567   */\n      iszero\n      tag_66\n      jumpi\n        /* \"#utility.yul\":1486:1565   */\n      tag_67\n      tag_31\n      jump\t// in\n    tag_67:\n        /* \"#utility.yul\":1448:1567   */\n    tag_66:\n        /* \"#utility.yul\":1606:1607   */\n      0x00\n        /* \"#utility.yul\":1631:1683   */\n      tag_68\n        /* \"#utility.yul\":1675:1682   */\n      dup5\n        /* \"#utility.yul\":1666:1672   */\n      dup3\n        /* \"#utility.yul\":1655:1664   */\n      dup6\n        /* \"#utility.yul\":1651:1673   */\n      add\n        /* \"#utility.yul\":1631:1683   */\n      tag_38\n      jump\t// in\n    tag_68:\n        /* \"#utility.yul\":1621:1683   */\n      swap2\n      pop\n        /* \"#utility.yul\":1577:1693   */\n      pop\n        /* \"#utility.yul\":1373:1700   */\n      swap3\n      swap2\n      pop\n      pop\n      jump\t// out\n        /* \"#utility.yul\":1706:1886   */\n    tag_19:\n        /* \"#utility.yul\":1754:1831   */\n      0x4e487b7100000000000000000000000000000000000000000000000000000000\n        /* \"#utility.yul\":1751:1752   */\n      0x00\n        /* \"#utility.yul\":1744:1832   */\n      mstore\n        /* \"#utility.yul\":1851:1855   */\n      0x01\n        /* \"#utility.yul\":1848:1849   */\n      0x04\n        /* \"#utility.yul\":1841:1856   */\n      mstore\n        /* \"#utility.yul\":1875:1879   */\n      0x24\n        /* \"#utility.yul\":1872:1873   */\n      0x00\n        /* \"#utility.yul\":1865:1880   */\n      revert\n        /* \"#utility.yul\":1892:2061   */\n    tag_39:\n        /* \"#utility.yul\":1976:1987   */\n      0x00\n        /* \"#utility.yul\":2010:2016   */\n      dup3\n        /* \"#utility.yul\":2005:2008   */\n      dup3\n        /* \"#utility.yul\":1998:2017   */\n      mstore\n        /* \"#utility.yul\":2050:2054   */\n      0x20\n        /* \"#utility.yul\":2045:2048   */\n      dup3\n        /* \"#utility.yul\":2041:2055   */\n      add\n        /* \"#utility.yul\":2026:2055   */\n      swap1\n      pop\n        /* \"#utility.yul\":1892:2061   */\n      swap3\n      swap2\n      pop\n      pop\n      jump\t// out\n        /* \"#utility.yul\":2067:2234   */\n    tag_40:\n        /* \"#utility.yul\":2207:2226   */\n      0x796f7527726520746f6f20796f756e6721000000000000000000000000000000\n        /* \"#utility.yul\":2203:2204   */\n      0x00\n        /* \"#utility.yul\":2195:2201   */\n      dup3\n        /* \"#utility.yul\":2191:2205   */\n      add\n        /* \"#utility.yul\":2184:2227   */\n      mstore\n        /* \"#utility.yul\":2067:2234   */\n      pop\n      jump\t// out\n        /* \"#utility.yul\":2240:2606   */\n    tag_41:\n        /* \"#utility.yul\":2382:2385   */\n      0x00\n        /* \"#utility.yul\":2403:2470   */\n      tag_73\n        /* \"#utility.yul\":2467:2469   */\n      0x11\n        /* \"#utility.yul\":2462:2465   */\n      dup4\n        /* \"#utility.yul\":2403:2470   */\n      tag_39\n      jump\t// in\n    tag_73:\n        /* \"#utility.yul\":2396:2470   */\n      swap2\n      pop\n        /* \"#utility.yul\":2479:2572   */\n      tag_74\n        /* \"#utility.yul\":2568:2571   */\n      dup3\n        /* \"#utility.yul\":2479:2572   */\n      tag_40\n      jump\t// in\n    tag_74:\n        /* \"#utility.yul\":2597:2599   */\n      0x20\n        /* \"#utility.yul\":2592:2595   */\n      dup3\n        /* \"#utility.yul\":2588:2600   */\n      add\n        /* \"#utility.yul\":2581:2600   */\n      swap1\n      pop\n        /* \"#utility.yul\":2240:2606   */\n      swap2\n      swap1\n      pop\n      jump\t// out\n        /* \"#utility.yul\":2612:3031   */\n    tag_23:\n        /* \"#utility.yul\":2778:2782   */\n      0x00\n        /* \"#utility.yul\":2816:2818   */\n      0x20\n        /* \"#utility.yul\":2805:2814   */\n      dup3\n        /* \"#utility.yul\":2801:2819   */\n      add\n        /* \"#utility.yul\":2793:2819   */\n      swap1\n      pop\n        /* \"#utility.yul\":2865:2874   */\n      dup2\n        /* \"#utility.yul\":2859:2863   */\n      dup2\n        /* \"#utility.yul\":2855:2875   */\n      sub\n        /* \"#utility.yul\":2851:2852   */\n      0x00\n        /* \"#utility.yul\":2840:2849   */\n      dup4\n        /* \"#utility.yul\":2836:2853   */\n      add\n        /* \"#utility.yul\":2829:2876   */\n      mstore\n        /* \"#utility.yul\":2893:3024   */\n      tag_76\n        /* \"#utility.yul\":3019:3023   */\n      dup2\n        /* \"#utility.yul\":2893:3024   */\n      tag_41\n      jump\t// in\n    tag_76:\n        /* \"#utility.yul\":2885:3024   */\n      swap1\n      pop\n        /* \"#utility.yul\":2612:3031   */\n      swap2\n      swap1\n      pop\n      jump\t// out\n        /* \"#utility.yul\":3037:3219   */\n    tag_42:\n        /* \"#utility.yul\":3177:3211   */\n      0x74686520616d6f756e74206d75737420626520626967676572207468616e2030\n        /* \"#utility.yul\":3173:3174   */\n      0x00\n        /* \"#utility.yul\":3165:3171   */\n      dup3\n        /* \"#utility.yul\":3161:3175   */\n      add\n        /* \"#utility.yul\":3154:3212   */\n      mstore\n        /* \"#utility.yul\":3037:3219   */\n      pop\n      jump\t// out\n        /* \"#utility.yul\":3225:3591   */\n    tag_43:\n        /* \"#utility.yul\":3367:3370   */\n      0x00\n        /* \"#utility.yul\":3388:3455   */\n      tag_79\n        /* \"#utility.yul\":3452:3454   */\n      0x20\n        /* \"#utility.yul\":3447:3450   */\n      dup4\n        /* \"#utility.yul\":3388:3455   */\n      tag_39\n      jump\t// in\n    tag_79:\n        /* \"#utility.yul\":3381:3455   */\n      swap2\n      pop\n        /* \"#utility.yul\":3464:3557   */\n      tag_80\n        /* \"#utility.yul\":3553:3556   */\n      dup3\n        /* \"#utility.yul\":3464:3557   */\n      tag_42\n      jump\t// in\n    tag_80:\n        /* \"#utility.yul\":3582:3584   */\n      0x20\n        /* \"#utility.yul\":3577:3580   */\n      dup3\n        /* \"#utility.yul\":3573:3585   */\n      add\n        /* \"#utility.yul\":3566:3585   */\n      swap1\n      pop\n        /* \"#utility.yul\":3225:3591   */\n      swap2\n      swap1\n      pop\n      jump\t// out\n        /* \"#utility.yul\":3597:4016   */\n    tag_27:\n        /* \"#utility.yul\":3763:3767   */\n      0x00\n        /* \"#utility.yul\":3801:3803   */\n      0x20\n        /* \"#utility.yul\":3790:3799   */\n      dup3\n        /* \"#utility.yul\":3786:3804   */\n      add\n        /* \"#utility.yul\":3778:3804   */\n      swap1\n      pop\n        /* \"#utility.yul\":3850:3859   */\n      dup2\n        /* \"#utility.yul\":3844:3848   */\n      dup2\n        /* \"#utility.yul\":3840:3860   */\n      sub\n        /* \"#utility.yul\":3836:3837   */\n      0x00\n        /* \"#utility.yul\":3825:3834   */\n      dup4\n        /* \"#utility.yul\":3821:3838   */\n      add\n        /* \"#utility.yul\":3814:3861   */\n      mstore\n        /* \"#utility.yul\":3878:4009   */\n      tag_82\n        /* \"#utility.yul\":4004:4008   */\n      dup2\n        /* \"#utility.yul\":3878:4009   */\n      tag_43\n      jump\t// in\n    tag_82:\n        /* \"#utility.yul\":3870:4009   */\n      swap1\n      pop\n        /* \"#utility.yul\":3597:4016   */\n      swap2\n      swap1\n      pop\n      jump\t// out\n        /* \"#utility.yul\":4022:4202   */\n    tag_44:\n        /* \"#utility.yul\":4070:4147   */\n      0x4e487b7100000000000000000000000000000000000000000000000000000000\n        /* \"#utility.yul\":4067:4068   */\n      0x00\n        /* \"#utility.yul\":4060:4148   */\n      mstore\n        /* \"#utility.yul\":4167:4171   */\n      0x11\n        /* \"#utility.yul\":4164:4165   */\n      0x04\n        /* \"#utility.yul\":4157:4172   */\n      mstore\n        /* \"#utility.yul\":4191:4195   */\n      0x24\n        /* \"#utility.yul\":4188:4189   */\n      0x00\n        /* \"#utility.yul\":4181:4196   */\n      revert\n        /* \"#utility.yul\":4208:4583   */\n    tag_29:\n        /* \"#utility.yul\":4247:4250   */\n      0x00\n        /* \"#utility.yul\":4266:4285   */\n      tag_85\n        /* \"#utility.yul\":4283:4284   */\n      dup3\n        /* \"#utility.yul\":4266:4285   */\n      tag_36\n      jump\t// in\n    tag_85:\n        /* \"#utility.yul\":4261:4285   */\n      swap2\n      pop\n        /* \"#utility.yul\":4299:4318   */\n      tag_86\n        /* \"#utility.yul\":4316:4317   */\n      dup4\n        /* \"#utility.yul\":4299:4318   */\n      tag_36\n      jump\t// in\n    tag_86:\n        /* \"#utility.yul\":4294:4318   */\n      swap3\n      pop\n        /* \"#utility.yul\":4341:4342   */\n      dup3\n        /* \"#utility.yul\":4338:4339   */\n      dup3\n        /* \"#utility.yul\":4334:4343   */\n      add\n        /* \"#utility.yul\":4327:4343   */\n      swap1\n      pop\n        /* \"#utility.yul\":4539:4540   */\n      dup3\n        /* \"#utility.yul\":4534:4537   */\n      dup2\n        /* \"#utility.yul\":4530:4541   */\n      slt\n        /* \"#utility.yul\":4523:4542   */\n      iszero\n        /* \"#utility.yul\":4519:4520   */\n      0x00\n        /* \"#utility.yul\":4516:4517   */\n      dup4\n        /* \"#utility.yul\":4512:4521   */\n      slt\n        /* \"#utility.yul\":4508:4543   */\n      and\n        /* \"#utility.yul\":4491:4492   */\n      dup4\n        /* \"#utility.yul\":4486:4489   */\n      dup3\n        /* \"#utility.yul\":4482:4493   */\n      slt\n        /* \"#utility.yul\":4477:4478   */\n      0x00\n        /* \"#utility.yul\":4474:4475   */\n      dup5\n        /* \"#utility.yul\":4470:4479   */\n      slt\n        /* \"#utility.yul\":4463:4480   */\n      iszero\n        /* \"#utility.yul\":4459:4494   */\n      and\n        /* \"#utility.yul\":4443:4553   */\n      or\n        /* \"#utility.yul\":4440:4576   */\n      iszero\n      tag_87\n      jumpi\n        /* \"#utility.yul\":4556:4574   */\n      tag_88\n      tag_44\n      jump\t// in\n    tag_88:\n        /* \"#utility.yul\":4440:4576   */\n    tag_87:\n        /* \"#utility.yul\":4208:4583   */\n      swap3\n      swap2\n      pop\n      pop\n      jump\t// out\n\n    auxdata: 0xa264697066735822122087745c794deb2c3a53765ef593da73851d2546b0e7395783718bf1a4465bd65d64736f6c634300081a0033\n}\n",
				"bytecode": {
					"linkReferences": {},
					"object": "6080604052348015600e575f80fd5b506103cd8061001c5f395ff3fe608060405234801561000f575f80fd5b506004361061003f575f3560e01c80632b813bc0146100435780635b0c8d701461004d578063b3e07bf814610069575b5f80fd5b61004b610085565b005b61006760048036038101906100629190610193565b610099565b005b610083600480360381019061007e91906101f1565b6100fd565b005b60645f54136100975761009661021c565b5b565b60128160ff1610156100e0576040517f08c379a00000000000000000000000000000000000000000000000000000000081526004016100d7906102a3565b60405180910390fd5b8060015f6101000a81548160ff021916908360ff16021790555050565b5f811361013f576040517f08c379a00000000000000000000000000000000000000000000000000000000081526004016101369061030b565b60405180910390fd5b805f8082825461014f9190610356565b9250508190555050565b5f80fd5b5f60ff82169050919050565b6101728161015d565b811461017c575f80fd5b50565b5f8135905061018d81610169565b92915050565b5f602082840312156101a8576101a7610159565b5b5f6101b58482850161017f565b91505092915050565b5f819050919050565b6101d0816101be565b81146101da575f80fd5b50565b5f813590506101eb816101c7565b92915050565b5f6020828403121561020657610205610159565b5b5f610213848285016101dd565b91505092915050565b7f4e487b71000000000000000000000000000000000000000000000000000000005f52600160045260245ffd5b5f82825260208201905092915050565b7f796f7527726520746f6f20796f756e67210000000000000000000000000000005f82015250565b5f61028d601183610249565b915061029882610259565b602082019050919050565b5f6020820190508181035f8301526102ba81610281565b9050919050565b7f74686520616d6f756e74206d75737420626520626967676572207468616e20305f82015250565b5f6102f5602083610249565b9150610300826102c1565b602082019050919050565b5f6020820190508181035f830152610322816102e9565b9050919050565b7f4e487b71000000000000000000000000000000000000000000000000000000005f52601160045260245ffd5b5f610360826101be565b915061036b836101be565b92508282019050828112155f8312168382125f84121516171561039157610390610329565b5b9291505056fea264697066735822122087745c794deb2c3a53765ef593da73851d2546b0e7395783718bf1a4465bd65d64736f6c634300081a0033",
					"opcodes": "PUSH1 0x80 PUSH1 0x40 MSTORE CALLVALUE DUP1 ISZERO PUSH1 0xE JUMPI PUSH0 DUP1 REVERT JUMPDEST POP PUSH2 0x3CD DUP1 PUSH2 0x1C PUSH0 CODECOPY PUSH0 RETURN INVALID PUSH1 0x80 PUSH1 0x40 MSTORE CALLVALUE DUP1 ISZERO PUSH2 0xF JUMPI PUSH0 DUP1 REVERT JUMPDEST POP PUSH1 0x4 CALLDATASIZE LT PUSH2 0x3F JUMPI PUSH0 CALLDATALOAD PUSH1 0xE0 SHR DUP1 PUSH4 0x2B813BC0 EQ PUSH2 0x43 JUMPI DUP1 PUSH4 0x5B0C8D70 EQ PUSH2 0x4D JUMPI DUP1 PUSH4 0xB3E07BF8 EQ PUSH2 0x69 JUMPI JUMPDEST PUSH0 DUP1 REVERT JUMPDEST PUSH2 0x4B PUSH2 0x85 JUMP JUMPDEST STOP JUMPDEST PUSH2 0x67 PUSH1 0x4 DUP1 CALLDATASIZE SUB DUP2 ADD SWAP1 PUSH2 0x62 SWAP2 SWAP1 PUSH2 0x193 JUMP JUMPDEST PUSH2 0x99 JUMP JUMPDEST STOP JUMPDEST PUSH2 0x83 PUSH1 0x4 DUP1 CALLDATASIZE SUB DUP2 ADD SWAP1 PUSH2 0x7E SWAP2 SWAP1 PUSH2 0x1F1 JUMP JUMPDEST PUSH2 0xFD JUMP JUMPDEST STOP JUMPDEST PUSH1 0x64 PUSH0 SLOAD SGT PUSH2 0x97 JUMPI PUSH2 0x96 PUSH2 0x21C JUMP JUMPDEST JUMPDEST JUMP JUMPDEST PUSH1 0x12 DUP2 PUSH1 0xFF AND LT ISZERO PUSH2 0xE0 JUMPI PUSH1 0x40 MLOAD PUSH32 0x8C379A000000000000000000000000000000000000000000000000000000000 DUP2 MSTORE PUSH1 0x4 ADD PUSH2 0xD7 SWAP1 PUSH2 0x2A3 JUMP JUMPDEST PUSH1 0x40 MLOAD DUP1 SWAP2 SUB SWAP1 REVERT JUMPDEST DUP1 PUSH1 0x1 PUSH0 PUSH2 0x100 EXP DUP2 SLOAD DUP2 PUSH1 0xFF MUL NOT AND SWAP1 DUP4 PUSH1 0xFF AND MUL OR SWAP1 SSTORE POP POP JUMP JUMPDEST PUSH0 DUP2 SGT PUSH2 0x13F JUMPI PUSH1 0x40 MLOAD PUSH32 0x8C379A000000000000000000000000000000000000000000000000000000000 DUP2 MSTORE PUSH1 0x4 ADD PUSH2 0x136 SWAP1 PUSH2 0x30B JUMP JUMPDEST PUSH1 0x40 MLOAD DUP1 SWAP2 SUB SWAP1 REVERT JUMPDEST DUP1 PUSH0 DUP1 DUP3 DUP3 SLOAD PUSH2 0x14F SWAP2 SWAP1 PUSH2 0x356 JUMP JUMPDEST SWAP3 POP POP DUP2 SWAP1 SSTORE POP POP JUMP JUMPDEST PUSH0 DUP1 REVERT JUMPDEST PUSH0 PUSH1 0xFF DUP3 AND SWAP1 POP SWAP2 SWAP1 POP JUMP JUMPDEST PUSH2 0x172 DUP2 PUSH2 0x15D JUMP JUMPDEST DUP2 EQ PUSH2 0x17C JUMPI PUSH0 DUP1 REVERT JUMPDEST POP JUMP JUMPDEST PUSH0 DUP2 CALLDATALOAD SWAP1 POP PUSH2 0x18D DUP2 PUSH2 0x169 JUMP JUMPDEST SWAP3 SWAP2 POP POP JUMP JUMPDEST PUSH0 PUSH1 0x20 DUP3 DUP5 SUB SLT ISZERO PUSH2 0x1A8 JUMPI PUSH2 0x1A7 PUSH2 0x159 JUMP JUMPDEST JUMPDEST PUSH0 PUSH2 0x1B5 DUP5 DUP3 DUP6 ADD PUSH2 0x17F JUMP JUMPDEST SWAP2 POP POP SWAP3 SWAP2 POP POP JUMP JUMPDEST PUSH0 DUP2 SWAP1 POP SWAP2 SWAP1 POP JUMP JUMPDEST PUSH2 0x1D0 DUP2 PUSH2 0x1BE JUMP JUMPDEST DUP2 EQ PUSH2 0x1DA JUMPI PUSH0 DUP1 REVERT JUMPDEST POP JUMP JUMPDEST PUSH0 DUP2 CALLDATALOAD SWAP1 POP PUSH2 0x1EB DUP2 PUSH2 0x1C7 JUMP JUMPDEST SWAP3 SWAP2 POP POP JUMP JUMPDEST PUSH0 PUSH1 0x20 DUP3 DUP5 SUB SLT ISZERO PUSH2 0x206 JUMPI PUSH2 0x205 PUSH2 0x159 JUMP JUMPDEST JUMPDEST PUSH0 PUSH2 0x213 DUP5 DUP3 DUP6 ADD PUSH2 0x1DD JUMP JUMPDEST SWAP2 POP POP SWAP3 SWAP2 POP POP JUMP JUMPDEST PUSH32 0x4E487B7100000000000000000000000000000000000000000000000000000000 PUSH0 MSTORE PUSH1 0x1 PUSH1 0x4 MSTORE PUSH1 0x24 PUSH0 REVERT JUMPDEST PUSH0 DUP3 DUP3 MSTORE PUSH1 0x20 DUP3 ADD SWAP1 POP SWAP3 SWAP2 POP POP JUMP JUMPDEST PUSH32 0x796F7527726520746F6F20796F756E6721000000000000000000000000000000 PUSH0 DUP3 ADD MSTORE POP JUMP JUMPDEST PUSH0 PUSH2 0x28D PUSH1 0x11 DUP4 PUSH2 0x249 JUMP JUMPDEST SWAP2 POP PUSH2 0x298 DUP3 PUSH2 0x259 JUMP JUMPDEST PUSH1 0x20 DUP3 ADD SWAP1 POP SWAP2 SWAP1 POP JUMP JUMPDEST PUSH0 PUSH1 0x20 DUP3 ADD SWAP1 POP DUP2 DUP2 SUB PUSH0 DUP4 ADD MSTORE PUSH2 0x2BA DUP2 PUSH2 0x281 JUMP JUMPDEST SWAP1 POP SWAP2 SWAP1 POP JUMP JUMPDEST PUSH32 0x74686520616D6F756E74206D75737420626520626967676572207468616E2030 PUSH0 DUP3 ADD MSTORE POP JUMP JUMPDEST PUSH0 PUSH2 0x2F5 PUSH1 0x20 DUP4 PUSH2 0x249 JUMP JUMPDEST SWAP2 POP PUSH2 0x300 DUP3 PUSH2 0x2C1 JUMP JUMPDEST PUSH1 0x20 DUP3 ADD SWAP1 POP SWAP2 SWAP1 POP JUMP JUMPDEST PUSH0 PUSH1 0x20 DUP3 ADD SWAP1 POP DUP2 DUP2 SUB PUSH0 DUP4 ADD MSTORE PUSH2 0x322 DUP2 PUSH2 0x2E9 JUMP JUMPDEST SWAP1 POP SWAP2 SWAP1 POP JUMP JUMPDEST PUSH32 0x4E487B7100000000000000000000000000000000000000000000000000000000 PUSH0 MSTORE PUSH1 0x11 PUSH1 0x4 MSTORE PUSH1 0x24 PUSH0 REVERT JUMPDEST PUSH0 PUSH2 0x360 DUP3 PUSH2 0x1BE JUMP JUMPDEST SWAP2 POP PUSH2 0x36B DUP4 PUSH2 0x1BE JUMP JUMPDEST SWAP3 POP DUP3 DUP3 ADD SWAP1 POP DUP3 DUP2 SLT ISZERO PUSH0 DUP4 SLT AND DUP4 DUP3 SLT PUSH0 DUP5 SLT ISZERO AND OR ISZERO PUSH2 0x391 JUMPI PUSH2 0x390 PUSH2 0x329 JUMP JUMPDEST JUMPDEST SWAP3 SWAP2 POP POP JUMP INVALID LOG2 PUSH5 0x6970667358 0x22 SLT KECCAK256 DUP8 PUSH21 0x5C794DEB2C3A53765EF593DA73851D2546B0E73957 DUP4 PUSH18 0x8BF1A4465BD65D64736F6C634300081A0033 "
				},
				"gasEstimates": {
					"creation": {
						"codeDepositCost": "194600",
						"executionCost": "236",
						"totalCost": "194836"
					},
					"external": {
						"setAge(uint8)": "24705",
						"testAssert()": "2270",
						"testRequire(int256)": "infinite"
					}
				},
				"methodIdentifiers": {
					"setAge(uint8)": "5b0c8d70",
					"testAssert()": "2b813bc0",
					"testRequire(int256)": "b3e07bf8"
				}
			},
			"storageLayout": {
				"storage": [
					{
						"astId": 3,
						"contract": "contracts/Errors.sol:Errors",
						"label": "amount",
						"offset": 0,
						"slot": "0",
						"type": "t_int256"
					},
					{
						"astId": 5,
						"contract": "contracts/Errors.sol:Errors",
						"label": "age",
						"offset": 0,
						"slot": "1",
						"type": "t_uint8"
					}
				],
				"types": {
					"t_int256": {
						"encoding": "inplace",
						"label": "int256",
						"numberOfBytes": "32"
					},
					"t_uint8": {
						"encoding": "inplace",
						"label": "uint8",
						"numberOfBytes": "1"
					}
				}
			},
			"userdoc": {
				"kind": "user",
				"methods": {},
				"version": 1
			}
		}
	}
}