{
	"contracts/1_Basics/09_Mapping.sol": {
		"Mapping": {
			"abi": [
				{
					"inputs": [],
					"name": "addBalance",
					"outputs": [],
					"stateMutability": "payable",
					"type": "function"
				},
				{
					"inputs": [
						{
							"internalType": "address",
							"name": "_user",
							"type": "address"
						}
					],
					"name": "getBalance",
					"outputs": [
						{
							"internalType": "uint256",
							"name": "",
							"type": "uint256"
						}
					],
					"stateMutability": "view",
					"type": "function"
				},
				{
					"inputs": [],
					"name": "getFirst",
					"outputs": [
						{
							"internalType": "uint256",
							"name": "",
							"type": "uint256"
						}
					],
					"stateMutability": "view",
					"type": "function"
				},
				{
					"inputs": [],
					"name": "getSize",
					"outputs": [
						{
							"internalType": "uint256",
							"name": "",
							"type": "uint256"
						}
					],
					"stateMutability": "view",
					"type": "function"
				},
				{
					"inputs": [
						{
							"internalType": "uint256",
							"name": "_i",
							"type": "uint256"
						}
					],
					"name": "get_i",
					"outputs": [
						{
							"internalType": "uint256",
							"name": "",
							"type": "uint256"
						}
					],
					"stateMutability": "view",
					"type": "function"
				},
				{
					"inputs": [
						{
							"internalType": "uint256",
							"name": "",
							"type": "uint256"
						}
					],
					"name": "keys",
					"outputs": [
						{
							"internalType": "address",
							"name": "",
							"type": "address"
						}
					],
					"stateMutability": "view",
					"type": "function"
				},
				{
					"inputs": [
						{
							"internalType": "address",
							"name": "_key",
							"type": "address"
						},
						{
							"internalType": "uint256",
							"name": "_val",
							"type": "uint256"
						}
					],
					"name": "set",
					"outputs": [],
					"stateMutability": "nonpayable",
					"type": "function"
				}
			],
			"devdoc": {
				"kind": "dev",
				"methods": {},
				"version": 1
			},
			"evm": {
				"assembly": "    /* \"contracts/1_Basics/09_Mapping.sol\":70:1024  contract Mapping {... */\n  mstore(0x40, 0x80)\n  callvalue\n  dup1\n  iszero\n  tag_1\n  jumpi\n  0x00\n  dup1\n  revert\ntag_1:\n  pop\n  dataSize(sub_0)\n  dup1\n  dataOffset(sub_0)\n  0x00\n  codecopy\n  0x00\n  return\nstop\n\nsub_0: assembly {\n        /* \"contracts/1_Basics/09_Mapping.sol\":70:1024  contract Mapping {... */\n      mstore(0x40, 0x80)\n      jumpi(tag_1, lt(calldatasize, 0x04))\n      shr(0xe0, calldataload(0x00))\n      dup1\n      0x4eabf263\n      gt\n      tag_9\n      jumpi\n      dup1\n      0x4eabf263\n      eq\n      tag_5\n      jumpi\n      dup1\n      0xb163cc38\n      eq\n      tag_6\n      jumpi\n      dup1\n      0xde8fa431\n      eq\n      tag_7\n      jumpi\n      dup1\n      0xf8b2cb4f\n      eq\n      tag_8\n      jumpi\n      jump(tag_1)\n    tag_9:\n      dup1\n      0x0cb6aaf1\n      eq\n      tag_2\n      jumpi\n      dup1\n      0x1e223143\n      eq\n      tag_3\n      jumpi\n      dup1\n      0x3825d828\n      eq\n      tag_4\n      jumpi\n    tag_1:\n      0x00\n      dup1\n      revert\n        /* \"contracts/1_Basics/09_Mapping.sol\":195:216  address[] public keys */\n    tag_2:\n      callvalue\n      dup1\n      iszero\n      tag_10\n      jumpi\n      0x00\n      dup1\n      revert\n    tag_10:\n      pop\n      tag_11\n      0x04\n      dup1\n      calldatasize\n      sub\n      dup2\n      add\n      swap1\n      tag_12\n      swap2\n      swap1\n      tag_13\n      jump\t// in\n    tag_12:\n      tag_14\n      jump\t// in\n    tag_11:\n      mload(0x40)\n      tag_15\n      swap2\n      swap1\n      tag_16\n      jump\t// in\n    tag_15:\n      mload(0x40)\n      dup1\n      swap2\n      sub\n      swap1\n      return\n        /* \"contracts/1_Basics/09_Mapping.sol\":833:921  function getFirst() public view returns (uint) {... */\n    tag_3:\n      callvalue\n      dup1\n      iszero\n      tag_17\n      jumpi\n      0x00\n      dup1\n      revert\n    tag_17:\n      pop\n      tag_18\n      tag_19\n      jump\t// in\n    tag_18:\n      mload(0x40)\n      tag_20\n      swap2\n      swap1\n      tag_21\n      jump\t// in\n    tag_20:\n      mload(0x40)\n      dup1\n      swap2\n      sub\n      swap1\n      return\n        /* \"contracts/1_Basics/09_Mapping.sol\":551:738  function set(address _key , uint _val) public {... */\n    tag_4:\n      callvalue\n      dup1\n      iszero\n      tag_22\n      jumpi\n      0x00\n      dup1\n      revert\n    tag_22:\n      pop\n      tag_23\n      0x04\n      dup1\n      calldatasize\n      sub\n      dup2\n      add\n      swap1\n      tag_24\n      swap2\n      swap1\n      tag_25\n      jump\t// in\n    tag_24:\n      tag_26\n      jump\t// in\n    tag_23:\n      stop\n        /* \"contracts/1_Basics/09_Mapping.sol\":927:1020  function get_i(uint _i) public view returns (uint) {... */\n    tag_5:\n      callvalue\n      dup1\n      iszero\n      tag_27\n      jumpi\n      0x00\n      dup1\n      revert\n    tag_27:\n      pop\n      tag_28\n      0x04\n      dup1\n      calldatasize\n      sub\n      dup2\n      add\n      swap1\n      tag_29\n      swap2\n      swap1\n      tag_13\n      jump\t// in\n    tag_29:\n      tag_30\n      jump\t// in\n    tag_28:\n      mload(0x40)\n      tag_31\n      swap2\n      swap1\n      tag_21\n      jump\t// in\n    tag_31:\n      mload(0x40)\n      dup1\n      swap2\n      sub\n      swap1\n      return\n        /* \"contracts/1_Basics/09_Mapping.sol\":223:359  function addBalance() public payable {... */\n    tag_6:\n      tag_32\n      tag_33\n      jump\t// in\n    tag_32:\n      stop\n        /* \"contracts/1_Basics/09_Mapping.sol\":744:827  function getSize() public view returns (uint) {... */\n    tag_7:\n      callvalue\n      dup1\n      iszero\n      tag_34\n      jumpi\n      0x00\n      dup1\n      revert\n    tag_34:\n      pop\n      tag_35\n      tag_36\n      jump\t// in\n    tag_35:\n      mload(0x40)\n      tag_37\n      swap2\n      swap1\n      tag_21\n      jump\t// in\n    tag_37:\n      mload(0x40)\n      dup1\n      swap2\n      sub\n      swap1\n      return\n        /* \"contracts/1_Basics/09_Mapping.sol\":365:528  function getBalance(address _user) public view returns(uint) {... */\n    tag_8:\n      callvalue\n      dup1\n      iszero\n      tag_38\n      jumpi\n      0x00\n      dup1\n      revert\n    tag_38:\n      pop\n      tag_39\n      0x04\n      dup1\n      calldatasize\n      sub\n      dup2\n      add\n      swap1\n      tag_40\n      swap2\n      swap1\n      tag_41\n      jump\t// in\n    tag_40:\n      tag_42\n      jump\t// in\n    tag_39:\n      mload(0x40)\n      tag_43\n      swap2\n      swap1\n      tag_21\n      jump\t// in\n    tag_43:\n      mload(0x40)\n      dup1\n      swap2\n      sub\n      swap1\n      return\n        /* \"contracts/1_Basics/09_Mapping.sol\":195:216  address[] public keys */\n    tag_14:\n      0x02\n      dup2\n      dup2\n      sload\n      dup2\n      lt\n      tag_44\n      jumpi\n      0x00\n      dup1\n      revert\n    tag_44:\n      swap1\n      0x00\n      mstore\n      keccak256(0x00, 0x20)\n      add\n      0x00\n      swap2\n      pop\n      sload\n      swap1\n      0x0100\n      exp\n      swap1\n      div\n      0xffffffffffffffffffffffffffffffffffffffff\n      and\n      dup2\n      jump\t// out\n        /* \"contracts/1_Basics/09_Mapping.sol\":833:921  function getFirst() public view returns (uint) {... */\n    tag_19:\n        /* \"contracts/1_Basics/09_Mapping.sol\":874:878  uint */\n      0x00\n        /* \"contracts/1_Basics/09_Mapping.sol\":897:905  balances */\n      dup1\n        /* \"contracts/1_Basics/09_Mapping.sol\":897:914  balances[keys[0]] */\n      0x00\n        /* \"contracts/1_Basics/09_Mapping.sol\":906:910  keys */\n      0x02\n        /* \"contracts/1_Basics/09_Mapping.sol\":911:912  0 */\n      0x00\n        /* \"contracts/1_Basics/09_Mapping.sol\":906:913  keys[0] */\n      dup2\n      sload\n      dup2\n      lt\n      tag_47\n      jumpi\n      tag_48\n      tag_49\n      jump\t// in\n    tag_48:\n    tag_47:\n      swap1\n      0x00\n      mstore\n      keccak256(0x00, 0x20)\n      add\n      0x00\n      swap1\n      sload\n      swap1\n      0x0100\n      exp\n      swap1\n      div\n      0xffffffffffffffffffffffffffffffffffffffff\n      and\n        /* \"contracts/1_Basics/09_Mapping.sol\":897:914  balances[keys[0]] */\n      0xffffffffffffffffffffffffffffffffffffffff\n      and\n      0xffffffffffffffffffffffffffffffffffffffff\n      and\n      dup2\n      mstore\n      0x20\n      add\n      swap1\n      dup2\n      mstore\n      0x20\n      add\n      0x00\n      keccak256\n      sload\n        /* \"contracts/1_Basics/09_Mapping.sol\":890:914  return balances[keys[0]] */\n      swap1\n      pop\n        /* \"contracts/1_Basics/09_Mapping.sol\":833:921  function getFirst() public view returns (uint) {... */\n      swap1\n      jump\t// out\n        /* \"contracts/1_Basics/09_Mapping.sol\":551:738  function set(address _key , uint _val) public {... */\n    tag_26:\n        /* \"contracts/1_Basics/09_Mapping.sol\":624:628  _val */\n      dup1\n        /* \"contracts/1_Basics/09_Mapping.sol\":607:615  balances */\n      0x00\n        /* \"contracts/1_Basics/09_Mapping.sol\":607:621  balances[_key] */\n      dup1\n        /* \"contracts/1_Basics/09_Mapping.sol\":616:620  _key */\n      dup5\n        /* \"contracts/1_Basics/09_Mapping.sol\":607:621  balances[_key] */\n      0xffffffffffffffffffffffffffffffffffffffff\n      and\n      0xffffffffffffffffffffffffffffffffffffffff\n      and\n      dup2\n      mstore\n      0x20\n      add\n      swap1\n      dup2\n      mstore\n      0x20\n      add\n      0x00\n      keccak256\n        /* \"contracts/1_Basics/09_Mapping.sol\":607:628  balances[_key] = _val */\n      dup2\n      swap1\n      sstore\n      pop\n        /* \"contracts/1_Basics/09_Mapping.sol\":642:650  inserted */\n      0x01\n        /* \"contracts/1_Basics/09_Mapping.sol\":642:656  inserted[_key] */\n      0x00\n        /* \"contracts/1_Basics/09_Mapping.sol\":651:655  _key */\n      dup4\n        /* \"contracts/1_Basics/09_Mapping.sol\":642:656  inserted[_key] */\n      0xffffffffffffffffffffffffffffffffffffffff\n      and\n      0xffffffffffffffffffffffffffffffffffffffff\n      and\n      dup2\n      mstore\n      0x20\n      add\n      swap1\n      dup2\n      mstore\n      0x20\n      add\n      0x00\n      keccak256\n      0x00\n      swap1\n      sload\n      swap1\n      0x0100\n      exp\n      swap1\n      div\n      0xff\n      and\n        /* \"contracts/1_Basics/09_Mapping.sol\":638:732  if(!inserted[_key]){... */\n      tag_52\n      jumpi\n        /* \"contracts/1_Basics/09_Mapping.sol\":688:692  true */\n      0x01\n        /* \"contracts/1_Basics/09_Mapping.sol\":671:679  inserted */\n      dup1\n        /* \"contracts/1_Basics/09_Mapping.sol\":671:685  inserted[_key] */\n      0x00\n        /* \"contracts/1_Basics/09_Mapping.sol\":680:684  _key */\n      dup5\n        /* \"contracts/1_Basics/09_Mapping.sol\":671:685  inserted[_key] */\n      0xffffffffffffffffffffffffffffffffffffffff\n      and\n      0xffffffffffffffffffffffffffffffffffffffff\n      and\n      dup2\n      mstore\n      0x20\n      add\n      swap1\n      dup2\n      mstore\n      0x20\n      add\n      0x00\n      keccak256\n      0x00\n        /* \"contracts/1_Basics/09_Mapping.sol\":671:692  inserted[_key] = true */\n      0x0100\n      exp\n      dup2\n      sload\n      dup2\n      0xff\n      mul\n      not\n      and\n      swap1\n      dup4\n      iszero\n      iszero\n      mul\n      or\n      swap1\n      sstore\n      pop\n        /* \"contracts/1_Basics/09_Mapping.sol\":706:710  keys */\n      0x02\n        /* \"contracts/1_Basics/09_Mapping.sol\":716:720  _key */\n      dup3\n        /* \"contracts/1_Basics/09_Mapping.sol\":706:721  keys.push(_key) */\n      swap1\n      dup1\n      0x01\n      dup2\n      sload\n      add\n      dup1\n      dup3\n      sstore\n      dup1\n      swap2\n      pop\n      pop\n      0x01\n      swap1\n      sub\n      swap1\n      0x00\n      mstore\n      keccak256(0x00, 0x20)\n      add\n      0x00\n      swap1\n      swap2\n      swap1\n      swap2\n      swap1\n      swap2\n      0x0100\n      exp\n      dup2\n      sload\n      dup2\n      0xffffffffffffffffffffffffffffffffffffffff\n      mul\n      not\n      and\n      swap1\n      dup4\n      0xffffffffffffffffffffffffffffffffffffffff\n      and\n      mul\n      or\n      swap1\n      sstore\n      pop\n        /* \"contracts/1_Basics/09_Mapping.sol\":638:732  if(!inserted[_key]){... */\n    tag_52:\n        /* \"contracts/1_Basics/09_Mapping.sol\":551:738  function set(address _key , uint _val) public {... */\n      pop\n      pop\n      jump\t// out\n        /* \"contracts/1_Basics/09_Mapping.sol\":927:1020  function get_i(uint _i) public view returns (uint) {... */\n    tag_30:\n        /* \"contracts/1_Basics/09_Mapping.sol\":972:976  uint */\n      0x00\n        /* \"contracts/1_Basics/09_Mapping.sol\":995:1003  balances */\n      dup1\n        /* \"contracts/1_Basics/09_Mapping.sol\":995:1013  balances[keys[_i]] */\n      0x00\n        /* \"contracts/1_Basics/09_Mapping.sol\":1004:1008  keys */\n      0x02\n        /* \"contracts/1_Basics/09_Mapping.sol\":1009:1011  _i */\n      dup5\n        /* \"contracts/1_Basics/09_Mapping.sol\":1004:1012  keys[_i] */\n      dup2\n      sload\n      dup2\n      lt\n      tag_55\n      jumpi\n      tag_56\n      tag_49\n      jump\t// in\n    tag_56:\n    tag_55:\n      swap1\n      0x00\n      mstore\n      keccak256(0x00, 0x20)\n      add\n      0x00\n      swap1\n      sload\n      swap1\n      0x0100\n      exp\n      swap1\n      div\n      0xffffffffffffffffffffffffffffffffffffffff\n      and\n        /* \"contracts/1_Basics/09_Mapping.sol\":995:1013  balances[keys[_i]] */\n      0xffffffffffffffffffffffffffffffffffffffff\n      and\n      0xffffffffffffffffffffffffffffffffffffffff\n      and\n      dup2\n      mstore\n      0x20\n      add\n      swap1\n      dup2\n      mstore\n      0x20\n      add\n      0x00\n      keccak256\n      sload\n        /* \"contracts/1_Basics/09_Mapping.sol\":988:1013  return balances[keys[_i]] */\n      swap1\n      pop\n        /* \"contracts/1_Basics/09_Mapping.sol\":927:1020  function get_i(uint _i) public view returns (uint) {... */\n      swap2\n      swap1\n      pop\n      jump\t// out\n        /* \"contracts/1_Basics/09_Mapping.sol\":223:359  function addBalance() public payable {... */\n    tag_33:\n        /* \"contracts/1_Basics/09_Mapping.sol\":290:291  0 */\n      0x00\n        /* \"contracts/1_Basics/09_Mapping.sol\":278:287  msg.value */\n      callvalue\n        /* \"contracts/1_Basics/09_Mapping.sol\":278:291  msg.value > 0 */\n      gt\n        /* \"contracts/1_Basics/09_Mapping.sol\":270:309  require(msg.value > 0, \"Invalid value\") */\n      tag_59\n      jumpi\n      mload(0x40)\n      0x08c379a000000000000000000000000000000000000000000000000000000000\n      dup2\n      mstore\n      0x04\n      add\n      tag_60\n      swap1\n      tag_61\n      jump\t// in\n    tag_60:\n      mload(0x40)\n      dup1\n      swap2\n      sub\n      swap1\n      revert\n    tag_59:\n        /* \"contracts/1_Basics/09_Mapping.sol\":343:352  msg.value */\n      callvalue\n        /* \"contracts/1_Basics/09_Mapping.sol\":319:327  balances */\n      0x00\n        /* \"contracts/1_Basics/09_Mapping.sol\":319:339  balances[msg.sender] */\n      dup1\n        /* \"contracts/1_Basics/09_Mapping.sol\":328:338  msg.sender */\n      caller\n        /* \"contracts/1_Basics/09_Mapping.sol\":319:339  balances[msg.sender] */\n      0xffffffffffffffffffffffffffffffffffffffff\n      and\n      0xffffffffffffffffffffffffffffffffffffffff\n      and\n      dup2\n      mstore\n      0x20\n      add\n      swap1\n      dup2\n      mstore\n      0x20\n      add\n      0x00\n      keccak256\n      0x00\n        /* \"contracts/1_Basics/09_Mapping.sol\":319:352  balances[msg.sender] += msg.value */\n      dup3\n      dup3\n      sload\n      tag_62\n      swap2\n      swap1\n      tag_63\n      jump\t// in\n    tag_62:\n      swap3\n      pop\n      pop\n      dup2\n      swap1\n      sstore\n      pop\n        /* \"contracts/1_Basics/09_Mapping.sol\":223:359  function addBalance() public payable {... */\n      jump\t// out\n        /* \"contracts/1_Basics/09_Mapping.sol\":744:827  function getSize() public view returns (uint) {... */\n    tag_36:\n        /* \"contracts/1_Basics/09_Mapping.sol\":784:788  uint */\n      0x00\n        /* \"contracts/1_Basics/09_Mapping.sol\":808:812  keys */\n      0x02\n        /* \"contracts/1_Basics/09_Mapping.sol\":808:819  keys.length */\n      dup1\n      sload\n      swap1\n      pop\n        /* \"contracts/1_Basics/09_Mapping.sol\":800:820  return (keys.length) */\n      swap1\n      pop\n        /* \"contracts/1_Basics/09_Mapping.sol\":744:827  function getSize() public view returns (uint) {... */\n      swap1\n      jump\t// out\n        /* \"contracts/1_Basics/09_Mapping.sol\":365:528  function getBalance(address _user) public view returns(uint) {... */\n    tag_42:\n        /* \"contracts/1_Basics/09_Mapping.sol\":420:424  uint */\n      0x00\n        /* \"contracts/1_Basics/09_Mapping.sol\":461:462  0 */\n      dup1\n        /* \"contracts/1_Basics/09_Mapping.sol\":444:463  _user != address(0) */\n      0xffffffffffffffffffffffffffffffffffffffff\n      and\n        /* \"contracts/1_Basics/09_Mapping.sol\":444:449  _user */\n      dup3\n        /* \"contracts/1_Basics/09_Mapping.sol\":444:463  _user != address(0) */\n      0xffffffffffffffffffffffffffffffffffffffff\n      and\n      sub\n        /* \"contracts/1_Basics/09_Mapping.sol\":436:489  require(_user != address(0) , \"Invalid user Address\") */\n      tag_66\n      jumpi\n      mload(0x40)\n      0x08c379a000000000000000000000000000000000000000000000000000000000\n      dup2\n      mstore\n      0x04\n      add\n      tag_67\n      swap1\n      tag_68\n      jump\t// in\n    tag_67:\n      mload(0x40)\n      dup1\n      swap2\n      sub\n      swap1\n      revert\n    tag_66:\n        /* \"contracts/1_Basics/09_Mapping.sol\":506:514  balances */\n      0x00\n        /* \"contracts/1_Basics/09_Mapping.sol\":506:521  balances[_user] */\n      dup1\n        /* \"contracts/1_Basics/09_Mapping.sol\":515:520  _user */\n      dup4\n        /* \"contracts/1_Basics/09_Mapping.sol\":506:521  balances[_user] */\n      0xffffffffffffffffffffffffffffffffffffffff\n      and\n      0xffffffffffffffffffffffffffffffffffffffff\n      and\n      dup2\n      mstore\n      0x20\n      add\n      swap1\n      dup2\n      mstore\n      0x20\n      add\n      0x00\n      keccak256\n      sload\n        /* \"contracts/1_Basics/09_Mapping.sol\":499:521  return balances[_user] */\n      swap1\n      pop\n        /* \"contracts/1_Basics/09_Mapping.sol\":365:528  function getBalance(address _user) public view returns(uint) {... */\n      swap2\n      swap1\n      pop\n      jump\t// out\n        /* \"#utility.yul\":88:205   */\n    tag_70:\n        /* \"#utility.yul\":197:198   */\n      0x00\n        /* \"#utility.yul\":194:195   */\n      dup1\n        /* \"#utility.yul\":187:199   */\n      revert\n        /* \"#utility.yul\":334:411   */\n    tag_72:\n        /* \"#utility.yul\":371:378   */\n      0x00\n        /* \"#utility.yul\":400:405   */\n      dup2\n        /* \"#utility.yul\":389:405   */\n      swap1\n      pop\n        /* \"#utility.yul\":334:411   */\n      swap2\n      swap1\n      pop\n      jump\t// out\n        /* \"#utility.yul\":417:539   */\n    tag_73:\n        /* \"#utility.yul\":490:514   */\n      tag_93\n        /* \"#utility.yul\":508:513   */\n      dup2\n        /* \"#utility.yul\":490:514   */\n      tag_72\n      jump\t// in\n    tag_93:\n        /* \"#utility.yul\":483:488   */\n      dup2\n        /* \"#utility.yul\":480:515   */\n      eq\n        /* \"#utility.yul\":470:533   */\n      tag_94\n      jumpi\n        /* \"#utility.yul\":529:530   */\n      0x00\n        /* \"#utility.yul\":526:527   */\n      dup1\n        /* \"#utility.yul\":519:531   */\n      revert\n        /* \"#utility.yul\":470:533   */\n    tag_94:\n        /* \"#utility.yul\":417:539   */\n      pop\n      jump\t// out\n        /* \"#utility.yul\":545:684   */\n    tag_74:\n        /* \"#utility.yul\":591:596   */\n      0x00\n        /* \"#utility.yul\":629:635   */\n      dup2\n        /* \"#utility.yul\":616:636   */\n      calldataload\n        /* \"#utility.yul\":607:636   */\n      swap1\n      pop\n        /* \"#utility.yul\":645:678   */\n      tag_96\n        /* \"#utility.yul\":672:677   */\n      dup2\n        /* \"#utility.yul\":645:678   */\n      tag_73\n      jump\t// in\n    tag_96:\n        /* \"#utility.yul\":545:684   */\n      swap3\n      swap2\n      pop\n      pop\n      jump\t// out\n        /* \"#utility.yul\":690:1019   */\n    tag_13:\n        /* \"#utility.yul\":749:755   */\n      0x00\n        /* \"#utility.yul\":798:800   */\n      0x20\n        /* \"#utility.yul\":786:795   */\n      dup3\n        /* \"#utility.yul\":777:784   */\n      dup5\n        /* \"#utility.yul\":773:796   */\n      sub\n        /* \"#utility.yul\":769:801   */\n      slt\n        /* \"#utility.yul\":766:885   */\n      iszero\n      tag_98\n      jumpi\n        /* \"#utility.yul\":804:883   */\n      tag_99\n      tag_70\n      jump\t// in\n    tag_99:\n        /* \"#utility.yul\":766:885   */\n    tag_98:\n        /* \"#utility.yul\":924:925   */\n      0x00\n        /* \"#utility.yul\":949:1002   */\n      tag_100\n        /* \"#utility.yul\":994:1001   */\n      dup5\n        /* \"#utility.yul\":985:991   */\n      dup3\n        /* \"#utility.yul\":974:983   */\n      dup6\n        /* \"#utility.yul\":970:992   */\n      add\n        /* \"#utility.yul\":949:1002   */\n      tag_74\n      jump\t// in\n    tag_100:\n        /* \"#utility.yul\":939:1002   */\n      swap2\n      pop\n        /* \"#utility.yul\":895:1012   */\n      pop\n        /* \"#utility.yul\":690:1019   */\n      swap3\n      swap2\n      pop\n      pop\n      jump\t// out\n        /* \"#utility.yul\":1025:1151   */\n    tag_75:\n        /* \"#utility.yul\":1062:1069   */\n      0x00\n        /* \"#utility.yul\":1102:1144   */\n      0xffffffffffffffffffffffffffffffffffffffff\n        /* \"#utility.yul\":1095:1100   */\n      dup3\n        /* \"#utility.yul\":1091:1145   */\n      and\n        /* \"#utility.yul\":1080:1145   */\n      swap1\n      pop\n        /* \"#utility.yul\":1025:1151   */\n      swap2\n      swap1\n      pop\n      jump\t// out\n        /* \"#utility.yul\":1157:1253   */\n    tag_76:\n        /* \"#utility.yul\":1194:1201   */\n      0x00\n        /* \"#utility.yul\":1223:1247   */\n      tag_103\n        /* \"#utility.yul\":1241:1246   */\n      dup3\n        /* \"#utility.yul\":1223:1247   */\n      tag_75\n      jump\t// in\n    tag_103:\n        /* \"#utility.yul\":1212:1247   */\n      swap1\n      pop\n        /* \"#utility.yul\":1157:1253   */\n      swap2\n      swap1\n      pop\n      jump\t// out\n        /* \"#utility.yul\":1259:1377   */\n    tag_77:\n        /* \"#utility.yul\":1346:1370   */\n      tag_105\n        /* \"#utility.yul\":1364:1369   */\n      dup2\n        /* \"#utility.yul\":1346:1370   */\n      tag_76\n      jump\t// in\n    tag_105:\n        /* \"#utility.yul\":1341:1344   */\n      dup3\n        /* \"#utility.yul\":1334:1371   */\n      mstore\n        /* \"#utility.yul\":1259:1377   */\n      pop\n      pop\n      jump\t// out\n        /* \"#utility.yul\":1383:1605   */\n    tag_16:\n        /* \"#utility.yul\":1476:1480   */\n      0x00\n        /* \"#utility.yul\":1514:1516   */\n      0x20\n        /* \"#utility.yul\":1503:1512   */\n      dup3\n        /* \"#utility.yul\":1499:1517   */\n      add\n        /* \"#utility.yul\":1491:1517   */\n      swap1\n      pop\n        /* \"#utility.yul\":1527:1598   */\n      tag_107\n        /* \"#utility.yul\":1595:1596   */\n      0x00\n        /* \"#utility.yul\":1584:1593   */\n      dup4\n        /* \"#utility.yul\":1580:1597   */\n      add\n        /* \"#utility.yul\":1571:1577   */\n      dup5\n        /* \"#utility.yul\":1527:1598   */\n      tag_77\n      jump\t// in\n    tag_107:\n        /* \"#utility.yul\":1383:1605   */\n      swap3\n      swap2\n      pop\n      pop\n      jump\t// out\n        /* \"#utility.yul\":1611:1729   */\n    tag_78:\n        /* \"#utility.yul\":1698:1722   */\n      tag_109\n        /* \"#utility.yul\":1716:1721   */\n      dup2\n        /* \"#utility.yul\":1698:1722   */\n      tag_72\n      jump\t// in\n    tag_109:\n        /* \"#utility.yul\":1693:1696   */\n      dup3\n        /* \"#utility.yul\":1686:1723   */\n      mstore\n        /* \"#utility.yul\":1611:1729   */\n      pop\n      pop\n      jump\t// out\n        /* \"#utility.yul\":1735:1957   */\n    tag_21:\n        /* \"#utility.yul\":1828:1832   */\n      0x00\n        /* \"#utility.yul\":1866:1868   */\n      0x20\n        /* \"#utility.yul\":1855:1864   */\n      dup3\n        /* \"#utility.yul\":1851:1869   */\n      add\n        /* \"#utility.yul\":1843:1869   */\n      swap1\n      pop\n        /* \"#utility.yul\":1879:1950   */\n      tag_111\n        /* \"#utility.yul\":1947:1948   */\n      0x00\n        /* \"#utility.yul\":1936:1945   */\n      dup4\n        /* \"#utility.yul\":1932:1949   */\n      add\n        /* \"#utility.yul\":1923:1929   */\n      dup5\n        /* \"#utility.yul\":1879:1950   */\n      tag_78\n      jump\t// in\n    tag_111:\n        /* \"#utility.yul\":1735:1957   */\n      swap3\n      swap2\n      pop\n      pop\n      jump\t// out\n        /* \"#utility.yul\":1963:2085   */\n    tag_79:\n        /* \"#utility.yul\":2036:2060   */\n      tag_113\n        /* \"#utility.yul\":2054:2059   */\n      dup2\n        /* \"#utility.yul\":2036:2060   */\n      tag_76\n      jump\t// in\n    tag_113:\n        /* \"#utility.yul\":2029:2034   */\n      dup2\n        /* \"#utility.yul\":2026:2061   */\n      eq\n        /* \"#utility.yul\":2016:2079   */\n      tag_114\n      jumpi\n        /* \"#utility.yul\":2075:2076   */\n      0x00\n        /* \"#utility.yul\":2072:2073   */\n      dup1\n        /* \"#utility.yul\":2065:2077   */\n      revert\n        /* \"#utility.yul\":2016:2079   */\n    tag_114:\n        /* \"#utility.yul\":1963:2085   */\n      pop\n      jump\t// out\n        /* \"#utility.yul\":2091:2230   */\n    tag_80:\n        /* \"#utility.yul\":2137:2142   */\n      0x00\n        /* \"#utility.yul\":2175:2181   */\n      dup2\n        /* \"#utility.yul\":2162:2182   */\n      calldataload\n        /* \"#utility.yul\":2153:2182   */\n      swap1\n      pop\n        /* \"#utility.yul\":2191:2224   */\n      tag_116\n        /* \"#utility.yul\":2218:2223   */\n      dup2\n        /* \"#utility.yul\":2191:2224   */\n      tag_79\n      jump\t// in\n    tag_116:\n        /* \"#utility.yul\":2091:2230   */\n      swap3\n      swap2\n      pop\n      pop\n      jump\t// out\n        /* \"#utility.yul\":2236:2710   */\n    tag_25:\n        /* \"#utility.yul\":2304:2310   */\n      0x00\n        /* \"#utility.yul\":2312:2318   */\n      dup1\n        /* \"#utility.yul\":2361:2363   */\n      0x40\n        /* \"#utility.yul\":2349:2358   */\n      dup4\n        /* \"#utility.yul\":2340:2347   */\n      dup6\n        /* \"#utility.yul\":2336:2359   */\n      sub\n        /* \"#utility.yul\":2332:2364   */\n      slt\n        /* \"#utility.yul\":2329:2448   */\n      iszero\n      tag_118\n      jumpi\n        /* \"#utility.yul\":2367:2446   */\n      tag_119\n      tag_70\n      jump\t// in\n    tag_119:\n        /* \"#utility.yul\":2329:2448   */\n    tag_118:\n        /* \"#utility.yul\":2487:2488   */\n      0x00\n        /* \"#utility.yul\":2512:2565   */\n      tag_120\n        /* \"#utility.yul\":2557:2564   */\n      dup6\n        /* \"#utility.yul\":2548:2554   */\n      dup3\n        /* \"#utility.yul\":2537:2546   */\n      dup7\n        /* \"#utility.yul\":2533:2555   */\n      add\n        /* \"#utility.yul\":2512:2565   */\n      tag_80\n      jump\t// in\n    tag_120:\n        /* \"#utility.yul\":2502:2565   */\n      swap3\n      pop\n        /* \"#utility.yul\":2458:2575   */\n      pop\n        /* \"#utility.yul\":2614:2616   */\n      0x20\n        /* \"#utility.yul\":2640:2693   */\n      tag_121\n        /* \"#utility.yul\":2685:2692   */\n      dup6\n        /* \"#utility.yul\":2676:2682   */\n      dup3\n        /* \"#utility.yul\":2665:2674   */\n      dup7\n        /* \"#utility.yul\":2661:2683   */\n      add\n        /* \"#utility.yul\":2640:2693   */\n      tag_74\n      jump\t// in\n    tag_121:\n        /* \"#utility.yul\":2630:2693   */\n      swap2\n      pop\n        /* \"#utility.yul\":2585:2703   */\n      pop\n        /* \"#utility.yul\":2236:2710   */\n      swap3\n      pop\n      swap3\n      swap1\n      pop\n      jump\t// out\n        /* \"#utility.yul\":2716:3045   */\n    tag_41:\n        /* \"#utility.yul\":2775:2781   */\n      0x00\n        /* \"#utility.yul\":2824:2826   */\n      0x20\n        /* \"#utility.yul\":2812:2821   */\n      dup3\n        /* \"#utility.yul\":2803:2810   */\n      dup5\n        /* \"#utility.yul\":2799:2822   */\n      sub\n        /* \"#utility.yul\":2795:2827   */\n      slt\n        /* \"#utility.yul\":2792:2911   */\n      iszero\n      tag_123\n      jumpi\n        /* \"#utility.yul\":2830:2909   */\n      tag_124\n      tag_70\n      jump\t// in\n    tag_124:\n        /* \"#utility.yul\":2792:2911   */\n    tag_123:\n        /* \"#utility.yul\":2950:2951   */\n      0x00\n        /* \"#utility.yul\":2975:3028   */\n      tag_125\n        /* \"#utility.yul\":3020:3027   */\n      dup5\n        /* \"#utility.yul\":3011:3017   */\n      dup3\n        /* \"#utility.yul\":3000:3009   */\n      dup6\n        /* \"#utility.yul\":2996:3018   */\n      add\n        /* \"#utility.yul\":2975:3028   */\n      tag_80\n      jump\t// in\n    tag_125:\n        /* \"#utility.yul\":2965:3028   */\n      swap2\n      pop\n        /* \"#utility.yul\":2921:3038   */\n      pop\n        /* \"#utility.yul\":2716:3045   */\n      swap3\n      swap2\n      pop\n      pop\n      jump\t// out\n        /* \"#utility.yul\":3051:3231   */\n    tag_49:\n        /* \"#utility.yul\":3099:3176   */\n      0x4e487b7100000000000000000000000000000000000000000000000000000000\n        /* \"#utility.yul\":3096:3097   */\n      0x00\n        /* \"#utility.yul\":3089:3177   */\n      mstore\n        /* \"#utility.yul\":3196:3200   */\n      0x32\n        /* \"#utility.yul\":3193:3194   */\n      0x04\n        /* \"#utility.yul\":3186:3201   */\n      mstore\n        /* \"#utility.yul\":3220:3224   */\n      0x24\n        /* \"#utility.yul\":3217:3218   */\n      0x00\n        /* \"#utility.yul\":3210:3225   */\n      revert\n        /* \"#utility.yul\":3237:3406   */\n    tag_81:\n        /* \"#utility.yul\":3321:3332   */\n      0x00\n        /* \"#utility.yul\":3355:3361   */\n      dup3\n        /* \"#utility.yul\":3350:3353   */\n      dup3\n        /* \"#utility.yul\":3343:3362   */\n      mstore\n        /* \"#utility.yul\":3395:3399   */\n      0x20\n        /* \"#utility.yul\":3390:3393   */\n      dup3\n        /* \"#utility.yul\":3386:3400   */\n      add\n        /* \"#utility.yul\":3371:3400   */\n      swap1\n      pop\n        /* \"#utility.yul\":3237:3406   */\n      swap3\n      swap2\n      pop\n      pop\n      jump\t// out\n        /* \"#utility.yul\":3412:3575   */\n    tag_82:\n        /* \"#utility.yul\":3552:3567   */\n      0x496e76616c69642076616c756500000000000000000000000000000000000000\n        /* \"#utility.yul\":3548:3549   */\n      0x00\n        /* \"#utility.yul\":3540:3546   */\n      dup3\n        /* \"#utility.yul\":3536:3550   */\n      add\n        /* \"#utility.yul\":3529:3568   */\n      mstore\n        /* \"#utility.yul\":3412:3575   */\n      pop\n      jump\t// out\n        /* \"#utility.yul\":3581:3947   */\n    tag_83:\n        /* \"#utility.yul\":3723:3726   */\n      0x00\n        /* \"#utility.yul\":3744:3811   */\n      tag_130\n        /* \"#utility.yul\":3808:3810   */\n      0x0d\n        /* \"#utility.yul\":3803:3806   */\n      dup4\n        /* \"#utility.yul\":3744:3811   */\n      tag_81\n      jump\t// in\n    tag_130:\n        /* \"#utility.yul\":3737:3811   */\n      swap2\n      pop\n        /* \"#utility.yul\":3820:3913   */\n      tag_131\n        /* \"#utility.yul\":3909:3912   */\n      dup3\n        /* \"#utility.yul\":3820:3913   */\n      tag_82\n      jump\t// in\n    tag_131:\n        /* \"#utility.yul\":3938:3940   */\n      0x20\n        /* \"#utility.yul\":3933:3936   */\n      dup3\n        /* \"#utility.yul\":3929:3941   */\n      add\n        /* \"#utility.yul\":3922:3941   */\n      swap1\n      pop\n        /* \"#utility.yul\":3581:3947   */\n      swap2\n      swap1\n      pop\n      jump\t// out\n        /* \"#utility.yul\":3953:4372   */\n    tag_61:\n        /* \"#utility.yul\":4119:4123   */\n      0x00\n        /* \"#utility.yul\":4157:4159   */\n      0x20\n        /* \"#utility.yul\":4146:4155   */\n      dup3\n        /* \"#utility.yul\":4142:4160   */\n      add\n        /* \"#utility.yul\":4134:4160   */\n      swap1\n      pop\n        /* \"#utility.yul\":4206:4215   */\n      dup2\n        /* \"#utility.yul\":4200:4204   */\n      dup2\n        /* \"#utility.yul\":4196:4216   */\n      sub\n        /* \"#utility.yul\":4192:4193   */\n      0x00\n        /* \"#utility.yul\":4181:4190   */\n      dup4\n        /* \"#utility.yul\":4177:4194   */\n      add\n        /* \"#utility.yul\":4170:4217   */\n      mstore\n        /* \"#utility.yul\":4234:4365   */\n      tag_133\n        /* \"#utility.yul\":4360:4364   */\n      dup2\n        /* \"#utility.yul\":4234:4365   */\n      tag_83\n      jump\t// in\n    tag_133:\n        /* \"#utility.yul\":4226:4365   */\n      swap1\n      pop\n        /* \"#utility.yul\":3953:4372   */\n      swap2\n      swap1\n      pop\n      jump\t// out\n        /* \"#utility.yul\":4378:4558   */\n    tag_84:\n        /* \"#utility.yul\":4426:4503   */\n      0x4e487b7100000000000000000000000000000000000000000000000000000000\n        /* \"#utility.yul\":4423:4424   */\n      0x00\n        /* \"#utility.yul\":4416:4504   */\n      mstore\n        /* \"#utility.yul\":4523:4527   */\n      0x11\n        /* \"#utility.yul\":4520:4521   */\n      0x04\n        /* \"#utility.yul\":4513:4528   */\n      mstore\n        /* \"#utility.yul\":4547:4551   */\n      0x24\n        /* \"#utility.yul\":4544:4545   */\n      0x00\n        /* \"#utility.yul\":4537:4552   */\n      revert\n        /* \"#utility.yul\":4564:4755   */\n    tag_63:\n        /* \"#utility.yul\":4604:4607   */\n      0x00\n        /* \"#utility.yul\":4623:4643   */\n      tag_136\n        /* \"#utility.yul\":4641:4642   */\n      dup3\n        /* \"#utility.yul\":4623:4643   */\n      tag_72\n      jump\t// in\n    tag_136:\n        /* \"#utility.yul\":4618:4643   */\n      swap2\n      pop\n        /* \"#utility.yul\":4657:4677   */\n      tag_137\n        /* \"#utility.yul\":4675:4676   */\n      dup4\n        /* \"#utility.yul\":4657:4677   */\n      tag_72\n      jump\t// in\n    tag_137:\n        /* \"#utility.yul\":4652:4677   */\n      swap3\n      pop\n        /* \"#utility.yul\":4700:4701   */\n      dup3\n        /* \"#utility.yul\":4697:4698   */\n      dup3\n        /* \"#utility.yul\":4693:4702   */\n      add\n        /* \"#utility.yul\":4686:4702   */\n      swap1\n      pop\n        /* \"#utility.yul\":4721:4724   */\n      dup1\n        /* \"#utility.yul\":4718:4719   */\n      dup3\n        /* \"#utility.yul\":4715:4725   */\n      gt\n        /* \"#utility.yul\":4712:4748   */\n      iszero\n      tag_138\n      jumpi\n        /* \"#utility.yul\":4728:4746   */\n      tag_139\n      tag_84\n      jump\t// in\n    tag_139:\n        /* \"#utility.yul\":4712:4748   */\n    tag_138:\n        /* \"#utility.yul\":4564:4755   */\n      swap3\n      swap2\n      pop\n      pop\n      jump\t// out\n        /* \"#utility.yul\":4761:4931   */\n    tag_85:\n        /* \"#utility.yul\":4901:4923   */\n      0x496e76616c696420757365722041646472657373000000000000000000000000\n        /* \"#utility.yul\":4897:4898   */\n      0x00\n        /* \"#utility.yul\":4889:4895   */\n      dup3\n        /* \"#utility.yul\":4885:4899   */\n      add\n        /* \"#utility.yul\":4878:4924   */\n      mstore\n        /* \"#utility.yul\":4761:4931   */\n      pop\n      jump\t// out\n        /* \"#utility.yul\":4937:5303   */\n    tag_86:\n        /* \"#utility.yul\":5079:5082   */\n      0x00\n        /* \"#utility.yul\":5100:5167   */\n      tag_142\n        /* \"#utility.yul\":5164:5166   */\n      0x14\n        /* \"#utility.yul\":5159:5162   */\n      dup4\n        /* \"#utility.yul\":5100:5167   */\n      tag_81\n      jump\t// in\n    tag_142:\n        /* \"#utility.yul\":5093:5167   */\n      swap2\n      pop\n        /* \"#utility.yul\":5176:5269   */\n      tag_143\n        /* \"#utility.yul\":5265:5268   */\n      dup3\n        /* \"#utility.yul\":5176:5269   */\n      tag_85\n      jump\t// in\n    tag_143:\n        /* \"#utility.yul\":5294:5296   */\n      0x20\n        /* \"#utility.yul\":5289:5292   */\n      dup3\n        /* \"#utility.yul\":5285:5297   */\n      add\n        /* \"#utility.yul\":5278:5297   */\n      swap1\n      pop\n        /* \"#utility.yul\":4937:5303   */\n      swap2\n      swap1\n      pop\n      jump\t// out\n        /* \"#utility.yul\":5309:5728   */\n    tag_68:\n        /* \"#utility.yul\":5475:5479   */\n      0x00\n        /* \"#utility.yul\":5513:5515   */\n      0x20\n        /* \"#utility.yul\":5502:5511   */\n      dup3\n        /* \"#utility.yul\":5498:5516   */\n      add\n        /* \"#utility.yul\":5490:5516   */\n      swap1\n      pop\n        /* \"#utility.yul\":5562:5571   */\n      dup2\n        /* \"#utility.yul\":5556:5560   */\n      dup2\n        /* \"#utility.yul\":5552:5572   */\n      sub\n        /* \"#utility.yul\":5548:5549   */\n      0x00\n        /* \"#utility.yul\":5537:5546   */\n      dup4\n        /* \"#utility.yul\":5533:5550   */\n      add\n        /* \"#utility.yul\":5526:5573   */\n      mstore\n        /* \"#utility.yul\":5590:5721   */\n      tag_145\n        /* \"#utility.yul\":5716:5720   */\n      dup2\n        /* \"#utility.yul\":5590:5721   */\n      tag_86\n      jump\t// in\n    tag_145:\n        /* \"#utility.yul\":5582:5721   */\n      swap1\n      pop\n        /* \"#utility.yul\":5309:5728   */\n      swap2\n      swap1\n      pop\n      jump\t// out\n\n    auxdata: 0xa2646970667358221220cbb6f2302c9e234f27b54243225fe245e89a108c234f9d8397f16eb0c24ebcfc64736f6c634300081a0033\n}\n",
				"bytecode": {
					"linkReferences": {},
					"object": "6080604052348015600e575f80fd5b5061089b8061001c5f395ff3fe60806040526004361061006f575f3560e01c80634eabf2631161004d5780634eabf26314610101578063b163cc381461013d578063de8fa43114610147578063f8b2cb4f146101715761006f565b80630cb6aaf1146100735780631e223143146100af5780633825d828146100d9575b5f80fd5b34801561007e575f80fd5b50610099600480360381019061009491906105ba565b6101ad565b6040516100a69190610624565b60405180910390f35b3480156100ba575f80fd5b506100c36101e8565b6040516100d0919061064c565b60405180910390f35b3480156100e4575f80fd5b506100ff60048036038101906100fa919061068f565b610266565b005b34801561010c575f80fd5b50610127600480360381019061012291906105ba565b6103ae565b604051610134919061064c565b60405180910390f35b61014561042e565b005b348015610152575f80fd5b5061015b6104c4565b604051610168919061064c565b60405180910390f35b34801561017c575f80fd5b50610197600480360381019061019291906106cd565b6104d0565b6040516101a4919061064c565b60405180910390f35b600281815481106101bc575f80fd5b905f5260205f20015f915054906101000a900473ffffffffffffffffffffffffffffffffffffffff1681565b5f805f60025f815481106101ff576101fe6106f8565b5b905f5260205f20015f9054906101000a900473ffffffffffffffffffffffffffffffffffffffff1673ffffffffffffffffffffffffffffffffffffffff1673ffffffffffffffffffffffffffffffffffffffff1681526020019081526020015f2054905090565b805f808473ffffffffffffffffffffffffffffffffffffffff1673ffffffffffffffffffffffffffffffffffffffff1681526020019081526020015f208190555060015f8373ffffffffffffffffffffffffffffffffffffffff1673ffffffffffffffffffffffffffffffffffffffff1681526020019081526020015f205f9054906101000a900460ff166103aa576001805f8473ffffffffffffffffffffffffffffffffffffffff1673ffffffffffffffffffffffffffffffffffffffff1681526020019081526020015f205f6101000a81548160ff021916908315150217905550600282908060018154018082558091505060019003905f5260205f20015f9091909190916101000a81548173ffffffffffffffffffffffffffffffffffffffff021916908373ffffffffffffffffffffffffffffffffffffffff1602179055505b5050565b5f805f600284815481106103c5576103c46106f8565b5b905f5260205f20015f9054906101000a900473ffffffffffffffffffffffffffffffffffffffff1673ffffffffffffffffffffffffffffffffffffffff1673ffffffffffffffffffffffffffffffffffffffff1681526020019081526020015f20549050919050565b5f3411610470576040517f08c379a00000000000000000000000000000000000000000000000000000000081526004016104679061077f565b60405180910390fd5b345f803373ffffffffffffffffffffffffffffffffffffffff1673ffffffffffffffffffffffffffffffffffffffff1681526020019081526020015f205f8282546104bb91906107ca565b92505081905550565b5f600280549050905090565b5f8073ffffffffffffffffffffffffffffffffffffffff168273ffffffffffffffffffffffffffffffffffffffff160361053f576040517f08c379a000000000000000000000000000000000000000000000000000000000815260040161053690610847565b60405180910390fd5b5f808373ffffffffffffffffffffffffffffffffffffffff1673ffffffffffffffffffffffffffffffffffffffff1681526020019081526020015f20549050919050565b5f80fd5b5f819050919050565b61059981610587565b81146105a3575f80fd5b50565b5f813590506105b481610590565b92915050565b5f602082840312156105cf576105ce610583565b5b5f6105dc848285016105a6565b91505092915050565b5f73ffffffffffffffffffffffffffffffffffffffff82169050919050565b5f61060e826105e5565b9050919050565b61061e81610604565b82525050565b5f6020820190506106375f830184610615565b92915050565b61064681610587565b82525050565b5f60208201905061065f5f83018461063d565b92915050565b61066e81610604565b8114610678575f80fd5b50565b5f8135905061068981610665565b92915050565b5f80604083850312156106a5576106a4610583565b5b5f6106b28582860161067b565b92505060206106c3858286016105a6565b9150509250929050565b5f602082840312156106e2576106e1610583565b5b5f6106ef8482850161067b565b91505092915050565b7f4e487b71000000000000000000000000000000000000000000000000000000005f52603260045260245ffd5b5f82825260208201905092915050565b7f496e76616c69642076616c7565000000000000000000000000000000000000005f82015250565b5f610769600d83610725565b915061077482610735565b602082019050919050565b5f6020820190508181035f8301526107968161075d565b9050919050565b7f4e487b71000000000000000000000000000000000000000000000000000000005f52601160045260245ffd5b5f6107d482610587565b91506107df83610587565b92508282019050808211156107f7576107f661079d565b5b92915050565b7f496e76616c6964207573657220416464726573730000000000000000000000005f82015250565b5f610831601483610725565b915061083c826107fd565b602082019050919050565b5f6020820190508181035f83015261085e81610825565b905091905056fea2646970667358221220cbb6f2302c9e234f27b54243225fe245e89a108c234f9d8397f16eb0c24ebcfc64736f6c634300081a0033",
					"opcodes": "PUSH1 0x80 PUSH1 0x40 MSTORE CALLVALUE DUP1 ISZERO PUSH1 0xE JUMPI PUSH0 DUP1 REVERT JUMPDEST POP PUSH2 0x89B DUP1 PUSH2 0x1C PUSH0 CODECOPY PUSH0 RETURN INVALID PUSH1 0x80 PUSH1 0x40 MSTORE PUSH1 0x4 CALLDATASIZE LT PUSH2 0x6F JUMPI PUSH0 CALLDATALOAD PUSH1 0xE0 SHR DUP1 PUSH4 0x4EABF263 GT PUSH2 0x4D JUMPI DUP1 PUSH4 0x4EABF263 EQ PUSH2 0x101 JUMPI DUP1 PUSH4 0xB163CC38 EQ PUSH2 0x13D JUMPI DUP1 PUSH4 0xDE8FA431 EQ PUSH2 0x147 JUMPI DUP1 PUSH4 0xF8B2CB4F EQ PUSH2 0x171 JUMPI PUSH2 0x6F JUMP JUMPDEST DUP1 PUSH4 0xCB6AAF1 EQ PUSH2 0x73 JUMPI DUP1 PUSH4 0x1E223143 EQ PUSH2 0xAF JUMPI DUP1 PUSH4 0x3825D828 EQ PUSH2 0xD9 JUMPI JUMPDEST PUSH0 DUP1 REVERT JUMPDEST CALLVALUE DUP1 ISZERO PUSH2 0x7E JUMPI PUSH0 DUP1 REVERT JUMPDEST POP PUSH2 0x99 PUSH1 0x4 DUP1 CALLDATASIZE SUB DUP2 ADD SWAP1 PUSH2 0x94 SWAP2 SWAP1 PUSH2 0x5BA JUMP JUMPDEST PUSH2 0x1AD JUMP JUMPDEST PUSH1 0x40 MLOAD PUSH2 0xA6 SWAP2 SWAP1 PUSH2 0x624 JUMP JUMPDEST PUSH1 0x40 MLOAD DUP1 SWAP2 SUB SWAP1 RETURN JUMPDEST CALLVALUE DUP1 ISZERO PUSH2 0xBA JUMPI PUSH0 DUP1 REVERT JUMPDEST POP PUSH2 0xC3 PUSH2 0x1E8 JUMP JUMPDEST PUSH1 0x40 MLOAD PUSH2 0xD0 SWAP2 SWAP1 PUSH2 0x64C JUMP JUMPDEST PUSH1 0x40 MLOAD DUP1 SWAP2 SUB SWAP1 RETURN JUMPDEST CALLVALUE DUP1 ISZERO PUSH2 0xE4 JUMPI PUSH0 DUP1 REVERT JUMPDEST POP PUSH2 0xFF PUSH1 0x4 DUP1 CALLDATASIZE SUB DUP2 ADD SWAP1 PUSH2 0xFA SWAP2 SWAP1 PUSH2 0x68F JUMP JUMPDEST PUSH2 0x266 JUMP JUMPDEST STOP JUMPDEST CALLVALUE DUP1 ISZERO PUSH2 0x10C JUMPI PUSH0 DUP1 REVERT JUMPDEST POP PUSH2 0x127 PUSH1 0x4 DUP1 CALLDATASIZE SUB DUP2 ADD SWAP1 PUSH2 0x122 SWAP2 SWAP1 PUSH2 0x5BA JUMP JUMPDEST PUSH2 0x3AE JUMP JUMPDEST PUSH1 0x40 MLOAD PUSH2 0x134 SWAP2 SWAP1 PUSH2 0x64C JUMP JUMPDEST PUSH1 0x40 MLOAD DUP1 SWAP2 SUB SWAP1 RETURN JUMPDEST PUSH2 0x145 PUSH2 0x42E JUMP JUMPDEST STOP JUMPDEST CALLVALUE DUP1 ISZERO PUSH2 0x152 JUMPI PUSH0 DUP1 REVERT JUMPDEST POP PUSH2 0x15B PUSH2 0x4C4 JUMP JUMPDEST PUSH1 0x40 MLOAD PUSH2 0x168 SWAP2 SWAP1 PUSH2 0x64C JUMP JUMPDEST PUSH1 0x40 MLOAD DUP1 SWAP2 SUB SWAP1 RETURN JUMPDEST CALLVALUE DUP1 ISZERO PUSH2 0x17C JUMPI PUSH0 DUP1 REVERT JUMPDEST POP PUSH2 0x197 PUSH1 0x4 DUP1 CALLDATASIZE SUB DUP2 ADD SWAP1 PUSH2 0x192 SWAP2 SWAP1 PUSH2 0x6CD JUMP JUMPDEST PUSH2 0x4D0 JUMP JUMPDEST PUSH1 0x40 MLOAD PUSH2 0x1A4 SWAP2 SWAP1 PUSH2 0x64C JUMP JUMPDEST PUSH1 0x40 MLOAD DUP1 SWAP2 SUB SWAP1 RETURN JUMPDEST PUSH1 0x2 DUP2 DUP2 SLOAD DUP2 LT PUSH2 0x1BC JUMPI PUSH0 DUP1 REVERT JUMPDEST SWAP1 PUSH0 MSTORE PUSH1 0x20 PUSH0 KECCAK256 ADD PUSH0 SWAP2 POP SLOAD SWAP1 PUSH2 0x100 EXP SWAP1 DIV PUSH20 0xFFFFFFFFFFFFFFFFFFFFFFFFFFFFFFFFFFFFFFFF AND DUP2 JUMP JUMPDEST PUSH0 DUP1 PUSH0 PUSH1 0x2 PUSH0 DUP2 SLOAD DUP2 LT PUSH2 0x1FF JUMPI PUSH2 0x1FE PUSH2 0x6F8 JUMP JUMPDEST JUMPDEST SWAP1 PUSH0 MSTORE PUSH1 0x20 PUSH0 KECCAK256 ADD PUSH0 SWAP1 SLOAD SWAP1 PUSH2 0x100 EXP SWAP1 DIV PUSH20 0xFFFFFFFFFFFFFFFFFFFFFFFFFFFFFFFFFFFFFFFF AND PUSH20 0xFFFFFFFFFFFFFFFFFFFFFFFFFFFFFFFFFFFFFFFF AND PUSH20 0xFFFFFFFFFFFFFFFFFFFFFFFFFFFFFFFFFFFFFFFF AND DUP2 MSTORE PUSH1 0x20 ADD SWAP1 DUP2 MSTORE PUSH1 0x20 ADD PUSH0 KECCAK256 SLOAD SWAP1 POP SWAP1 JUMP JUMPDEST DUP1 PUSH0 DUP1 DUP5 PUSH20 0xFFFFFFFFFFFFFFFFFFFFFFFFFFFFFFFFFFFFFFFF AND PUSH20 0xFFFFFFFFFFFFFFFFFFFFFFFFFFFFFFFFFFFFFFFF AND DUP2 MSTORE PUSH1 0x20 ADD SWAP1 DUP2 MSTORE PUSH1 0x20 ADD PUSH0 KECCAK256 DUP2 SWAP1 SSTORE POP PUSH1 0x1 PUSH0 DUP4 PUSH20 0xFFFFFFFFFFFFFFFFFFFFFFFFFFFFFFFFFFFFFFFF AND PUSH20 0xFFFFFFFFFFFFFFFFFFFFFFFFFFFFFFFFFFFFFFFF AND DUP2 MSTORE PUSH1 0x20 ADD SWAP1 DUP2 MSTORE PUSH1 0x20 ADD PUSH0 KECCAK256 PUSH0 SWAP1 SLOAD SWAP1 PUSH2 0x100 EXP SWAP1 DIV PUSH1 0xFF AND PUSH2 0x3AA JUMPI PUSH1 0x1 DUP1 PUSH0 DUP5 PUSH20 0xFFFFFFFFFFFFFFFFFFFFFFFFFFFFFFFFFFFFFFFF AND PUSH20 0xFFFFFFFFFFFFFFFFFFFFFFFFFFFFFFFFFFFFFFFF AND DUP2 MSTORE PUSH1 0x20 ADD SWAP1 DUP2 MSTORE PUSH1 0x20 ADD PUSH0 KECCAK256 PUSH0 PUSH2 0x100 EXP DUP2 SLOAD DUP2 PUSH1 0xFF MUL NOT AND SWAP1 DUP4 ISZERO ISZERO MUL OR SWAP1 SSTORE POP PUSH1 0x2 DUP3 SWAP1 DUP1 PUSH1 0x1 DUP2 SLOAD ADD DUP1 DUP3 SSTORE DUP1 SWAP2 POP POP PUSH1 0x1 SWAP1 SUB SWAP1 PUSH0 MSTORE PUSH1 0x20 PUSH0 KECCAK256 ADD PUSH0 SWAP1 SWAP2 SWAP1 SWAP2 SWAP1 SWAP2 PUSH2 0x100 EXP DUP2 SLOAD DUP2 PUSH20 0xFFFFFFFFFFFFFFFFFFFFFFFFFFFFFFFFFFFFFFFF MUL NOT AND SWAP1 DUP4 PUSH20 0xFFFFFFFFFFFFFFFFFFFFFFFFFFFFFFFFFFFFFFFF AND MUL OR SWAP1 SSTORE POP JUMPDEST POP POP JUMP JUMPDEST PUSH0 DUP1 PUSH0 PUSH1 0x2 DUP5 DUP2 SLOAD DUP2 LT PUSH2 0x3C5 JUMPI PUSH2 0x3C4 PUSH2 0x6F8 JUMP JUMPDEST JUMPDEST SWAP1 PUSH0 MSTORE PUSH1 0x20 PUSH0 KECCAK256 ADD PUSH0 SWAP1 SLOAD SWAP1 PUSH2 0x100 EXP SWAP1 DIV PUSH20 0xFFFFFFFFFFFFFFFFFFFFFFFFFFFFFFFFFFFFFFFF AND PUSH20 0xFFFFFFFFFFFFFFFFFFFFFFFFFFFFFFFFFFFFFFFF AND PUSH20 0xFFFFFFFFFFFFFFFFFFFFFFFFFFFFFFFFFFFFFFFF AND DUP2 MSTORE PUSH1 0x20 ADD SWAP1 DUP2 MSTORE PUSH1 0x20 ADD PUSH0 KECCAK256 SLOAD SWAP1 POP SWAP2 SWAP1 POP JUMP JUMPDEST PUSH0 CALLVALUE GT PUSH2 0x470 JUMPI PUSH1 0x40 MLOAD PUSH32 0x8C379A000000000000000000000000000000000000000000000000000000000 DUP2 MSTORE PUSH1 0x4 ADD PUSH2 0x467 SWAP1 PUSH2 0x77F JUMP JUMPDEST PUSH1 0x40 MLOAD DUP1 SWAP2 SUB SWAP1 REVERT JUMPDEST CALLVALUE PUSH0 DUP1 CALLER PUSH20 0xFFFFFFFFFFFFFFFFFFFFFFFFFFFFFFFFFFFFFFFF AND PUSH20 0xFFFFFFFFFFFFFFFFFFFFFFFFFFFFFFFFFFFFFFFF AND DUP2 MSTORE PUSH1 0x20 ADD SWAP1 DUP2 MSTORE PUSH1 0x20 ADD PUSH0 KECCAK256 PUSH0 DUP3 DUP3 SLOAD PUSH2 0x4BB SWAP2 SWAP1 PUSH2 0x7CA JUMP JUMPDEST SWAP3 POP POP DUP2 SWAP1 SSTORE POP JUMP JUMPDEST PUSH0 PUSH1 0x2 DUP1 SLOAD SWAP1 POP SWAP1 POP SWAP1 JUMP JUMPDEST PUSH0 DUP1 PUSH20 0xFFFFFFFFFFFFFFFFFFFFFFFFFFFFFFFFFFFFFFFF AND DUP3 PUSH20 0xFFFFFFFFFFFFFFFFFFFFFFFFFFFFFFFFFFFFFFFF AND SUB PUSH2 0x53F JUMPI PUSH1 0x40 MLOAD PUSH32 0x8C379A000000000000000000000000000000000000000000000000000000000 DUP2 MSTORE PUSH1 0x4 ADD PUSH2 0x536 SWAP1 PUSH2 0x847 JUMP JUMPDEST PUSH1 0x40 MLOAD DUP1 SWAP2 SUB SWAP1 REVERT JUMPDEST PUSH0 DUP1 DUP4 PUSH20 0xFFFFFFFFFFFFFFFFFFFFFFFFFFFFFFFFFFFFFFFF AND PUSH20 0xFFFFFFFFFFFFFFFFFFFFFFFFFFFFFFFFFFFFFFFF AND DUP2 MSTORE PUSH1 0x20 ADD SWAP1 DUP2 MSTORE PUSH1 0x20 ADD PUSH0 KECCAK256 SLOAD SWAP1 POP SWAP2 SWAP1 POP JUMP JUMPDEST PUSH0 DUP1 REVERT JUMPDEST PUSH0 DUP2 SWAP1 POP SWAP2 SWAP1 POP JUMP JUMPDEST PUSH2 0x599 DUP2 PUSH2 0x587 JUMP JUMPDEST DUP2 EQ PUSH2 0x5A3 JUMPI PUSH0 DUP1 REVERT JUMPDEST POP JUMP JUMPDEST PUSH0 DUP2 CALLDATALOAD SWAP1 POP PUSH2 0x5B4 DUP2 PUSH2 0x590 JUMP JUMPDEST SWAP3 SWAP2 POP POP JUMP JUMPDEST PUSH0 PUSH1 0x20 DUP3 DUP5 SUB SLT ISZERO PUSH2 0x5CF JUMPI PUSH2 0x5CE PUSH2 0x583 JUMP JUMPDEST JUMPDEST PUSH0 PUSH2 0x5DC DUP5 DUP3 DUP6 ADD PUSH2 0x5A6 JUMP JUMPDEST SWAP2 POP POP SWAP3 SWAP2 POP POP JUMP JUMPDEST PUSH0 PUSH20 0xFFFFFFFFFFFFFFFFFFFFFFFFFFFFFFFFFFFFFFFF DUP3 AND SWAP1 POP SWAP2 SWAP1 POP JUMP JUMPDEST PUSH0 PUSH2 0x60E DUP3 PUSH2 0x5E5 JUMP JUMPDEST SWAP1 POP SWAP2 SWAP1 POP JUMP JUMPDEST PUSH2 0x61E DUP2 PUSH2 0x604 JUMP JUMPDEST DUP3 MSTORE POP POP JUMP JUMPDEST PUSH0 PUSH1 0x20 DUP3 ADD SWAP1 POP PUSH2 0x637 PUSH0 DUP4 ADD DUP5 PUSH2 0x615 JUMP JUMPDEST SWAP3 SWAP2 POP POP JUMP JUMPDEST PUSH2 0x646 DUP2 PUSH2 0x587 JUMP JUMPDEST DUP3 MSTORE POP POP JUMP JUMPDEST PUSH0 PUSH1 0x20 DUP3 ADD SWAP1 POP PUSH2 0x65F PUSH0 DUP4 ADD DUP5 PUSH2 0x63D JUMP JUMPDEST SWAP3 SWAP2 POP POP JUMP JUMPDEST PUSH2 0x66E DUP2 PUSH2 0x604 JUMP JUMPDEST DUP2 EQ PUSH2 0x678 JUMPI PUSH0 DUP1 REVERT JUMPDEST POP JUMP JUMPDEST PUSH0 DUP2 CALLDATALOAD SWAP1 POP PUSH2 0x689 DUP2 PUSH2 0x665 JUMP JUMPDEST SWAP3 SWAP2 POP POP JUMP JUMPDEST PUSH0 DUP1 PUSH1 0x40 DUP4 DUP6 SUB SLT ISZERO PUSH2 0x6A5 JUMPI PUSH2 0x6A4 PUSH2 0x583 JUMP JUMPDEST JUMPDEST PUSH0 PUSH2 0x6B2 DUP6 DUP3 DUP7 ADD PUSH2 0x67B JUMP JUMPDEST SWAP3 POP POP PUSH1 0x20 PUSH2 0x6C3 DUP6 DUP3 DUP7 ADD PUSH2 0x5A6 JUMP JUMPDEST SWAP2 POP POP SWAP3 POP SWAP3 SWAP1 POP JUMP JUMPDEST PUSH0 PUSH1 0x20 DUP3 DUP5 SUB SLT ISZERO PUSH2 0x6E2 JUMPI PUSH2 0x6E1 PUSH2 0x583 JUMP JUMPDEST JUMPDEST PUSH0 PUSH2 0x6EF DUP5 DUP3 DUP6 ADD PUSH2 0x67B JUMP JUMPDEST SWAP2 POP POP SWAP3 SWAP2 POP POP JUMP JUMPDEST PUSH32 0x4E487B7100000000000000000000000000000000000000000000000000000000 PUSH0 MSTORE PUSH1 0x32 PUSH1 0x4 MSTORE PUSH1 0x24 PUSH0 REVERT JUMPDEST PUSH0 DUP3 DUP3 MSTORE PUSH1 0x20 DUP3 ADD SWAP1 POP SWAP3 SWAP2 POP POP JUMP JUMPDEST PUSH32 0x496E76616C69642076616C756500000000000000000000000000000000000000 PUSH0 DUP3 ADD MSTORE POP JUMP JUMPDEST PUSH0 PUSH2 0x769 PUSH1 0xD DUP4 PUSH2 0x725 JUMP JUMPDEST SWAP2 POP PUSH2 0x774 DUP3 PUSH2 0x735 JUMP JUMPDEST PUSH1 0x20 DUP3 ADD SWAP1 POP SWAP2 SWAP1 POP JUMP JUMPDEST PUSH0 PUSH1 0x20 DUP3 ADD SWAP1 POP DUP2 DUP2 SUB PUSH0 DUP4 ADD MSTORE PUSH2 0x796 DUP2 PUSH2 0x75D JUMP JUMPDEST SWAP1 POP SWAP2 SWAP1 POP JUMP JUMPDEST PUSH32 0x4E487B7100000000000000000000000000000000000000000000000000000000 PUSH0 MSTORE PUSH1 0x11 PUSH1 0x4 MSTORE PUSH1 0x24 PUSH0 REVERT JUMPDEST PUSH0 PUSH2 0x7D4 DUP3 PUSH2 0x587 JUMP JUMPDEST SWAP2 POP PUSH2 0x7DF DUP4 PUSH2 0x587 JUMP JUMPDEST SWAP3 POP DUP3 DUP3 ADD SWAP1 POP DUP1 DUP3 GT ISZERO PUSH2 0x7F7 JUMPI PUSH2 0x7F6 PUSH2 0x79D JUMP JUMPDEST JUMPDEST SWAP3 SWAP2 POP POP JUMP JUMPDEST PUSH32 0x496E76616C696420757365722041646472657373000000000000000000000000 PUSH0 DUP3 ADD MSTORE POP JUMP JUMPDEST PUSH0 PUSH2 0x831 PUSH1 0x14 DUP4 PUSH2 0x725 JUMP JUMPDEST SWAP2 POP PUSH2 0x83C DUP3 PUSH2 0x7FD JUMP JUMPDEST PUSH1 0x20 DUP3 ADD SWAP1 POP SWAP2 SWAP1 POP JUMP JUMPDEST PUSH0 PUSH1 0x20 DUP3 ADD SWAP1 POP DUP2 DUP2 SUB PUSH0 DUP4 ADD MSTORE PUSH2 0x85E DUP2 PUSH2 0x825 JUMP JUMPDEST SWAP1 POP SWAP2 SWAP1 POP JUMP INVALID LOG2 PUSH5 0x6970667358 0x22 SLT KECCAK256 0xCB 0xB6 CALLCODE ADDRESS 0x2C SWAP15 0x23 0x4F 0x27 0xB5 TIMESTAMP NUMBER 0x22 PUSH0 0xE2 GASLIMIT 0xE8 SWAP11 LT DUP13 0x23 0x4F SWAP14 DUP4 SWAP8 CALL PUSH15 0xB0C24EBCFC64736F6C634300081A00 CALLER "
				},
				"gasEstimates": {
					"creation": {
						"codeDepositCost": "440600",
						"executionCost": "472",
						"totalCost": "441072"
					},
					"external": {
						"addBalance()": "infinite",
						"getBalance(address)": "2930",
						"getFirst()": "6855",
						"getSize()": "2484",
						"get_i(uint256)": "infinite",
						"keys(uint256)": "4945",
						"set(address,uint256)": "98037"
					}
				},
				"methodIdentifiers": {
					"addBalance()": "b163cc38",
					"getBalance(address)": "f8b2cb4f",
					"getFirst()": "1e223143",
					"getSize()": "de8fa431",
					"get_i(uint256)": "4eabf263",
					"keys(uint256)": "0cb6aaf1",
					"set(address,uint256)": "3825d828"
				}
			},
			"storageLayout": {
				"storage": [
					{
						"astId": 5,
						"contract": "contracts/1_Basics/09_Mapping.sol:Mapping",
						"label": "balances",
						"offset": 0,
						"slot": "0",
						"type": "t_mapping(t_address,t_uint256)"
					},
					{
						"astId": 9,
						"contract": "contracts/1_Basics/09_Mapping.sol:Mapping",
						"label": "inserted",
						"offset": 0,
						"slot": "1",
						"type": "t_mapping(t_address,t_bool)"
					},
					{
						"astId": 12,
						"contract": "contracts/1_Basics/09_Mapping.sol:Mapping",
						"label": "keys",
						"offset": 0,
						"slot": "2",
						"type": "t_array(t_address)dyn_storage"
					}
				],
				"types": {
					"t_address": {
						"encoding": "inplace",
						"label": "address",
						"numberOfBytes": "20"
					},
					"t_array(t_address)dyn_storage": {
						"base": "t_address",
						"encoding": "dynamic_array",
						"label": "address[]",
						"numberOfBytes": "32"
					},
					"t_bool": {
						"encoding": "inplace",
						"label": "bool",
						"numberOfBytes": "1"
					},
					"t_mapping(t_address,t_bool)": {
						"encoding": "mapping",
						"key": "t_address",
						"label": "mapping(address => bool)",
						"numberOfBytes": "32",
						"value": "t_bool"
					},
					"t_mapping(t_address,t_uint256)": {
						"encoding": "mapping",
						"key": "t_address",
						"label": "mapping(address => uint256)",
						"numberOfBytes": "32",
						"value": "t_uint256"
					},
					"t_uint256": {
						"encoding": "inplace",
						"label": "uint256",
						"numberOfBytes": "32"
					}
				}
			},
			"userdoc": {
				"kind": "user",
				"methods": {},
				"version": 1
			}
		}
	}
}