{
	"contracts/EVM-SubLessons/Encoding.sol": {
		"Encoding": {
			"abi": [
				{
					"inputs": [],
					"name": "combineStrings",
					"outputs": [
						{
							"internalType": "string",
							"name": "",
							"type": "string"
						}
					],
					"stateMutability": "pure",
					"type": "function"
				},
				{
					"inputs": [],
					"name": "decodeString",
					"outputs": [
						{
							"internalType": "string",
							"name": "",
							"type": "string"
						}
					],
					"stateMutability": "pure",
					"type": "function"
				},
				{
					"inputs": [],
					"name": "encodeNumber",
					"outputs": [
						{
							"internalType": "bytes",
							"name": "",
							"type": "bytes"
						}
					],
					"stateMutability": "pure",
					"type": "function"
				},
				{
					"inputs": [],
					"name": "encodeString",
					"outputs": [
						{
							"internalType": "bytes",
							"name": "",
							"type": "bytes"
						}
					],
					"stateMutability": "pure",
					"type": "function"
				},
				{
					"inputs": [],
					"name": "encodeStringPacked",
					"outputs": [
						{
							"internalType": "bytes",
							"name": "",
							"type": "bytes"
						}
					],
					"stateMutability": "pure",
					"type": "function"
				},
				{
					"inputs": [],
					"name": "multiDecode",
					"outputs": [
						{
							"internalType": "string",
							"name": "",
							"type": "string"
						},
						{
							"internalType": "string",
							"name": "",
							"type": "string"
						}
					],
					"stateMutability": "pure",
					"type": "function"
				},
				{
					"inputs": [],
					"name": "multiEncode",
					"outputs": [
						{
							"internalType": "bytes",
							"name": "",
							"type": "bytes"
						}
					],
					"stateMutability": "pure",
					"type": "function"
				},
				{
					"inputs": [],
					"name": "multiEncodePacked",
					"outputs": [
						{
							"internalType": "bytes",
							"name": "",
							"type": "bytes"
						}
					],
					"stateMutability": "pure",
					"type": "function"
				},
				{
					"inputs": [],
					"name": "multiStringCastPacked",
					"outputs": [
						{
							"internalType": "string",
							"name": "",
							"type": "string"
						}
					],
					"stateMutability": "pure",
					"type": "function"
				}
			],
			"devdoc": {
				"kind": "dev",
				"methods": {},
				"version": 1
			},
			"evm": {
				"assembly": "    /* \"contracts/EVM-SubLessons/Encoding.sol\":188:1910  contract Encoding {... */\n  mstore(0x40, 0x80)\n  callvalue\n  dup1\n  iszero\n  tag_1\n  jumpi\n  0x00\n  dup1\n  revert\ntag_1:\n  pop\n  dataSize(sub_0)\n  dup1\n  dataOffset(sub_0)\n  0x00\n  codecopy\n  0x00\n  return\nstop\n\nsub_0: assembly {\n        /* \"contracts/EVM-SubLessons/Encoding.sol\":188:1910  contract Encoding {... */\n      mstore(0x40, 0x80)\n      callvalue\n      dup1\n      iszero\n      tag_1\n      jumpi\n      0x00\n      dup1\n      revert\n    tag_1:\n      pop\n      jumpi(tag_2, lt(calldatasize, 0x04))\n      shr(0xe0, calldataload(0x00))\n      dup1\n      0xa6dc49b8\n      gt\n      tag_12\n      jumpi\n      dup1\n      0xa6dc49b8\n      eq\n      tag_7\n      jumpi\n      dup1\n      0xa77b0360\n      eq\n      tag_8\n      jumpi\n      dup1\n      0xb4748718\n      eq\n      tag_9\n      jumpi\n      dup1\n      0xc452d79b\n      eq\n      tag_10\n      jumpi\n      dup1\n      0xed5df365\n      eq\n      tag_11\n      jumpi\n      jump(tag_2)\n    tag_12:\n      dup1\n      0x114a7610\n      eq\n      tag_3\n      jumpi\n      dup1\n      0x15889d1a\n      eq\n      tag_4\n      jumpi\n      dup1\n      0x2085f4b9\n      eq\n      tag_5\n      jumpi\n      dup1\n      0x60ee46c3\n      eq\n      tag_6\n      jumpi\n    tag_2:\n      0x00\n      dup1\n      revert\n        /* \"contracts/EVM-SubLessons/Encoding.sol\":213:341  function combineStrings() public pure returns (string memory) {... */\n    tag_3:\n      tag_13\n      tag_14\n      jump\t// in\n    tag_13:\n      mload(0x40)\n      tag_15\n      swap2\n      swap1\n      tag_16\n      jump\t// in\n    tag_15:\n      mload(0x40)\n      dup1\n      swap2\n      sub\n      swap1\n      return\n        /* \"contracts/EVM-SubLessons/Encoding.sol\":347:474  function encodeNumber() public pure returns(bytes memory) {... */\n    tag_4:\n      tag_17\n      tag_18\n      jump\t// in\n    tag_17:\n      mload(0x40)\n      tag_19\n      swap2\n      swap1\n      tag_20\n      jump\t// in\n    tag_19:\n      mload(0x40)\n      dup1\n      swap2\n      sub\n      swap1\n      return\n        /* \"contracts/EVM-SubLessons/Encoding.sol\":632:797  function encodeStringPacked() public pure returns (bytes memory) {... */\n    tag_5:\n      tag_21\n      tag_22\n      jump\t// in\n    tag_21:\n      mload(0x40)\n      tag_23\n      swap2\n      swap1\n      tag_20\n      jump\t// in\n    tag_23:\n      mload(0x40)\n      dup1\n      swap2\n      sub\n      swap1\n      return\n        /* \"contracts/EVM-SubLessons/Encoding.sol\":1753:1906  function multiStringCastPacked() pure public returns (string memory) {... */\n    tag_6:\n      tag_24\n      tag_25\n      jump\t// in\n    tag_24:\n      mload(0x40)\n      tag_26\n      swap2\n      swap1\n      tag_16\n      jump\t// in\n    tag_26:\n      mload(0x40)\n      dup1\n      swap2\n      sub\n      swap1\n      return\n        /* \"contracts/EVM-SubLessons/Encoding.sol\":962:1113  function multiEncode() pure public returns (bytes memory) {... */\n    tag_7:\n      tag_27\n      tag_28\n      jump\t// in\n    tag_27:\n      mload(0x40)\n      tag_29\n      swap2\n      swap1\n      tag_20\n      jump\t// in\n    tag_29:\n      mload(0x40)\n      dup1\n      swap2\n      sub\n      swap1\n      return\n        /* \"contracts/EVM-SubLessons/Encoding.sol\":803:956  function decodeString() pure public returns (string memory) {... */\n    tag_8:\n      tag_30\n      tag_31\n      jump\t// in\n    tag_30:\n      mload(0x40)\n      tag_32\n      swap2\n      swap1\n      tag_16\n      jump\t// in\n    tag_32:\n      mload(0x40)\n      dup1\n      swap2\n      sub\n      swap1\n      return\n        /* \"contracts/EVM-SubLessons/Encoding.sol\":1331:1494  function multiEncodePacked() pure public returns (bytes memory) {... */\n    tag_9:\n      tag_33\n      tag_34\n      jump\t// in\n    tag_33:\n      mload(0x40)\n      tag_35\n      swap2\n      swap1\n      tag_20\n      jump\t// in\n    tag_35:\n      mload(0x40)\n      dup1\n      swap2\n      sub\n      swap1\n      return\n        /* \"contracts/EVM-SubLessons/Encoding.sol\":1119:1325  function multiDecode() pure public returns (string memory, string memory) {... */\n    tag_10:\n      tag_36\n      tag_37\n      jump\t// in\n    tag_36:\n      mload(0x40)\n      tag_38\n      swap3\n      swap2\n      swap1\n      tag_39\n      jump\t// in\n    tag_38:\n      mload(0x40)\n      dup1\n      swap2\n      sub\n      swap1\n      return\n        /* \"contracts/EVM-SubLessons/Encoding.sol\":480:626  function encodeString() public pure returns (bytes memory){... */\n    tag_11:\n      tag_40\n      tag_41\n      jump\t// in\n    tag_40:\n      mload(0x40)\n      tag_42\n      swap2\n      swap1\n      tag_20\n      jump\t// in\n    tag_42:\n      mload(0x40)\n      dup1\n      swap2\n      sub\n      swap1\n      return\n        /* \"contracts/EVM-SubLessons/Encoding.sol\":213:341  function combineStrings() public pure returns (string memory) {... */\n    tag_14:\n        /* \"contracts/EVM-SubLessons/Encoding.sol\":260:273  string memory */\n      0x60\n        /* \"contracts/EVM-SubLessons/Encoding.sol\":299:333  abi.encodePacked(\"Hi\", \"There!!!\") */\n      add(0x20, mload(0x40))\n      tag_44\n      swap1\n      tag_45\n      jump\t// in\n    tag_44:\n      mload(0x40)\n      0x20\n      dup2\n      dup4\n      sub\n      sub\n      dup2\n      mstore\n      swap1\n      0x40\n      mstore\n        /* \"contracts/EVM-SubLessons/Encoding.sol\":285:334  return string(abi.encodePacked(\"Hi\", \"There!!!\")) */\n      swap1\n      pop\n        /* \"contracts/EVM-SubLessons/Encoding.sol\":213:341  function combineStrings() public pure returns (string memory) {... */\n      swap1\n      jump\t// out\n        /* \"contracts/EVM-SubLessons/Encoding.sol\":347:474  function encodeNumber() public pure returns(bytes memory) {... */\n    tag_18:\n        /* \"contracts/EVM-SubLessons/Encoding.sol\":391:403  bytes memory */\n      0x60\n        /* \"contracts/EVM-SubLessons/Encoding.sol\":415:431  bytes memory num */\n      0x00\n        /* \"contracts/EVM-SubLessons/Encoding.sol\":445:446  7 */\n      0x07\n        /* \"contracts/EVM-SubLessons/Encoding.sol\":434:447  abi.encode(7) */\n      add(0x20, mload(0x40))\n      tag_47\n      swap2\n      swap1\n      tag_48\n      jump\t// in\n    tag_47:\n      mload(0x40)\n      0x20\n      dup2\n      dup4\n      sub\n      sub\n      dup2\n      mstore\n      swap1\n      0x40\n      mstore\n        /* \"contracts/EVM-SubLessons/Encoding.sol\":415:447  bytes memory num = abi.encode(7) */\n      swap1\n      pop\n        /* \"contracts/EVM-SubLessons/Encoding.sol\":464:467  num */\n      dup1\n        /* \"contracts/EVM-SubLessons/Encoding.sol\":457:467  return num */\n      swap2\n      pop\n      pop\n        /* \"contracts/EVM-SubLessons/Encoding.sol\":347:474  function encodeNumber() public pure returns(bytes memory) {... */\n      swap1\n      jump\t// out\n        /* \"contracts/EVM-SubLessons/Encoding.sol\":632:797  function encodeStringPacked() public pure returns (bytes memory) {... */\n    tag_22:\n        /* \"contracts/EVM-SubLessons/Encoding.sol\":683:695  bytes memory */\n      0x60\n        /* \"contracts/EVM-SubLessons/Encoding.sol\":707:723  bytes memory str */\n      0x00\n        /* \"contracts/EVM-SubLessons/Encoding.sol\":726:770  abi.encodePacked(\"String from EncodePacked\") */\n      add(0x20, mload(0x40))\n      tag_50\n      swap1\n      tag_51\n      jump\t// in\n    tag_50:\n      mload(0x40)\n      0x20\n      dup2\n      dup4\n      sub\n      sub\n      dup2\n      mstore\n      swap1\n      0x40\n      mstore\n        /* \"contracts/EVM-SubLessons/Encoding.sol\":707:770  bytes memory str = abi.encodePacked(\"String from EncodePacked\") */\n      swap1\n      pop\n        /* \"contracts/EVM-SubLessons/Encoding.sol\":787:790  str */\n      dup1\n        /* \"contracts/EVM-SubLessons/Encoding.sol\":780:790  return str */\n      swap2\n      pop\n      pop\n        /* \"contracts/EVM-SubLessons/Encoding.sol\":632:797  function encodeStringPacked() public pure returns (bytes memory) {... */\n      swap1\n      jump\t// out\n        /* \"contracts/EVM-SubLessons/Encoding.sol\":1753:1906  function multiStringCastPacked() pure public returns (string memory) {... */\n    tag_25:\n        /* \"contracts/EVM-SubLessons/Encoding.sol\":1807:1820  string memory */\n      0x60\n        /* \"contracts/EVM-SubLessons/Encoding.sol\":1832:1849  string memory str */\n      0x00\n        /* \"contracts/EVM-SubLessons/Encoding.sol\":1859:1878  multiEncodePacked() */\n      tag_53\n        /* \"contracts/EVM-SubLessons/Encoding.sol\":1859:1876  multiEncodePacked */\n      tag_34\n        /* \"contracts/EVM-SubLessons/Encoding.sol\":1859:1878  multiEncodePacked() */\n      jump\t// in\n    tag_53:\n        /* \"contracts/EVM-SubLessons/Encoding.sol\":1832:1879  string memory str = string(multiEncodePacked()) */\n      swap1\n      pop\n        /* \"contracts/EVM-SubLessons/Encoding.sol\":1896:1899  str */\n      dup1\n        /* \"contracts/EVM-SubLessons/Encoding.sol\":1889:1899  return str */\n      swap2\n      pop\n      pop\n        /* \"contracts/EVM-SubLessons/Encoding.sol\":1753:1906  function multiStringCastPacked() pure public returns (string memory) {... */\n      swap1\n      jump\t// out\n        /* \"contracts/EVM-SubLessons/Encoding.sol\":962:1113  function multiEncode() pure public returns (bytes memory) {... */\n    tag_28:\n        /* \"contracts/EVM-SubLessons/Encoding.sol\":1006:1018  bytes memory */\n      0x60\n        /* \"contracts/EVM-SubLessons/Encoding.sol\":1030:1046  bytes memory str */\n      0x00\n        /* \"contracts/EVM-SubLessons/Encoding.sol\":1049:1086  abi.encode(\"First str\", \"Second Str\") */\n      add(0x20, mload(0x40))\n      tag_55\n      swap1\n      tag_56\n      jump\t// in\n    tag_55:\n      mload(0x40)\n      0x20\n      dup2\n      dup4\n      sub\n      sub\n      dup2\n      mstore\n      swap1\n      0x40\n      mstore\n        /* \"contracts/EVM-SubLessons/Encoding.sol\":1030:1086  bytes memory str = abi.encode(\"First str\", \"Second Str\") */\n      swap1\n      pop\n        /* \"contracts/EVM-SubLessons/Encoding.sol\":1103:1106  str */\n      dup1\n        /* \"contracts/EVM-SubLessons/Encoding.sol\":1096:1106  return str */\n      swap2\n      pop\n      pop\n        /* \"contracts/EVM-SubLessons/Encoding.sol\":962:1113  function multiEncode() pure public returns (bytes memory) {... */\n      swap1\n      jump\t// out\n        /* \"contracts/EVM-SubLessons/Encoding.sol\":803:956  function decodeString() pure public returns (string memory) {... */\n    tag_31:\n        /* \"contracts/EVM-SubLessons/Encoding.sol\":848:861  string memory */\n      0x60\n        /* \"contracts/EVM-SubLessons/Encoding.sol\":873:890  string memory res */\n      0x00\n        /* \"contracts/EVM-SubLessons/Encoding.sol\":904:918  encodeString() */\n      tag_58\n        /* \"contracts/EVM-SubLessons/Encoding.sol\":904:916  encodeString */\n      tag_41\n        /* \"contracts/EVM-SubLessons/Encoding.sol\":904:918  encodeString() */\n      jump\t// in\n    tag_58:\n        /* \"contracts/EVM-SubLessons/Encoding.sol\":893:929  abi.decode(encodeString(), (string)) */\n      dup1\n      0x20\n      add\n      swap1\n      mload\n      dup2\n      add\n      swap1\n      tag_59\n      swap2\n      swap1\n      tag_60\n      jump\t// in\n    tag_59:\n        /* \"contracts/EVM-SubLessons/Encoding.sol\":873:929  string memory res = abi.decode(encodeString(), (string)) */\n      swap1\n      pop\n        /* \"contracts/EVM-SubLessons/Encoding.sol\":946:949  res */\n      dup1\n        /* \"contracts/EVM-SubLessons/Encoding.sol\":939:949  return res */\n      swap2\n      pop\n      pop\n        /* \"contracts/EVM-SubLessons/Encoding.sol\":803:956  function decodeString() pure public returns (string memory) {... */\n      swap1\n      jump\t// out\n        /* \"contracts/EVM-SubLessons/Encoding.sol\":1331:1494  function multiEncodePacked() pure public returns (bytes memory) {... */\n    tag_34:\n        /* \"contracts/EVM-SubLessons/Encoding.sol\":1381:1393  bytes memory */\n      0x60\n        /* \"contracts/EVM-SubLessons/Encoding.sol\":1405:1421  bytes memory str */\n      0x00\n        /* \"contracts/EVM-SubLessons/Encoding.sol\":1424:1467  abi.encodePacked(\"First str\", \"Second Str\") */\n      add(0x20, mload(0x40))\n      tag_62\n      swap1\n      tag_63\n      jump\t// in\n    tag_62:\n      mload(0x40)\n      0x20\n      dup2\n      dup4\n      sub\n      sub\n      dup2\n      mstore\n      swap1\n      0x40\n      mstore\n        /* \"contracts/EVM-SubLessons/Encoding.sol\":1405:1467  bytes memory str = abi.encodePacked(\"First str\", \"Second Str\") */\n      swap1\n      pop\n        /* \"contracts/EVM-SubLessons/Encoding.sol\":1484:1487  str */\n      dup1\n        /* \"contracts/EVM-SubLessons/Encoding.sol\":1477:1487  return str */\n      swap2\n      pop\n      pop\n        /* \"contracts/EVM-SubLessons/Encoding.sol\":1331:1494  function multiEncodePacked() pure public returns (bytes memory) {... */\n      swap1\n      jump\t// out\n        /* \"contracts/EVM-SubLessons/Encoding.sol\":1119:1325  function multiDecode() pure public returns (string memory, string memory) {... */\n    tag_37:\n        /* \"contracts/EVM-SubLessons/Encoding.sol\":1163:1176  string memory */\n      0x60\n        /* \"contracts/EVM-SubLessons/Encoding.sol\":1178:1191  string memory */\n      dup1\n        /* \"contracts/EVM-SubLessons/Encoding.sol\":1204:1222  string memory str1 */\n      0x00\n        /* \"contracts/EVM-SubLessons/Encoding.sol\":1224:1242  string memory str2 */\n      dup1\n        /* \"contracts/EVM-SubLessons/Encoding.sol\":1257:1270  multiEncode() */\n      tag_65\n        /* \"contracts/EVM-SubLessons/Encoding.sol\":1257:1268  multiEncode */\n      tag_28\n        /* \"contracts/EVM-SubLessons/Encoding.sol\":1257:1270  multiEncode() */\n      jump\t// in\n    tag_65:\n        /* \"contracts/EVM-SubLessons/Encoding.sol\":1246:1289  abi.decode(multiEncode(), (string, string)) */\n      dup1\n      0x20\n      add\n      swap1\n      mload\n      dup2\n      add\n      swap1\n      tag_66\n      swap2\n      swap1\n      tag_67\n      jump\t// in\n    tag_66:\n        /* \"contracts/EVM-SubLessons/Encoding.sol\":1203:1289  (string memory str1, string memory str2) = abi.decode(multiEncode(), (string, string)) */\n      swap2\n      pop\n      swap2\n      pop\n        /* \"contracts/EVM-SubLessons/Encoding.sol\":1307:1311  str1 */\n      dup2\n        /* \"contracts/EVM-SubLessons/Encoding.sol\":1313:1317  str2 */\n      dup2\n        /* \"contracts/EVM-SubLessons/Encoding.sol\":1299:1318  return (str1, str2) */\n      swap4\n      pop\n      swap4\n      pop\n      pop\n      pop\n        /* \"contracts/EVM-SubLessons/Encoding.sol\":1119:1325  function multiDecode() pure public returns (string memory, string memory) {... */\n      swap1\n      swap2\n      jump\t// out\n        /* \"contracts/EVM-SubLessons/Encoding.sol\":480:626  function encodeString() public pure returns (bytes memory){... */\n    tag_41:\n        /* \"contracts/EVM-SubLessons/Encoding.sol\":525:537  bytes memory */\n      0x60\n        /* \"contracts/EVM-SubLessons/Encoding.sol\":548:564  bytes memory str */\n      0x00\n        /* \"contracts/EVM-SubLessons/Encoding.sol\":567:599  abi.encode(\"String from Encode\") */\n      add(0x20, mload(0x40))\n      tag_69\n      swap1\n      tag_70\n      jump\t// in\n    tag_69:\n      mload(0x40)\n      0x20\n      dup2\n      dup4\n      sub\n      sub\n      dup2\n      mstore\n      swap1\n      0x40\n      mstore\n        /* \"contracts/EVM-SubLessons/Encoding.sol\":548:599  bytes memory str = abi.encode(\"String from Encode\") */\n      swap1\n      pop\n        /* \"contracts/EVM-SubLessons/Encoding.sol\":616:619  str */\n      dup1\n        /* \"contracts/EVM-SubLessons/Encoding.sol\":609:619  return str */\n      swap2\n      pop\n      pop\n        /* \"contracts/EVM-SubLessons/Encoding.sol\":480:626  function encodeString() public pure returns (bytes memory){... */\n      swap1\n      jump\t// out\n        /* \"#utility.yul\":7:106   */\n    tag_71:\n        /* \"#utility.yul\":59:65   */\n      0x00\n        /* \"#utility.yul\":93:98   */\n      dup2\n        /* \"#utility.yul\":87:99   */\n      mload\n        /* \"#utility.yul\":77:99   */\n      swap1\n      pop\n        /* \"#utility.yul\":7:106   */\n      swap2\n      swap1\n      pop\n      jump\t// out\n        /* \"#utility.yul\":112:281   */\n    tag_72:\n        /* \"#utility.yul\":196:207   */\n      0x00\n        /* \"#utility.yul\":230:236   */\n      dup3\n        /* \"#utility.yul\":225:228   */\n      dup3\n        /* \"#utility.yul\":218:237   */\n      mstore\n        /* \"#utility.yul\":270:274   */\n      0x20\n        /* \"#utility.yul\":265:268   */\n      dup3\n        /* \"#utility.yul\":261:275   */\n      add\n        /* \"#utility.yul\":246:275   */\n      swap1\n      pop\n        /* \"#utility.yul\":112:281   */\n      swap3\n      swap2\n      pop\n      pop\n      jump\t// out\n        /* \"#utility.yul\":287:426   */\n    tag_73:\n        /* \"#utility.yul\":376:382   */\n      dup3\n        /* \"#utility.yul\":371:374   */\n      dup2\n        /* \"#utility.yul\":366:369   */\n      dup4\n        /* \"#utility.yul\":360:383   */\n      mcopy\n        /* \"#utility.yul\":417:418   */\n      0x00\n        /* \"#utility.yul\":408:414   */\n      dup4\n        /* \"#utility.yul\":403:406   */\n      dup4\n        /* \"#utility.yul\":399:415   */\n      add\n        /* \"#utility.yul\":392:419   */\n      mstore\n        /* \"#utility.yul\":287:426   */\n      pop\n      pop\n      pop\n      jump\t// out\n        /* \"#utility.yul\":432:534   */\n    tag_74:\n        /* \"#utility.yul\":473:479   */\n      0x00\n        /* \"#utility.yul\":524:526   */\n      0x1f\n        /* \"#utility.yul\":520:527   */\n      not\n        /* \"#utility.yul\":515:517   */\n      0x1f\n        /* \"#utility.yul\":508:513   */\n      dup4\n        /* \"#utility.yul\":504:518   */\n      add\n        /* \"#utility.yul\":500:528   */\n      and\n        /* \"#utility.yul\":490:528   */\n      swap1\n      pop\n        /* \"#utility.yul\":432:534   */\n      swap2\n      swap1\n      pop\n      jump\t// out\n        /* \"#utility.yul\":540:917   */\n    tag_75:\n        /* \"#utility.yul\":628:631   */\n      0x00\n        /* \"#utility.yul\":656:695   */\n      tag_116\n        /* \"#utility.yul\":689:694   */\n      dup3\n        /* \"#utility.yul\":656:695   */\n      tag_71\n      jump\t// in\n    tag_116:\n        /* \"#utility.yul\":711:782   */\n      tag_117\n        /* \"#utility.yul\":775:781   */\n      dup2\n        /* \"#utility.yul\":770:773   */\n      dup6\n        /* \"#utility.yul\":711:782   */\n      tag_72\n      jump\t// in\n    tag_117:\n        /* \"#utility.yul\":704:782   */\n      swap4\n      pop\n        /* \"#utility.yul\":791:856   */\n      tag_118\n        /* \"#utility.yul\":849:855   */\n      dup2\n        /* \"#utility.yul\":844:847   */\n      dup6\n        /* \"#utility.yul\":837:841   */\n      0x20\n        /* \"#utility.yul\":830:835   */\n      dup7\n        /* \"#utility.yul\":826:842   */\n      add\n        /* \"#utility.yul\":791:856   */\n      tag_73\n      jump\t// in\n    tag_118:\n        /* \"#utility.yul\":881:910   */\n      tag_119\n        /* \"#utility.yul\":903:909   */\n      dup2\n        /* \"#utility.yul\":881:910   */\n      tag_74\n      jump\t// in\n    tag_119:\n        /* \"#utility.yul\":876:879   */\n      dup5\n        /* \"#utility.yul\":872:911   */\n      add\n        /* \"#utility.yul\":865:911   */\n      swap2\n      pop\n        /* \"#utility.yul\":632:917   */\n      pop\n        /* \"#utility.yul\":540:917   */\n      swap3\n      swap2\n      pop\n      pop\n      jump\t// out\n        /* \"#utility.yul\":923:1236   */\n    tag_16:\n        /* \"#utility.yul\":1036:1040   */\n      0x00\n        /* \"#utility.yul\":1074:1076   */\n      0x20\n        /* \"#utility.yul\":1063:1072   */\n      dup3\n        /* \"#utility.yul\":1059:1077   */\n      add\n        /* \"#utility.yul\":1051:1077   */\n      swap1\n      pop\n        /* \"#utility.yul\":1123:1132   */\n      dup2\n        /* \"#utility.yul\":1117:1121   */\n      dup2\n        /* \"#utility.yul\":1113:1133   */\n      sub\n        /* \"#utility.yul\":1109:1110   */\n      0x00\n        /* \"#utility.yul\":1098:1107   */\n      dup4\n        /* \"#utility.yul\":1094:1111   */\n      add\n        /* \"#utility.yul\":1087:1134   */\n      mstore\n        /* \"#utility.yul\":1151:1229   */\n      tag_121\n        /* \"#utility.yul\":1224:1228   */\n      dup2\n        /* \"#utility.yul\":1215:1221   */\n      dup5\n        /* \"#utility.yul\":1151:1229   */\n      tag_75\n      jump\t// in\n    tag_121:\n        /* \"#utility.yul\":1143:1229   */\n      swap1\n      pop\n        /* \"#utility.yul\":923:1236   */\n      swap3\n      swap2\n      pop\n      pop\n      jump\t// out\n        /* \"#utility.yul\":1242:1340   */\n    tag_76:\n        /* \"#utility.yul\":1293:1299   */\n      0x00\n        /* \"#utility.yul\":1327:1332   */\n      dup2\n        /* \"#utility.yul\":1321:1333   */\n      mload\n        /* \"#utility.yul\":1311:1333   */\n      swap1\n      pop\n        /* \"#utility.yul\":1242:1340   */\n      swap2\n      swap1\n      pop\n      jump\t// out\n        /* \"#utility.yul\":1346:1514   */\n    tag_77:\n        /* \"#utility.yul\":1429:1440   */\n      0x00\n        /* \"#utility.yul\":1463:1469   */\n      dup3\n        /* \"#utility.yul\":1458:1461   */\n      dup3\n        /* \"#utility.yul\":1451:1470   */\n      mstore\n        /* \"#utility.yul\":1503:1507   */\n      0x20\n        /* \"#utility.yul\":1498:1501   */\n      dup3\n        /* \"#utility.yul\":1494:1508   */\n      add\n        /* \"#utility.yul\":1479:1508   */\n      swap1\n      pop\n        /* \"#utility.yul\":1346:1514   */\n      swap3\n      swap2\n      pop\n      pop\n      jump\t// out\n        /* \"#utility.yul\":1520:1893   */\n    tag_78:\n        /* \"#utility.yul\":1606:1609   */\n      0x00\n        /* \"#utility.yul\":1634:1672   */\n      tag_125\n        /* \"#utility.yul\":1666:1671   */\n      dup3\n        /* \"#utility.yul\":1634:1672   */\n      tag_76\n      jump\t// in\n    tag_125:\n        /* \"#utility.yul\":1688:1758   */\n      tag_126\n        /* \"#utility.yul\":1751:1757   */\n      dup2\n        /* \"#utility.yul\":1746:1749   */\n      dup6\n        /* \"#utility.yul\":1688:1758   */\n      tag_77\n      jump\t// in\n    tag_126:\n        /* \"#utility.yul\":1681:1758   */\n      swap4\n      pop\n        /* \"#utility.yul\":1767:1832   */\n      tag_127\n        /* \"#utility.yul\":1825:1831   */\n      dup2\n        /* \"#utility.yul\":1820:1823   */\n      dup6\n        /* \"#utility.yul\":1813:1817   */\n      0x20\n        /* \"#utility.yul\":1806:1811   */\n      dup7\n        /* \"#utility.yul\":1802:1818   */\n      add\n        /* \"#utility.yul\":1767:1832   */\n      tag_73\n      jump\t// in\n    tag_127:\n        /* \"#utility.yul\":1857:1886   */\n      tag_128\n        /* \"#utility.yul\":1879:1885   */\n      dup2\n        /* \"#utility.yul\":1857:1886   */\n      tag_74\n      jump\t// in\n    tag_128:\n        /* \"#utility.yul\":1852:1855   */\n      dup5\n        /* \"#utility.yul\":1848:1887   */\n      add\n        /* \"#utility.yul\":1841:1887   */\n      swap2\n      pop\n        /* \"#utility.yul\":1610:1893   */\n      pop\n        /* \"#utility.yul\":1520:1893   */\n      swap3\n      swap2\n      pop\n      pop\n      jump\t// out\n        /* \"#utility.yul\":1899:2208   */\n    tag_20:\n        /* \"#utility.yul\":2010:2014   */\n      0x00\n        /* \"#utility.yul\":2048:2050   */\n      0x20\n        /* \"#utility.yul\":2037:2046   */\n      dup3\n        /* \"#utility.yul\":2033:2051   */\n      add\n        /* \"#utility.yul\":2025:2051   */\n      swap1\n      pop\n        /* \"#utility.yul\":2097:2106   */\n      dup2\n        /* \"#utility.yul\":2091:2095   */\n      dup2\n        /* \"#utility.yul\":2087:2107   */\n      sub\n        /* \"#utility.yul\":2083:2084   */\n      0x00\n        /* \"#utility.yul\":2072:2081   */\n      dup4\n        /* \"#utility.yul\":2068:2085   */\n      add\n        /* \"#utility.yul\":2061:2108   */\n      mstore\n        /* \"#utility.yul\":2125:2201   */\n      tag_130\n        /* \"#utility.yul\":2196:2200   */\n      dup2\n        /* \"#utility.yul\":2187:2193   */\n      dup5\n        /* \"#utility.yul\":2125:2201   */\n      tag_78\n      jump\t// in\n    tag_130:\n        /* \"#utility.yul\":2117:2201   */\n      swap1\n      pop\n        /* \"#utility.yul\":1899:2208   */\n      swap3\n      swap2\n      pop\n      pop\n      jump\t// out\n        /* \"#utility.yul\":2214:2728   */\n    tag_39:\n        /* \"#utility.yul\":2375:2379   */\n      0x00\n        /* \"#utility.yul\":2413:2415   */\n      0x40\n        /* \"#utility.yul\":2402:2411   */\n      dup3\n        /* \"#utility.yul\":2398:2416   */\n      add\n        /* \"#utility.yul\":2390:2416   */\n      swap1\n      pop\n        /* \"#utility.yul\":2462:2471   */\n      dup2\n        /* \"#utility.yul\":2456:2460   */\n      dup2\n        /* \"#utility.yul\":2452:2472   */\n      sub\n        /* \"#utility.yul\":2448:2449   */\n      0x00\n        /* \"#utility.yul\":2437:2446   */\n      dup4\n        /* \"#utility.yul\":2433:2450   */\n      add\n        /* \"#utility.yul\":2426:2473   */\n      mstore\n        /* \"#utility.yul\":2490:2568   */\n      tag_132\n        /* \"#utility.yul\":2563:2567   */\n      dup2\n        /* \"#utility.yul\":2554:2560   */\n      dup6\n        /* \"#utility.yul\":2490:2568   */\n      tag_75\n      jump\t// in\n    tag_132:\n        /* \"#utility.yul\":2482:2568   */\n      swap1\n      pop\n        /* \"#utility.yul\":2615:2624   */\n      dup2\n        /* \"#utility.yul\":2609:2613   */\n      dup2\n        /* \"#utility.yul\":2605:2625   */\n      sub\n        /* \"#utility.yul\":2600:2602   */\n      0x20\n        /* \"#utility.yul\":2589:2598   */\n      dup4\n        /* \"#utility.yul\":2585:2603   */\n      add\n        /* \"#utility.yul\":2578:2626   */\n      mstore\n        /* \"#utility.yul\":2643:2721   */\n      tag_133\n        /* \"#utility.yul\":2716:2720   */\n      dup2\n        /* \"#utility.yul\":2707:2713   */\n      dup5\n        /* \"#utility.yul\":2643:2721   */\n      tag_75\n      jump\t// in\n    tag_133:\n        /* \"#utility.yul\":2635:2721   */\n      swap1\n      pop\n        /* \"#utility.yul\":2214:2728   */\n      swap4\n      swap3\n      pop\n      pop\n      pop\n      jump\t// out\n        /* \"#utility.yul\":2734:2882   */\n    tag_79:\n        /* \"#utility.yul\":2836:2847   */\n      0x00\n        /* \"#utility.yul\":2873:2876   */\n      dup2\n        /* \"#utility.yul\":2858:2876   */\n      swap1\n      pop\n        /* \"#utility.yul\":2734:2882   */\n      swap3\n      swap2\n      pop\n      pop\n      jump\t// out\n        /* \"#utility.yul\":2888:3040   */\n    tag_80:\n        /* \"#utility.yul\":3028:3032   */\n      0x4869000000000000000000000000000000000000000000000000000000000000\n        /* \"#utility.yul\":3024:3025   */\n      0x00\n        /* \"#utility.yul\":3016:3022   */\n      dup3\n        /* \"#utility.yul\":3012:3026   */\n      add\n        /* \"#utility.yul\":3005:3033   */\n      mstore\n        /* \"#utility.yul\":2888:3040   */\n      pop\n      jump\t// out\n        /* \"#utility.yul\":3046:3446   */\n    tag_81:\n        /* \"#utility.yul\":3206:3209   */\n      0x00\n        /* \"#utility.yul\":3227:3311   */\n      tag_137\n        /* \"#utility.yul\":3309:3310   */\n      0x02\n        /* \"#utility.yul\":3304:3307   */\n      dup4\n        /* \"#utility.yul\":3227:3311   */\n      tag_79\n      jump\t// in\n    tag_137:\n        /* \"#utility.yul\":3220:3311   */\n      swap2\n      pop\n        /* \"#utility.yul\":3320:3413   */\n      tag_138\n        /* \"#utility.yul\":3409:3412   */\n      dup3\n        /* \"#utility.yul\":3320:3413   */\n      tag_80\n      jump\t// in\n    tag_138:\n        /* \"#utility.yul\":3438:3439   */\n      0x02\n        /* \"#utility.yul\":3433:3436   */\n      dup3\n        /* \"#utility.yul\":3429:3440   */\n      add\n        /* \"#utility.yul\":3422:3440   */\n      swap1\n      pop\n        /* \"#utility.yul\":3046:3446   */\n      swap2\n      swap1\n      pop\n      jump\t// out\n        /* \"#utility.yul\":3452:3610   */\n    tag_82:\n        /* \"#utility.yul\":3592:3602   */\n      0x5468657265212121000000000000000000000000000000000000000000000000\n        /* \"#utility.yul\":3588:3589   */\n      0x00\n        /* \"#utility.yul\":3580:3586   */\n      dup3\n        /* \"#utility.yul\":3576:3590   */\n      add\n        /* \"#utility.yul\":3569:3603   */\n      mstore\n        /* \"#utility.yul\":3452:3610   */\n      pop\n      jump\t// out\n        /* \"#utility.yul\":3616:4016   */\n    tag_83:\n        /* \"#utility.yul\":3776:3779   */\n      0x00\n        /* \"#utility.yul\":3797:3881   */\n      tag_141\n        /* \"#utility.yul\":3879:3880   */\n      0x08\n        /* \"#utility.yul\":3874:3877   */\n      dup4\n        /* \"#utility.yul\":3797:3881   */\n      tag_79\n      jump\t// in\n    tag_141:\n        /* \"#utility.yul\":3790:3881   */\n      swap2\n      pop\n        /* \"#utility.yul\":3890:3983   */\n      tag_142\n        /* \"#utility.yul\":3979:3982   */\n      dup3\n        /* \"#utility.yul\":3890:3983   */\n      tag_82\n      jump\t// in\n    tag_142:\n        /* \"#utility.yul\":4008:4009   */\n      0x08\n        /* \"#utility.yul\":4003:4006   */\n      dup3\n        /* \"#utility.yul\":3999:4010   */\n      add\n        /* \"#utility.yul\":3992:4010   */\n      swap1\n      pop\n        /* \"#utility.yul\":3616:4016   */\n      swap2\n      swap1\n      pop\n      jump\t// out\n        /* \"#utility.yul\":4022:4669   */\n    tag_45:\n        /* \"#utility.yul\":4308:4311   */\n      0x00\n        /* \"#utility.yul\":4330:4478   */\n      tag_144\n        /* \"#utility.yul\":4474:4477   */\n      dup3\n        /* \"#utility.yul\":4330:4478   */\n      tag_81\n      jump\t// in\n    tag_144:\n        /* \"#utility.yul\":4323:4478   */\n      swap2\n      pop\n        /* \"#utility.yul\":4495:4643   */\n      tag_145\n        /* \"#utility.yul\":4639:4642   */\n      dup3\n        /* \"#utility.yul\":4495:4643   */\n      tag_83\n      jump\t// in\n    tag_145:\n        /* \"#utility.yul\":4488:4643   */\n      swap2\n      pop\n        /* \"#utility.yul\":4660:4663   */\n      dup2\n        /* \"#utility.yul\":4653:4663   */\n      swap1\n      pop\n        /* \"#utility.yul\":4022:4669   */\n      swap2\n      swap1\n      pop\n      jump\t// out\n        /* \"#utility.yul\":4675:4760   */\n    tag_84:\n        /* \"#utility.yul\":4720:4727   */\n      0x00\n        /* \"#utility.yul\":4749:4754   */\n      dup2\n        /* \"#utility.yul\":4738:4754   */\n      swap1\n      pop\n        /* \"#utility.yul\":4675:4760   */\n      swap2\n      swap1\n      pop\n      jump\t// out\n        /* \"#utility.yul\":4766:4852   */\n    tag_85:\n        /* \"#utility.yul\":4801:4808   */\n      0x00\n        /* \"#utility.yul\":4841:4845   */\n      0xff\n        /* \"#utility.yul\":4834:4839   */\n      dup3\n        /* \"#utility.yul\":4830:4846   */\n      and\n        /* \"#utility.yul\":4819:4846   */\n      swap1\n      pop\n        /* \"#utility.yul\":4766:4852   */\n      swap2\n      swap1\n      pop\n      jump\t// out\n        /* \"#utility.yul\":4858:4918   */\n    tag_86:\n        /* \"#utility.yul\":4886:4889   */\n      0x00\n        /* \"#utility.yul\":4907:4912   */\n      dup2\n        /* \"#utility.yul\":4900:4912   */\n      swap1\n      pop\n        /* \"#utility.yul\":4858:4918   */\n      swap2\n      swap1\n      pop\n      jump\t// out\n        /* \"#utility.yul\":4924:5078   */\n    tag_87:\n        /* \"#utility.yul\":4980:4989   */\n      0x00\n        /* \"#utility.yul\":5013:5072   */\n      tag_150\n        /* \"#utility.yul\":5029:5071   */\n      tag_151\n        /* \"#utility.yul\":5038:5070   */\n      tag_152\n        /* \"#utility.yul\":5064:5069   */\n      dup5\n        /* \"#utility.yul\":5038:5070   */\n      tag_84\n      jump\t// in\n    tag_152:\n        /* \"#utility.yul\":5029:5071   */\n      tag_86\n      jump\t// in\n    tag_151:\n        /* \"#utility.yul\":5013:5072   */\n      tag_85\n      jump\t// in\n    tag_150:\n        /* \"#utility.yul\":5000:5072   */\n      swap1\n      pop\n        /* \"#utility.yul\":4924:5078   */\n      swap2\n      swap1\n      pop\n      jump\t// out\n        /* \"#utility.yul\":5084:5227   */\n    tag_88:\n        /* \"#utility.yul\":5177:5220   */\n      tag_154\n        /* \"#utility.yul\":5214:5219   */\n      dup2\n        /* \"#utility.yul\":5177:5220   */\n      tag_87\n      jump\t// in\n    tag_154:\n        /* \"#utility.yul\":5172:5175   */\n      dup3\n        /* \"#utility.yul\":5165:5221   */\n      mstore\n        /* \"#utility.yul\":5084:5227   */\n      pop\n      pop\n      jump\t// out\n        /* \"#utility.yul\":5233:5467   */\n    tag_48:\n        /* \"#utility.yul\":5332:5336   */\n      0x00\n        /* \"#utility.yul\":5370:5372   */\n      0x20\n        /* \"#utility.yul\":5359:5368   */\n      dup3\n        /* \"#utility.yul\":5355:5373   */\n      add\n        /* \"#utility.yul\":5347:5373   */\n      swap1\n      pop\n        /* \"#utility.yul\":5383:5460   */\n      tag_156\n        /* \"#utility.yul\":5457:5458   */\n      0x00\n        /* \"#utility.yul\":5446:5455   */\n      dup4\n        /* \"#utility.yul\":5442:5459   */\n      add\n        /* \"#utility.yul\":5433:5439   */\n      dup5\n        /* \"#utility.yul\":5383:5460   */\n      tag_88\n      jump\t// in\n    tag_156:\n        /* \"#utility.yul\":5233:5467   */\n      swap3\n      swap2\n      pop\n      pop\n      jump\t// out\n        /* \"#utility.yul\":5473:5647   */\n    tag_89:\n        /* \"#utility.yul\":5613:5639   */\n      0x537472696e672066726f6d20456e636f64655061636b65640000000000000000\n        /* \"#utility.yul\":5609:5610   */\n      0x00\n        /* \"#utility.yul\":5601:5607   */\n      dup3\n        /* \"#utility.yul\":5597:5611   */\n      add\n        /* \"#utility.yul\":5590:5640   */\n      mstore\n        /* \"#utility.yul\":5473:5647   */\n      pop\n      jump\t// out\n        /* \"#utility.yul\":5653:6055   */\n    tag_90:\n        /* \"#utility.yul\":5813:5816   */\n      0x00\n        /* \"#utility.yul\":5834:5919   */\n      tag_159\n        /* \"#utility.yul\":5916:5918   */\n      0x18\n        /* \"#utility.yul\":5911:5914   */\n      dup4\n        /* \"#utility.yul\":5834:5919   */\n      tag_79\n      jump\t// in\n    tag_159:\n        /* \"#utility.yul\":5827:5919   */\n      swap2\n      pop\n        /* \"#utility.yul\":5928:6021   */\n      tag_160\n        /* \"#utility.yul\":6017:6020   */\n      dup3\n        /* \"#utility.yul\":5928:6021   */\n      tag_89\n      jump\t// in\n    tag_160:\n        /* \"#utility.yul\":6046:6048   */\n      0x18\n        /* \"#utility.yul\":6041:6044   */\n      dup3\n        /* \"#utility.yul\":6037:6049   */\n      add\n        /* \"#utility.yul\":6030:6049   */\n      swap1\n      pop\n        /* \"#utility.yul\":5653:6055   */\n      swap2\n      swap1\n      pop\n      jump\t// out\n        /* \"#utility.yul\":6061:6442   */\n    tag_51:\n        /* \"#utility.yul\":6246:6249   */\n      0x00\n        /* \"#utility.yul\":6268:6416   */\n      tag_162\n        /* \"#utility.yul\":6412:6415   */\n      dup3\n        /* \"#utility.yul\":6268:6416   */\n      tag_90\n      jump\t// in\n    tag_162:\n        /* \"#utility.yul\":6261:6416   */\n      swap2\n      pop\n        /* \"#utility.yul\":6433:6436   */\n      dup2\n        /* \"#utility.yul\":6426:6436   */\n      swap1\n      pop\n        /* \"#utility.yul\":6061:6442   */\n      swap2\n      swap1\n      pop\n      jump\t// out\n        /* \"#utility.yul\":6448:6607   */\n    tag_91:\n        /* \"#utility.yul\":6588:6599   */\n      0x4669727374207374720000000000000000000000000000000000000000000000\n        /* \"#utility.yul\":6584:6585   */\n      0x00\n        /* \"#utility.yul\":6576:6582   */\n      dup3\n        /* \"#utility.yul\":6572:6586   */\n      add\n        /* \"#utility.yul\":6565:6600   */\n      mstore\n        /* \"#utility.yul\":6448:6607   */\n      pop\n      jump\t// out\n        /* \"#utility.yul\":6613:6978   */\n    tag_92:\n        /* \"#utility.yul\":6755:6758   */\n      0x00\n        /* \"#utility.yul\":6776:6842   */\n      tag_165\n        /* \"#utility.yul\":6840:6841   */\n      0x09\n        /* \"#utility.yul\":6835:6838   */\n      dup4\n        /* \"#utility.yul\":6776:6842   */\n      tag_72\n      jump\t// in\n    tag_165:\n        /* \"#utility.yul\":6769:6842   */\n      swap2\n      pop\n        /* \"#utility.yul\":6851:6944   */\n      tag_166\n        /* \"#utility.yul\":6940:6943   */\n      dup3\n        /* \"#utility.yul\":6851:6944   */\n      tag_91\n      jump\t// in\n    tag_166:\n        /* \"#utility.yul\":6969:6971   */\n      0x20\n        /* \"#utility.yul\":6964:6967   */\n      dup3\n        /* \"#utility.yul\":6960:6972   */\n      add\n        /* \"#utility.yul\":6953:6972   */\n      swap1\n      pop\n        /* \"#utility.yul\":6613:6978   */\n      swap2\n      swap1\n      pop\n      jump\t// out\n        /* \"#utility.yul\":6984:7144   */\n    tag_93:\n        /* \"#utility.yul\":7124:7136   */\n      0x5365636f6e642053747200000000000000000000000000000000000000000000\n        /* \"#utility.yul\":7120:7121   */\n      0x00\n        /* \"#utility.yul\":7112:7118   */\n      dup3\n        /* \"#utility.yul\":7108:7122   */\n      add\n        /* \"#utility.yul\":7101:7137   */\n      mstore\n        /* \"#utility.yul\":6984:7144   */\n      pop\n      jump\t// out\n        /* \"#utility.yul\":7150:7516   */\n    tag_94:\n        /* \"#utility.yul\":7292:7295   */\n      0x00\n        /* \"#utility.yul\":7313:7380   */\n      tag_169\n        /* \"#utility.yul\":7377:7379   */\n      0x0a\n        /* \"#utility.yul\":7372:7375   */\n      dup4\n        /* \"#utility.yul\":7313:7380   */\n      tag_72\n      jump\t// in\n    tag_169:\n        /* \"#utility.yul\":7306:7380   */\n      swap2\n      pop\n        /* \"#utility.yul\":7389:7482   */\n      tag_170\n        /* \"#utility.yul\":7478:7481   */\n      dup3\n        /* \"#utility.yul\":7389:7482   */\n      tag_93\n      jump\t// in\n    tag_170:\n        /* \"#utility.yul\":7507:7509   */\n      0x20\n        /* \"#utility.yul\":7502:7505   */\n      dup3\n        /* \"#utility.yul\":7498:7510   */\n      add\n        /* \"#utility.yul\":7491:7510   */\n      swap1\n      pop\n        /* \"#utility.yul\":7150:7516   */\n      swap2\n      swap1\n      pop\n      jump\t// out\n        /* \"#utility.yul\":7522:8248   */\n    tag_56:\n        /* \"#utility.yul\":7789:7793   */\n      0x00\n        /* \"#utility.yul\":7827:7829   */\n      0x40\n        /* \"#utility.yul\":7816:7825   */\n      dup3\n        /* \"#utility.yul\":7812:7830   */\n      add\n        /* \"#utility.yul\":7804:7830   */\n      swap1\n      pop\n        /* \"#utility.yul\":7876:7885   */\n      dup2\n        /* \"#utility.yul\":7870:7874   */\n      dup2\n        /* \"#utility.yul\":7866:7886   */\n      sub\n        /* \"#utility.yul\":7862:7863   */\n      0x00\n        /* \"#utility.yul\":7851:7860   */\n      dup4\n        /* \"#utility.yul\":7847:7864   */\n      add\n        /* \"#utility.yul\":7840:7887   */\n      mstore\n        /* \"#utility.yul\":7904:8035   */\n      tag_172\n        /* \"#utility.yul\":8030:8034   */\n      dup2\n        /* \"#utility.yul\":7904:8035   */\n      tag_92\n      jump\t// in\n    tag_172:\n        /* \"#utility.yul\":7896:8035   */\n      swap1\n      pop\n        /* \"#utility.yul\":8082:8091   */\n      dup2\n        /* \"#utility.yul\":8076:8080   */\n      dup2\n        /* \"#utility.yul\":8072:8092   */\n      sub\n        /* \"#utility.yul\":8067:8069   */\n      0x20\n        /* \"#utility.yul\":8056:8065   */\n      dup4\n        /* \"#utility.yul\":8052:8070   */\n      add\n        /* \"#utility.yul\":8045:8093   */\n      mstore\n        /* \"#utility.yul\":8110:8241   */\n      tag_173\n        /* \"#utility.yul\":8236:8240   */\n      dup2\n        /* \"#utility.yul\":8110:8241   */\n      tag_94\n      jump\t// in\n    tag_173:\n        /* \"#utility.yul\":8102:8241   */\n      swap1\n      pop\n        /* \"#utility.yul\":7522:8248   */\n      swap2\n      swap1\n      pop\n      jump\t// out\n        /* \"#utility.yul\":8254:8329   */\n    tag_95:\n        /* \"#utility.yul\":8287:8293   */\n      0x00\n        /* \"#utility.yul\":8320:8322   */\n      0x40\n        /* \"#utility.yul\":8314:8323   */\n      mload\n        /* \"#utility.yul\":8304:8323   */\n      swap1\n      pop\n        /* \"#utility.yul\":8254:8329   */\n      swap1\n      jump\t// out\n        /* \"#utility.yul\":8335:8452   */\n    tag_96:\n        /* \"#utility.yul\":8444:8445   */\n      0x00\n        /* \"#utility.yul\":8441:8442   */\n      dup1\n        /* \"#utility.yul\":8434:8446   */\n      revert\n        /* \"#utility.yul\":8458:8575   */\n    tag_97:\n        /* \"#utility.yul\":8567:8568   */\n      0x00\n        /* \"#utility.yul\":8564:8565   */\n      dup1\n        /* \"#utility.yul\":8557:8569   */\n      revert\n        /* \"#utility.yul\":8581:8698   */\n    tag_98:\n        /* \"#utility.yul\":8690:8691   */\n      0x00\n        /* \"#utility.yul\":8687:8688   */\n      dup1\n        /* \"#utility.yul\":8680:8692   */\n      revert\n        /* \"#utility.yul\":8704:8821   */\n    tag_99:\n        /* \"#utility.yul\":8813:8814   */\n      0x00\n        /* \"#utility.yul\":8810:8811   */\n      dup1\n        /* \"#utility.yul\":8803:8815   */\n      revert\n        /* \"#utility.yul\":8827:9007   */\n    tag_100:\n        /* \"#utility.yul\":8875:8952   */\n      0x4e487b7100000000000000000000000000000000000000000000000000000000\n        /* \"#utility.yul\":8872:8873   */\n      0x00\n        /* \"#utility.yul\":8865:8953   */\n      mstore\n        /* \"#utility.yul\":8972:8976   */\n      0x41\n        /* \"#utility.yul\":8969:8970   */\n      0x04\n        /* \"#utility.yul\":8962:8977   */\n      mstore\n        /* \"#utility.yul\":8996:9000   */\n      0x24\n        /* \"#utility.yul\":8993:8994   */\n      0x00\n        /* \"#utility.yul\":8986:9001   */\n      revert\n        /* \"#utility.yul\":9013:9294   */\n    tag_101:\n        /* \"#utility.yul\":9096:9123   */\n      tag_181\n        /* \"#utility.yul\":9118:9122   */\n      dup3\n        /* \"#utility.yul\":9096:9123   */\n      tag_74\n      jump\t// in\n    tag_181:\n        /* \"#utility.yul\":9088:9094   */\n      dup2\n        /* \"#utility.yul\":9084:9124   */\n      add\n        /* \"#utility.yul\":9226:9232   */\n      dup2\n        /* \"#utility.yul\":9214:9224   */\n      dup2\n        /* \"#utility.yul\":9211:9233   */\n      lt\n        /* \"#utility.yul\":9190:9208   */\n      0xffffffffffffffff\n        /* \"#utility.yul\":9178:9188   */\n      dup3\n        /* \"#utility.yul\":9175:9209   */\n      gt\n        /* \"#utility.yul\":9172:9234   */\n      or\n        /* \"#utility.yul\":9169:9257   */\n      iszero\n      tag_182\n      jumpi\n        /* \"#utility.yul\":9237:9255   */\n      tag_183\n      tag_100\n      jump\t// in\n    tag_183:\n        /* \"#utility.yul\":9169:9257   */\n    tag_182:\n        /* \"#utility.yul\":9277:9287   */\n      dup1\n        /* \"#utility.yul\":9273:9275   */\n      0x40\n        /* \"#utility.yul\":9266:9288   */\n      mstore\n        /* \"#utility.yul\":9056:9294   */\n      pop\n        /* \"#utility.yul\":9013:9294   */\n      pop\n      pop\n      jump\t// out\n        /* \"#utility.yul\":9300:9429   */\n    tag_102:\n        /* \"#utility.yul\":9334:9340   */\n      0x00\n        /* \"#utility.yul\":9361:9381   */\n      tag_185\n      tag_95\n      jump\t// in\n    tag_185:\n        /* \"#utility.yul\":9351:9381   */\n      swap1\n      pop\n        /* \"#utility.yul\":9390:9423   */\n      tag_186\n        /* \"#utility.yul\":9418:9422   */\n      dup3\n        /* \"#utility.yul\":9410:9416   */\n      dup3\n        /* \"#utility.yul\":9390:9423   */\n      tag_101\n      jump\t// in\n    tag_186:\n        /* \"#utility.yul\":9300:9429   */\n      swap2\n      swap1\n      pop\n      jump\t// out\n        /* \"#utility.yul\":9435:9743   */\n    tag_103:\n        /* \"#utility.yul\":9497:9501   */\n      0x00\n        /* \"#utility.yul\":9587:9605   */\n      0xffffffffffffffff\n        /* \"#utility.yul\":9579:9585   */\n      dup3\n        /* \"#utility.yul\":9576:9606   */\n      gt\n        /* \"#utility.yul\":9573:9629   */\n      iszero\n      tag_188\n      jumpi\n        /* \"#utility.yul\":9609:9627   */\n      tag_189\n      tag_100\n      jump\t// in\n    tag_189:\n        /* \"#utility.yul\":9573:9629   */\n    tag_188:\n        /* \"#utility.yul\":9647:9676   */\n      tag_190\n        /* \"#utility.yul\":9669:9675   */\n      dup3\n        /* \"#utility.yul\":9647:9676   */\n      tag_74\n      jump\t// in\n    tag_190:\n        /* \"#utility.yul\":9639:9676   */\n      swap1\n      pop\n        /* \"#utility.yul\":9731:9735   */\n      0x20\n        /* \"#utility.yul\":9725:9729   */\n      dup2\n        /* \"#utility.yul\":9721:9736   */\n      add\n        /* \"#utility.yul\":9713:9736   */\n      swap1\n      pop\n        /* \"#utility.yul\":9435:9743   */\n      swap2\n      swap1\n      pop\n      jump\t// out\n        /* \"#utility.yul\":9749:10183   */\n    tag_104:\n        /* \"#utility.yul\":9838:9843   */\n      0x00\n        /* \"#utility.yul\":9863:9929   */\n      tag_192\n        /* \"#utility.yul\":9879:9928   */\n      tag_193\n        /* \"#utility.yul\":9921:9927   */\n      dup5\n        /* \"#utility.yul\":9879:9928   */\n      tag_103\n      jump\t// in\n    tag_193:\n        /* \"#utility.yul\":9863:9929   */\n      tag_102\n      jump\t// in\n    tag_192:\n        /* \"#utility.yul\":9854:9929   */\n      swap1\n      pop\n        /* \"#utility.yul\":9952:9958   */\n      dup3\n        /* \"#utility.yul\":9945:9950   */\n      dup2\n        /* \"#utility.yul\":9938:9959   */\n      mstore\n        /* \"#utility.yul\":9990:9994   */\n      0x20\n        /* \"#utility.yul\":9983:9988   */\n      dup2\n        /* \"#utility.yul\":9979:9995   */\n      add\n        /* \"#utility.yul\":10028:10031   */\n      dup5\n        /* \"#utility.yul\":10019:10025   */\n      dup5\n        /* \"#utility.yul\":10014:10017   */\n      dup5\n        /* \"#utility.yul\":10010:10026   */\n      add\n        /* \"#utility.yul\":10007:10032   */\n      gt\n        /* \"#utility.yul\":10004:10116   */\n      iszero\n      tag_194\n      jumpi\n        /* \"#utility.yul\":10035:10114   */\n      tag_195\n      tag_99\n      jump\t// in\n    tag_195:\n        /* \"#utility.yul\":10004:10116   */\n    tag_194:\n        /* \"#utility.yul\":10125:10177   */\n      tag_196\n        /* \"#utility.yul\":10170:10176   */\n      dup5\n        /* \"#utility.yul\":10165:10168   */\n      dup3\n        /* \"#utility.yul\":10160:10163   */\n      dup6\n        /* \"#utility.yul\":10125:10177   */\n      tag_73\n      jump\t// in\n    tag_196:\n        /* \"#utility.yul\":9844:10183   */\n      pop\n        /* \"#utility.yul\":9749:10183   */\n      swap4\n      swap3\n      pop\n      pop\n      pop\n      jump\t// out\n        /* \"#utility.yul\":10203:10558   */\n    tag_105:\n        /* \"#utility.yul\":10270:10275   */\n      0x00\n        /* \"#utility.yul\":10319:10322   */\n      dup3\n        /* \"#utility.yul\":10312:10316   */\n      0x1f\n        /* \"#utility.yul\":10304:10310   */\n      dup4\n        /* \"#utility.yul\":10300:10317   */\n      add\n        /* \"#utility.yul\":10296:10323   */\n      slt\n        /* \"#utility.yul\":10286:10408   */\n      tag_198\n      jumpi\n        /* \"#utility.yul\":10327:10406   */\n      tag_199\n      tag_98\n      jump\t// in\n    tag_199:\n        /* \"#utility.yul\":10286:10408   */\n    tag_198:\n        /* \"#utility.yul\":10437:10443   */\n      dup2\n        /* \"#utility.yul\":10431:10444   */\n      mload\n        /* \"#utility.yul\":10462:10552   */\n      tag_200\n        /* \"#utility.yul\":10548:10551   */\n      dup5\n        /* \"#utility.yul\":10540:10546   */\n      dup3\n        /* \"#utility.yul\":10533:10537   */\n      0x20\n        /* \"#utility.yul\":10525:10531   */\n      dup7\n        /* \"#utility.yul\":10521:10538   */\n      add\n        /* \"#utility.yul\":10462:10552   */\n      tag_104\n      jump\t// in\n    tag_200:\n        /* \"#utility.yul\":10453:10552   */\n      swap2\n      pop\n        /* \"#utility.yul\":10276:10558   */\n      pop\n        /* \"#utility.yul\":10203:10558   */\n      swap3\n      swap2\n      pop\n      pop\n      jump\t// out\n        /* \"#utility.yul\":10564:11088   */\n    tag_60:\n        /* \"#utility.yul\":10644:10650   */\n      0x00\n        /* \"#utility.yul\":10693:10695   */\n      0x20\n        /* \"#utility.yul\":10681:10690   */\n      dup3\n        /* \"#utility.yul\":10672:10679   */\n      dup5\n        /* \"#utility.yul\":10668:10691   */\n      sub\n        /* \"#utility.yul\":10664:10696   */\n      slt\n        /* \"#utility.yul\":10661:10780   */\n      iszero\n      tag_202\n      jumpi\n        /* \"#utility.yul\":10699:10778   */\n      tag_203\n      tag_96\n      jump\t// in\n    tag_203:\n        /* \"#utility.yul\":10661:10780   */\n    tag_202:\n        /* \"#utility.yul\":10840:10841   */\n      0x00\n        /* \"#utility.yul\":10829:10838   */\n      dup3\n        /* \"#utility.yul\":10825:10842   */\n      add\n        /* \"#utility.yul\":10819:10843   */\n      mload\n        /* \"#utility.yul\":10870:10888   */\n      0xffffffffffffffff\n        /* \"#utility.yul\":10862:10868   */\n      dup2\n        /* \"#utility.yul\":10859:10889   */\n      gt\n        /* \"#utility.yul\":10856:10973   */\n      iszero\n      tag_204\n      jumpi\n        /* \"#utility.yul\":10892:10971   */\n      tag_205\n      tag_97\n      jump\t// in\n    tag_205:\n        /* \"#utility.yul\":10856:10973   */\n    tag_204:\n        /* \"#utility.yul\":10997:11071   */\n      tag_206\n        /* \"#utility.yul\":11063:11070   */\n      dup5\n        /* \"#utility.yul\":11054:11060   */\n      dup3\n        /* \"#utility.yul\":11043:11052   */\n      dup6\n        /* \"#utility.yul\":11039:11061   */\n      add\n        /* \"#utility.yul\":10997:11071   */\n      tag_105\n      jump\t// in\n    tag_206:\n        /* \"#utility.yul\":10987:11071   */\n      swap2\n      pop\n        /* \"#utility.yul\":10790:11081   */\n      pop\n        /* \"#utility.yul\":10564:11088   */\n      swap3\n      swap2\n      pop\n      pop\n      jump\t// out\n        /* \"#utility.yul\":11094:11494   */\n    tag_106:\n        /* \"#utility.yul\":11254:11257   */\n      0x00\n        /* \"#utility.yul\":11275:11359   */\n      tag_208\n        /* \"#utility.yul\":11357:11358   */\n      0x09\n        /* \"#utility.yul\":11352:11355   */\n      dup4\n        /* \"#utility.yul\":11275:11359   */\n      tag_79\n      jump\t// in\n    tag_208:\n        /* \"#utility.yul\":11268:11359   */\n      swap2\n      pop\n        /* \"#utility.yul\":11368:11461   */\n      tag_209\n        /* \"#utility.yul\":11457:11460   */\n      dup3\n        /* \"#utility.yul\":11368:11461   */\n      tag_91\n      jump\t// in\n    tag_209:\n        /* \"#utility.yul\":11486:11487   */\n      0x09\n        /* \"#utility.yul\":11481:11484   */\n      dup3\n        /* \"#utility.yul\":11477:11488   */\n      add\n        /* \"#utility.yul\":11470:11488   */\n      swap1\n      pop\n        /* \"#utility.yul\":11094:11494   */\n      swap2\n      swap1\n      pop\n      jump\t// out\n        /* \"#utility.yul\":11500:11902   */\n    tag_107:\n        /* \"#utility.yul\":11660:11663   */\n      0x00\n        /* \"#utility.yul\":11681:11766   */\n      tag_211\n        /* \"#utility.yul\":11763:11765   */\n      0x0a\n        /* \"#utility.yul\":11758:11761   */\n      dup4\n        /* \"#utility.yul\":11681:11766   */\n      tag_79\n      jump\t// in\n    tag_211:\n        /* \"#utility.yul\":11674:11766   */\n      swap2\n      pop\n        /* \"#utility.yul\":11775:11868   */\n      tag_212\n        /* \"#utility.yul\":11864:11867   */\n      dup3\n        /* \"#utility.yul\":11775:11868   */\n      tag_93\n      jump\t// in\n    tag_212:\n        /* \"#utility.yul\":11893:11895   */\n      0x0a\n        /* \"#utility.yul\":11888:11891   */\n      dup3\n        /* \"#utility.yul\":11884:11896   */\n      add\n        /* \"#utility.yul\":11877:11896   */\n      swap1\n      pop\n        /* \"#utility.yul\":11500:11902   */\n      swap2\n      swap1\n      pop\n      jump\t// out\n        /* \"#utility.yul\":11908:12555   */\n    tag_63:\n        /* \"#utility.yul\":12194:12197   */\n      0x00\n        /* \"#utility.yul\":12216:12364   */\n      tag_214\n        /* \"#utility.yul\":12360:12363   */\n      dup3\n        /* \"#utility.yul\":12216:12364   */\n      tag_106\n      jump\t// in\n    tag_214:\n        /* \"#utility.yul\":12209:12364   */\n      swap2\n      pop\n        /* \"#utility.yul\":12381:12529   */\n      tag_215\n        /* \"#utility.yul\":12525:12528   */\n      dup3\n        /* \"#utility.yul\":12381:12529   */\n      tag_107\n      jump\t// in\n    tag_215:\n        /* \"#utility.yul\":12374:12529   */\n      swap2\n      pop\n        /* \"#utility.yul\":12546:12549   */\n      dup2\n        /* \"#utility.yul\":12539:12549   */\n      swap1\n      pop\n        /* \"#utility.yul\":11908:12555   */\n      swap2\n      swap1\n      pop\n      jump\t// out\n        /* \"#utility.yul\":12561:13414   */\n    tag_67:\n        /* \"#utility.yul\":12660:12666   */\n      0x00\n        /* \"#utility.yul\":12668:12674   */\n      dup1\n        /* \"#utility.yul\":12717:12719   */\n      0x40\n        /* \"#utility.yul\":12705:12714   */\n      dup4\n        /* \"#utility.yul\":12696:12703   */\n      dup6\n        /* \"#utility.yul\":12692:12715   */\n      sub\n        /* \"#utility.yul\":12688:12720   */\n      slt\n        /* \"#utility.yul\":12685:12804   */\n      iszero\n      tag_217\n      jumpi\n        /* \"#utility.yul\":12723:12802   */\n      tag_218\n      tag_96\n      jump\t// in\n    tag_218:\n        /* \"#utility.yul\":12685:12804   */\n    tag_217:\n        /* \"#utility.yul\":12864:12865   */\n      0x00\n        /* \"#utility.yul\":12853:12862   */\n      dup4\n        /* \"#utility.yul\":12849:12866   */\n      add\n        /* \"#utility.yul\":12843:12867   */\n      mload\n        /* \"#utility.yul\":12894:12912   */\n      0xffffffffffffffff\n        /* \"#utility.yul\":12886:12892   */\n      dup2\n        /* \"#utility.yul\":12883:12913   */\n      gt\n        /* \"#utility.yul\":12880:12997   */\n      iszero\n      tag_219\n      jumpi\n        /* \"#utility.yul\":12916:12995   */\n      tag_220\n      tag_97\n      jump\t// in\n    tag_220:\n        /* \"#utility.yul\":12880:12997   */\n    tag_219:\n        /* \"#utility.yul\":13021:13095   */\n      tag_221\n        /* \"#utility.yul\":13087:13094   */\n      dup6\n        /* \"#utility.yul\":13078:13084   */\n      dup3\n        /* \"#utility.yul\":13067:13076   */\n      dup7\n        /* \"#utility.yul\":13063:13085   */\n      add\n        /* \"#utility.yul\":13021:13095   */\n      tag_105\n      jump\t// in\n    tag_221:\n        /* \"#utility.yul\":13011:13095   */\n      swap3\n      pop\n        /* \"#utility.yul\":12814:13105   */\n      pop\n        /* \"#utility.yul\":13165:13167   */\n      0x20\n        /* \"#utility.yul\":13154:13163   */\n      dup4\n        /* \"#utility.yul\":13150:13168   */\n      add\n        /* \"#utility.yul\":13144:13169   */\n      mload\n        /* \"#utility.yul\":13196:13214   */\n      0xffffffffffffffff\n        /* \"#utility.yul\":13188:13194   */\n      dup2\n        /* \"#utility.yul\":13185:13215   */\n      gt\n        /* \"#utility.yul\":13182:13299   */\n      iszero\n      tag_222\n      jumpi\n        /* \"#utility.yul\":13218:13297   */\n      tag_223\n      tag_97\n      jump\t// in\n    tag_223:\n        /* \"#utility.yul\":13182:13299   */\n    tag_222:\n        /* \"#utility.yul\":13323:13397   */\n      tag_224\n        /* \"#utility.yul\":13389:13396   */\n      dup6\n        /* \"#utility.yul\":13380:13386   */\n      dup3\n        /* \"#utility.yul\":13369:13378   */\n      dup7\n        /* \"#utility.yul\":13365:13387   */\n      add\n        /* \"#utility.yul\":13323:13397   */\n      tag_105\n      jump\t// in\n    tag_224:\n        /* \"#utility.yul\":13313:13397   */\n      swap2\n      pop\n        /* \"#utility.yul\":13115:13407   */\n      pop\n        /* \"#utility.yul\":12561:13414   */\n      swap3\n      pop\n      swap3\n      swap1\n      pop\n      jump\t// out\n        /* \"#utility.yul\":13420:13588   */\n    tag_108:\n        /* \"#utility.yul\":13560:13580   */\n      0x537472696e672066726f6d20456e636f64650000000000000000000000000000\n        /* \"#utility.yul\":13556:13557   */\n      0x00\n        /* \"#utility.yul\":13548:13554   */\n      dup3\n        /* \"#utility.yul\":13544:13558   */\n      add\n        /* \"#utility.yul\":13537:13581   */\n      mstore\n        /* \"#utility.yul\":13420:13588   */\n      pop\n      jump\t// out\n        /* \"#utility.yul\":13594:13960   */\n    tag_109:\n        /* \"#utility.yul\":13736:13739   */\n      0x00\n        /* \"#utility.yul\":13757:13824   */\n      tag_227\n        /* \"#utility.yul\":13821:13823   */\n      0x12\n        /* \"#utility.yul\":13816:13819   */\n      dup4\n        /* \"#utility.yul\":13757:13824   */\n      tag_72\n      jump\t// in\n    tag_227:\n        /* \"#utility.yul\":13750:13824   */\n      swap2\n      pop\n        /* \"#utility.yul\":13833:13926   */\n      tag_228\n        /* \"#utility.yul\":13922:13925   */\n      dup3\n        /* \"#utility.yul\":13833:13926   */\n      tag_108\n      jump\t// in\n    tag_228:\n        /* \"#utility.yul\":13951:13953   */\n      0x20\n        /* \"#utility.yul\":13946:13949   */\n      dup3\n        /* \"#utility.yul\":13942:13954   */\n      add\n        /* \"#utility.yul\":13935:13954   */\n      swap1\n      pop\n        /* \"#utility.yul\":13594:13960   */\n      swap2\n      swap1\n      pop\n      jump\t// out\n        /* \"#utility.yul\":13966:14385   */\n    tag_70:\n        /* \"#utility.yul\":14132:14136   */\n      0x00\n        /* \"#utility.yul\":14170:14172   */\n      0x20\n        /* \"#utility.yul\":14159:14168   */\n      dup3\n        /* \"#utility.yul\":14155:14173   */\n      add\n        /* \"#utility.yul\":14147:14173   */\n      swap1\n      pop\n        /* \"#utility.yul\":14219:14228   */\n      dup2\n        /* \"#utility.yul\":14213:14217   */\n      dup2\n        /* \"#utility.yul\":14209:14229   */\n      sub\n        /* \"#utility.yul\":14205:14206   */\n      0x00\n        /* \"#utility.yul\":14194:14203   */\n      dup4\n        /* \"#utility.yul\":14190:14207   */\n      add\n        /* \"#utility.yul\":14183:14230   */\n      mstore\n        /* \"#utility.yul\":14247:14378   */\n      tag_230\n        /* \"#utility.yul\":14373:14377   */\n      dup2\n        /* \"#utility.yul\":14247:14378   */\n      tag_109\n      jump\t// in\n    tag_230:\n        /* \"#utility.yul\":14239:14378   */\n      swap1\n      pop\n        /* \"#utility.yul\":13966:14385   */\n      swap2\n      swap1\n      pop\n      jump\t// out\n\n    auxdata: 0xa26469706673582212204a1ea86b33cfbb09c4f3720ada714f0869e6d723427e44de49b67624da50abe164736f6c634300081a0033\n}\n",
				"bytecode": {
					"linkReferences": {},
					"object": "6080604052348015600e575f80fd5b506109748061001c5f395ff3fe608060405234801561000f575f80fd5b5060043610610091575f3560e01c8063a6dc49b811610064578063a6dc49b81461010d578063a77b03601461012b578063b474871814610149578063c452d79b14610167578063ed5df3651461018657610091565b8063114a76101461009557806315889d1a146100b35780632085f4b9146100d157806360ee46c3146100ef575b5f80fd5b61009d6101a4565b6040516100aa9190610379565b60405180910390f35b6100bb6101c9565b6040516100c891906103eb565b60405180910390f35b6100d96101f6565b6040516100e691906103eb565b60405180910390f35b6100f7610220565b6040516101049190610379565b60405180910390f35b610115610234565b60405161012291906103eb565b60405180910390f35b61013361025e565b6040516101409190610379565b60405180910390f35b610151610285565b60405161015e91906103eb565b60405180910390f35b61016f6102af565b60405161017d92919061040b565b60405180910390f35b61018e6102df565b60405161019b91906103eb565b60405180910390f35b60606040516020016101b5906104de565b604051602081830303815290604052905090565b60605f60076040516020016101de919061054b565b60405160208183030381529060405290508091505090565b60605f604051602001610208906105ae565b60405160208183030381529060405290508091505090565b60605f61022b610285565b90508091505090565b60605f60405160200161024690610656565b60405160208183030381529060405290508091505090565b60605f6102696102df565b80602001905181019061027c91906107b6565b90508091505090565b60605f60405160200161029790610841565b60405160208183030381529060405290508091505090565b6060805f806102bc610234565b8060200190518101906102cf9190610860565b9150915081819350935050509091565b60605f6040516020016102f190610920565b60405160208183030381529060405290508091505090565b5f81519050919050565b5f82825260208201905092915050565b8281835e5f83830152505050565b5f601f19601f8301169050919050565b5f61034b82610309565b6103558185610313565b9350610365818560208601610323565b61036e81610331565b840191505092915050565b5f6020820190508181035f8301526103918184610341565b905092915050565b5f81519050919050565b5f82825260208201905092915050565b5f6103bd82610399565b6103c781856103a3565b93506103d7818560208601610323565b6103e081610331565b840191505092915050565b5f6020820190508181035f83015261040381846103b3565b905092915050565b5f6040820190508181035f8301526104238185610341565b905081810360208301526104378184610341565b90509392505050565b5f81905092915050565b7f48690000000000000000000000000000000000000000000000000000000000005f82015250565b5f61047e600283610440565b91506104898261044a565b600282019050919050565b7f54686572652121210000000000000000000000000000000000000000000000005f82015250565b5f6104c8600883610440565b91506104d382610494565b600882019050919050565b5f6104e882610472565b91506104f3826104bc565b9150819050919050565b5f819050919050565b5f60ff82169050919050565b5f819050919050565b5f61053561053061052b846104fd565b610512565b610506565b9050919050565b6105458161051b565b82525050565b5f60208201905061055e5f83018461053c565b92915050565b7f537472696e672066726f6d20456e636f64655061636b656400000000000000005f82015250565b5f610598601883610440565b91506105a382610564565b601882019050919050565b5f6105b88261058c565b9150819050919050565b7f46697273742073747200000000000000000000000000000000000000000000005f82015250565b5f6105f6600983610313565b9150610601826105c2565b602082019050919050565b7f5365636f6e6420537472000000000000000000000000000000000000000000005f82015250565b5f610640600a83610313565b915061064b8261060c565b602082019050919050565b5f6040820190508181035f83015261066d816105ea565b9050818103602083015261068081610634565b9050919050565b5f604051905090565b5f80fd5b5f80fd5b5f80fd5b5f80fd5b7f4e487b71000000000000000000000000000000000000000000000000000000005f52604160045260245ffd5b6106d682610331565b810181811067ffffffffffffffff821117156106f5576106f46106a0565b5b80604052505050565b5f610707610687565b905061071382826106cd565b919050565b5f67ffffffffffffffff821115610732576107316106a0565b5b61073b82610331565b9050602081019050919050565b5f61075a61075584610718565b6106fe565b9050828152602081018484840111156107765761077561069c565b5b610781848285610323565b509392505050565b5f82601f83011261079d5761079c610698565b5b81516107ad848260208601610748565b91505092915050565b5f602082840312156107cb576107ca610690565b5b5f82015167ffffffffffffffff8111156107e8576107e7610694565b5b6107f484828501610789565b91505092915050565b5f610809600983610440565b9150610814826105c2565b600982019050919050565b5f61082b600a83610440565b91506108368261060c565b600a82019050919050565b5f61084b826107fd565b91506108568261081f565b9150819050919050565b5f806040838503121561087657610875610690565b5b5f83015167ffffffffffffffff81111561089357610892610694565b5b61089f85828601610789565b925050602083015167ffffffffffffffff8111156108c0576108bf610694565b5b6108cc85828601610789565b9150509250929050565b7f537472696e672066726f6d20456e636f646500000000000000000000000000005f82015250565b5f61090a601283610313565b9150610915826108d6565b602082019050919050565b5f6020820190508181035f830152610937816108fe565b905091905056fea26469706673582212204a1ea86b33cfbb09c4f3720ada714f0869e6d723427e44de49b67624da50abe164736f6c634300081a0033",
					"opcodes": "PUSH1 0x80 PUSH1 0x40 MSTORE CALLVALUE DUP1 ISZERO PUSH1 0xE JUMPI PUSH0 DUP1 REVERT JUMPDEST POP PUSH2 0x974 DUP1 PUSH2 0x1C PUSH0 CODECOPY PUSH0 RETURN INVALID PUSH1 0x80 PUSH1 0x40 MSTORE CALLVALUE DUP1 ISZERO PUSH2 0xF JUMPI PUSH0 DUP1 REVERT JUMPDEST POP PUSH1 0x4 CALLDATASIZE LT PUSH2 0x91 JUMPI PUSH0 CALLDATALOAD PUSH1 0xE0 SHR DUP1 PUSH4 0xA6DC49B8 GT PUSH2 0x64 JUMPI DUP1 PUSH4 0xA6DC49B8 EQ PUSH2 0x10D JUMPI DUP1 PUSH4 0xA77B0360 EQ PUSH2 0x12B JUMPI DUP1 PUSH4 0xB4748718 EQ PUSH2 0x149 JUMPI DUP1 PUSH4 0xC452D79B EQ PUSH2 0x167 JUMPI DUP1 PUSH4 0xED5DF365 EQ PUSH2 0x186 JUMPI PUSH2 0x91 JUMP JUMPDEST DUP1 PUSH4 0x114A7610 EQ PUSH2 0x95 JUMPI DUP1 PUSH4 0x15889D1A EQ PUSH2 0xB3 JUMPI DUP1 PUSH4 0x2085F4B9 EQ PUSH2 0xD1 JUMPI DUP1 PUSH4 0x60EE46C3 EQ PUSH2 0xEF JUMPI JUMPDEST PUSH0 DUP1 REVERT JUMPDEST PUSH2 0x9D PUSH2 0x1A4 JUMP JUMPDEST PUSH1 0x40 MLOAD PUSH2 0xAA SWAP2 SWAP1 PUSH2 0x379 JUMP JUMPDEST PUSH1 0x40 MLOAD DUP1 SWAP2 SUB SWAP1 RETURN JUMPDEST PUSH2 0xBB PUSH2 0x1C9 JUMP JUMPDEST PUSH1 0x40 MLOAD PUSH2 0xC8 SWAP2 SWAP1 PUSH2 0x3EB JUMP JUMPDEST PUSH1 0x40 MLOAD DUP1 SWAP2 SUB SWAP1 RETURN JUMPDEST PUSH2 0xD9 PUSH2 0x1F6 JUMP JUMPDEST PUSH1 0x40 MLOAD PUSH2 0xE6 SWAP2 SWAP1 PUSH2 0x3EB JUMP JUMPDEST PUSH1 0x40 MLOAD DUP1 SWAP2 SUB SWAP1 RETURN JUMPDEST PUSH2 0xF7 PUSH2 0x220 JUMP JUMPDEST PUSH1 0x40 MLOAD PUSH2 0x104 SWAP2 SWAP1 PUSH2 0x379 JUMP JUMPDEST PUSH1 0x40 MLOAD DUP1 SWAP2 SUB SWAP1 RETURN JUMPDEST PUSH2 0x115 PUSH2 0x234 JUMP JUMPDEST PUSH1 0x40 MLOAD PUSH2 0x122 SWAP2 SWAP1 PUSH2 0x3EB JUMP JUMPDEST PUSH1 0x40 MLOAD DUP1 SWAP2 SUB SWAP1 RETURN JUMPDEST PUSH2 0x133 PUSH2 0x25E JUMP JUMPDEST PUSH1 0x40 MLOAD PUSH2 0x140 SWAP2 SWAP1 PUSH2 0x379 JUMP JUMPDEST PUSH1 0x40 MLOAD DUP1 SWAP2 SUB SWAP1 RETURN JUMPDEST PUSH2 0x151 PUSH2 0x285 JUMP JUMPDEST PUSH1 0x40 MLOAD PUSH2 0x15E SWAP2 SWAP1 PUSH2 0x3EB JUMP JUMPDEST PUSH1 0x40 MLOAD DUP1 SWAP2 SUB SWAP1 RETURN JUMPDEST PUSH2 0x16F PUSH2 0x2AF JUMP JUMPDEST PUSH1 0x40 MLOAD PUSH2 0x17D SWAP3 SWAP2 SWAP1 PUSH2 0x40B JUMP JUMPDEST PUSH1 0x40 MLOAD DUP1 SWAP2 SUB SWAP1 RETURN JUMPDEST PUSH2 0x18E PUSH2 0x2DF JUMP JUMPDEST PUSH1 0x40 MLOAD PUSH2 0x19B SWAP2 SWAP1 PUSH2 0x3EB JUMP JUMPDEST PUSH1 0x40 MLOAD DUP1 SWAP2 SUB SWAP1 RETURN JUMPDEST PUSH1 0x60 PUSH1 0x40 MLOAD PUSH1 0x20 ADD PUSH2 0x1B5 SWAP1 PUSH2 0x4DE JUMP JUMPDEST PUSH1 0x40 MLOAD PUSH1 0x20 DUP2 DUP4 SUB SUB DUP2 MSTORE SWAP1 PUSH1 0x40 MSTORE SWAP1 POP SWAP1 JUMP JUMPDEST PUSH1 0x60 PUSH0 PUSH1 0x7 PUSH1 0x40 MLOAD PUSH1 0x20 ADD PUSH2 0x1DE SWAP2 SWAP1 PUSH2 0x54B JUMP JUMPDEST PUSH1 0x40 MLOAD PUSH1 0x20 DUP2 DUP4 SUB SUB DUP2 MSTORE SWAP1 PUSH1 0x40 MSTORE SWAP1 POP DUP1 SWAP2 POP POP SWAP1 JUMP JUMPDEST PUSH1 0x60 PUSH0 PUSH1 0x40 MLOAD PUSH1 0x20 ADD PUSH2 0x208 SWAP1 PUSH2 0x5AE JUMP JUMPDEST PUSH1 0x40 MLOAD PUSH1 0x20 DUP2 DUP4 SUB SUB DUP2 MSTORE SWAP1 PUSH1 0x40 MSTORE SWAP1 POP DUP1 SWAP2 POP POP SWAP1 JUMP JUMPDEST PUSH1 0x60 PUSH0 PUSH2 0x22B PUSH2 0x285 JUMP JUMPDEST SWAP1 POP DUP1 SWAP2 POP POP SWAP1 JUMP JUMPDEST PUSH1 0x60 PUSH0 PUSH1 0x40 MLOAD PUSH1 0x20 ADD PUSH2 0x246 SWAP1 PUSH2 0x656 JUMP JUMPDEST PUSH1 0x40 MLOAD PUSH1 0x20 DUP2 DUP4 SUB SUB DUP2 MSTORE SWAP1 PUSH1 0x40 MSTORE SWAP1 POP DUP1 SWAP2 POP POP SWAP1 JUMP JUMPDEST PUSH1 0x60 PUSH0 PUSH2 0x269 PUSH2 0x2DF JUMP JUMPDEST DUP1 PUSH1 0x20 ADD SWAP1 MLOAD DUP2 ADD SWAP1 PUSH2 0x27C SWAP2 SWAP1 PUSH2 0x7B6 JUMP JUMPDEST SWAP1 POP DUP1 SWAP2 POP POP SWAP1 JUMP JUMPDEST PUSH1 0x60 PUSH0 PUSH1 0x40 MLOAD PUSH1 0x20 ADD PUSH2 0x297 SWAP1 PUSH2 0x841 JUMP JUMPDEST PUSH1 0x40 MLOAD PUSH1 0x20 DUP2 DUP4 SUB SUB DUP2 MSTORE SWAP1 PUSH1 0x40 MSTORE SWAP1 POP DUP1 SWAP2 POP POP SWAP1 JUMP JUMPDEST PUSH1 0x60 DUP1 PUSH0 DUP1 PUSH2 0x2BC PUSH2 0x234 JUMP JUMPDEST DUP1 PUSH1 0x20 ADD SWAP1 MLOAD DUP2 ADD SWAP1 PUSH2 0x2CF SWAP2 SWAP1 PUSH2 0x860 JUMP JUMPDEST SWAP2 POP SWAP2 POP DUP2 DUP2 SWAP4 POP SWAP4 POP POP POP SWAP1 SWAP2 JUMP JUMPDEST PUSH1 0x60 PUSH0 PUSH1 0x40 MLOAD PUSH1 0x20 ADD PUSH2 0x2F1 SWAP1 PUSH2 0x920 JUMP JUMPDEST PUSH1 0x40 MLOAD PUSH1 0x20 DUP2 DUP4 SUB SUB DUP2 MSTORE SWAP1 PUSH1 0x40 MSTORE SWAP1 POP DUP1 SWAP2 POP POP SWAP1 JUMP JUMPDEST PUSH0 DUP2 MLOAD SWAP1 POP SWAP2 SWAP1 POP JUMP JUMPDEST PUSH0 DUP3 DUP3 MSTORE PUSH1 0x20 DUP3 ADD SWAP1 POP SWAP3 SWAP2 POP POP JUMP JUMPDEST DUP3 DUP2 DUP4 MCOPY PUSH0 DUP4 DUP4 ADD MSTORE POP POP POP JUMP JUMPDEST PUSH0 PUSH1 0x1F NOT PUSH1 0x1F DUP4 ADD AND SWAP1 POP SWAP2 SWAP1 POP JUMP JUMPDEST PUSH0 PUSH2 0x34B DUP3 PUSH2 0x309 JUMP JUMPDEST PUSH2 0x355 DUP2 DUP6 PUSH2 0x313 JUMP JUMPDEST SWAP4 POP PUSH2 0x365 DUP2 DUP6 PUSH1 0x20 DUP7 ADD PUSH2 0x323 JUMP JUMPDEST PUSH2 0x36E DUP2 PUSH2 0x331 JUMP JUMPDEST DUP5 ADD SWAP2 POP POP SWAP3 SWAP2 POP POP JUMP JUMPDEST PUSH0 PUSH1 0x20 DUP3 ADD SWAP1 POP DUP2 DUP2 SUB PUSH0 DUP4 ADD MSTORE PUSH2 0x391 DUP2 DUP5 PUSH2 0x341 JUMP JUMPDEST SWAP1 POP SWAP3 SWAP2 POP POP JUMP JUMPDEST PUSH0 DUP2 MLOAD SWAP1 POP SWAP2 SWAP1 POP JUMP JUMPDEST PUSH0 DUP3 DUP3 MSTORE PUSH1 0x20 DUP3 ADD SWAP1 POP SWAP3 SWAP2 POP POP JUMP JUMPDEST PUSH0 PUSH2 0x3BD DUP3 PUSH2 0x399 JUMP JUMPDEST PUSH2 0x3C7 DUP2 DUP6 PUSH2 0x3A3 JUMP JUMPDEST SWAP4 POP PUSH2 0x3D7 DUP2 DUP6 PUSH1 0x20 DUP7 ADD PUSH2 0x323 JUMP JUMPDEST PUSH2 0x3E0 DUP2 PUSH2 0x331 JUMP JUMPDEST DUP5 ADD SWAP2 POP POP SWAP3 SWAP2 POP POP JUMP JUMPDEST PUSH0 PUSH1 0x20 DUP3 ADD SWAP1 POP DUP2 DUP2 SUB PUSH0 DUP4 ADD MSTORE PUSH2 0x403 DUP2 DUP5 PUSH2 0x3B3 JUMP JUMPDEST SWAP1 POP SWAP3 SWAP2 POP POP JUMP JUMPDEST PUSH0 PUSH1 0x40 DUP3 ADD SWAP1 POP DUP2 DUP2 SUB PUSH0 DUP4 ADD MSTORE PUSH2 0x423 DUP2 DUP6 PUSH2 0x341 JUMP JUMPDEST SWAP1 POP DUP2 DUP2 SUB PUSH1 0x20 DUP4 ADD MSTORE PUSH2 0x437 DUP2 DUP5 PUSH2 0x341 JUMP JUMPDEST SWAP1 POP SWAP4 SWAP3 POP POP POP JUMP JUMPDEST PUSH0 DUP2 SWAP1 POP SWAP3 SWAP2 POP POP JUMP JUMPDEST PUSH32 0x4869000000000000000000000000000000000000000000000000000000000000 PUSH0 DUP3 ADD MSTORE POP JUMP JUMPDEST PUSH0 PUSH2 0x47E PUSH1 0x2 DUP4 PUSH2 0x440 JUMP JUMPDEST SWAP2 POP PUSH2 0x489 DUP3 PUSH2 0x44A JUMP JUMPDEST PUSH1 0x2 DUP3 ADD SWAP1 POP SWAP2 SWAP1 POP JUMP JUMPDEST PUSH32 0x5468657265212121000000000000000000000000000000000000000000000000 PUSH0 DUP3 ADD MSTORE POP JUMP JUMPDEST PUSH0 PUSH2 0x4C8 PUSH1 0x8 DUP4 PUSH2 0x440 JUMP JUMPDEST SWAP2 POP PUSH2 0x4D3 DUP3 PUSH2 0x494 JUMP JUMPDEST PUSH1 0x8 DUP3 ADD SWAP1 POP SWAP2 SWAP1 POP JUMP JUMPDEST PUSH0 PUSH2 0x4E8 DUP3 PUSH2 0x472 JUMP JUMPDEST SWAP2 POP PUSH2 0x4F3 DUP3 PUSH2 0x4BC JUMP JUMPDEST SWAP2 POP DUP2 SWAP1 POP SWAP2 SWAP1 POP JUMP JUMPDEST PUSH0 DUP2 SWAP1 POP SWAP2 SWAP1 POP JUMP JUMPDEST PUSH0 PUSH1 0xFF DUP3 AND SWAP1 POP SWAP2 SWAP1 POP JUMP JUMPDEST PUSH0 DUP2 SWAP1 POP SWAP2 SWAP1 POP JUMP JUMPDEST PUSH0 PUSH2 0x535 PUSH2 0x530 PUSH2 0x52B DUP5 PUSH2 0x4FD JUMP JUMPDEST PUSH2 0x512 JUMP JUMPDEST PUSH2 0x506 JUMP JUMPDEST SWAP1 POP SWAP2 SWAP1 POP JUMP JUMPDEST PUSH2 0x545 DUP2 PUSH2 0x51B JUMP JUMPDEST DUP3 MSTORE POP POP JUMP JUMPDEST PUSH0 PUSH1 0x20 DUP3 ADD SWAP1 POP PUSH2 0x55E PUSH0 DUP4 ADD DUP5 PUSH2 0x53C JUMP JUMPDEST SWAP3 SWAP2 POP POP JUMP JUMPDEST PUSH32 0x537472696E672066726F6D20456E636F64655061636B65640000000000000000 PUSH0 DUP3 ADD MSTORE POP JUMP JUMPDEST PUSH0 PUSH2 0x598 PUSH1 0x18 DUP4 PUSH2 0x440 JUMP JUMPDEST SWAP2 POP PUSH2 0x5A3 DUP3 PUSH2 0x564 JUMP JUMPDEST PUSH1 0x18 DUP3 ADD SWAP1 POP SWAP2 SWAP1 POP JUMP JUMPDEST PUSH0 PUSH2 0x5B8 DUP3 PUSH2 0x58C JUMP JUMPDEST SWAP2 POP DUP2 SWAP1 POP SWAP2 SWAP1 POP JUMP JUMPDEST PUSH32 0x4669727374207374720000000000000000000000000000000000000000000000 PUSH0 DUP3 ADD MSTORE POP JUMP JUMPDEST PUSH0 PUSH2 0x5F6 PUSH1 0x9 DUP4 PUSH2 0x313 JUMP JUMPDEST SWAP2 POP PUSH2 0x601 DUP3 PUSH2 0x5C2 JUMP JUMPDEST PUSH1 0x20 DUP3 ADD SWAP1 POP SWAP2 SWAP1 POP JUMP JUMPDEST PUSH32 0x5365636F6E642053747200000000000000000000000000000000000000000000 PUSH0 DUP3 ADD MSTORE POP JUMP JUMPDEST PUSH0 PUSH2 0x640 PUSH1 0xA DUP4 PUSH2 0x313 JUMP JUMPDEST SWAP2 POP PUSH2 0x64B DUP3 PUSH2 0x60C JUMP JUMPDEST PUSH1 0x20 DUP3 ADD SWAP1 POP SWAP2 SWAP1 POP JUMP JUMPDEST PUSH0 PUSH1 0x40 DUP3 ADD SWAP1 POP DUP2 DUP2 SUB PUSH0 DUP4 ADD MSTORE PUSH2 0x66D DUP2 PUSH2 0x5EA JUMP JUMPDEST SWAP1 POP DUP2 DUP2 SUB PUSH1 0x20 DUP4 ADD MSTORE PUSH2 0x680 DUP2 PUSH2 0x634 JUMP JUMPDEST SWAP1 POP SWAP2 SWAP1 POP JUMP JUMPDEST PUSH0 PUSH1 0x40 MLOAD SWAP1 POP SWAP1 JUMP JUMPDEST PUSH0 DUP1 REVERT JUMPDEST PUSH0 DUP1 REVERT JUMPDEST PUSH0 DUP1 REVERT JUMPDEST PUSH0 DUP1 REVERT JUMPDEST PUSH32 0x4E487B7100000000000000000000000000000000000000000000000000000000 PUSH0 MSTORE PUSH1 0x41 PUSH1 0x4 MSTORE PUSH1 0x24 PUSH0 REVERT JUMPDEST PUSH2 0x6D6 DUP3 PUSH2 0x331 JUMP JUMPDEST DUP2 ADD DUP2 DUP2 LT PUSH8 0xFFFFFFFFFFFFFFFF DUP3 GT OR ISZERO PUSH2 0x6F5 JUMPI PUSH2 0x6F4 PUSH2 0x6A0 JUMP JUMPDEST JUMPDEST DUP1 PUSH1 0x40 MSTORE POP POP POP JUMP JUMPDEST PUSH0 PUSH2 0x707 PUSH2 0x687 JUMP JUMPDEST SWAP1 POP PUSH2 0x713 DUP3 DUP3 PUSH2 0x6CD JUMP JUMPDEST SWAP2 SWAP1 POP JUMP JUMPDEST PUSH0 PUSH8 0xFFFFFFFFFFFFFFFF DUP3 GT ISZERO PUSH2 0x732 JUMPI PUSH2 0x731 PUSH2 0x6A0 JUMP JUMPDEST JUMPDEST PUSH2 0x73B DUP3 PUSH2 0x331 JUMP JUMPDEST SWAP1 POP PUSH1 0x20 DUP2 ADD SWAP1 POP SWAP2 SWAP1 POP JUMP JUMPDEST PUSH0 PUSH2 0x75A PUSH2 0x755 DUP5 PUSH2 0x718 JUMP JUMPDEST PUSH2 0x6FE JUMP JUMPDEST SWAP1 POP DUP3 DUP2 MSTORE PUSH1 0x20 DUP2 ADD DUP5 DUP5 DUP5 ADD GT ISZERO PUSH2 0x776 JUMPI PUSH2 0x775 PUSH2 0x69C JUMP JUMPDEST JUMPDEST PUSH2 0x781 DUP5 DUP3 DUP6 PUSH2 0x323 JUMP JUMPDEST POP SWAP4 SWAP3 POP POP POP JUMP JUMPDEST PUSH0 DUP3 PUSH1 0x1F DUP4 ADD SLT PUSH2 0x79D JUMPI PUSH2 0x79C PUSH2 0x698 JUMP JUMPDEST JUMPDEST DUP2 MLOAD PUSH2 0x7AD DUP5 DUP3 PUSH1 0x20 DUP7 ADD PUSH2 0x748 JUMP JUMPDEST SWAP2 POP POP SWAP3 SWAP2 POP POP JUMP JUMPDEST PUSH0 PUSH1 0x20 DUP3 DUP5 SUB SLT ISZERO PUSH2 0x7CB JUMPI PUSH2 0x7CA PUSH2 0x690 JUMP JUMPDEST JUMPDEST PUSH0 DUP3 ADD MLOAD PUSH8 0xFFFFFFFFFFFFFFFF DUP2 GT ISZERO PUSH2 0x7E8 JUMPI PUSH2 0x7E7 PUSH2 0x694 JUMP JUMPDEST JUMPDEST PUSH2 0x7F4 DUP5 DUP3 DUP6 ADD PUSH2 0x789 JUMP JUMPDEST SWAP2 POP POP SWAP3 SWAP2 POP POP JUMP JUMPDEST PUSH0 PUSH2 0x809 PUSH1 0x9 DUP4 PUSH2 0x440 JUMP JUMPDEST SWAP2 POP PUSH2 0x814 DUP3 PUSH2 0x5C2 JUMP JUMPDEST PUSH1 0x9 DUP3 ADD SWAP1 POP SWAP2 SWAP1 POP JUMP JUMPDEST PUSH0 PUSH2 0x82B PUSH1 0xA DUP4 PUSH2 0x440 JUMP JUMPDEST SWAP2 POP PUSH2 0x836 DUP3 PUSH2 0x60C JUMP JUMPDEST PUSH1 0xA DUP3 ADD SWAP1 POP SWAP2 SWAP1 POP JUMP JUMPDEST PUSH0 PUSH2 0x84B DUP3 PUSH2 0x7FD JUMP JUMPDEST SWAP2 POP PUSH2 0x856 DUP3 PUSH2 0x81F JUMP JUMPDEST SWAP2 POP DUP2 SWAP1 POP SWAP2 SWAP1 POP JUMP JUMPDEST PUSH0 DUP1 PUSH1 0x40 DUP4 DUP6 SUB SLT ISZERO PUSH2 0x876 JUMPI PUSH2 0x875 PUSH2 0x690 JUMP JUMPDEST JUMPDEST PUSH0 DUP4 ADD MLOAD PUSH8 0xFFFFFFFFFFFFFFFF DUP2 GT ISZERO PUSH2 0x893 JUMPI PUSH2 0x892 PUSH2 0x694 JUMP JUMPDEST JUMPDEST PUSH2 0x89F DUP6 DUP3 DUP7 ADD PUSH2 0x789 JUMP JUMPDEST SWAP3 POP POP PUSH1 0x20 DUP4 ADD MLOAD PUSH8 0xFFFFFFFFFFFFFFFF DUP2 GT ISZERO PUSH2 0x8C0 JUMPI PUSH2 0x8BF PUSH2 0x694 JUMP JUMPDEST JUMPDEST PUSH2 0x8CC DUP6 DUP3 DUP7 ADD PUSH2 0x789 JUMP JUMPDEST SWAP2 POP POP SWAP3 POP SWAP3 SWAP1 POP JUMP JUMPDEST PUSH32 0x537472696E672066726F6D20456E636F64650000000000000000000000000000 PUSH0 DUP3 ADD MSTORE POP JUMP JUMPDEST PUSH0 PUSH2 0x90A PUSH1 0x12 DUP4 PUSH2 0x313 JUMP JUMPDEST SWAP2 POP PUSH2 0x915 DUP3 PUSH2 0x8D6 JUMP JUMPDEST PUSH1 0x20 DUP3 ADD SWAP1 POP SWAP2 SWAP1 POP JUMP JUMPDEST PUSH0 PUSH1 0x20 DUP3 ADD SWAP1 POP DUP2 DUP2 SUB PUSH0 DUP4 ADD MSTORE PUSH2 0x937 DUP2 PUSH2 0x8FE JUMP JUMPDEST SWAP1 POP SWAP2 SWAP1 POP JUMP INVALID LOG2 PUSH5 0x6970667358 0x22 SLT KECCAK256 BLOBBASEFEE 0x1E 0xA8 PUSH12 0x33CFBB09C4F3720ADA714F08 PUSH10 0xE6D723427E44DE49B676 0x24 0xDA POP 0xAB 0xE1 PUSH5 0x736F6C6343 STOP ADDMOD BYTE STOP CALLER "
				},
				"gasEstimates": {
					"creation": {
						"codeDepositCost": "484000",
						"executionCost": "516",
						"totalCost": "484516"
					},
					"external": {
						"combineStrings()": "infinite",
						"decodeString()": "infinite",
						"encodeNumber()": "infinite",
						"encodeString()": "infinite",
						"encodeStringPacked()": "infinite",
						"multiDecode()": "infinite",
						"multiEncode()": "infinite",
						"multiEncodePacked()": "infinite",
						"multiStringCastPacked()": "infinite"
					}
				},
				"methodIdentifiers": {
					"combineStrings()": "114a7610",
					"decodeString()": "a77b0360",
					"encodeNumber()": "15889d1a",
					"encodeString()": "ed5df365",
					"encodeStringPacked()": "2085f4b9",
					"multiDecode()": "c452d79b",
					"multiEncode()": "a6dc49b8",
					"multiEncodePacked()": "b4748718",
					"multiStringCastPacked()": "60ee46c3"
				}
			},
			"storageLayout": {
				"storage": [],
				"types": null
			},
			"userdoc": {
				"kind": "user",
				"methods": {},
				"version": 1
			}
		}
	}
}