{
	"contracts/EVM-SubLessons/CallAnything.sol": {
		"CallAnything": {
			"abi": [
				{
					"inputs": [],
					"name": "addr",
					"outputs": [
						{
							"internalType": "address",
							"name": "",
							"type": "address"
						}
					],
					"stateMutability": "view",
					"type": "function"
				},
				{
					"inputs": [],
					"name": "amount",
					"outputs": [
						{
							"internalType": "uint256",
							"name": "",
							"type": "uint256"
						}
					],
					"stateMutability": "view",
					"type": "function"
				},
				{
					"inputs": [
						{
							"internalType": "address",
							"name": "_addr",
							"type": "address"
						},
						{
							"internalType": "uint256",
							"name": "_amount",
							"type": "uint256"
						}
					],
					"name": "callTransferFunctionDirectly",
					"outputs": [
						{
							"internalType": "bytes4",
							"name": "",
							"type": "bytes4"
						},
						{
							"internalType": "bool",
							"name": "",
							"type": "bool"
						}
					],
					"stateMutability": "nonpayable",
					"type": "function"
				},
				{
					"inputs": [
						{
							"internalType": "address",
							"name": "_addr",
							"type": "address"
						},
						{
							"internalType": "uint256",
							"name": "_amount",
							"type": "uint256"
						}
					],
					"name": "callTransferFunctionDirectlyTwo",
					"outputs": [
						{
							"internalType": "bytes4",
							"name": "",
							"type": "bytes4"
						},
						{
							"internalType": "bool",
							"name": "",
							"type": "bool"
						}
					],
					"stateMutability": "nonpayable",
					"type": "function"
				},
				{
					"inputs": [
						{
							"internalType": "address",
							"name": "_addr",
							"type": "address"
						},
						{
							"internalType": "uint256",
							"name": "_amount",
							"type": "uint256"
						}
					],
					"name": "getDataToCallTransfer",
					"outputs": [
						{
							"internalType": "bytes",
							"name": "",
							"type": "bytes"
						}
					],
					"stateMutability": "pure",
					"type": "function"
				},
				{
					"inputs": [],
					"name": "getSelectorOne",
					"outputs": [
						{
							"internalType": "bytes4",
							"name": "selector",
							"type": "bytes4"
						}
					],
					"stateMutability": "pure",
					"type": "function"
				},
				{
					"inputs": [
						{
							"internalType": "address",
							"name": "_addr",
							"type": "address"
						},
						{
							"internalType": "uint256",
							"name": "_amount",
							"type": "uint256"
						}
					],
					"name": "transfer",
					"outputs": [],
					"stateMutability": "nonpayable",
					"type": "function"
				}
			],
			"devdoc": {
				"kind": "dev",
				"methods": {},
				"version": 1
			},
			"evm": {
				"assembly": "    /* \"contracts/EVM-SubLessons/CallAnything.sol\":57:1284  contract CallAnything {... */\n  mstore(0x40, 0x80)\n  callvalue\n  dup1\n  iszero\n  tag_1\n  jumpi\n  0x00\n  dup1\n  revert\ntag_1:\n  pop\n  dataSize(sub_0)\n  dup1\n  dataOffset(sub_0)\n  0x00\n  codecopy\n  0x00\n  return\nstop\n\nsub_0: assembly {\n        /* \"contracts/EVM-SubLessons/CallAnything.sol\":57:1284  contract CallAnything {... */\n      mstore(0x40, 0x80)\n      callvalue\n      dup1\n      iszero\n      tag_1\n      jumpi\n      0x00\n      dup1\n      revert\n    tag_1:\n      pop\n      jumpi(tag_2, lt(calldatasize, 0x04))\n      shr(0xe0, calldataload(0x00))\n      dup1\n      0xa5694e4a\n      gt\n      tag_10\n      jumpi\n      dup1\n      0xa5694e4a\n      eq\n      tag_6\n      jumpi\n      dup1\n      0xa9059cbb\n      eq\n      tag_7\n      jumpi\n      dup1\n      0xaa8c217c\n      eq\n      tag_8\n      jumpi\n      dup1\n      0xb20d9446\n      eq\n      tag_9\n      jumpi\n      jump(tag_2)\n    tag_10:\n      dup1\n      0x767800de\n      eq\n      tag_3\n      jumpi\n      dup1\n      0x7c0c5f23\n      eq\n      tag_4\n      jumpi\n      dup1\n      0x9a41d3ad\n      eq\n      tag_5\n      jumpi\n    tag_2:\n      0x00\n      dup1\n      revert\n        /* \"contracts/EVM-SubLessons/CallAnything.sol\":85:104  address public addr */\n    tag_3:\n      tag_11\n      tag_12\n      jump\t// in\n    tag_11:\n      mload(0x40)\n      tag_13\n      swap2\n      swap1\n      tag_14\n      jump\t// in\n    tag_13:\n      mload(0x40)\n      dup1\n      swap2\n      sub\n      swap1\n      return\n        /* \"contracts/EVM-SubLessons/CallAnything.sol\":407:585  function getDataToCallTransfer(address _addr, uint256 _amount) public pure returns (bytes memory) {... */\n    tag_4:\n      tag_15\n      0x04\n      dup1\n      calldatasize\n      sub\n      dup2\n      add\n      swap1\n      tag_16\n      swap2\n      swap1\n      tag_17\n      jump\t// in\n    tag_16:\n      tag_18\n      jump\t// in\n    tag_15:\n      mload(0x40)\n      tag_19\n      swap2\n      swap1\n      tag_20\n      jump\t// in\n    tag_19:\n      mload(0x40)\n      dup1\n      swap2\n      sub\n      swap1\n      return\n        /* \"contracts/EVM-SubLessons/CallAnything.sol\":256:401  function getSelectorOne() public pure returns (bytes4 selector) {... */\n    tag_5:\n      tag_21\n      tag_22\n      jump\t// in\n    tag_21:\n      mload(0x40)\n      tag_23\n      swap2\n      swap1\n      tag_24\n      jump\t// in\n    tag_23:\n      mload(0x40)\n      dup1\n      swap2\n      sub\n      swap1\n      return\n        /* \"contracts/EVM-SubLessons/CallAnything.sol\":591:935  function callTransferFunctionDirectly(address _addr, uint256 _amount) public returns (bytes4, bool) {... */\n    tag_6:\n      tag_25\n      0x04\n      dup1\n      calldatasize\n      sub\n      dup2\n      add\n      swap1\n      tag_26\n      swap2\n      swap1\n      tag_17\n      jump\t// in\n    tag_26:\n      tag_27\n      jump\t// in\n    tag_25:\n      mload(0x40)\n      tag_28\n      swap3\n      swap2\n      swap1\n      tag_29\n      jump\t// in\n    tag_28:\n      mload(0x40)\n      dup1\n      swap2\n      sub\n      swap1\n      return\n        /* \"contracts/EVM-SubLessons/CallAnything.sol\":138:250  function transfer(address _addr, uint256 _amount) public {... */\n    tag_7:\n      tag_30\n      0x04\n      dup1\n      calldatasize\n      sub\n      dup2\n      add\n      swap1\n      tag_31\n      swap2\n      swap1\n      tag_17\n      jump\t// in\n    tag_31:\n      tag_32\n      jump\t// in\n    tag_30:\n      stop\n        /* \"contracts/EVM-SubLessons/CallAnything.sol\":110:131  uint256 public amount */\n    tag_8:\n      tag_33\n      tag_34\n      jump\t// in\n    tag_33:\n      mload(0x40)\n      tag_35\n      swap2\n      swap1\n      tag_36\n      jump\t// in\n    tag_35:\n      mload(0x40)\n      dup1\n      swap2\n      sub\n      swap1\n      return\n        /* \"contracts/EVM-SubLessons/CallAnything.sol\":973:1280  function callTransferFunctionDirectlyTwo(address _addr, uint256 _amount) public returns (bytes4, bool) {... */\n    tag_9:\n      tag_37\n      0x04\n      dup1\n      calldatasize\n      sub\n      dup2\n      add\n      swap1\n      tag_38\n      swap2\n      swap1\n      tag_17\n      jump\t// in\n    tag_38:\n      tag_39\n      jump\t// in\n    tag_37:\n      mload(0x40)\n      tag_40\n      swap3\n      swap2\n      swap1\n      tag_29\n      jump\t// in\n    tag_40:\n      mload(0x40)\n      dup1\n      swap2\n      sub\n      swap1\n      return\n        /* \"contracts/EVM-SubLessons/CallAnything.sol\":85:104  address public addr */\n    tag_12:\n      0x00\n      dup1\n      sload\n      swap1\n      0x0100\n      exp\n      swap1\n      div\n      0xffffffffffffffffffffffffffffffffffffffff\n      and\n      dup2\n      jump\t// out\n        /* \"contracts/EVM-SubLessons/CallAnything.sol\":407:585  function getDataToCallTransfer(address _addr, uint256 _amount) public pure returns (bytes memory) {... */\n    tag_18:\n        /* \"contracts/EVM-SubLessons/CallAnything.sol\":491:503  bytes memory */\n      0x60\n        /* \"contracts/EVM-SubLessons/CallAnything.sol\":545:561  getSelectorOne() */\n      tag_42\n        /* \"contracts/EVM-SubLessons/CallAnything.sol\":545:559  getSelectorOne */\n      tag_22\n        /* \"contracts/EVM-SubLessons/CallAnything.sol\":545:561  getSelectorOne() */\n      jump\t// in\n    tag_42:\n        /* \"contracts/EVM-SubLessons/CallAnything.sol\":563:568  _addr */\n      dup4\n        /* \"contracts/EVM-SubLessons/CallAnything.sol\":570:577  _amount */\n      dup4\n        /* \"contracts/EVM-SubLessons/CallAnything.sol\":522:578  abi.encodeWithSelector(getSelectorOne(), _addr, _amount) */\n      add(0x24, mload(0x40))\n      tag_43\n      swap3\n      swap2\n      swap1\n      tag_44\n      jump\t// in\n    tag_43:\n      mload(0x40)\n      0x20\n      dup2\n      dup4\n      sub\n      sub\n      dup2\n      mstore\n      swap1\n      0x40\n      mstore\n      swap1\n      not(0xffffffffffffffffffffffffffffffffffffffffffffffffffffffff)\n      and\n      0x20\n      dup3\n      add\n      dup1\n      mload\n      0xffffffffffffffffffffffffffffffffffffffffffffffffffffffff\n      dup4\n      dup2\n      dup4\n      and\n      or\n      dup4\n      mstore\n      pop\n      pop\n      pop\n      pop\n        /* \"contracts/EVM-SubLessons/CallAnything.sol\":515:578  return abi.encodeWithSelector(getSelectorOne(), _addr, _amount) */\n      swap1\n      pop\n        /* \"contracts/EVM-SubLessons/CallAnything.sol\":407:585  function getDataToCallTransfer(address _addr, uint256 _amount) public pure returns (bytes memory) {... */\n      swap3\n      swap2\n      pop\n      pop\n      jump\t// out\n        /* \"contracts/EVM-SubLessons/CallAnything.sol\":256:401  function getSelectorOne() public pure returns (bytes4 selector) {... */\n    tag_22:\n        /* \"contracts/EVM-SubLessons/CallAnything.sol\":303:318  bytes4 selector */\n      0x00\n        /* \"contracts/EVM-SubLessons/CallAnything.sol\":358:392  bytes(\"transfer(address,uint256)\") */\n      mload(0x40)\n      dup1\n      0x40\n      add\n      0x40\n      mstore\n      dup1\n      0x19\n      dup2\n      mstore\n      0x20\n      add\n      0x7472616e7366657228616464726573732c75696e743235362900000000000000\n      dup2\n      mstore\n      pop\n        /* \"contracts/EVM-SubLessons/CallAnything.sol\":348:393  keccak256(bytes(\"transfer(address,uint256)\")) */\n      dup1\n      mload\n      swap1\n      0x20\n      add\n      keccak256\n        /* \"contracts/EVM-SubLessons/CallAnything.sol\":330:394  selector = bytes4(keccak256(bytes(\"transfer(address,uint256)\"))) */\n      swap1\n      pop\n        /* \"contracts/EVM-SubLessons/CallAnything.sol\":256:401  function getSelectorOne() public pure returns (bytes4 selector) {... */\n      swap1\n      jump\t// out\n        /* \"contracts/EVM-SubLessons/CallAnything.sol\":591:935  function callTransferFunctionDirectly(address _addr, uint256 _amount) public returns (bytes4, bool) {... */\n    tag_27:\n        /* \"contracts/EVM-SubLessons/CallAnything.sol\":677:683  bytes4 */\n      0x00\n        /* \"contracts/EVM-SubLessons/CallAnything.sol\":685:689  bool */\n      dup1\n        /* \"contracts/EVM-SubLessons/CallAnything.sol\":702:714  bool success */\n      0x00\n        /* \"contracts/EVM-SubLessons/CallAnything.sol\":716:733  bytes memory data */\n      dup1\n        /* \"contracts/EVM-SubLessons/CallAnything.sol\":745:749  this */\n      address\n        /* \"contracts/EVM-SubLessons/CallAnything.sol\":737:755  address(this).call */\n      0xffffffffffffffffffffffffffffffffffffffff\n      and\n        /* \"contracts/EVM-SubLessons/CallAnything.sol\":769:806  getDataToCallTransfer(_addr, _amount) */\n      tag_47\n        /* \"contracts/EVM-SubLessons/CallAnything.sol\":791:796  _addr */\n      dup8\n        /* \"contracts/EVM-SubLessons/CallAnything.sol\":798:805  _amount */\n      dup8\n        /* \"contracts/EVM-SubLessons/CallAnything.sol\":769:790  getDataToCallTransfer */\n      tag_18\n        /* \"contracts/EVM-SubLessons/CallAnything.sol\":769:806  getDataToCallTransfer(_addr, _amount) */\n      jump\t// in\n    tag_47:\n        /* \"contracts/EVM-SubLessons/CallAnything.sol\":737:887  address(this).call(... */\n      mload(0x40)\n      tag_48\n      swap2\n      swap1\n      tag_49\n      jump\t// in\n    tag_48:\n      0x00\n      mload(0x40)\n      dup1\n      dup4\n      sub\n      dup2\n      0x00\n      dup7\n      gas\n      call\n      swap2\n      pop\n      pop\n      returndatasize\n      dup1\n      0x00\n      dup2\n      eq\n      tag_52\n      jumpi\n      mload(0x40)\n      swap2\n      pop\n      and(add(returndatasize, 0x3f), not(0x1f))\n      dup3\n      add\n      0x40\n      mstore\n      returndatasize\n      dup3\n      mstore\n      returndatasize\n      0x00\n      0x20\n      dup5\n      add\n      returndatacopy\n      jump(tag_51)\n    tag_52:\n      0x60\n      swap2\n      pop\n    tag_51:\n      pop\n        /* \"contracts/EVM-SubLessons/CallAnything.sol\":701:887  (bool success, bytes memory data) = address(this).call(... */\n      swap2\n      pop\n      swap2\n      pop\n        /* \"contracts/EVM-SubLessons/CallAnything.sol\":913:917  data */\n      dup1\n        /* \"contracts/EVM-SubLessons/CallAnything.sol\":906:918  bytes4(data) */\n      tag_53\n      swap1\n      tag_54\n      jump\t// in\n    tag_53:\n        /* \"contracts/EVM-SubLessons/CallAnything.sol\":920:927  success */\n      dup3\n        /* \"contracts/EVM-SubLessons/CallAnything.sol\":898:928  return (bytes4(data), success) */\n      swap4\n      pop\n      swap4\n      pop\n      pop\n      pop\n        /* \"contracts/EVM-SubLessons/CallAnything.sol\":591:935  function callTransferFunctionDirectly(address _addr, uint256 _amount) public returns (bytes4, bool) {... */\n      swap3\n      pop\n      swap3\n      swap1\n      pop\n      jump\t// out\n        /* \"contracts/EVM-SubLessons/CallAnything.sol\":138:250  function transfer(address _addr, uint256 _amount) public {... */\n    tag_32:\n        /* \"contracts/EVM-SubLessons/CallAnything.sol\":212:217  _addr */\n      dup2\n        /* \"contracts/EVM-SubLessons/CallAnything.sol\":205:209  addr */\n      0x00\n      dup1\n        /* \"contracts/EVM-SubLessons/CallAnything.sol\":205:217  addr = _addr */\n      0x0100\n      exp\n      dup2\n      sload\n      dup2\n      0xffffffffffffffffffffffffffffffffffffffff\n      mul\n      not\n      and\n      swap1\n      dup4\n      0xffffffffffffffffffffffffffffffffffffffff\n      and\n      mul\n      or\n      swap1\n      sstore\n      pop\n        /* \"contracts/EVM-SubLessons/CallAnything.sol\":236:243  _amount */\n      dup1\n        /* \"contracts/EVM-SubLessons/CallAnything.sol\":227:233  amount */\n      0x01\n        /* \"contracts/EVM-SubLessons/CallAnything.sol\":227:243  amount = _amount */\n      dup2\n      swap1\n      sstore\n      pop\n        /* \"contracts/EVM-SubLessons/CallAnything.sol\":138:250  function transfer(address _addr, uint256 _amount) public {... */\n      pop\n      pop\n      jump\t// out\n        /* \"contracts/EVM-SubLessons/CallAnything.sol\":110:131  uint256 public amount */\n    tag_34:\n      sload(0x01)\n      dup2\n      jump\t// out\n        /* \"contracts/EVM-SubLessons/CallAnything.sol\":973:1280  function callTransferFunctionDirectlyTwo(address _addr, uint256 _amount) public returns (bytes4, bool) {... */\n    tag_39:\n        /* \"contracts/EVM-SubLessons/CallAnything.sol\":1062:1068  bytes4 */\n      0x00\n        /* \"contracts/EVM-SubLessons/CallAnything.sol\":1070:1074  bool */\n      dup1\n        /* \"contracts/EVM-SubLessons/CallAnything.sol\":1087:1099  bool success */\n      0x00\n        /* \"contracts/EVM-SubLessons/CallAnything.sol\":1101:1118  bytes memory data */\n      dup1\n        /* \"contracts/EVM-SubLessons/CallAnything.sol\":1130:1134  this */\n      address\n        /* \"contracts/EVM-SubLessons/CallAnything.sol\":1122:1140  address(this).call */\n      0xffffffffffffffffffffffffffffffffffffffff\n      and\n        /* \"contracts/EVM-SubLessons/CallAnything.sol\":1207:1212  _addr */\n      dup7\n        /* \"contracts/EVM-SubLessons/CallAnything.sol\":1214:1221  _amount */\n      dup7\n        /* \"contracts/EVM-SubLessons/CallAnything.sol\":1154:1222  abi.encodeWithSignature(\"transfer(address,uint256)\", _addr, _amount) */\n      add(0x24, mload(0x40))\n      tag_57\n      swap3\n      swap2\n      swap1\n      tag_44\n      jump\t// in\n    tag_57:\n      mload(0x40)\n      0x20\n      dup2\n      dup4\n      sub\n      sub\n      dup2\n      mstore\n      swap1\n      0x40\n      mstore\n      and(not(0xffffffffffffffffffffffffffffffffffffffffffffffffffffffff), 0xa9059cbb00000000000000000000000000000000000000000000000000000000)\n      0x20\n      dup3\n      add\n      dup1\n      mload\n      0xffffffffffffffffffffffffffffffffffffffffffffffffffffffff\n      dup4\n      dup2\n      dup4\n      and\n      or\n      dup4\n      mstore\n      pop\n      pop\n      pop\n      pop\n        /* \"contracts/EVM-SubLessons/CallAnything.sol\":1122:1232  address(this).call(... */\n      mload(0x40)\n      tag_58\n      swap2\n      swap1\n      tag_49\n      jump\t// in\n    tag_58:\n      0x00\n      mload(0x40)\n      dup1\n      dup4\n      sub\n      dup2\n      0x00\n      dup7\n      gas\n      call\n      swap2\n      pop\n      pop\n      returndatasize\n      dup1\n      0x00\n      dup2\n      eq\n      tag_61\n      jumpi\n      mload(0x40)\n      swap2\n      pop\n      and(add(returndatasize, 0x3f), not(0x1f))\n      dup3\n      add\n      0x40\n      mstore\n      returndatasize\n      dup3\n      mstore\n      returndatasize\n      0x00\n      0x20\n      dup5\n      add\n      returndatacopy\n      jump(tag_60)\n    tag_61:\n      0x60\n      swap2\n      pop\n    tag_60:\n      pop\n        /* \"contracts/EVM-SubLessons/CallAnything.sol\":1086:1232  (bool success, bytes memory data) = address(this).call(... */\n      swap2\n      pop\n      swap2\n      pop\n        /* \"contracts/EVM-SubLessons/CallAnything.sol\":1258:1262  data */\n      dup1\n        /* \"contracts/EVM-SubLessons/CallAnything.sol\":1251:1263  bytes4(data) */\n      tag_62\n      swap1\n      tag_54\n      jump\t// in\n    tag_62:\n        /* \"contracts/EVM-SubLessons/CallAnything.sol\":1265:1272  success */\n      dup3\n        /* \"contracts/EVM-SubLessons/CallAnything.sol\":1243:1273  return (bytes4(data), success) */\n      swap4\n      pop\n      swap4\n      pop\n      pop\n      pop\n        /* \"contracts/EVM-SubLessons/CallAnything.sol\":973:1280  function callTransferFunctionDirectlyTwo(address _addr, uint256 _amount) public returns (bytes4, bool) {... */\n      swap3\n      pop\n      swap3\n      swap1\n      pop\n      jump\t// out\n        /* \"#utility.yul\":7:133   */\n    tag_63:\n        /* \"#utility.yul\":44:51   */\n      0x00\n        /* \"#utility.yul\":84:126   */\n      0xffffffffffffffffffffffffffffffffffffffff\n        /* \"#utility.yul\":77:82   */\n      dup3\n        /* \"#utility.yul\":73:127   */\n      and\n        /* \"#utility.yul\":62:127   */\n      swap1\n      pop\n        /* \"#utility.yul\":7:133   */\n      swap2\n      swap1\n      pop\n      jump\t// out\n        /* \"#utility.yul\":139:235   */\n    tag_64:\n        /* \"#utility.yul\":176:183   */\n      0x00\n        /* \"#utility.yul\":205:229   */\n      tag_92\n        /* \"#utility.yul\":223:228   */\n      dup3\n        /* \"#utility.yul\":205:229   */\n      tag_63\n      jump\t// in\n    tag_92:\n        /* \"#utility.yul\":194:229   */\n      swap1\n      pop\n        /* \"#utility.yul\":139:235   */\n      swap2\n      swap1\n      pop\n      jump\t// out\n        /* \"#utility.yul\":241:359   */\n    tag_65:\n        /* \"#utility.yul\":328:352   */\n      tag_94\n        /* \"#utility.yul\":346:351   */\n      dup2\n        /* \"#utility.yul\":328:352   */\n      tag_64\n      jump\t// in\n    tag_94:\n        /* \"#utility.yul\":323:326   */\n      dup3\n        /* \"#utility.yul\":316:353   */\n      mstore\n        /* \"#utility.yul\":241:359   */\n      pop\n      pop\n      jump\t// out\n        /* \"#utility.yul\":365:587   */\n    tag_14:\n        /* \"#utility.yul\":458:462   */\n      0x00\n        /* \"#utility.yul\":496:498   */\n      0x20\n        /* \"#utility.yul\":485:494   */\n      dup3\n        /* \"#utility.yul\":481:499   */\n      add\n        /* \"#utility.yul\":473:499   */\n      swap1\n      pop\n        /* \"#utility.yul\":509:580   */\n      tag_96\n        /* \"#utility.yul\":577:578   */\n      0x00\n        /* \"#utility.yul\":566:575   */\n      dup4\n        /* \"#utility.yul\":562:579   */\n      add\n        /* \"#utility.yul\":553:559   */\n      dup5\n        /* \"#utility.yul\":509:580   */\n      tag_65\n      jump\t// in\n    tag_96:\n        /* \"#utility.yul\":365:587   */\n      swap3\n      swap2\n      pop\n      pop\n      jump\t// out\n        /* \"#utility.yul\":674:791   */\n    tag_67:\n        /* \"#utility.yul\":783:784   */\n      0x00\n        /* \"#utility.yul\":780:781   */\n      dup1\n        /* \"#utility.yul\":773:785   */\n      revert\n        /* \"#utility.yul\":920:1042   */\n    tag_69:\n        /* \"#utility.yul\":993:1017   */\n      tag_101\n        /* \"#utility.yul\":1011:1016   */\n      dup2\n        /* \"#utility.yul\":993:1017   */\n      tag_64\n      jump\t// in\n    tag_101:\n        /* \"#utility.yul\":986:991   */\n      dup2\n        /* \"#utility.yul\":983:1018   */\n      eq\n        /* \"#utility.yul\":973:1036   */\n      tag_102\n      jumpi\n        /* \"#utility.yul\":1032:1033   */\n      0x00\n        /* \"#utility.yul\":1029:1030   */\n      dup1\n        /* \"#utility.yul\":1022:1034   */\n      revert\n        /* \"#utility.yul\":973:1036   */\n    tag_102:\n        /* \"#utility.yul\":920:1042   */\n      pop\n      jump\t// out\n        /* \"#utility.yul\":1048:1187   */\n    tag_70:\n        /* \"#utility.yul\":1094:1099   */\n      0x00\n        /* \"#utility.yul\":1132:1138   */\n      dup2\n        /* \"#utility.yul\":1119:1139   */\n      calldataload\n        /* \"#utility.yul\":1110:1139   */\n      swap1\n      pop\n        /* \"#utility.yul\":1148:1181   */\n      tag_104\n        /* \"#utility.yul\":1175:1180   */\n      dup2\n        /* \"#utility.yul\":1148:1181   */\n      tag_69\n      jump\t// in\n    tag_104:\n        /* \"#utility.yul\":1048:1187   */\n      swap3\n      swap2\n      pop\n      pop\n      jump\t// out\n        /* \"#utility.yul\":1193:1270   */\n    tag_71:\n        /* \"#utility.yul\":1230:1237   */\n      0x00\n        /* \"#utility.yul\":1259:1264   */\n      dup2\n        /* \"#utility.yul\":1248:1264   */\n      swap1\n      pop\n        /* \"#utility.yul\":1193:1270   */\n      swap2\n      swap1\n      pop\n      jump\t// out\n        /* \"#utility.yul\":1276:1398   */\n    tag_72:\n        /* \"#utility.yul\":1349:1373   */\n      tag_107\n        /* \"#utility.yul\":1367:1372   */\n      dup2\n        /* \"#utility.yul\":1349:1373   */\n      tag_71\n      jump\t// in\n    tag_107:\n        /* \"#utility.yul\":1342:1347   */\n      dup2\n        /* \"#utility.yul\":1339:1374   */\n      eq\n        /* \"#utility.yul\":1329:1392   */\n      tag_108\n      jumpi\n        /* \"#utility.yul\":1388:1389   */\n      0x00\n        /* \"#utility.yul\":1385:1386   */\n      dup1\n        /* \"#utility.yul\":1378:1390   */\n      revert\n        /* \"#utility.yul\":1329:1392   */\n    tag_108:\n        /* \"#utility.yul\":1276:1398   */\n      pop\n      jump\t// out\n        /* \"#utility.yul\":1404:1543   */\n    tag_73:\n        /* \"#utility.yul\":1450:1455   */\n      0x00\n        /* \"#utility.yul\":1488:1494   */\n      dup2\n        /* \"#utility.yul\":1475:1495   */\n      calldataload\n        /* \"#utility.yul\":1466:1495   */\n      swap1\n      pop\n        /* \"#utility.yul\":1504:1537   */\n      tag_110\n        /* \"#utility.yul\":1531:1536   */\n      dup2\n        /* \"#utility.yul\":1504:1537   */\n      tag_72\n      jump\t// in\n    tag_110:\n        /* \"#utility.yul\":1404:1543   */\n      swap3\n      swap2\n      pop\n      pop\n      jump\t// out\n        /* \"#utility.yul\":1549:2023   */\n    tag_17:\n        /* \"#utility.yul\":1617:1623   */\n      0x00\n        /* \"#utility.yul\":1625:1631   */\n      dup1\n        /* \"#utility.yul\":1674:1676   */\n      0x40\n        /* \"#utility.yul\":1662:1671   */\n      dup4\n        /* \"#utility.yul\":1653:1660   */\n      dup6\n        /* \"#utility.yul\":1649:1672   */\n      sub\n        /* \"#utility.yul\":1645:1677   */\n      slt\n        /* \"#utility.yul\":1642:1761   */\n      iszero\n      tag_112\n      jumpi\n        /* \"#utility.yul\":1680:1759   */\n      tag_113\n      tag_67\n      jump\t// in\n    tag_113:\n        /* \"#utility.yul\":1642:1761   */\n    tag_112:\n        /* \"#utility.yul\":1800:1801   */\n      0x00\n        /* \"#utility.yul\":1825:1878   */\n      tag_114\n        /* \"#utility.yul\":1870:1877   */\n      dup6\n        /* \"#utility.yul\":1861:1867   */\n      dup3\n        /* \"#utility.yul\":1850:1859   */\n      dup7\n        /* \"#utility.yul\":1846:1868   */\n      add\n        /* \"#utility.yul\":1825:1878   */\n      tag_70\n      jump\t// in\n    tag_114:\n        /* \"#utility.yul\":1815:1878   */\n      swap3\n      pop\n        /* \"#utility.yul\":1771:1888   */\n      pop\n        /* \"#utility.yul\":1927:1929   */\n      0x20\n        /* \"#utility.yul\":1953:2006   */\n      tag_115\n        /* \"#utility.yul\":1998:2005   */\n      dup6\n        /* \"#utility.yul\":1989:1995   */\n      dup3\n        /* \"#utility.yul\":1978:1987   */\n      dup7\n        /* \"#utility.yul\":1974:1996   */\n      add\n        /* \"#utility.yul\":1953:2006   */\n      tag_73\n      jump\t// in\n    tag_115:\n        /* \"#utility.yul\":1943:2006   */\n      swap2\n      pop\n        /* \"#utility.yul\":1898:2016   */\n      pop\n        /* \"#utility.yul\":1549:2023   */\n      swap3\n      pop\n      swap3\n      swap1\n      pop\n      jump\t// out\n        /* \"#utility.yul\":2029:2127   */\n    tag_74:\n        /* \"#utility.yul\":2080:2086   */\n      0x00\n        /* \"#utility.yul\":2114:2119   */\n      dup2\n        /* \"#utility.yul\":2108:2120   */\n      mload\n        /* \"#utility.yul\":2098:2120   */\n      swap1\n      pop\n        /* \"#utility.yul\":2029:2127   */\n      swap2\n      swap1\n      pop\n      jump\t// out\n        /* \"#utility.yul\":2133:2301   */\n    tag_75:\n        /* \"#utility.yul\":2216:2227   */\n      0x00\n        /* \"#utility.yul\":2250:2256   */\n      dup3\n        /* \"#utility.yul\":2245:2248   */\n      dup3\n        /* \"#utility.yul\":2238:2257   */\n      mstore\n        /* \"#utility.yul\":2290:2294   */\n      0x20\n        /* \"#utility.yul\":2285:2288   */\n      dup3\n        /* \"#utility.yul\":2281:2295   */\n      add\n        /* \"#utility.yul\":2266:2295   */\n      swap1\n      pop\n        /* \"#utility.yul\":2133:2301   */\n      swap3\n      swap2\n      pop\n      pop\n      jump\t// out\n        /* \"#utility.yul\":2307:2446   */\n    tag_76:\n        /* \"#utility.yul\":2396:2402   */\n      dup3\n        /* \"#utility.yul\":2391:2394   */\n      dup2\n        /* \"#utility.yul\":2386:2389   */\n      dup4\n        /* \"#utility.yul\":2380:2403   */\n      mcopy\n        /* \"#utility.yul\":2437:2438   */\n      0x00\n        /* \"#utility.yul\":2428:2434   */\n      dup4\n        /* \"#utility.yul\":2423:2426   */\n      dup4\n        /* \"#utility.yul\":2419:2435   */\n      add\n        /* \"#utility.yul\":2412:2439   */\n      mstore\n        /* \"#utility.yul\":2307:2446   */\n      pop\n      pop\n      pop\n      jump\t// out\n        /* \"#utility.yul\":2452:2554   */\n    tag_77:\n        /* \"#utility.yul\":2493:2499   */\n      0x00\n        /* \"#utility.yul\":2544:2546   */\n      0x1f\n        /* \"#utility.yul\":2540:2547   */\n      not\n        /* \"#utility.yul\":2535:2537   */\n      0x1f\n        /* \"#utility.yul\":2528:2533   */\n      dup4\n        /* \"#utility.yul\":2524:2538   */\n      add\n        /* \"#utility.yul\":2520:2548   */\n      and\n        /* \"#utility.yul\":2510:2548   */\n      swap1\n      pop\n        /* \"#utility.yul\":2452:2554   */\n      swap2\n      swap1\n      pop\n      jump\t// out\n        /* \"#utility.yul\":2560:2933   */\n    tag_78:\n        /* \"#utility.yul\":2646:2649   */\n      0x00\n        /* \"#utility.yul\":2674:2712   */\n      tag_121\n        /* \"#utility.yul\":2706:2711   */\n      dup3\n        /* \"#utility.yul\":2674:2712   */\n      tag_74\n      jump\t// in\n    tag_121:\n        /* \"#utility.yul\":2728:2798   */\n      tag_122\n        /* \"#utility.yul\":2791:2797   */\n      dup2\n        /* \"#utility.yul\":2786:2789   */\n      dup6\n        /* \"#utility.yul\":2728:2798   */\n      tag_75\n      jump\t// in\n    tag_122:\n        /* \"#utility.yul\":2721:2798   */\n      swap4\n      pop\n        /* \"#utility.yul\":2807:2872   */\n      tag_123\n        /* \"#utility.yul\":2865:2871   */\n      dup2\n        /* \"#utility.yul\":2860:2863   */\n      dup6\n        /* \"#utility.yul\":2853:2857   */\n      0x20\n        /* \"#utility.yul\":2846:2851   */\n      dup7\n        /* \"#utility.yul\":2842:2858   */\n      add\n        /* \"#utility.yul\":2807:2872   */\n      tag_76\n      jump\t// in\n    tag_123:\n        /* \"#utility.yul\":2897:2926   */\n      tag_124\n        /* \"#utility.yul\":2919:2925   */\n      dup2\n        /* \"#utility.yul\":2897:2926   */\n      tag_77\n      jump\t// in\n    tag_124:\n        /* \"#utility.yul\":2892:2895   */\n      dup5\n        /* \"#utility.yul\":2888:2927   */\n      add\n        /* \"#utility.yul\":2881:2927   */\n      swap2\n      pop\n        /* \"#utility.yul\":2650:2933   */\n      pop\n        /* \"#utility.yul\":2560:2933   */\n      swap3\n      swap2\n      pop\n      pop\n      jump\t// out\n        /* \"#utility.yul\":2939:3248   */\n    tag_20:\n        /* \"#utility.yul\":3050:3054   */\n      0x00\n        /* \"#utility.yul\":3088:3090   */\n      0x20\n        /* \"#utility.yul\":3077:3086   */\n      dup3\n        /* \"#utility.yul\":3073:3091   */\n      add\n        /* \"#utility.yul\":3065:3091   */\n      swap1\n      pop\n        /* \"#utility.yul\":3137:3146   */\n      dup2\n        /* \"#utility.yul\":3131:3135   */\n      dup2\n        /* \"#utility.yul\":3127:3147   */\n      sub\n        /* \"#utility.yul\":3123:3124   */\n      0x00\n        /* \"#utility.yul\":3112:3121   */\n      dup4\n        /* \"#utility.yul\":3108:3125   */\n      add\n        /* \"#utility.yul\":3101:3148   */\n      mstore\n        /* \"#utility.yul\":3165:3241   */\n      tag_126\n        /* \"#utility.yul\":3236:3240   */\n      dup2\n        /* \"#utility.yul\":3227:3233   */\n      dup5\n        /* \"#utility.yul\":3165:3241   */\n      tag_78\n      jump\t// in\n    tag_126:\n        /* \"#utility.yul\":3157:3241   */\n      swap1\n      pop\n        /* \"#utility.yul\":2939:3248   */\n      swap3\n      swap2\n      pop\n      pop\n      jump\t// out\n        /* \"#utility.yul\":3254:3403   */\n    tag_79:\n        /* \"#utility.yul\":3290:3297   */\n      0x00\n        /* \"#utility.yul\":3330:3396   */\n      0xffffffff00000000000000000000000000000000000000000000000000000000\n        /* \"#utility.yul\":3323:3328   */\n      dup3\n        /* \"#utility.yul\":3319:3397   */\n      and\n        /* \"#utility.yul\":3308:3397   */\n      swap1\n      pop\n        /* \"#utility.yul\":3254:3403   */\n      swap2\n      swap1\n      pop\n      jump\t// out\n        /* \"#utility.yul\":3409:3524   */\n    tag_80:\n        /* \"#utility.yul\":3494:3517   */\n      tag_129\n        /* \"#utility.yul\":3511:3516   */\n      dup2\n        /* \"#utility.yul\":3494:3517   */\n      tag_79\n      jump\t// in\n    tag_129:\n        /* \"#utility.yul\":3489:3492   */\n      dup3\n        /* \"#utility.yul\":3482:3518   */\n      mstore\n        /* \"#utility.yul\":3409:3524   */\n      pop\n      pop\n      jump\t// out\n        /* \"#utility.yul\":3530:3748   */\n    tag_24:\n        /* \"#utility.yul\":3621:3625   */\n      0x00\n        /* \"#utility.yul\":3659:3661   */\n      0x20\n        /* \"#utility.yul\":3648:3657   */\n      dup3\n        /* \"#utility.yul\":3644:3662   */\n      add\n        /* \"#utility.yul\":3636:3662   */\n      swap1\n      pop\n        /* \"#utility.yul\":3672:3741   */\n      tag_131\n        /* \"#utility.yul\":3738:3739   */\n      0x00\n        /* \"#utility.yul\":3727:3736   */\n      dup4\n        /* \"#utility.yul\":3723:3740   */\n      add\n        /* \"#utility.yul\":3714:3720   */\n      dup5\n        /* \"#utility.yul\":3672:3741   */\n      tag_80\n      jump\t// in\n    tag_131:\n        /* \"#utility.yul\":3530:3748   */\n      swap3\n      swap2\n      pop\n      pop\n      jump\t// out\n        /* \"#utility.yul\":3754:3844   */\n    tag_81:\n        /* \"#utility.yul\":3788:3795   */\n      0x00\n        /* \"#utility.yul\":3831:3836   */\n      dup2\n        /* \"#utility.yul\":3824:3837   */\n      iszero\n        /* \"#utility.yul\":3817:3838   */\n      iszero\n        /* \"#utility.yul\":3806:3838   */\n      swap1\n      pop\n        /* \"#utility.yul\":3754:3844   */\n      swap2\n      swap1\n      pop\n      jump\t// out\n        /* \"#utility.yul\":3850:3959   */\n    tag_82:\n        /* \"#utility.yul\":3931:3952   */\n      tag_134\n        /* \"#utility.yul\":3946:3951   */\n      dup2\n        /* \"#utility.yul\":3931:3952   */\n      tag_81\n      jump\t// in\n    tag_134:\n        /* \"#utility.yul\":3926:3929   */\n      dup3\n        /* \"#utility.yul\":3919:3953   */\n      mstore\n        /* \"#utility.yul\":3850:3959   */\n      pop\n      pop\n      jump\t// out\n        /* \"#utility.yul\":3965:4281   */\n    tag_29:\n        /* \"#utility.yul\":4078:4082   */\n      0x00\n        /* \"#utility.yul\":4116:4118   */\n      0x40\n        /* \"#utility.yul\":4105:4114   */\n      dup3\n        /* \"#utility.yul\":4101:4119   */\n      add\n        /* \"#utility.yul\":4093:4119   */\n      swap1\n      pop\n        /* \"#utility.yul\":4129:4198   */\n      tag_136\n        /* \"#utility.yul\":4195:4196   */\n      0x00\n        /* \"#utility.yul\":4184:4193   */\n      dup4\n        /* \"#utility.yul\":4180:4197   */\n      add\n        /* \"#utility.yul\":4171:4177   */\n      dup6\n        /* \"#utility.yul\":4129:4198   */\n      tag_80\n      jump\t// in\n    tag_136:\n        /* \"#utility.yul\":4208:4274   */\n      tag_137\n        /* \"#utility.yul\":4270:4272   */\n      0x20\n        /* \"#utility.yul\":4259:4268   */\n      dup4\n        /* \"#utility.yul\":4255:4273   */\n      add\n        /* \"#utility.yul\":4246:4252   */\n      dup5\n        /* \"#utility.yul\":4208:4274   */\n      tag_82\n      jump\t// in\n    tag_137:\n        /* \"#utility.yul\":3965:4281   */\n      swap4\n      swap3\n      pop\n      pop\n      pop\n      jump\t// out\n        /* \"#utility.yul\":4287:4405   */\n    tag_83:\n        /* \"#utility.yul\":4374:4398   */\n      tag_139\n        /* \"#utility.yul\":4392:4397   */\n      dup2\n        /* \"#utility.yul\":4374:4398   */\n      tag_71\n      jump\t// in\n    tag_139:\n        /* \"#utility.yul\":4369:4372   */\n      dup3\n        /* \"#utility.yul\":4362:4399   */\n      mstore\n        /* \"#utility.yul\":4287:4405   */\n      pop\n      pop\n      jump\t// out\n        /* \"#utility.yul\":4411:4633   */\n    tag_36:\n        /* \"#utility.yul\":4504:4508   */\n      0x00\n        /* \"#utility.yul\":4542:4544   */\n      0x20\n        /* \"#utility.yul\":4531:4540   */\n      dup3\n        /* \"#utility.yul\":4527:4545   */\n      add\n        /* \"#utility.yul\":4519:4545   */\n      swap1\n      pop\n        /* \"#utility.yul\":4555:4626   */\n      tag_141\n        /* \"#utility.yul\":4623:4624   */\n      0x00\n        /* \"#utility.yul\":4612:4621   */\n      dup4\n        /* \"#utility.yul\":4608:4625   */\n      add\n        /* \"#utility.yul\":4599:4605   */\n      dup5\n        /* \"#utility.yul\":4555:4626   */\n      tag_83\n      jump\t// in\n    tag_141:\n        /* \"#utility.yul\":4411:4633   */\n      swap3\n      swap2\n      pop\n      pop\n      jump\t// out\n        /* \"#utility.yul\":4639:4971   */\n    tag_44:\n        /* \"#utility.yul\":4760:4764   */\n      0x00\n        /* \"#utility.yul\":4798:4800   */\n      0x40\n        /* \"#utility.yul\":4787:4796   */\n      dup3\n        /* \"#utility.yul\":4783:4801   */\n      add\n        /* \"#utility.yul\":4775:4801   */\n      swap1\n      pop\n        /* \"#utility.yul\":4811:4882   */\n      tag_143\n        /* \"#utility.yul\":4879:4880   */\n      0x00\n        /* \"#utility.yul\":4868:4877   */\n      dup4\n        /* \"#utility.yul\":4864:4881   */\n      add\n        /* \"#utility.yul\":4855:4861   */\n      dup6\n        /* \"#utility.yul\":4811:4882   */\n      tag_65\n      jump\t// in\n    tag_143:\n        /* \"#utility.yul\":4892:4964   */\n      tag_144\n        /* \"#utility.yul\":4960:4962   */\n      0x20\n        /* \"#utility.yul\":4949:4958   */\n      dup4\n        /* \"#utility.yul\":4945:4963   */\n      add\n        /* \"#utility.yul\":4936:4942   */\n      dup5\n        /* \"#utility.yul\":4892:4964   */\n      tag_83\n      jump\t// in\n    tag_144:\n        /* \"#utility.yul\":4639:4971   */\n      swap4\n      swap3\n      pop\n      pop\n      pop\n      jump\t// out\n        /* \"#utility.yul\":4977:5124   */\n    tag_84:\n        /* \"#utility.yul\":5078:5089   */\n      0x00\n        /* \"#utility.yul\":5115:5118   */\n      dup2\n        /* \"#utility.yul\":5100:5118   */\n      swap1\n      pop\n        /* \"#utility.yul\":4977:5124   */\n      swap3\n      swap2\n      pop\n      pop\n      jump\t// out\n        /* \"#utility.yul\":5130:5516   */\n    tag_85:\n        /* \"#utility.yul\":5234:5237   */\n      0x00\n        /* \"#utility.yul\":5262:5300   */\n      tag_147\n        /* \"#utility.yul\":5294:5299   */\n      dup3\n        /* \"#utility.yul\":5262:5300   */\n      tag_74\n      jump\t// in\n    tag_147:\n        /* \"#utility.yul\":5316:5404   */\n      tag_148\n        /* \"#utility.yul\":5397:5403   */\n      dup2\n        /* \"#utility.yul\":5392:5395   */\n      dup6\n        /* \"#utility.yul\":5316:5404   */\n      tag_84\n      jump\t// in\n    tag_148:\n        /* \"#utility.yul\":5309:5404   */\n      swap4\n      pop\n        /* \"#utility.yul\":5413:5478   */\n      tag_149\n        /* \"#utility.yul\":5471:5477   */\n      dup2\n        /* \"#utility.yul\":5466:5469   */\n      dup6\n        /* \"#utility.yul\":5459:5463   */\n      0x20\n        /* \"#utility.yul\":5452:5457   */\n      dup7\n        /* \"#utility.yul\":5448:5464   */\n      add\n        /* \"#utility.yul\":5413:5478   */\n      tag_76\n      jump\t// in\n    tag_149:\n        /* \"#utility.yul\":5503:5509   */\n      dup1\n        /* \"#utility.yul\":5498:5501   */\n      dup5\n        /* \"#utility.yul\":5494:5510   */\n      add\n        /* \"#utility.yul\":5487:5510   */\n      swap2\n      pop\n        /* \"#utility.yul\":5238:5516   */\n      pop\n        /* \"#utility.yul\":5130:5516   */\n      swap3\n      swap2\n      pop\n      pop\n      jump\t// out\n        /* \"#utility.yul\":5522:5793   */\n    tag_49:\n        /* \"#utility.yul\":5652:5655   */\n      0x00\n        /* \"#utility.yul\":5674:5767   */\n      tag_151\n        /* \"#utility.yul\":5763:5766   */\n      dup3\n        /* \"#utility.yul\":5754:5760   */\n      dup5\n        /* \"#utility.yul\":5674:5767   */\n      tag_85\n      jump\t// in\n    tag_151:\n        /* \"#utility.yul\":5667:5767   */\n      swap2\n      pop\n        /* \"#utility.yul\":5784:5787   */\n      dup2\n        /* \"#utility.yul\":5777:5787   */\n      swap1\n      pop\n        /* \"#utility.yul\":5522:5793   */\n      swap3\n      swap2\n      pop\n      pop\n      jump\t// out\n        /* \"#utility.yul\":5799:5915   */\n    tag_86:\n        /* \"#utility.yul\":5850:5854   */\n      0x00\n        /* \"#utility.yul\":5873:5876   */\n      dup2\n        /* \"#utility.yul\":5865:5876   */\n      swap1\n      pop\n        /* \"#utility.yul\":5903:5907   */\n      0x20\n        /* \"#utility.yul\":5898:5901   */\n      dup3\n        /* \"#utility.yul\":5894:5908   */\n      add\n        /* \"#utility.yul\":5886:5908   */\n      swap1\n      pop\n        /* \"#utility.yul\":5799:5915   */\n      swap2\n      swap1\n      pop\n      jump\t// out\n        /* \"#utility.yul\":5921:6073   */\n    tag_87:\n        /* \"#utility.yul\":5963:5974   */\n      0x00\n        /* \"#utility.yul\":5999:6027   */\n      tag_154\n        /* \"#utility.yul\":6022:6025   */\n      dup3\n        /* \"#utility.yul\":6016:6026   */\n      mload\n        /* \"#utility.yul\":5999:6027   */\n      tag_79\n      jump\t// in\n    tag_154:\n        /* \"#utility.yul\":6061:6066   */\n      dup1\n        /* \"#utility.yul\":6037:6066   */\n      swap2\n      pop\n        /* \"#utility.yul\":5975:6073   */\n      pop\n        /* \"#utility.yul\":5921:6073   */\n      swap2\n      swap1\n      pop\n      jump\t// out\n        /* \"#utility.yul\":6079:6186   */\n    tag_88:\n        /* \"#utility.yul\":6123:6131   */\n      0x00\n        /* \"#utility.yul\":6173:6178   */\n      dup3\n        /* \"#utility.yul\":6167:6171   */\n      dup3\n        /* \"#utility.yul\":6163:6179   */\n      shl\n        /* \"#utility.yul\":6142:6179   */\n      swap1\n      pop\n        /* \"#utility.yul\":6079:6186   */\n      swap3\n      swap2\n      pop\n      pop\n      jump\t// out\n        /* \"#utility.yul\":6192:6782   */\n    tag_54:\n        /* \"#utility.yul\":6275:6280   */\n      0x00\n        /* \"#utility.yul\":6306:6344   */\n      tag_157\n        /* \"#utility.yul\":6338:6343   */\n      dup3\n        /* \"#utility.yul\":6306:6344   */\n      tag_74\n      jump\t// in\n    tag_157:\n        /* \"#utility.yul\":6369:6374   */\n      dup3\n        /* \"#utility.yul\":6396:6436   */\n      tag_158\n        /* \"#utility.yul\":6430:6435   */\n      dup5\n        /* \"#utility.yul\":6396:6436   */\n      tag_86\n      jump\t// in\n    tag_158:\n        /* \"#utility.yul\":6384:6436   */\n      swap1\n      pop\n        /* \"#utility.yul\":6455:6489   */\n      tag_159\n        /* \"#utility.yul\":6480:6488   */\n      dup2\n        /* \"#utility.yul\":6455:6489   */\n      tag_87\n      jump\t// in\n    tag_159:\n        /* \"#utility.yul\":6446:6489   */\n      swap3\n      pop\n        /* \"#utility.yul\":6513:6514   */\n      0x04\n        /* \"#utility.yul\":6505:6511   */\n      dup3\n        /* \"#utility.yul\":6502:6515   */\n      lt\n        /* \"#utility.yul\":6499:6775   */\n      iszero\n      tag_160\n      jumpi\n        /* \"#utility.yul\":6583:6751   */\n      tag_161\n        /* \"#utility.yul\":6667:6733   */\n      0xffffffff00000000000000000000000000000000000000000000000000000000\n        /* \"#utility.yul\":6637:6643   */\n      dup4\n        /* \"#utility.yul\":6634:6635   */\n      0x04\n        /* \"#utility.yul\":6630:6644   */\n      sub\n        /* \"#utility.yul\":6627:6628   */\n      0x08\n        /* \"#utility.yul\":6623:6645   */\n      mul\n        /* \"#utility.yul\":6583:6751   */\n      tag_88\n      jump\t// in\n    tag_161:\n        /* \"#utility.yul\":6560:6565   */\n      dup4\n        /* \"#utility.yul\":6539:6765   */\n      and\n        /* \"#utility.yul\":6530:6765   */\n      swap3\n      pop\n        /* \"#utility.yul\":6499:6775   */\n    tag_160:\n        /* \"#utility.yul\":6281:6782   */\n      pop\n      pop\n        /* \"#utility.yul\":6192:6782   */\n      swap2\n      swap1\n      pop\n      jump\t// out\n\n    auxdata: 0xa2646970667358221220e4b012af299c60affe02308eca46a74e2415074e75375fa65ac71a05d31d8a5b64736f6c634300081a0033\n}\n",
				"bytecode": {
					"linkReferences": {},
					"object": "6080604052348015600e575f80fd5b506107e48061001c5f395ff3fe608060405234801561000f575f80fd5b506004361061007b575f3560e01c8063a5694e4a11610059578063a5694e4a146100eb578063a9059cbb1461011c578063aa8c217c14610138578063b20d9446146101565761007b565b8063767800de1461007f5780637c0c5f231461009d5780639a41d3ad146100cd575b5f80fd5b610087610187565b604051610094919061049e565b60405180910390f35b6100b760048036038101906100b29190610518565b6101aa565b6040516100c491906105c6565b60405180910390f35b6100d561022c565b6040516100e29190610620565b60405180910390f35b61010560048036038101906101009190610518565b61026f565b604051610113929190610653565b60405180910390f35b61013660048036038101906101319190610518565b6102fc565b005b610140610346565b60405161014d9190610689565b60405180910390f35b610170600480360381019061016b9190610518565b61034c565b60405161017e929190610653565b60405180910390f35b5f8054906101000a900473ffffffffffffffffffffffffffffffffffffffff1681565b60606101b461022c565b83836040516024016101c79291906106a2565b604051602081830303815290604052907bffffffffffffffffffffffffffffffffffffffffffffffffffffffff19166020820180517bffffffffffffffffffffffffffffffffffffffffffffffffffffffff8381831617835250505050905092915050565b5f6040518060400160405280601981526020017f7472616e7366657228616464726573732c75696e74323536290000000000000081525080519060200120905090565b5f805f803073ffffffffffffffffffffffffffffffffffffffff1661029487876101aa565b6040516102a19190610703565b5f604051808303815f865af19150503d805f81146102da576040519150601f19603f3d011682016040523d82523d5f602084013e6102df565b606091505b5091509150806102ee90610748565b829350935050509250929050565b815f806101000a81548173ffffffffffffffffffffffffffffffffffffffff021916908373ffffffffffffffffffffffffffffffffffffffff160217905550806001819055505050565b60015481565b5f805f803073ffffffffffffffffffffffffffffffffffffffff16868660405160240161037a9291906106a2565b6040516020818303038152906040527fa9059cbb000000000000000000000000000000000000000000000000000000007bffffffffffffffffffffffffffffffffffffffffffffffffffffffff19166020820180517bffffffffffffffffffffffffffffffffffffffffffffffffffffffff83818316178352505050506040516104049190610703565b5f604051808303815f865af19150503d805f811461043d576040519150601f19603f3d011682016040523d82523d5f602084013e610442565b606091505b50915091508061045190610748565b829350935050509250929050565b5f73ffffffffffffffffffffffffffffffffffffffff82169050919050565b5f6104888261045f565b9050919050565b6104988161047e565b82525050565b5f6020820190506104b15f83018461048f565b92915050565b5f80fd5b6104c48161047e565b81146104ce575f80fd5b50565b5f813590506104df816104bb565b92915050565b5f819050919050565b6104f7816104e5565b8114610501575f80fd5b50565b5f81359050610512816104ee565b92915050565b5f806040838503121561052e5761052d6104b7565b5b5f61053b858286016104d1565b925050602061054c85828601610504565b9150509250929050565b5f81519050919050565b5f82825260208201905092915050565b8281835e5f83830152505050565b5f601f19601f8301169050919050565b5f61059882610556565b6105a28185610560565b93506105b2818560208601610570565b6105bb8161057e565b840191505092915050565b5f6020820190508181035f8301526105de818461058e565b905092915050565b5f7fffffffff0000000000000000000000000000000000000000000000000000000082169050919050565b61061a816105e6565b82525050565b5f6020820190506106335f830184610611565b92915050565b5f8115159050919050565b61064d81610639565b82525050565b5f6040820190506106665f830185610611565b6106736020830184610644565b9392505050565b610683816104e5565b82525050565b5f60208201905061069c5f83018461067a565b92915050565b5f6040820190506106b55f83018561048f565b6106c2602083018461067a565b9392505050565b5f81905092915050565b5f6106dd82610556565b6106e781856106c9565b93506106f7818560208601610570565b80840191505092915050565b5f61070e82846106d3565b915081905092915050565b5f819050602082019050919050565b5f61073382516105e6565b80915050919050565b5f82821b905092915050565b5f61075282610556565b8261075c84610719565b905061076781610728565b925060048210156107a7576107a27fffffffff000000000000000000000000000000000000000000000000000000008360040360080261073c565b831692505b505091905056fea2646970667358221220e4b012af299c60affe02308eca46a74e2415074e75375fa65ac71a05d31d8a5b64736f6c634300081a0033",
					"opcodes": "PUSH1 0x80 PUSH1 0x40 MSTORE CALLVALUE DUP1 ISZERO PUSH1 0xE JUMPI PUSH0 DUP1 REVERT JUMPDEST POP PUSH2 0x7E4 DUP1 PUSH2 0x1C PUSH0 CODECOPY PUSH0 RETURN INVALID PUSH1 0x80 PUSH1 0x40 MSTORE CALLVALUE DUP1 ISZERO PUSH2 0xF JUMPI PUSH0 DUP1 REVERT JUMPDEST POP PUSH1 0x4 CALLDATASIZE LT PUSH2 0x7B JUMPI PUSH0 CALLDATALOAD PUSH1 0xE0 SHR DUP1 PUSH4 0xA5694E4A GT PUSH2 0x59 JUMPI DUP1 PUSH4 0xA5694E4A EQ PUSH2 0xEB JUMPI DUP1 PUSH4 0xA9059CBB EQ PUSH2 0x11C JUMPI DUP1 PUSH4 0xAA8C217C EQ PUSH2 0x138 JUMPI DUP1 PUSH4 0xB20D9446 EQ PUSH2 0x156 JUMPI PUSH2 0x7B JUMP JUMPDEST DUP1 PUSH4 0x767800DE EQ PUSH2 0x7F JUMPI DUP1 PUSH4 0x7C0C5F23 EQ PUSH2 0x9D JUMPI DUP1 PUSH4 0x9A41D3AD EQ PUSH2 0xCD JUMPI JUMPDEST PUSH0 DUP1 REVERT JUMPDEST PUSH2 0x87 PUSH2 0x187 JUMP JUMPDEST PUSH1 0x40 MLOAD PUSH2 0x94 SWAP2 SWAP1 PUSH2 0x49E JUMP JUMPDEST PUSH1 0x40 MLOAD DUP1 SWAP2 SUB SWAP1 RETURN JUMPDEST PUSH2 0xB7 PUSH1 0x4 DUP1 CALLDATASIZE SUB DUP2 ADD SWAP1 PUSH2 0xB2 SWAP2 SWAP1 PUSH2 0x518 JUMP JUMPDEST PUSH2 0x1AA JUMP JUMPDEST PUSH1 0x40 MLOAD PUSH2 0xC4 SWAP2 SWAP1 PUSH2 0x5C6 JUMP JUMPDEST PUSH1 0x40 MLOAD DUP1 SWAP2 SUB SWAP1 RETURN JUMPDEST PUSH2 0xD5 PUSH2 0x22C JUMP JUMPDEST PUSH1 0x40 MLOAD PUSH2 0xE2 SWAP2 SWAP1 PUSH2 0x620 JUMP JUMPDEST PUSH1 0x40 MLOAD DUP1 SWAP2 SUB SWAP1 RETURN JUMPDEST PUSH2 0x105 PUSH1 0x4 DUP1 CALLDATASIZE SUB DUP2 ADD SWAP1 PUSH2 0x100 SWAP2 SWAP1 PUSH2 0x518 JUMP JUMPDEST PUSH2 0x26F JUMP JUMPDEST PUSH1 0x40 MLOAD PUSH2 0x113 SWAP3 SWAP2 SWAP1 PUSH2 0x653 JUMP JUMPDEST PUSH1 0x40 MLOAD DUP1 SWAP2 SUB SWAP1 RETURN JUMPDEST PUSH2 0x136 PUSH1 0x4 DUP1 CALLDATASIZE SUB DUP2 ADD SWAP1 PUSH2 0x131 SWAP2 SWAP1 PUSH2 0x518 JUMP JUMPDEST PUSH2 0x2FC JUMP JUMPDEST STOP JUMPDEST PUSH2 0x140 PUSH2 0x346 JUMP JUMPDEST PUSH1 0x40 MLOAD PUSH2 0x14D SWAP2 SWAP1 PUSH2 0x689 JUMP JUMPDEST PUSH1 0x40 MLOAD DUP1 SWAP2 SUB SWAP1 RETURN JUMPDEST PUSH2 0x170 PUSH1 0x4 DUP1 CALLDATASIZE SUB DUP2 ADD SWAP1 PUSH2 0x16B SWAP2 SWAP1 PUSH2 0x518 JUMP JUMPDEST PUSH2 0x34C JUMP JUMPDEST PUSH1 0x40 MLOAD PUSH2 0x17E SWAP3 SWAP2 SWAP1 PUSH2 0x653 JUMP JUMPDEST PUSH1 0x40 MLOAD DUP1 SWAP2 SUB SWAP1 RETURN JUMPDEST PUSH0 DUP1 SLOAD SWAP1 PUSH2 0x100 EXP SWAP1 DIV PUSH20 0xFFFFFFFFFFFFFFFFFFFFFFFFFFFFFFFFFFFFFFFF AND DUP2 JUMP JUMPDEST PUSH1 0x60 PUSH2 0x1B4 PUSH2 0x22C JUMP JUMPDEST DUP4 DUP4 PUSH1 0x40 MLOAD PUSH1 0x24 ADD PUSH2 0x1C7 SWAP3 SWAP2 SWAP1 PUSH2 0x6A2 JUMP JUMPDEST PUSH1 0x40 MLOAD PUSH1 0x20 DUP2 DUP4 SUB SUB DUP2 MSTORE SWAP1 PUSH1 0x40 MSTORE SWAP1 PUSH28 0xFFFFFFFFFFFFFFFFFFFFFFFFFFFFFFFFFFFFFFFFFFFFFFFFFFFFFFFF NOT AND PUSH1 0x20 DUP3 ADD DUP1 MLOAD PUSH28 0xFFFFFFFFFFFFFFFFFFFFFFFFFFFFFFFFFFFFFFFFFFFFFFFFFFFFFFFF DUP4 DUP2 DUP4 AND OR DUP4 MSTORE POP POP POP POP SWAP1 POP SWAP3 SWAP2 POP POP JUMP JUMPDEST PUSH0 PUSH1 0x40 MLOAD DUP1 PUSH1 0x40 ADD PUSH1 0x40 MSTORE DUP1 PUSH1 0x19 DUP2 MSTORE PUSH1 0x20 ADD PUSH32 0x7472616E7366657228616464726573732C75696E743235362900000000000000 DUP2 MSTORE POP DUP1 MLOAD SWAP1 PUSH1 0x20 ADD KECCAK256 SWAP1 POP SWAP1 JUMP JUMPDEST PUSH0 DUP1 PUSH0 DUP1 ADDRESS PUSH20 0xFFFFFFFFFFFFFFFFFFFFFFFFFFFFFFFFFFFFFFFF AND PUSH2 0x294 DUP8 DUP8 PUSH2 0x1AA JUMP JUMPDEST PUSH1 0x40 MLOAD PUSH2 0x2A1 SWAP2 SWAP1 PUSH2 0x703 JUMP JUMPDEST PUSH0 PUSH1 0x40 MLOAD DUP1 DUP4 SUB DUP2 PUSH0 DUP7 GAS CALL SWAP2 POP POP RETURNDATASIZE DUP1 PUSH0 DUP2 EQ PUSH2 0x2DA JUMPI PUSH1 0x40 MLOAD SWAP2 POP PUSH1 0x1F NOT PUSH1 0x3F RETURNDATASIZE ADD AND DUP3 ADD PUSH1 0x40 MSTORE RETURNDATASIZE DUP3 MSTORE RETURNDATASIZE PUSH0 PUSH1 0x20 DUP5 ADD RETURNDATACOPY PUSH2 0x2DF JUMP JUMPDEST PUSH1 0x60 SWAP2 POP JUMPDEST POP SWAP2 POP SWAP2 POP DUP1 PUSH2 0x2EE SWAP1 PUSH2 0x748 JUMP JUMPDEST DUP3 SWAP4 POP SWAP4 POP POP POP SWAP3 POP SWAP3 SWAP1 POP JUMP JUMPDEST DUP2 PUSH0 DUP1 PUSH2 0x100 EXP DUP2 SLOAD DUP2 PUSH20 0xFFFFFFFFFFFFFFFFFFFFFFFFFFFFFFFFFFFFFFFF MUL NOT AND SWAP1 DUP4 PUSH20 0xFFFFFFFFFFFFFFFFFFFFFFFFFFFFFFFFFFFFFFFF AND MUL OR SWAP1 SSTORE POP DUP1 PUSH1 0x1 DUP2 SWAP1 SSTORE POP POP POP JUMP JUMPDEST PUSH1 0x1 SLOAD DUP2 JUMP JUMPDEST PUSH0 DUP1 PUSH0 DUP1 ADDRESS PUSH20 0xFFFFFFFFFFFFFFFFFFFFFFFFFFFFFFFFFFFFFFFF AND DUP7 DUP7 PUSH1 0x40 MLOAD PUSH1 0x24 ADD PUSH2 0x37A SWAP3 SWAP2 SWAP1 PUSH2 0x6A2 JUMP JUMPDEST PUSH1 0x40 MLOAD PUSH1 0x20 DUP2 DUP4 SUB SUB DUP2 MSTORE SWAP1 PUSH1 0x40 MSTORE PUSH32 0xA9059CBB00000000000000000000000000000000000000000000000000000000 PUSH28 0xFFFFFFFFFFFFFFFFFFFFFFFFFFFFFFFFFFFFFFFFFFFFFFFFFFFFFFFF NOT AND PUSH1 0x20 DUP3 ADD DUP1 MLOAD PUSH28 0xFFFFFFFFFFFFFFFFFFFFFFFFFFFFFFFFFFFFFFFFFFFFFFFFFFFFFFFF DUP4 DUP2 DUP4 AND OR DUP4 MSTORE POP POP POP POP PUSH1 0x40 MLOAD PUSH2 0x404 SWAP2 SWAP1 PUSH2 0x703 JUMP JUMPDEST PUSH0 PUSH1 0x40 MLOAD DUP1 DUP4 SUB DUP2 PUSH0 DUP7 GAS CALL SWAP2 POP POP RETURNDATASIZE DUP1 PUSH0 DUP2 EQ PUSH2 0x43D JUMPI PUSH1 0x40 MLOAD SWAP2 POP PUSH1 0x1F NOT PUSH1 0x3F RETURNDATASIZE ADD AND DUP3 ADD PUSH1 0x40 MSTORE RETURNDATASIZE DUP3 MSTORE RETURNDATASIZE PUSH0 PUSH1 0x20 DUP5 ADD RETURNDATACOPY PUSH2 0x442 JUMP JUMPDEST PUSH1 0x60 SWAP2 POP JUMPDEST POP SWAP2 POP SWAP2 POP DUP1 PUSH2 0x451 SWAP1 PUSH2 0x748 JUMP JUMPDEST DUP3 SWAP4 POP SWAP4 POP POP POP SWAP3 POP SWAP3 SWAP1 POP JUMP JUMPDEST PUSH0 PUSH20 0xFFFFFFFFFFFFFFFFFFFFFFFFFFFFFFFFFFFFFFFF DUP3 AND SWAP1 POP SWAP2 SWAP1 POP JUMP JUMPDEST PUSH0 PUSH2 0x488 DUP3 PUSH2 0x45F JUMP JUMPDEST SWAP1 POP SWAP2 SWAP1 POP JUMP JUMPDEST PUSH2 0x498 DUP2 PUSH2 0x47E JUMP JUMPDEST DUP3 MSTORE POP POP JUMP JUMPDEST PUSH0 PUSH1 0x20 DUP3 ADD SWAP1 POP PUSH2 0x4B1 PUSH0 DUP4 ADD DUP5 PUSH2 0x48F JUMP JUMPDEST SWAP3 SWAP2 POP POP JUMP JUMPDEST PUSH0 DUP1 REVERT JUMPDEST PUSH2 0x4C4 DUP2 PUSH2 0x47E JUMP JUMPDEST DUP2 EQ PUSH2 0x4CE JUMPI PUSH0 DUP1 REVERT JUMPDEST POP JUMP JUMPDEST PUSH0 DUP2 CALLDATALOAD SWAP1 POP PUSH2 0x4DF DUP2 PUSH2 0x4BB JUMP JUMPDEST SWAP3 SWAP2 POP POP JUMP JUMPDEST PUSH0 DUP2 SWAP1 POP SWAP2 SWAP1 POP JUMP JUMPDEST PUSH2 0x4F7 DUP2 PUSH2 0x4E5 JUMP JUMPDEST DUP2 EQ PUSH2 0x501 JUMPI PUSH0 DUP1 REVERT JUMPDEST POP JUMP JUMPDEST PUSH0 DUP2 CALLDATALOAD SWAP1 POP PUSH2 0x512 DUP2 PUSH2 0x4EE JUMP JUMPDEST SWAP3 SWAP2 POP POP JUMP JUMPDEST PUSH0 DUP1 PUSH1 0x40 DUP4 DUP6 SUB SLT ISZERO PUSH2 0x52E JUMPI PUSH2 0x52D PUSH2 0x4B7 JUMP JUMPDEST JUMPDEST PUSH0 PUSH2 0x53B DUP6 DUP3 DUP7 ADD PUSH2 0x4D1 JUMP JUMPDEST SWAP3 POP POP PUSH1 0x20 PUSH2 0x54C DUP6 DUP3 DUP7 ADD PUSH2 0x504 JUMP JUMPDEST SWAP2 POP POP SWAP3 POP SWAP3 SWAP1 POP JUMP JUMPDEST PUSH0 DUP2 MLOAD SWAP1 POP SWAP2 SWAP1 POP JUMP JUMPDEST PUSH0 DUP3 DUP3 MSTORE PUSH1 0x20 DUP3 ADD SWAP1 POP SWAP3 SWAP2 POP POP JUMP JUMPDEST DUP3 DUP2 DUP4 MCOPY PUSH0 DUP4 DUP4 ADD MSTORE POP POP POP JUMP JUMPDEST PUSH0 PUSH1 0x1F NOT PUSH1 0x1F DUP4 ADD AND SWAP1 POP SWAP2 SWAP1 POP JUMP JUMPDEST PUSH0 PUSH2 0x598 DUP3 PUSH2 0x556 JUMP JUMPDEST PUSH2 0x5A2 DUP2 DUP6 PUSH2 0x560 JUMP JUMPDEST SWAP4 POP PUSH2 0x5B2 DUP2 DUP6 PUSH1 0x20 DUP7 ADD PUSH2 0x570 JUMP JUMPDEST PUSH2 0x5BB DUP2 PUSH2 0x57E JUMP JUMPDEST DUP5 ADD SWAP2 POP POP SWAP3 SWAP2 POP POP JUMP JUMPDEST PUSH0 PUSH1 0x20 DUP3 ADD SWAP1 POP DUP2 DUP2 SUB PUSH0 DUP4 ADD MSTORE PUSH2 0x5DE DUP2 DUP5 PUSH2 0x58E JUMP JUMPDEST SWAP1 POP SWAP3 SWAP2 POP POP JUMP JUMPDEST PUSH0 PUSH32 0xFFFFFFFF00000000000000000000000000000000000000000000000000000000 DUP3 AND SWAP1 POP SWAP2 SWAP1 POP JUMP JUMPDEST PUSH2 0x61A DUP2 PUSH2 0x5E6 JUMP JUMPDEST DUP3 MSTORE POP POP JUMP JUMPDEST PUSH0 PUSH1 0x20 DUP3 ADD SWAP1 POP PUSH2 0x633 PUSH0 DUP4 ADD DUP5 PUSH2 0x611 JUMP JUMPDEST SWAP3 SWAP2 POP POP JUMP JUMPDEST PUSH0 DUP2 ISZERO ISZERO SWAP1 POP SWAP2 SWAP1 POP JUMP JUMPDEST PUSH2 0x64D DUP2 PUSH2 0x639 JUMP JUMPDEST DUP3 MSTORE POP POP JUMP JUMPDEST PUSH0 PUSH1 0x40 DUP3 ADD SWAP1 POP PUSH2 0x666 PUSH0 DUP4 ADD DUP6 PUSH2 0x611 JUMP JUMPDEST PUSH2 0x673 PUSH1 0x20 DUP4 ADD DUP5 PUSH2 0x644 JUMP JUMPDEST SWAP4 SWAP3 POP POP POP JUMP JUMPDEST PUSH2 0x683 DUP2 PUSH2 0x4E5 JUMP JUMPDEST DUP3 MSTORE POP POP JUMP JUMPDEST PUSH0 PUSH1 0x20 DUP3 ADD SWAP1 POP PUSH2 0x69C PUSH0 DUP4 ADD DUP5 PUSH2 0x67A JUMP JUMPDEST SWAP3 SWAP2 POP POP JUMP JUMPDEST PUSH0 PUSH1 0x40 DUP3 ADD SWAP1 POP PUSH2 0x6B5 PUSH0 DUP4 ADD DUP6 PUSH2 0x48F JUMP JUMPDEST PUSH2 0x6C2 PUSH1 0x20 DUP4 ADD DUP5 PUSH2 0x67A JUMP JUMPDEST SWAP4 SWAP3 POP POP POP JUMP JUMPDEST PUSH0 DUP2 SWAP1 POP SWAP3 SWAP2 POP POP JUMP JUMPDEST PUSH0 PUSH2 0x6DD DUP3 PUSH2 0x556 JUMP JUMPDEST PUSH2 0x6E7 DUP2 DUP6 PUSH2 0x6C9 JUMP JUMPDEST SWAP4 POP PUSH2 0x6F7 DUP2 DUP6 PUSH1 0x20 DUP7 ADD PUSH2 0x570 JUMP JUMPDEST DUP1 DUP5 ADD SWAP2 POP POP SWAP3 SWAP2 POP POP JUMP JUMPDEST PUSH0 PUSH2 0x70E DUP3 DUP5 PUSH2 0x6D3 JUMP JUMPDEST SWAP2 POP DUP2 SWAP1 POP SWAP3 SWAP2 POP POP JUMP JUMPDEST PUSH0 DUP2 SWAP1 POP PUSH1 0x20 DUP3 ADD SWAP1 POP SWAP2 SWAP1 POP JUMP JUMPDEST PUSH0 PUSH2 0x733 DUP3 MLOAD PUSH2 0x5E6 JUMP JUMPDEST DUP1 SWAP2 POP POP SWAP2 SWAP1 POP JUMP JUMPDEST PUSH0 DUP3 DUP3 SHL SWAP1 POP SWAP3 SWAP2 POP POP JUMP JUMPDEST PUSH0 PUSH2 0x752 DUP3 PUSH2 0x556 JUMP JUMPDEST DUP3 PUSH2 0x75C DUP5 PUSH2 0x719 JUMP JUMPDEST SWAP1 POP PUSH2 0x767 DUP2 PUSH2 0x728 JUMP JUMPDEST SWAP3 POP PUSH1 0x4 DUP3 LT ISZERO PUSH2 0x7A7 JUMPI PUSH2 0x7A2 PUSH32 0xFFFFFFFF00000000000000000000000000000000000000000000000000000000 DUP4 PUSH1 0x4 SUB PUSH1 0x8 MUL PUSH2 0x73C JUMP JUMPDEST DUP4 AND SWAP3 POP JUMPDEST POP POP SWAP2 SWAP1 POP JUMP INVALID LOG2 PUSH5 0x6970667358 0x22 SLT KECCAK256 0xE4 0xB0 SLT 0xAF 0x29 SWAP13 PUSH1 0xAF INVALID MUL ADDRESS DUP15 0xCA CHAINID 0xA7 0x4E 0x24 ISZERO SMOD 0x4E PUSH22 0x375FA65AC71A05D31D8A5B64736F6C634300081A0033 "
				},
				"gasEstimates": {
					"creation": {
						"codeDepositCost": "404000",
						"executionCost": "441",
						"totalCost": "404441"
					},
					"external": {
						"addr()": "2506",
						"amount()": "2469",
						"callTransferFunctionDirectly(address,uint256)": "infinite",
						"callTransferFunctionDirectlyTwo(address,uint256)": "infinite",
						"getDataToCallTransfer(address,uint256)": "infinite",
						"getSelectorOne()": "487",
						"transfer(address,uint256)": "47022"
					}
				},
				"methodIdentifiers": {
					"addr()": "767800de",
					"amount()": "aa8c217c",
					"callTransferFunctionDirectly(address,uint256)": "a5694e4a",
					"callTransferFunctionDirectlyTwo(address,uint256)": "b20d9446",
					"getDataToCallTransfer(address,uint256)": "7c0c5f23",
					"getSelectorOne()": "9a41d3ad",
					"transfer(address,uint256)": "a9059cbb"
				}
			},
			"storageLayout": {
				"storage": [
					{
						"astId": 3,
						"contract": "contracts/EVM-SubLessons/CallAnything.sol:CallAnything",
						"label": "addr",
						"offset": 0,
						"slot": "0",
						"type": "t_address"
					},
					{
						"astId": 5,
						"contract": "contracts/EVM-SubLessons/CallAnything.sol:CallAnything",
						"label": "amount",
						"offset": 0,
						"slot": "1",
						"type": "t_uint256"
					}
				],
				"types": {
					"t_address": {
						"encoding": "inplace",
						"label": "address",
						"numberOfBytes": "20"
					},
					"t_uint256": {
						"encoding": "inplace",
						"label": "uint256",
						"numberOfBytes": "32"
					}
				}
			},
			"userdoc": {
				"kind": "user",
				"methods": {},
				"version": 1
			}
		}
	}
}