{
	"data": {
		"bytecode": {
			"linkReferences": {},
			"object": "608060405260075f553480156012575f80fd5b50610196806100205f395ff3fe608060405234801561000f575f80fd5b506004361061003f575f3560e01c80630e79507d1461004357806375dcdf2314610062578063d46300fd14610080575b5f80fd5b61004b61009e565b604051610059929190610120565b60405180910390f35b61006a6100b4565b6040516100779190610147565b60405180910390f35b6100886100c1565b6040516100959190610147565b60405180910390f35b5f805f4290505f33905081819350935050509091565b5f80601290508091505090565b5f8054905090565b5f819050919050565b6100db816100c9565b82525050565b5f73ffffffffffffffffffffffffffffffffffffffff82169050919050565b5f61010a826100e1565b9050919050565b61011a81610100565b82525050565b5f6040820190506101335f8301856100d2565b6101406020830184610111565b9392505050565b5f60208201905061015a5f8301846100d2565b9291505056fea264697066735822122010fbb1a468fffb2178b4fb8212a1e7e84a8c9356d65a318bc01c9acc78107b6a64736f6c634300081a0033",
			"opcodes": "PUSH1 0x80 PUSH1 0x40 MSTORE PUSH1 0x7 PUSH0 SSTORE CALLVALUE DUP1 ISZERO PUSH1 0x12 JUMPI PUSH0 DUP1 REVERT JUMPDEST POP PUSH2 0x196 DUP1 PUSH2 0x20 PUSH0 CODECOPY PUSH0 RETURN INVALID PUSH1 0x80 PUSH1 0x40 MSTORE CALLVALUE DUP1 ISZERO PUSH2 0xF JUMPI PUSH0 DUP1 REVERT JUMPDEST POP PUSH1 0x4 CALLDATASIZE LT PUSH2 0x3F JUMPI PUSH0 CALLDATALOAD PUSH1 0xE0 SHR DUP1 PUSH4 0xE79507D EQ PUSH2 0x43 JUMPI DUP1 PUSH4 0x75DCDF23 EQ PUSH2 0x62 JUMPI DUP1 PUSH4 0xD46300FD EQ PUSH2 0x80 JUMPI JUMPDEST PUSH0 DUP1 REVERT JUMPDEST PUSH2 0x4B PUSH2 0x9E JUMP JUMPDEST PUSH1 0x40 MLOAD PUSH2 0x59 SWAP3 SWAP2 SWAP1 PUSH2 0x120 JUMP JUMPDEST PUSH1 0x40 MLOAD DUP1 SWAP2 SUB SWAP1 RETURN JUMPDEST PUSH2 0x6A PUSH2 0xB4 JUMP JUMPDEST PUSH1 0x40 MLOAD PUSH2 0x77 SWAP2 SWAP1 PUSH2 0x147 JUMP JUMPDEST PUSH1 0x40 MLOAD DUP1 SWAP2 SUB SWAP1 RETURN JUMPDEST PUSH2 0x88 PUSH2 0xC1 JUMP JUMPDEST PUSH1 0x40 MLOAD PUSH2 0x95 SWAP2 SWAP1 PUSH2 0x147 JUMP JUMPDEST PUSH1 0x40 MLOAD DUP1 SWAP2 SUB SWAP1 RETURN JUMPDEST PUSH0 DUP1 PUSH0 TIMESTAMP SWAP1 POP PUSH0 CALLER SWAP1 POP DUP2 DUP2 SWAP4 POP SWAP4 POP POP POP SWAP1 SWAP2 JUMP JUMPDEST PUSH0 DUP1 PUSH1 0x12 SWAP1 POP DUP1 SWAP2 POP POP SWAP1 JUMP JUMPDEST PUSH0 DUP1 SLOAD SWAP1 POP SWAP1 JUMP JUMPDEST PUSH0 DUP2 SWAP1 POP SWAP2 SWAP1 POP JUMP JUMPDEST PUSH2 0xDB DUP2 PUSH2 0xC9 JUMP JUMPDEST DUP3 MSTORE POP POP JUMP JUMPDEST PUSH0 PUSH20 0xFFFFFFFFFFFFFFFFFFFFFFFFFFFFFFFFFFFFFFFF DUP3 AND SWAP1 POP SWAP2 SWAP1 POP JUMP JUMPDEST PUSH0 PUSH2 0x10A DUP3 PUSH2 0xE1 JUMP JUMPDEST SWAP1 POP SWAP2 SWAP1 POP JUMP JUMPDEST PUSH2 0x11A DUP2 PUSH2 0x100 JUMP JUMPDEST DUP3 MSTORE POP POP JUMP JUMPDEST PUSH0 PUSH1 0x40 DUP3 ADD SWAP1 POP PUSH2 0x133 PUSH0 DUP4 ADD DUP6 PUSH2 0xD2 JUMP JUMPDEST PUSH2 0x140 PUSH1 0x20 DUP4 ADD DUP5 PUSH2 0x111 JUMP JUMPDEST SWAP4 SWAP3 POP POP POP JUMP JUMPDEST PUSH0 PUSH1 0x20 DUP3 ADD SWAP1 POP PUSH2 0x15A PUSH0 DUP4 ADD DUP5 PUSH2 0xD2 JUMP JUMPDEST SWAP3 SWAP2 POP POP JUMP INVALID LOG2 PUSH5 0x6970667358 0x22 SLT KECCAK256 LT 0xFB 0xB1 LOG4 PUSH9 0xFFFB2178B4FB8212A1 0xE7 0xE8 BLOBBASEFEE DUP13 SWAP4 JUMP 0xD6 GAS BALANCE DUP12 0xC0 SHR SWAP11 0xCC PUSH25 0x107B6A64736F6C634300081A00330000000000000000000000 "
		},
		"gasEstimates": {
			"creation": {
				"codeDepositCost": "81200",
				"executionCost": "22232",
				"totalCost": "103432"
			},
			"external": {
				"getA()": "2454",
				"getGlobalVars()": "493",
				"localEg()": "345"
			}
		},
		"methodIdentifiers": {
			"getA()": "d46300fd",
			"getGlobalVars()": "0e79507d",
			"localEg()": "75dcdf23"
		}
	},
	"abi": [
		{
			"inputs": [],
			"name": "getA",
			"outputs": [
				{
					"internalType": "uint256",
					"name": "",
					"type": "uint256"
				}
			],
			"stateMutability": "view",
			"type": "function"
		},
		{
			"inputs": [],
			"name": "getGlobalVars",
			"outputs": [
				{
					"internalType": "uint256",
					"name": "",
					"type": "uint256"
				},
				{
					"internalType": "address",
					"name": "",
					"type": "address"
				}
			],
			"stateMutability": "view",
			"type": "function"
		},
		{
			"inputs": [],
			"name": "localEg",
			"outputs": [
				{
					"internalType": "uint256",
					"name": "",
					"type": "uint256"
				}
			],
			"stateMutability": "pure",
			"type": "function"
		}
	]
}