{
	"contracts/cohort/Upgradability/Upgrade.sol": {
		"ImplementationV2": {
			"abi": [
				{
					"inputs": [
						{
							"internalType": "uint256",
							"name": "_num",
							"type": "uint256"
						}
					],
					"name": "setNum",
					"outputs": [],
					"stateMutability": "nonpayable",
					"type": "function"
				}
			],
			"devdoc": {
				"kind": "dev",
				"methods": {},
				"version": 1
			},
			"evm": {
				"assembly": "    /* \"contracts/cohort/Upgradability/Upgrade.sol\":709:833  contract ImplementationV2 {... */\n  mstore(0x40, 0x80)\n  callvalue\n  dup1\n  iszero\n  tag_1\n  jumpi\n  0x00\n  dup1\n  revert\ntag_1:\n  pop\n  dataSize(sub_0)\n  dup1\n  dataOffset(sub_0)\n  0x00\n  codecopy\n  0x00\n  return\nstop\n\nsub_0: assembly {\n        /* \"contracts/cohort/Upgradability/Upgrade.sol\":709:833  contract ImplementationV2 {... */\n      mstore(0x40, 0x80)\n      callvalue\n      dup1\n      iszero\n      tag_1\n      jumpi\n      0x00\n      dup1\n      revert\n    tag_1:\n      pop\n      jumpi(tag_2, lt(calldatasize, 0x04))\n      shr(0xe0, calldataload(0x00))\n      dup1\n      0xcd16ecbf\n      eq\n      tag_3\n      jumpi\n    tag_2:\n      0x00\n      dup1\n      revert\n        /* \"contracts/cohort/Upgradability/Upgrade.sol\":769:831  function setNum(uint _num) public {... */\n    tag_3:\n      tag_4\n      0x04\n      dup1\n      calldatasize\n      sub\n      dup2\n      add\n      swap1\n      tag_5\n      swap2\n      swap1\n      tag_6\n      jump\t// in\n    tag_5:\n      tag_7\n      jump\t// in\n    tag_4:\n      stop\n    tag_7:\n        /* \"contracts/cohort/Upgradability/Upgrade.sol\":821:825  _num */\n      dup1\n        /* \"contracts/cohort/Upgradability/Upgrade.sol\":817:818  2 */\n      0x02\n        /* \"contracts/cohort/Upgradability/Upgrade.sol\":817:825  2 * _num */\n      tag_9\n      swap2\n      swap1\n      tag_10\n      jump\t// in\n    tag_9:\n        /* \"contracts/cohort/Upgradability/Upgrade.sol\":811:814  num */\n      0x01\n        /* \"contracts/cohort/Upgradability/Upgrade.sol\":811:825  num = 2 * _num */\n      dup2\n      swap1\n      sstore\n      pop\n        /* \"contracts/cohort/Upgradability/Upgrade.sol\":769:831  function setNum(uint _num) public {... */\n      pop\n      jump\t// out\n        /* \"#utility.yul\":88:205   */\n    tag_12:\n        /* \"#utility.yul\":197:198   */\n      0x00\n        /* \"#utility.yul\":194:195   */\n      dup1\n        /* \"#utility.yul\":187:199   */\n      revert\n        /* \"#utility.yul\":334:411   */\n    tag_14:\n        /* \"#utility.yul\":371:378   */\n      0x00\n        /* \"#utility.yul\":400:405   */\n      dup2\n        /* \"#utility.yul\":389:405   */\n      swap1\n      pop\n        /* \"#utility.yul\":334:411   */\n      swap2\n      swap1\n      pop\n      jump\t// out\n        /* \"#utility.yul\":417:539   */\n    tag_15:\n        /* \"#utility.yul\":490:514   */\n      tag_24\n        /* \"#utility.yul\":508:513   */\n      dup2\n        /* \"#utility.yul\":490:514   */\n      tag_14\n      jump\t// in\n    tag_24:\n        /* \"#utility.yul\":483:488   */\n      dup2\n        /* \"#utility.yul\":480:515   */\n      eq\n        /* \"#utility.yul\":470:533   */\n      tag_25\n      jumpi\n        /* \"#utility.yul\":529:530   */\n      0x00\n        /* \"#utility.yul\":526:527   */\n      dup1\n        /* \"#utility.yul\":519:531   */\n      revert\n        /* \"#utility.yul\":470:533   */\n    tag_25:\n        /* \"#utility.yul\":417:539   */\n      pop\n      jump\t// out\n        /* \"#utility.yul\":545:684   */\n    tag_16:\n        /* \"#utility.yul\":591:596   */\n      0x00\n        /* \"#utility.yul\":629:635   */\n      dup2\n        /* \"#utility.yul\":616:636   */\n      calldataload\n        /* \"#utility.yul\":607:636   */\n      swap1\n      pop\n        /* \"#utility.yul\":645:678   */\n      tag_27\n        /* \"#utility.yul\":672:677   */\n      dup2\n        /* \"#utility.yul\":645:678   */\n      tag_15\n      jump\t// in\n    tag_27:\n        /* \"#utility.yul\":545:684   */\n      swap3\n      swap2\n      pop\n      pop\n      jump\t// out\n        /* \"#utility.yul\":690:1019   */\n    tag_6:\n        /* \"#utility.yul\":749:755   */\n      0x00\n        /* \"#utility.yul\":798:800   */\n      0x20\n        /* \"#utility.yul\":786:795   */\n      dup3\n        /* \"#utility.yul\":777:784   */\n      dup5\n        /* \"#utility.yul\":773:796   */\n      sub\n        /* \"#utility.yul\":769:801   */\n      slt\n        /* \"#utility.yul\":766:885   */\n      iszero\n      tag_29\n      jumpi\n        /* \"#utility.yul\":804:883   */\n      tag_30\n      tag_12\n      jump\t// in\n    tag_30:\n        /* \"#utility.yul\":766:885   */\n    tag_29:\n        /* \"#utility.yul\":924:925   */\n      0x00\n        /* \"#utility.yul\":949:1002   */\n      tag_31\n        /* \"#utility.yul\":994:1001   */\n      dup5\n        /* \"#utility.yul\":985:991   */\n      dup3\n        /* \"#utility.yul\":974:983   */\n      dup6\n        /* \"#utility.yul\":970:992   */\n      add\n        /* \"#utility.yul\":949:1002   */\n      tag_16\n      jump\t// in\n    tag_31:\n        /* \"#utility.yul\":939:1002   */\n      swap2\n      pop\n        /* \"#utility.yul\":895:1012   */\n      pop\n        /* \"#utility.yul\":690:1019   */\n      swap3\n      swap2\n      pop\n      pop\n      jump\t// out\n        /* \"#utility.yul\":1025:1205   */\n    tag_17:\n        /* \"#utility.yul\":1073:1150   */\n      0x4e487b7100000000000000000000000000000000000000000000000000000000\n        /* \"#utility.yul\":1070:1071   */\n      0x00\n        /* \"#utility.yul\":1063:1151   */\n      mstore\n        /* \"#utility.yul\":1170:1174   */\n      0x11\n        /* \"#utility.yul\":1167:1168   */\n      0x04\n        /* \"#utility.yul\":1160:1175   */\n      mstore\n        /* \"#utility.yul\":1194:1198   */\n      0x24\n        /* \"#utility.yul\":1191:1192   */\n      0x00\n        /* \"#utility.yul\":1184:1199   */\n      revert\n        /* \"#utility.yul\":1211:1621   */\n    tag_10:\n        /* \"#utility.yul\":1251:1258   */\n      0x00\n        /* \"#utility.yul\":1274:1294   */\n      tag_34\n        /* \"#utility.yul\":1292:1293   */\n      dup3\n        /* \"#utility.yul\":1274:1294   */\n      tag_14\n      jump\t// in\n    tag_34:\n        /* \"#utility.yul\":1269:1294   */\n      swap2\n      pop\n        /* \"#utility.yul\":1308:1328   */\n      tag_35\n        /* \"#utility.yul\":1326:1327   */\n      dup4\n        /* \"#utility.yul\":1308:1328   */\n      tag_14\n      jump\t// in\n    tag_35:\n        /* \"#utility.yul\":1303:1328   */\n      swap3\n      pop\n        /* \"#utility.yul\":1363:1364   */\n      dup3\n        /* \"#utility.yul\":1360:1361   */\n      dup3\n        /* \"#utility.yul\":1356:1365   */\n      mul\n        /* \"#utility.yul\":1385:1415   */\n      tag_36\n        /* \"#utility.yul\":1403:1414   */\n      dup2\n        /* \"#utility.yul\":1385:1415   */\n      tag_14\n      jump\t// in\n    tag_36:\n        /* \"#utility.yul\":1374:1415   */\n      swap2\n      pop\n        /* \"#utility.yul\":1564:1565   */\n      dup3\n        /* \"#utility.yul\":1555:1562   */\n      dup3\n        /* \"#utility.yul\":1551:1566   */\n      div\n        /* \"#utility.yul\":1548:1549   */\n      dup5\n        /* \"#utility.yul\":1545:1567   */\n      eq\n        /* \"#utility.yul\":1525:1526   */\n      dup4\n        /* \"#utility.yul\":1518:1527   */\n      iszero\n        /* \"#utility.yul\":1498:1581   */\n      or\n        /* \"#utility.yul\":1475:1614   */\n      tag_37\n      jumpi\n        /* \"#utility.yul\":1594:1612   */\n      tag_38\n      tag_17\n      jump\t// in\n    tag_38:\n        /* \"#utility.yul\":1475:1614   */\n    tag_37:\n        /* \"#utility.yul\":1259:1621   */\n      pop\n        /* \"#utility.yul\":1211:1621   */\n      swap3\n      swap2\n      pop\n      pop\n      jump\t// out\n\n    auxdata: 0xa2646970667358221220b70a2c5899e519efab8d7e27a603ef5c2a30c9f0751ef76ff2ba556df9c0ddf364736f6c634300081a0033\n}\n",
				"bytecode": {
					"linkReferences": {},
					"object": "6080604052348015600e575f80fd5b506101658061001c5f395ff3fe608060405234801561000f575f80fd5b5060043610610029575f3560e01c8063cd16ecbf1461002d575b5f80fd5b61004760048036038101906100429190610096565b610049565b005b80600261005691906100ee565b60018190555050565b5f80fd5b5f819050919050565b61007581610063565b811461007f575f80fd5b50565b5f813590506100908161006c565b92915050565b5f602082840312156100ab576100aa61005f565b5b5f6100b884828501610082565b91505092915050565b7f4e487b71000000000000000000000000000000000000000000000000000000005f52601160045260245ffd5b5f6100f882610063565b915061010383610063565b925082820261011181610063565b91508282048414831517610128576101276100c1565b5b509291505056fea2646970667358221220b70a2c5899e519efab8d7e27a603ef5c2a30c9f0751ef76ff2ba556df9c0ddf364736f6c634300081a0033",
					"opcodes": "PUSH1 0x80 PUSH1 0x40 MSTORE CALLVALUE DUP1 ISZERO PUSH1 0xE JUMPI PUSH0 DUP1 REVERT JUMPDEST POP PUSH2 0x165 DUP1 PUSH2 0x1C PUSH0 CODECOPY PUSH0 RETURN INVALID PUSH1 0x80 PUSH1 0x40 MSTORE CALLVALUE DUP1 ISZERO PUSH2 0xF JUMPI PUSH0 DUP1 REVERT JUMPDEST POP PUSH1 0x4 CALLDATASIZE LT PUSH2 0x29 JUMPI PUSH0 CALLDATALOAD PUSH1 0xE0 SHR DUP1 PUSH4 0xCD16ECBF EQ PUSH2 0x2D JUMPI JUMPDEST PUSH0 DUP1 REVERT JUMPDEST PUSH2 0x47 PUSH1 0x4 DUP1 CALLDATASIZE SUB DUP2 ADD SWAP1 PUSH2 0x42 SWAP2 SWAP1 PUSH2 0x96 JUMP JUMPDEST PUSH2 0x49 JUMP JUMPDEST STOP JUMPDEST DUP1 PUSH1 0x2 PUSH2 0x56 SWAP2 SWAP1 PUSH2 0xEE JUMP JUMPDEST PUSH1 0x1 DUP2 SWAP1 SSTORE POP POP JUMP JUMPDEST PUSH0 DUP1 REVERT JUMPDEST PUSH0 DUP2 SWAP1 POP SWAP2 SWAP1 POP JUMP JUMPDEST PUSH2 0x75 DUP2 PUSH2 0x63 JUMP JUMPDEST DUP2 EQ PUSH2 0x7F JUMPI PUSH0 DUP1 REVERT JUMPDEST POP JUMP JUMPDEST PUSH0 DUP2 CALLDATALOAD SWAP1 POP PUSH2 0x90 DUP2 PUSH2 0x6C JUMP JUMPDEST SWAP3 SWAP2 POP POP JUMP JUMPDEST PUSH0 PUSH1 0x20 DUP3 DUP5 SUB SLT ISZERO PUSH2 0xAB JUMPI PUSH2 0xAA PUSH2 0x5F JUMP JUMPDEST JUMPDEST PUSH0 PUSH2 0xB8 DUP5 DUP3 DUP6 ADD PUSH2 0x82 JUMP JUMPDEST SWAP2 POP POP SWAP3 SWAP2 POP POP JUMP JUMPDEST PUSH32 0x4E487B7100000000000000000000000000000000000000000000000000000000 PUSH0 MSTORE PUSH1 0x11 PUSH1 0x4 MSTORE PUSH1 0x24 PUSH0 REVERT JUMPDEST PUSH0 PUSH2 0xF8 DUP3 PUSH2 0x63 JUMP JUMPDEST SWAP2 POP PUSH2 0x103 DUP4 PUSH2 0x63 JUMP JUMPDEST SWAP3 POP DUP3 DUP3 MUL PUSH2 0x111 DUP2 PUSH2 0x63 JUMP JUMPDEST SWAP2 POP DUP3 DUP3 DIV DUP5 EQ DUP4 ISZERO OR PUSH2 0x128 JUMPI PUSH2 0x127 PUSH2 0xC1 JUMP JUMPDEST JUMPDEST POP SWAP3 SWAP2 POP POP JUMP INVALID LOG2 PUSH5 0x6970667358 0x22 SLT KECCAK256 0xB7 EXP 0x2C PC SWAP10 0xE5 NOT 0xEF 0xAB DUP14 PUSH31 0x27A603EF5C2A30C9F0751EF76FF2BA556DF9C0DDF364736F6C634300081A00 CALLER "
				},
				"gasEstimates": {
					"creation": {
						"codeDepositCost": "71400",
						"executionCost": "121",
						"totalCost": "71521"
					},
					"external": {
						"setNum(uint256)": "infinite"
					}
				},
				"methodIdentifiers": {
					"setNum(uint256)": "cd16ecbf"
				}
			},
			"storageLayout": {
				"storage": [
					{
						"astId": 258,
						"contract": "contracts/cohort/Upgradability/Upgrade.sol:ImplementationV2",
						"label": "dummy",
						"offset": 0,
						"slot": "0",
						"type": "t_uint256"
					},
					{
						"astId": 260,
						"contract": "contracts/cohort/Upgradability/Upgrade.sol:ImplementationV2",
						"label": "num",
						"offset": 0,
						"slot": "1",
						"type": "t_uint256"
					}
				],
				"types": {
					"t_uint256": {
						"encoding": "inplace",
						"label": "uint256",
						"numberOfBytes": "32"
					}
				}
			},
			"userdoc": {
				"kind": "user",
				"methods": {},
				"version": 1
			}
		}
	}
}