{
	"contracts/cohort/Upgradability/Upgrade.sol": {
		"Proxy": {
			"abi": [
				{
					"inputs": [],
					"stateMutability": "nonpayable",
					"type": "constructor"
				},
				{
					"inputs": [
						{
							"internalType": "address",
							"name": "owner",
							"type": "address"
						}
					],
					"name": "OwnableInvalidOwner",
					"type": "error"
				},
				{
					"inputs": [
						{
							"internalType": "address",
							"name": "account",
							"type": "address"
						}
					],
					"name": "OwnableUnauthorizedAccount",
					"type": "error"
				},
				{
					"anonymous": false,
					"inputs": [
						{
							"indexed": true,
							"internalType": "address",
							"name": "previousOwner",
							"type": "address"
						},
						{
							"indexed": true,
							"internalType": "address",
							"name": "newOwner",
							"type": "address"
						}
					],
					"name": "OwnershipTransferred",
					"type": "event"
				},
				{
					"inputs": [],
					"name": "num",
					"outputs": [
						{
							"internalType": "uint256",
							"name": "",
							"type": "uint256"
						}
					],
					"stateMutability": "view",
					"type": "function"
				},
				{
					"inputs": [],
					"name": "owner",
					"outputs": [
						{
							"internalType": "address",
							"name": "",
							"type": "address"
						}
					],
					"stateMutability": "view",
					"type": "function"
				},
				{
					"inputs": [],
					"name": "renounceOwnership",
					"outputs": [],
					"stateMutability": "nonpayable",
					"type": "function"
				},
				{
					"inputs": [
						{
							"internalType": "address",
							"name": "_imp",
							"type": "address"
						}
					],
					"name": "setImp",
					"outputs": [],
					"stateMutability": "nonpayable",
					"type": "function"
				},
				{
					"inputs": [
						{
							"internalType": "uint256",
							"name": "_num",
							"type": "uint256"
						}
					],
					"name": "setNum",
					"outputs": [],
					"stateMutability": "nonpayable",
					"type": "function"
				},
				{
					"inputs": [
						{
							"internalType": "address",
							"name": "newOwner",
							"type": "address"
						}
					],
					"name": "transferOwnership",
					"outputs": [],
					"stateMutability": "nonpayable",
					"type": "function"
				}
			],
			"devdoc": {
				"errors": {
					"OwnableInvalidOwner(address)": [
						{
							"details": "The owner is not a valid owner account. (eg. `address(0)`)"
						}
					],
					"OwnableUnauthorizedAccount(address)": [
						{
							"details": "The caller account is not authorized to perform an operation."
						}
					]
				},
				"kind": "dev",
				"methods": {
					"owner()": {
						"details": "Returns the address of the current owner."
					},
					"renounceOwnership()": {
						"details": "Leaves the contract without owner. It will not be possible to call `onlyOwner` functions. Can only be called by the current owner. NOTE: Renouncing ownership will leave the contract without an owner, thereby disabling any functionality that is only available to the owner."
					},
					"transferOwnership(address)": {
						"details": "Transfers ownership of the contract to a new account (`newOwner`). Can only be called by the current owner."
					}
				},
				"version": 1
			},
			"evm": {
				"assembly": "    /* \"contracts/cohort/Upgradability/Upgrade.sol\":123:586  contract Proxy is Ownable {... */\n  mstore(0x40, 0x80)\n    /* \"contracts/cohort/Upgradability/Upgrade.sol\":208:263  constructor () Ownable(msg.sender){... */\n  callvalue\n  dup1\n  iszero\n  tag_1\n  jumpi\n  0x00\n  dup1\n  revert\ntag_1:\n  pop\n    /* \"contracts/cohort/Upgradability/Upgrade.sol\":231:241  msg.sender */\n  caller\n    /* \"@openzeppelin/contracts/access/Ownable.sol\":1297:1298  0 */\n  0x00\n    /* \"@openzeppelin/contracts/access/Ownable.sol\":1273:1299  initialOwner == address(0) */\n  0xffffffffffffffffffffffffffffffffffffffff\n  and\n    /* \"@openzeppelin/contracts/access/Ownable.sol\":1273:1285  initialOwner */\n  dup2\n    /* \"@openzeppelin/contracts/access/Ownable.sol\":1273:1299  initialOwner == address(0) */\n  0xffffffffffffffffffffffffffffffffffffffff\n  and\n  sub\n    /* \"@openzeppelin/contracts/access/Ownable.sol\":1269:1364  if (initialOwner == address(0)) {... */\n  tag_5\n  jumpi\n    /* \"@openzeppelin/contracts/access/Ownable.sol\":1350:1351  0 */\n  0x00\n    /* \"@openzeppelin/contracts/access/Ownable.sol\":1322:1353  OwnableInvalidOwner(address(0)) */\n  mload(0x40)\n  0x1e4fbdf700000000000000000000000000000000000000000000000000000000\n  dup2\n  mstore\n  0x04\n  add\n  tag_6\n  swap2\n  swap1\n  tag_7\n  jump\t// in\ntag_6:\n  mload(0x40)\n  dup1\n  swap2\n  sub\n  swap1\n  revert\n    /* \"@openzeppelin/contracts/access/Ownable.sol\":1269:1364  if (initialOwner == address(0)) {... */\ntag_5:\n    /* \"@openzeppelin/contracts/access/Ownable.sol\":1373:1405  _transferOwnership(initialOwner) */\n  tag_8\n    /* \"@openzeppelin/contracts/access/Ownable.sol\":1392:1404  initialOwner */\n  dup2\n    /* \"@openzeppelin/contracts/access/Ownable.sol\":1373:1391  _transferOwnership */\n  shl(0x20, tag_9)\n    /* \"@openzeppelin/contracts/access/Ownable.sol\":1373:1405  _transferOwnership(initialOwner) */\n  0x20\n  shr\n  jump\t// in\ntag_8:\n    /* \"@openzeppelin/contracts/access/Ownable.sol\":1225:1412  constructor(address initialOwner) {... */\n  pop\n    /* \"contracts/cohort/Upgradability/Upgrade.sol\":256:257  0 */\n  0x00\n    /* \"contracts/cohort/Upgradability/Upgrade.sol\":250:253  num */\n  0x01\n    /* \"contracts/cohort/Upgradability/Upgrade.sol\":250:257  num = 0 */\n  dup2\n  swap1\n  sstore\n  pop\n    /* \"contracts/cohort/Upgradability/Upgrade.sol\":123:586  contract Proxy is Ownable {... */\n  jump(tag_11)\n    /* \"@openzeppelin/contracts/access/Ownable.sol\":2912:3099  function _transferOwnership(address newOwner) internal virtual {... */\ntag_9:\n    /* \"@openzeppelin/contracts/access/Ownable.sol\":2985:3001  address oldOwner */\n  0x00\n    /* \"@openzeppelin/contracts/access/Ownable.sol\":3004:3010  _owner */\n  dup1\n  0x00\n  swap1\n  sload\n  swap1\n  0x0100\n  exp\n  swap1\n  div\n  0xffffffffffffffffffffffffffffffffffffffff\n  and\n    /* \"@openzeppelin/contracts/access/Ownable.sol\":2985:3010  address oldOwner = _owner */\n  swap1\n  pop\n    /* \"@openzeppelin/contracts/access/Ownable.sol\":3029:3037  newOwner */\n  dup2\n    /* \"@openzeppelin/contracts/access/Ownable.sol\":3020:3026  _owner */\n  0x00\n  dup1\n    /* \"@openzeppelin/contracts/access/Ownable.sol\":3020:3037  _owner = newOwner */\n  0x0100\n  exp\n  dup2\n  sload\n  dup2\n  0xffffffffffffffffffffffffffffffffffffffff\n  mul\n  not\n  and\n  swap1\n  dup4\n  0xffffffffffffffffffffffffffffffffffffffff\n  and\n  mul\n  or\n  swap1\n  sstore\n  pop\n    /* \"@openzeppelin/contracts/access/Ownable.sol\":3083:3091  newOwner */\n  dup2\n    /* \"@openzeppelin/contracts/access/Ownable.sol\":3052:3092  OwnershipTransferred(oldOwner, newOwner) */\n  0xffffffffffffffffffffffffffffffffffffffff\n  and\n    /* \"@openzeppelin/contracts/access/Ownable.sol\":3073:3081  oldOwner */\n  dup2\n    /* \"@openzeppelin/contracts/access/Ownable.sol\":3052:3092  OwnershipTransferred(oldOwner, newOwner) */\n  0xffffffffffffffffffffffffffffffffffffffff\n  and\n  0x8be0079c531659141344cd1fd0a4f28419497f9722a3daafe3b4186f6b6457e0\n  mload(0x40)\n  mload(0x40)\n  dup1\n  swap2\n  sub\n  swap1\n  log3\n    /* \"@openzeppelin/contracts/access/Ownable.sol\":2975:3099  {... */\n  pop\n    /* \"@openzeppelin/contracts/access/Ownable.sol\":2912:3099  function _transferOwnership(address newOwner) internal virtual {... */\n  pop\n  jump\t// out\n    /* \"#utility.yul\":7:133   */\ntag_13:\n    /* \"#utility.yul\":44:51   */\n  0x00\n    /* \"#utility.yul\":84:126   */\n  0xffffffffffffffffffffffffffffffffffffffff\n    /* \"#utility.yul\":77:82   */\n  dup3\n    /* \"#utility.yul\":73:127   */\n  and\n    /* \"#utility.yul\":62:127   */\n  swap1\n  pop\n    /* \"#utility.yul\":7:133   */\n  swap2\n  swap1\n  pop\n  jump\t// out\n    /* \"#utility.yul\":139:235   */\ntag_14:\n    /* \"#utility.yul\":176:183   */\n  0x00\n    /* \"#utility.yul\":205:229   */\n  tag_19\n    /* \"#utility.yul\":223:228   */\n  dup3\n    /* \"#utility.yul\":205:229   */\n  tag_13\n  jump\t// in\ntag_19:\n    /* \"#utility.yul\":194:229   */\n  swap1\n  pop\n    /* \"#utility.yul\":139:235   */\n  swap2\n  swap1\n  pop\n  jump\t// out\n    /* \"#utility.yul\":241:359   */\ntag_15:\n    /* \"#utility.yul\":328:352   */\n  tag_21\n    /* \"#utility.yul\":346:351   */\n  dup2\n    /* \"#utility.yul\":328:352   */\n  tag_14\n  jump\t// in\ntag_21:\n    /* \"#utility.yul\":323:326   */\n  dup3\n    /* \"#utility.yul\":316:353   */\n  mstore\n    /* \"#utility.yul\":241:359   */\n  pop\n  pop\n  jump\t// out\n    /* \"#utility.yul\":365:587   */\ntag_7:\n    /* \"#utility.yul\":458:462   */\n  0x00\n    /* \"#utility.yul\":496:498   */\n  0x20\n    /* \"#utility.yul\":485:494   */\n  dup3\n    /* \"#utility.yul\":481:499   */\n  add\n    /* \"#utility.yul\":473:499   */\n  swap1\n  pop\n    /* \"#utility.yul\":509:580   */\n  tag_23\n    /* \"#utility.yul\":577:578   */\n  0x00\n    /* \"#utility.yul\":566:575   */\n  dup4\n    /* \"#utility.yul\":562:579   */\n  add\n    /* \"#utility.yul\":553:559   */\n  dup5\n    /* \"#utility.yul\":509:580   */\n  tag_15\n  jump\t// in\ntag_23:\n    /* \"#utility.yul\":365:587   */\n  swap3\n  swap2\n  pop\n  pop\n  jump\t// out\n    /* \"contracts/cohort/Upgradability/Upgrade.sol\":123:586  contract Proxy is Ownable {... */\ntag_11:\n  dataSize(sub_0)\n  dup1\n  dataOffset(sub_0)\n  0x00\n  codecopy\n  0x00\n  return\nstop\n\nsub_0: assembly {\n        /* \"contracts/cohort/Upgradability/Upgrade.sol\":123:586  contract Proxy is Ownable {... */\n      mstore(0x40, 0x80)\n      callvalue\n      dup1\n      iszero\n      tag_1\n      jumpi\n      0x00\n      dup1\n      revert\n    tag_1:\n      pop\n      jumpi(tag_2, lt(calldatasize, 0x04))\n      shr(0xe0, calldataload(0x00))\n      dup1\n      0x424fd42a\n      eq\n      tag_3\n      jumpi\n      dup1\n      0x4e70b1dc\n      eq\n      tag_4\n      jumpi\n      dup1\n      0x715018a6\n      eq\n      tag_5\n      jumpi\n      dup1\n      0x8da5cb5b\n      eq\n      tag_6\n      jumpi\n      dup1\n      0xcd16ecbf\n      eq\n      tag_7\n      jumpi\n      dup1\n      0xf2fde38b\n      eq\n      tag_8\n      jumpi\n    tag_2:\n      0x00\n      dup1\n      revert\n        /* \"contracts/cohort/Upgradability/Upgrade.sol\":513:584  function setImp(address _imp) public onlyOwner {... */\n    tag_3:\n      tag_9\n      0x04\n      dup1\n      calldatasize\n      sub\n      dup2\n      add\n      swap1\n      tag_10\n      swap2\n      swap1\n      tag_11\n      jump\t// in\n    tag_10:\n      tag_12\n      jump\t// in\n    tag_9:\n      stop\n        /* \"contracts/cohort/Upgradability/Upgrade.sol\":154:169  uint public num */\n    tag_4:\n      tag_13\n      tag_14\n      jump\t// in\n    tag_13:\n      mload(0x40)\n      tag_15\n      swap2\n      swap1\n      tag_16\n      jump\t// in\n    tag_15:\n      mload(0x40)\n      dup1\n      swap2\n      sub\n      swap1\n      return\n        /* \"@openzeppelin/contracts/access/Ownable.sol\":2293:2394  function renounceOwnership() public virtual onlyOwner {... */\n    tag_5:\n      tag_17\n      tag_18\n      jump\t// in\n    tag_17:\n      stop\n        /* \"@openzeppelin/contracts/access/Ownable.sol\":1638:1723  function owner() public view virtual returns (address) {... */\n    tag_6:\n      tag_19\n      tag_20\n      jump\t// in\n    tag_19:\n      mload(0x40)\n      tag_21\n      swap2\n      swap1\n      tag_22\n      jump\t// in\n    tag_21:\n      mload(0x40)\n      dup1\n      swap2\n      sub\n      swap1\n      return\n        /* \"contracts/cohort/Upgradability/Upgrade.sol\":269:508  function setNum(uint _num) public {... */\n    tag_7:\n      tag_23\n      0x04\n      dup1\n      calldatasize\n      sub\n      dup2\n      add\n      swap1\n      tag_24\n      swap2\n      swap1\n      tag_25\n      jump\t// in\n    tag_24:\n      tag_26\n      jump\t// in\n    tag_23:\n      stop\n        /* \"@openzeppelin/contracts/access/Ownable.sol\":2543:2758  function transferOwnership(address newOwner) public virtual onlyOwner {... */\n    tag_8:\n      tag_27\n      0x04\n      dup1\n      calldatasize\n      sub\n      dup2\n      add\n      swap1\n      tag_28\n      swap2\n      swap1\n      tag_11\n      jump\t// in\n    tag_28:\n      tag_29\n      jump\t// in\n    tag_27:\n      stop\n        /* \"contracts/cohort/Upgradability/Upgrade.sol\":513:584  function setImp(address _imp) public onlyOwner {... */\n    tag_12:\n        /* \"@openzeppelin/contracts/access/Ownable.sol\":1531:1544  _checkOwner() */\n      tag_31\n        /* \"@openzeppelin/contracts/access/Ownable.sol\":1531:1542  _checkOwner */\n      tag_32\n        /* \"@openzeppelin/contracts/access/Ownable.sol\":1531:1544  _checkOwner() */\n      jump\t// in\n    tag_31:\n        /* \"contracts/cohort/Upgradability/Upgrade.sol\":574:578  _imp */\n      dup1\n        /* \"contracts/cohort/Upgradability/Upgrade.sol\":568:571  imp */\n      0x02\n      0x00\n        /* \"contracts/cohort/Upgradability/Upgrade.sol\":568:578  imp = _imp */\n      0x0100\n      exp\n      dup2\n      sload\n      dup2\n      0xffffffffffffffffffffffffffffffffffffffff\n      mul\n      not\n      and\n      swap1\n      dup4\n      0xffffffffffffffffffffffffffffffffffffffff\n      and\n      mul\n      or\n      swap1\n      sstore\n      pop\n        /* \"contracts/cohort/Upgradability/Upgrade.sol\":513:584  function setImp(address _imp) public onlyOwner {... */\n      pop\n      jump\t// out\n        /* \"contracts/cohort/Upgradability/Upgrade.sol\":154:169  uint public num */\n    tag_14:\n      sload(0x01)\n      dup2\n      jump\t// out\n        /* \"@openzeppelin/contracts/access/Ownable.sol\":2293:2394  function renounceOwnership() public virtual onlyOwner {... */\n    tag_18:\n        /* \"@openzeppelin/contracts/access/Ownable.sol\":1531:1544  _checkOwner() */\n      tag_35\n        /* \"@openzeppelin/contracts/access/Ownable.sol\":1531:1542  _checkOwner */\n      tag_32\n        /* \"@openzeppelin/contracts/access/Ownable.sol\":1531:1544  _checkOwner() */\n      jump\t// in\n    tag_35:\n        /* \"@openzeppelin/contracts/access/Ownable.sol\":2357:2387  _transferOwnership(address(0)) */\n      tag_37\n        /* \"@openzeppelin/contracts/access/Ownable.sol\":2384:2385  0 */\n      0x00\n        /* \"@openzeppelin/contracts/access/Ownable.sol\":2357:2375  _transferOwnership */\n      tag_38\n        /* \"@openzeppelin/contracts/access/Ownable.sol\":2357:2387  _transferOwnership(address(0)) */\n      jump\t// in\n    tag_37:\n        /* \"@openzeppelin/contracts/access/Ownable.sol\":2293:2394  function renounceOwnership() public virtual onlyOwner {... */\n      jump\t// out\n        /* \"@openzeppelin/contracts/access/Ownable.sol\":1638:1723  function owner() public view virtual returns (address) {... */\n    tag_20:\n        /* \"@openzeppelin/contracts/access/Ownable.sol\":1684:1691  address */\n      0x00\n        /* \"@openzeppelin/contracts/access/Ownable.sol\":1710:1716  _owner */\n      dup1\n      0x00\n      swap1\n      sload\n      swap1\n      0x0100\n      exp\n      swap1\n      div\n      0xffffffffffffffffffffffffffffffffffffffff\n      and\n        /* \"@openzeppelin/contracts/access/Ownable.sol\":1703:1716  return _owner */\n      swap1\n      pop\n        /* \"@openzeppelin/contracts/access/Ownable.sol\":1638:1723  function owner() public view virtual returns (address) {... */\n      swap1\n      jump\t// out\n        /* \"contracts/cohort/Upgradability/Upgrade.sol\":269:508  function setNum(uint _num) public {... */\n    tag_26:\n        /* \"contracts/cohort/Upgradability/Upgrade.sol\":313:325  bool success */\n      0x00\n        /* \"contracts/cohort/Upgradability/Upgrade.sol\":327:344  bytes memory data */\n      dup1\n        /* \"contracts/cohort/Upgradability/Upgrade.sol\":348:351  imp */\n      0x02\n      0x00\n      swap1\n      sload\n      swap1\n      0x0100\n      exp\n      swap1\n      div\n      0xffffffffffffffffffffffffffffffffffffffff\n      and\n        /* \"contracts/cohort/Upgradability/Upgrade.sol\":348:364  imp.delegatecall */\n      0xffffffffffffffffffffffffffffffffffffffff\n      and\n        /* \"contracts/cohort/Upgradability/Upgrade.sol\":418:422  _num */\n      dup4\n        /* \"contracts/cohort/Upgradability/Upgrade.sol\":375:423  abi.encodeWithSignature(\"setNum(uint256)\", _num) */\n      add(0x24, mload(0x40))\n      tag_41\n      swap2\n      swap1\n      tag_16\n      jump\t// in\n    tag_41:\n      mload(0x40)\n      0x20\n      dup2\n      dup4\n      sub\n      sub\n      dup2\n      mstore\n      swap1\n      0x40\n      mstore\n      and(not(0xffffffffffffffffffffffffffffffffffffffffffffffffffffffff), 0xcd16ecbf00000000000000000000000000000000000000000000000000000000)\n      0x20\n      dup3\n      add\n      dup1\n      mload\n      0xffffffffffffffffffffffffffffffffffffffffffffffffffffffff\n      dup4\n      dup2\n      dup4\n      and\n      or\n      dup4\n      mstore\n      pop\n      pop\n      pop\n      pop\n        /* \"contracts/cohort/Upgradability/Upgrade.sol\":348:431  imp.delegatecall(... */\n      mload(0x40)\n      tag_42\n      swap2\n      swap1\n      tag_43\n      jump\t// in\n    tag_42:\n      0x00\n      mload(0x40)\n      dup1\n      dup4\n      sub\n      dup2\n      dup6\n      gas\n      delegatecall\n      swap2\n      pop\n      pop\n      returndatasize\n      dup1\n      0x00\n      dup2\n      eq\n      tag_46\n      jumpi\n      mload(0x40)\n      swap2\n      pop\n      and(add(returndatasize, 0x3f), not(0x1f))\n      dup3\n      add\n      0x40\n      mstore\n      returndatasize\n      dup3\n      mstore\n      returndatasize\n      0x00\n      0x20\n      dup5\n      add\n      returndatacopy\n      jump(tag_45)\n    tag_46:\n      0x60\n      swap2\n      pop\n    tag_45:\n      pop\n        /* \"contracts/cohort/Upgradability/Upgrade.sol\":312:431  (bool success, bytes memory data) = imp.delegatecall(... */\n      swap2\n      pop\n      swap2\n      pop\n        /* \"contracts/cohort/Upgradability/Upgrade.sol\":447:454  success */\n      dup2\n        /* \"contracts/cohort/Upgradability/Upgrade.sol\":439:482  require(success, \"Failed to Deligate call\") */\n      tag_47\n      jumpi\n      mload(0x40)\n      0x08c379a000000000000000000000000000000000000000000000000000000000\n      dup2\n      mstore\n      0x04\n      add\n      tag_48\n      swap1\n      tag_49\n      jump\t// in\n    tag_48:\n      mload(0x40)\n      dup1\n      swap2\n      sub\n      swap1\n      revert\n    tag_47:\n        /* \"contracts/cohort/Upgradability/Upgrade.sol\":498:502  data */\n      dup1\n        /* \"contracts/cohort/Upgradability/Upgrade.sol\":490:495  datas */\n      0x03\n        /* \"contracts/cohort/Upgradability/Upgrade.sol\":490:502  datas = data */\n      swap1\n      dup2\n      tag_50\n      swap2\n      swap1\n      tag_51\n      jump\t// in\n    tag_50:\n      pop\n        /* \"contracts/cohort/Upgradability/Upgrade.sol\":303:508  {... */\n      pop\n      pop\n        /* \"contracts/cohort/Upgradability/Upgrade.sol\":269:508  function setNum(uint _num) public {... */\n      pop\n      jump\t// out\n        /* \"@openzeppelin/contracts/access/Ownable.sol\":2543:2758  function transferOwnership(address newOwner) public virtual onlyOwner {... */\n    tag_29:\n        /* \"@openzeppelin/contracts/access/Ownable.sol\":1531:1544  _checkOwner() */\n      tag_53\n        /* \"@openzeppelin/contracts/access/Ownable.sol\":1531:1542  _checkOwner */\n      tag_32\n        /* \"@openzeppelin/contracts/access/Ownable.sol\":1531:1544  _checkOwner() */\n      jump\t// in\n    tag_53:\n        /* \"@openzeppelin/contracts/access/Ownable.sol\":2647:2648  0 */\n      0x00\n        /* \"@openzeppelin/contracts/access/Ownable.sol\":2627:2649  newOwner == address(0) */\n      0xffffffffffffffffffffffffffffffffffffffff\n      and\n        /* \"@openzeppelin/contracts/access/Ownable.sol\":2627:2635  newOwner */\n      dup2\n        /* \"@openzeppelin/contracts/access/Ownable.sol\":2627:2649  newOwner == address(0) */\n      0xffffffffffffffffffffffffffffffffffffffff\n      and\n      sub\n        /* \"@openzeppelin/contracts/access/Ownable.sol\":2623:2714  if (newOwner == address(0)) {... */\n      tag_55\n      jumpi\n        /* \"@openzeppelin/contracts/access/Ownable.sol\":2700:2701  0 */\n      0x00\n        /* \"@openzeppelin/contracts/access/Ownable.sol\":2672:2703  OwnableInvalidOwner(address(0)) */\n      mload(0x40)\n      0x1e4fbdf700000000000000000000000000000000000000000000000000000000\n      dup2\n      mstore\n      0x04\n      add\n      tag_56\n      swap2\n      swap1\n      tag_22\n      jump\t// in\n    tag_56:\n      mload(0x40)\n      dup1\n      swap2\n      sub\n      swap1\n      revert\n        /* \"@openzeppelin/contracts/access/Ownable.sol\":2623:2714  if (newOwner == address(0)) {... */\n    tag_55:\n        /* \"@openzeppelin/contracts/access/Ownable.sol\":2723:2751  _transferOwnership(newOwner) */\n      tag_57\n        /* \"@openzeppelin/contracts/access/Ownable.sol\":2742:2750  newOwner */\n      dup2\n        /* \"@openzeppelin/contracts/access/Ownable.sol\":2723:2741  _transferOwnership */\n      tag_38\n        /* \"@openzeppelin/contracts/access/Ownable.sol\":2723:2751  _transferOwnership(newOwner) */\n      jump\t// in\n    tag_57:\n        /* \"@openzeppelin/contracts/access/Ownable.sol\":2543:2758  function transferOwnership(address newOwner) public virtual onlyOwner {... */\n      pop\n      jump\t// out\n        /* \"@openzeppelin/contracts/access/Ownable.sol\":1796:1958  function _checkOwner() internal view virtual {... */\n    tag_32:\n        /* \"@openzeppelin/contracts/access/Ownable.sol\":1866:1878  _msgSender() */\n      tag_59\n        /* \"@openzeppelin/contracts/access/Ownable.sol\":1866:1876  _msgSender */\n      tag_60\n        /* \"@openzeppelin/contracts/access/Ownable.sol\":1866:1878  _msgSender() */\n      jump\t// in\n    tag_59:\n        /* \"@openzeppelin/contracts/access/Ownable.sol\":1855:1878  owner() != _msgSender() */\n      0xffffffffffffffffffffffffffffffffffffffff\n      and\n        /* \"@openzeppelin/contracts/access/Ownable.sol\":1855:1862  owner() */\n      tag_61\n        /* \"@openzeppelin/contracts/access/Ownable.sol\":1855:1860  owner */\n      tag_20\n        /* \"@openzeppelin/contracts/access/Ownable.sol\":1855:1862  owner() */\n      jump\t// in\n    tag_61:\n        /* \"@openzeppelin/contracts/access/Ownable.sol\":1855:1878  owner() != _msgSender() */\n      0xffffffffffffffffffffffffffffffffffffffff\n      and\n      eq\n        /* \"@openzeppelin/contracts/access/Ownable.sol\":1851:1952  if (owner() != _msgSender()) {... */\n      tag_62\n      jumpi\n        /* \"@openzeppelin/contracts/access/Ownable.sol\":1928:1940  _msgSender() */\n      tag_63\n        /* \"@openzeppelin/contracts/access/Ownable.sol\":1928:1938  _msgSender */\n      tag_60\n        /* \"@openzeppelin/contracts/access/Ownable.sol\":1928:1940  _msgSender() */\n      jump\t// in\n    tag_63:\n        /* \"@openzeppelin/contracts/access/Ownable.sol\":1901:1941  OwnableUnauthorizedAccount(_msgSender()) */\n      mload(0x40)\n      0x118cdaa700000000000000000000000000000000000000000000000000000000\n      dup2\n      mstore\n      0x04\n      add\n      tag_64\n      swap2\n      swap1\n      tag_22\n      jump\t// in\n    tag_64:\n      mload(0x40)\n      dup1\n      swap2\n      sub\n      swap1\n      revert\n        /* \"@openzeppelin/contracts/access/Ownable.sol\":1851:1952  if (owner() != _msgSender()) {... */\n    tag_62:\n        /* \"@openzeppelin/contracts/access/Ownable.sol\":1796:1958  function _checkOwner() internal view virtual {... */\n      jump\t// out\n        /* \"@openzeppelin/contracts/access/Ownable.sol\":2912:3099  function _transferOwnership(address newOwner) internal virtual {... */\n    tag_38:\n        /* \"@openzeppelin/contracts/access/Ownable.sol\":2985:3001  address oldOwner */\n      0x00\n        /* \"@openzeppelin/contracts/access/Ownable.sol\":3004:3010  _owner */\n      dup1\n      0x00\n      swap1\n      sload\n      swap1\n      0x0100\n      exp\n      swap1\n      div\n      0xffffffffffffffffffffffffffffffffffffffff\n      and\n        /* \"@openzeppelin/contracts/access/Ownable.sol\":2985:3010  address oldOwner = _owner */\n      swap1\n      pop\n        /* \"@openzeppelin/contracts/access/Ownable.sol\":3029:3037  newOwner */\n      dup2\n        /* \"@openzeppelin/contracts/access/Ownable.sol\":3020:3026  _owner */\n      0x00\n      dup1\n        /* \"@openzeppelin/contracts/access/Ownable.sol\":3020:3037  _owner = newOwner */\n      0x0100\n      exp\n      dup2\n      sload\n      dup2\n      0xffffffffffffffffffffffffffffffffffffffff\n      mul\n      not\n      and\n      swap1\n      dup4\n      0xffffffffffffffffffffffffffffffffffffffff\n      and\n      mul\n      or\n      swap1\n      sstore\n      pop\n        /* \"@openzeppelin/contracts/access/Ownable.sol\":3083:3091  newOwner */\n      dup2\n        /* \"@openzeppelin/contracts/access/Ownable.sol\":3052:3092  OwnershipTransferred(oldOwner, newOwner) */\n      0xffffffffffffffffffffffffffffffffffffffff\n      and\n        /* \"@openzeppelin/contracts/access/Ownable.sol\":3073:3081  oldOwner */\n      dup2\n        /* \"@openzeppelin/contracts/access/Ownable.sol\":3052:3092  OwnershipTransferred(oldOwner, newOwner) */\n      0xffffffffffffffffffffffffffffffffffffffff\n      and\n      0x8be0079c531659141344cd1fd0a4f28419497f9722a3daafe3b4186f6b6457e0\n      mload(0x40)\n      mload(0x40)\n      dup1\n      swap2\n      sub\n      swap1\n      log3\n        /* \"@openzeppelin/contracts/access/Ownable.sol\":2975:3099  {... */\n      pop\n        /* \"@openzeppelin/contracts/access/Ownable.sol\":2912:3099  function _transferOwnership(address newOwner) internal virtual {... */\n      pop\n      jump\t// out\n        /* \"@openzeppelin/contracts/utils/Context.sol\":656:752  function _msgSender() internal view virtual returns (address) {... */\n    tag_60:\n        /* \"@openzeppelin/contracts/utils/Context.sol\":709:716  address */\n      0x00\n        /* \"@openzeppelin/contracts/utils/Context.sol\":735:745  msg.sender */\n      caller\n        /* \"@openzeppelin/contracts/utils/Context.sol\":728:745  return msg.sender */\n      swap1\n      pop\n        /* \"@openzeppelin/contracts/utils/Context.sol\":656:752  function _msgSender() internal view virtual returns (address) {... */\n      swap1\n      jump\t// out\n        /* \"#utility.yul\":88:205   */\n    tag_68:\n        /* \"#utility.yul\":197:198   */\n      0x00\n        /* \"#utility.yul\":194:195   */\n      dup1\n        /* \"#utility.yul\":187:199   */\n      revert\n        /* \"#utility.yul\":334:460   */\n    tag_70:\n        /* \"#utility.yul\":371:378   */\n      0x00\n        /* \"#utility.yul\":411:453   */\n      0xffffffffffffffffffffffffffffffffffffffff\n        /* \"#utility.yul\":404:409   */\n      dup3\n        /* \"#utility.yul\":400:454   */\n      and\n        /* \"#utility.yul\":389:454   */\n      swap1\n      pop\n        /* \"#utility.yul\":334:460   */\n      swap2\n      swap1\n      pop\n      jump\t// out\n        /* \"#utility.yul\":466:562   */\n    tag_71:\n        /* \"#utility.yul\":503:510   */\n      0x00\n        /* \"#utility.yul\":532:556   */\n      tag_110\n        /* \"#utility.yul\":550:555   */\n      dup3\n        /* \"#utility.yul\":532:556   */\n      tag_70\n      jump\t// in\n    tag_110:\n        /* \"#utility.yul\":521:556   */\n      swap1\n      pop\n        /* \"#utility.yul\":466:562   */\n      swap2\n      swap1\n      pop\n      jump\t// out\n        /* \"#utility.yul\":568:690   */\n    tag_72:\n        /* \"#utility.yul\":641:665   */\n      tag_112\n        /* \"#utility.yul\":659:664   */\n      dup2\n        /* \"#utility.yul\":641:665   */\n      tag_71\n      jump\t// in\n    tag_112:\n        /* \"#utility.yul\":634:639   */\n      dup2\n        /* \"#utility.yul\":631:666   */\n      eq\n        /* \"#utility.yul\":621:684   */\n      tag_113\n      jumpi\n        /* \"#utility.yul\":680:681   */\n      0x00\n        /* \"#utility.yul\":677:678   */\n      dup1\n        /* \"#utility.yul\":670:682   */\n      revert\n        /* \"#utility.yul\":621:684   */\n    tag_113:\n        /* \"#utility.yul\":568:690   */\n      pop\n      jump\t// out\n        /* \"#utility.yul\":696:835   */\n    tag_73:\n        /* \"#utility.yul\":742:747   */\n      0x00\n        /* \"#utility.yul\":780:786   */\n      dup2\n        /* \"#utility.yul\":767:787   */\n      calldataload\n        /* \"#utility.yul\":758:787   */\n      swap1\n      pop\n        /* \"#utility.yul\":796:829   */\n      tag_115\n        /* \"#utility.yul\":823:828   */\n      dup2\n        /* \"#utility.yul\":796:829   */\n      tag_72\n      jump\t// in\n    tag_115:\n        /* \"#utility.yul\":696:835   */\n      swap3\n      swap2\n      pop\n      pop\n      jump\t// out\n        /* \"#utility.yul\":841:1170   */\n    tag_11:\n        /* \"#utility.yul\":900:906   */\n      0x00\n        /* \"#utility.yul\":949:951   */\n      0x20\n        /* \"#utility.yul\":937:946   */\n      dup3\n        /* \"#utility.yul\":928:935   */\n      dup5\n        /* \"#utility.yul\":924:947   */\n      sub\n        /* \"#utility.yul\":920:952   */\n      slt\n        /* \"#utility.yul\":917:1036   */\n      iszero\n      tag_117\n      jumpi\n        /* \"#utility.yul\":955:1034   */\n      tag_118\n      tag_68\n      jump\t// in\n    tag_118:\n        /* \"#utility.yul\":917:1036   */\n    tag_117:\n        /* \"#utility.yul\":1075:1076   */\n      0x00\n        /* \"#utility.yul\":1100:1153   */\n      tag_119\n        /* \"#utility.yul\":1145:1152   */\n      dup5\n        /* \"#utility.yul\":1136:1142   */\n      dup3\n        /* \"#utility.yul\":1125:1134   */\n      dup6\n        /* \"#utility.yul\":1121:1143   */\n      add\n        /* \"#utility.yul\":1100:1153   */\n      tag_73\n      jump\t// in\n    tag_119:\n        /* \"#utility.yul\":1090:1153   */\n      swap2\n      pop\n        /* \"#utility.yul\":1046:1163   */\n      pop\n        /* \"#utility.yul\":841:1170   */\n      swap3\n      swap2\n      pop\n      pop\n      jump\t// out\n        /* \"#utility.yul\":1176:1253   */\n    tag_74:\n        /* \"#utility.yul\":1213:1220   */\n      0x00\n        /* \"#utility.yul\":1242:1247   */\n      dup2\n        /* \"#utility.yul\":1231:1247   */\n      swap1\n      pop\n        /* \"#utility.yul\":1176:1253   */\n      swap2\n      swap1\n      pop\n      jump\t// out\n        /* \"#utility.yul\":1259:1377   */\n    tag_75:\n        /* \"#utility.yul\":1346:1370   */\n      tag_122\n        /* \"#utility.yul\":1364:1369   */\n      dup2\n        /* \"#utility.yul\":1346:1370   */\n      tag_74\n      jump\t// in\n    tag_122:\n        /* \"#utility.yul\":1341:1344   */\n      dup3\n        /* \"#utility.yul\":1334:1371   */\n      mstore\n        /* \"#utility.yul\":1259:1377   */\n      pop\n      pop\n      jump\t// out\n        /* \"#utility.yul\":1383:1605   */\n    tag_16:\n        /* \"#utility.yul\":1476:1480   */\n      0x00\n        /* \"#utility.yul\":1514:1516   */\n      0x20\n        /* \"#utility.yul\":1503:1512   */\n      dup3\n        /* \"#utility.yul\":1499:1517   */\n      add\n        /* \"#utility.yul\":1491:1517   */\n      swap1\n      pop\n        /* \"#utility.yul\":1527:1598   */\n      tag_124\n        /* \"#utility.yul\":1595:1596   */\n      0x00\n        /* \"#utility.yul\":1584:1593   */\n      dup4\n        /* \"#utility.yul\":1580:1597   */\n      add\n        /* \"#utility.yul\":1571:1577   */\n      dup5\n        /* \"#utility.yul\":1527:1598   */\n      tag_75\n      jump\t// in\n    tag_124:\n        /* \"#utility.yul\":1383:1605   */\n      swap3\n      swap2\n      pop\n      pop\n      jump\t// out\n        /* \"#utility.yul\":1611:1729   */\n    tag_76:\n        /* \"#utility.yul\":1698:1722   */\n      tag_126\n        /* \"#utility.yul\":1716:1721   */\n      dup2\n        /* \"#utility.yul\":1698:1722   */\n      tag_71\n      jump\t// in\n    tag_126:\n        /* \"#utility.yul\":1693:1696   */\n      dup3\n        /* \"#utility.yul\":1686:1723   */\n      mstore\n        /* \"#utility.yul\":1611:1729   */\n      pop\n      pop\n      jump\t// out\n        /* \"#utility.yul\":1735:1957   */\n    tag_22:\n        /* \"#utility.yul\":1828:1832   */\n      0x00\n        /* \"#utility.yul\":1866:1868   */\n      0x20\n        /* \"#utility.yul\":1855:1864   */\n      dup3\n        /* \"#utility.yul\":1851:1869   */\n      add\n        /* \"#utility.yul\":1843:1869   */\n      swap1\n      pop\n        /* \"#utility.yul\":1879:1950   */\n      tag_128\n        /* \"#utility.yul\":1947:1948   */\n      0x00\n        /* \"#utility.yul\":1936:1945   */\n      dup4\n        /* \"#utility.yul\":1932:1949   */\n      add\n        /* \"#utility.yul\":1923:1929   */\n      dup5\n        /* \"#utility.yul\":1879:1950   */\n      tag_76\n      jump\t// in\n    tag_128:\n        /* \"#utility.yul\":1735:1957   */\n      swap3\n      swap2\n      pop\n      pop\n      jump\t// out\n        /* \"#utility.yul\":1963:2085   */\n    tag_77:\n        /* \"#utility.yul\":2036:2060   */\n      tag_130\n        /* \"#utility.yul\":2054:2059   */\n      dup2\n        /* \"#utility.yul\":2036:2060   */\n      tag_74\n      jump\t// in\n    tag_130:\n        /* \"#utility.yul\":2029:2034   */\n      dup2\n        /* \"#utility.yul\":2026:2061   */\n      eq\n        /* \"#utility.yul\":2016:2079   */\n      tag_131\n      jumpi\n        /* \"#utility.yul\":2075:2076   */\n      0x00\n        /* \"#utility.yul\":2072:2073   */\n      dup1\n        /* \"#utility.yul\":2065:2077   */\n      revert\n        /* \"#utility.yul\":2016:2079   */\n    tag_131:\n        /* \"#utility.yul\":1963:2085   */\n      pop\n      jump\t// out\n        /* \"#utility.yul\":2091:2230   */\n    tag_78:\n        /* \"#utility.yul\":2137:2142   */\n      0x00\n        /* \"#utility.yul\":2175:2181   */\n      dup2\n        /* \"#utility.yul\":2162:2182   */\n      calldataload\n        /* \"#utility.yul\":2153:2182   */\n      swap1\n      pop\n        /* \"#utility.yul\":2191:2224   */\n      tag_133\n        /* \"#utility.yul\":2218:2223   */\n      dup2\n        /* \"#utility.yul\":2191:2224   */\n      tag_77\n      jump\t// in\n    tag_133:\n        /* \"#utility.yul\":2091:2230   */\n      swap3\n      swap2\n      pop\n      pop\n      jump\t// out\n        /* \"#utility.yul\":2236:2565   */\n    tag_25:\n        /* \"#utility.yul\":2295:2301   */\n      0x00\n        /* \"#utility.yul\":2344:2346   */\n      0x20\n        /* \"#utility.yul\":2332:2341   */\n      dup3\n        /* \"#utility.yul\":2323:2330   */\n      dup5\n        /* \"#utility.yul\":2319:2342   */\n      sub\n        /* \"#utility.yul\":2315:2347   */\n      slt\n        /* \"#utility.yul\":2312:2431   */\n      iszero\n      tag_135\n      jumpi\n        /* \"#utility.yul\":2350:2429   */\n      tag_136\n      tag_68\n      jump\t// in\n    tag_136:\n        /* \"#utility.yul\":2312:2431   */\n    tag_135:\n        /* \"#utility.yul\":2470:2471   */\n      0x00\n        /* \"#utility.yul\":2495:2548   */\n      tag_137\n        /* \"#utility.yul\":2540:2547   */\n      dup5\n        /* \"#utility.yul\":2531:2537   */\n      dup3\n        /* \"#utility.yul\":2520:2529   */\n      dup6\n        /* \"#utility.yul\":2516:2538   */\n      add\n        /* \"#utility.yul\":2495:2548   */\n      tag_78\n      jump\t// in\n    tag_137:\n        /* \"#utility.yul\":2485:2548   */\n      swap2\n      pop\n        /* \"#utility.yul\":2441:2558   */\n      pop\n        /* \"#utility.yul\":2236:2565   */\n      swap3\n      swap2\n      pop\n      pop\n      jump\t// out\n        /* \"#utility.yul\":2571:2669   */\n    tag_79:\n        /* \"#utility.yul\":2622:2628   */\n      0x00\n        /* \"#utility.yul\":2656:2661   */\n      dup2\n        /* \"#utility.yul\":2650:2662   */\n      mload\n        /* \"#utility.yul\":2640:2662   */\n      swap1\n      pop\n        /* \"#utility.yul\":2571:2669   */\n      swap2\n      swap1\n      pop\n      jump\t// out\n        /* \"#utility.yul\":2675:2822   */\n    tag_80:\n        /* \"#utility.yul\":2776:2787   */\n      0x00\n        /* \"#utility.yul\":2813:2816   */\n      dup2\n        /* \"#utility.yul\":2798:2816   */\n      swap1\n      pop\n        /* \"#utility.yul\":2675:2822   */\n      swap3\n      swap2\n      pop\n      pop\n      jump\t// out\n        /* \"#utility.yul\":2828:2967   */\n    tag_81:\n        /* \"#utility.yul\":2917:2923   */\n      dup3\n        /* \"#utility.yul\":2912:2915   */\n      dup2\n        /* \"#utility.yul\":2907:2910   */\n      dup4\n        /* \"#utility.yul\":2901:2924   */\n      mcopy\n        /* \"#utility.yul\":2958:2959   */\n      0x00\n        /* \"#utility.yul\":2949:2955   */\n      dup4\n        /* \"#utility.yul\":2944:2947   */\n      dup4\n        /* \"#utility.yul\":2940:2956   */\n      add\n        /* \"#utility.yul\":2933:2960   */\n      mstore\n        /* \"#utility.yul\":2828:2967   */\n      pop\n      pop\n      pop\n      jump\t// out\n        /* \"#utility.yul\":2973:3359   */\n    tag_82:\n        /* \"#utility.yul\":3077:3080   */\n      0x00\n        /* \"#utility.yul\":3105:3143   */\n      tag_142\n        /* \"#utility.yul\":3137:3142   */\n      dup3\n        /* \"#utility.yul\":3105:3143   */\n      tag_79\n      jump\t// in\n    tag_142:\n        /* \"#utility.yul\":3159:3247   */\n      tag_143\n        /* \"#utility.yul\":3240:3246   */\n      dup2\n        /* \"#utility.yul\":3235:3238   */\n      dup6\n        /* \"#utility.yul\":3159:3247   */\n      tag_80\n      jump\t// in\n    tag_143:\n        /* \"#utility.yul\":3152:3247   */\n      swap4\n      pop\n        /* \"#utility.yul\":3256:3321   */\n      tag_144\n        /* \"#utility.yul\":3314:3320   */\n      dup2\n        /* \"#utility.yul\":3309:3312   */\n      dup6\n        /* \"#utility.yul\":3302:3306   */\n      0x20\n        /* \"#utility.yul\":3295:3300   */\n      dup7\n        /* \"#utility.yul\":3291:3307   */\n      add\n        /* \"#utility.yul\":3256:3321   */\n      tag_81\n      jump\t// in\n    tag_144:\n        /* \"#utility.yul\":3346:3352   */\n      dup1\n        /* \"#utility.yul\":3341:3344   */\n      dup5\n        /* \"#utility.yul\":3337:3353   */\n      add\n        /* \"#utility.yul\":3330:3353   */\n      swap2\n      pop\n        /* \"#utility.yul\":3081:3359   */\n      pop\n        /* \"#utility.yul\":2973:3359   */\n      swap3\n      swap2\n      pop\n      pop\n      jump\t// out\n        /* \"#utility.yul\":3365:3636   */\n    tag_43:\n        /* \"#utility.yul\":3495:3498   */\n      0x00\n        /* \"#utility.yul\":3517:3610   */\n      tag_146\n        /* \"#utility.yul\":3606:3609   */\n      dup3\n        /* \"#utility.yul\":3597:3603   */\n      dup5\n        /* \"#utility.yul\":3517:3610   */\n      tag_82\n      jump\t// in\n    tag_146:\n        /* \"#utility.yul\":3510:3610   */\n      swap2\n      pop\n        /* \"#utility.yul\":3627:3630   */\n      dup2\n        /* \"#utility.yul\":3620:3630   */\n      swap1\n      pop\n        /* \"#utility.yul\":3365:3636   */\n      swap3\n      swap2\n      pop\n      pop\n      jump\t// out\n        /* \"#utility.yul\":3642:3811   */\n    tag_83:\n        /* \"#utility.yul\":3726:3737   */\n      0x00\n        /* \"#utility.yul\":3760:3766   */\n      dup3\n        /* \"#utility.yul\":3755:3758   */\n      dup3\n        /* \"#utility.yul\":3748:3767   */\n      mstore\n        /* \"#utility.yul\":3800:3804   */\n      0x20\n        /* \"#utility.yul\":3795:3798   */\n      dup3\n        /* \"#utility.yul\":3791:3805   */\n      add\n        /* \"#utility.yul\":3776:3805   */\n      swap1\n      pop\n        /* \"#utility.yul\":3642:3811   */\n      swap3\n      swap2\n      pop\n      pop\n      jump\t// out\n        /* \"#utility.yul\":3817:3990   */\n    tag_84:\n        /* \"#utility.yul\":3957:3982   */\n      0x4661696c656420746f2044656c69676174652063616c6c000000000000000000\n        /* \"#utility.yul\":3953:3954   */\n      0x00\n        /* \"#utility.yul\":3945:3951   */\n      dup3\n        /* \"#utility.yul\":3941:3955   */\n      add\n        /* \"#utility.yul\":3934:3983   */\n      mstore\n        /* \"#utility.yul\":3817:3990   */\n      pop\n      jump\t// out\n        /* \"#utility.yul\":3996:4362   */\n    tag_85:\n        /* \"#utility.yul\":4138:4141   */\n      0x00\n        /* \"#utility.yul\":4159:4226   */\n      tag_150\n        /* \"#utility.yul\":4223:4225   */\n      0x17\n        /* \"#utility.yul\":4218:4221   */\n      dup4\n        /* \"#utility.yul\":4159:4226   */\n      tag_83\n      jump\t// in\n    tag_150:\n        /* \"#utility.yul\":4152:4226   */\n      swap2\n      pop\n        /* \"#utility.yul\":4235:4328   */\n      tag_151\n        /* \"#utility.yul\":4324:4327   */\n      dup3\n        /* \"#utility.yul\":4235:4328   */\n      tag_84\n      jump\t// in\n    tag_151:\n        /* \"#utility.yul\":4353:4355   */\n      0x20\n        /* \"#utility.yul\":4348:4351   */\n      dup3\n        /* \"#utility.yul\":4344:4356   */\n      add\n        /* \"#utility.yul\":4337:4356   */\n      swap1\n      pop\n        /* \"#utility.yul\":3996:4362   */\n      swap2\n      swap1\n      pop\n      jump\t// out\n        /* \"#utility.yul\":4368:4787   */\n    tag_49:\n        /* \"#utility.yul\":4534:4538   */\n      0x00\n        /* \"#utility.yul\":4572:4574   */\n      0x20\n        /* \"#utility.yul\":4561:4570   */\n      dup3\n        /* \"#utility.yul\":4557:4575   */\n      add\n        /* \"#utility.yul\":4549:4575   */\n      swap1\n      pop\n        /* \"#utility.yul\":4621:4630   */\n      dup2\n        /* \"#utility.yul\":4615:4619   */\n      dup2\n        /* \"#utility.yul\":4611:4631   */\n      sub\n        /* \"#utility.yul\":4607:4608   */\n      0x00\n        /* \"#utility.yul\":4596:4605   */\n      dup4\n        /* \"#utility.yul\":4592:4609   */\n      add\n        /* \"#utility.yul\":4585:4632   */\n      mstore\n        /* \"#utility.yul\":4649:4780   */\n      tag_153\n        /* \"#utility.yul\":4775:4779   */\n      dup2\n        /* \"#utility.yul\":4649:4780   */\n      tag_85\n      jump\t// in\n    tag_153:\n        /* \"#utility.yul\":4641:4780   */\n      swap1\n      pop\n        /* \"#utility.yul\":4368:4787   */\n      swap2\n      swap1\n      pop\n      jump\t// out\n        /* \"#utility.yul\":4793:4973   */\n    tag_86:\n        /* \"#utility.yul\":4841:4918   */\n      0x4e487b7100000000000000000000000000000000000000000000000000000000\n        /* \"#utility.yul\":4838:4839   */\n      0x00\n        /* \"#utility.yul\":4831:4919   */\n      mstore\n        /* \"#utility.yul\":4938:4942   */\n      0x41\n        /* \"#utility.yul\":4935:4936   */\n      0x04\n        /* \"#utility.yul\":4928:4943   */\n      mstore\n        /* \"#utility.yul\":4962:4966   */\n      0x24\n        /* \"#utility.yul\":4959:4960   */\n      0x00\n        /* \"#utility.yul\":4952:4967   */\n      revert\n        /* \"#utility.yul\":4979:5159   */\n    tag_87:\n        /* \"#utility.yul\":5027:5104   */\n      0x4e487b7100000000000000000000000000000000000000000000000000000000\n        /* \"#utility.yul\":5024:5025   */\n      0x00\n        /* \"#utility.yul\":5017:5105   */\n      mstore\n        /* \"#utility.yul\":5124:5128   */\n      0x22\n        /* \"#utility.yul\":5121:5122   */\n      0x04\n        /* \"#utility.yul\":5114:5129   */\n      mstore\n        /* \"#utility.yul\":5148:5152   */\n      0x24\n        /* \"#utility.yul\":5145:5146   */\n      0x00\n        /* \"#utility.yul\":5138:5153   */\n      revert\n        /* \"#utility.yul\":5165:5485   */\n    tag_88:\n        /* \"#utility.yul\":5209:5215   */\n      0x00\n        /* \"#utility.yul\":5246:5247   */\n      0x02\n        /* \"#utility.yul\":5240:5244   */\n      dup3\n        /* \"#utility.yul\":5236:5248   */\n      div\n        /* \"#utility.yul\":5226:5248   */\n      swap1\n      pop\n        /* \"#utility.yul\":5293:5294   */\n      0x01\n        /* \"#utility.yul\":5287:5291   */\n      dup3\n        /* \"#utility.yul\":5283:5295   */\n      and\n        /* \"#utility.yul\":5314:5332   */\n      dup1\n        /* \"#utility.yul\":5304:5385   */\n      tag_157\n      jumpi\n        /* \"#utility.yul\":5370:5374   */\n      0x7f\n        /* \"#utility.yul\":5362:5368   */\n      dup3\n        /* \"#utility.yul\":5358:5375   */\n      and\n        /* \"#utility.yul\":5348:5375   */\n      swap2\n      pop\n        /* \"#utility.yul\":5304:5385   */\n    tag_157:\n        /* \"#utility.yul\":5432:5434   */\n      0x20\n        /* \"#utility.yul\":5424:5430   */\n      dup3\n        /* \"#utility.yul\":5421:5435   */\n      lt\n        /* \"#utility.yul\":5401:5419   */\n      dup2\n        /* \"#utility.yul\":5398:5436   */\n      sub\n        /* \"#utility.yul\":5395:5479   */\n      tag_158\n      jumpi\n        /* \"#utility.yul\":5451:5469   */\n      tag_159\n      tag_87\n      jump\t// in\n    tag_159:\n        /* \"#utility.yul\":5395:5479   */\n    tag_158:\n        /* \"#utility.yul\":5216:5485   */\n      pop\n        /* \"#utility.yul\":5165:5485   */\n      swap2\n      swap1\n      pop\n      jump\t// out\n        /* \"#utility.yul\":5491:5631   */\n    tag_89:\n        /* \"#utility.yul\":5539:5543   */\n      0x00\n        /* \"#utility.yul\":5562:5565   */\n      dup2\n        /* \"#utility.yul\":5554:5565   */\n      swap1\n      pop\n        /* \"#utility.yul\":5585:5588   */\n      dup2\n        /* \"#utility.yul\":5582:5583   */\n      0x00\n        /* \"#utility.yul\":5575:5589   */\n      mstore\n        /* \"#utility.yul\":5619:5623   */\n      0x20\n        /* \"#utility.yul\":5616:5617   */\n      0x00\n        /* \"#utility.yul\":5606:5624   */\n      keccak256\n        /* \"#utility.yul\":5598:5624   */\n      swap1\n      pop\n        /* \"#utility.yul\":5491:5631   */\n      swap2\n      swap1\n      pop\n      jump\t// out\n        /* \"#utility.yul\":5637:5730   */\n    tag_90:\n        /* \"#utility.yul\":5674:5680   */\n      0x00\n        /* \"#utility.yul\":5721:5723   */\n      0x20\n        /* \"#utility.yul\":5716:5718   */\n      0x1f\n        /* \"#utility.yul\":5709:5714   */\n      dup4\n        /* \"#utility.yul\":5705:5719   */\n      add\n        /* \"#utility.yul\":5701:5724   */\n      div\n        /* \"#utility.yul\":5691:5724   */\n      swap1\n      pop\n        /* \"#utility.yul\":5637:5730   */\n      swap2\n      swap1\n      pop\n      jump\t// out\n        /* \"#utility.yul\":5736:5843   */\n    tag_91:\n        /* \"#utility.yul\":5780:5788   */\n      0x00\n        /* \"#utility.yul\":5830:5835   */\n      dup3\n        /* \"#utility.yul\":5824:5828   */\n      dup3\n        /* \"#utility.yul\":5820:5836   */\n      shl\n        /* \"#utility.yul\":5799:5836   */\n      swap1\n      pop\n        /* \"#utility.yul\":5736:5843   */\n      swap3\n      swap2\n      pop\n      pop\n      jump\t// out\n        /* \"#utility.yul\":5849:6242   */\n    tag_92:\n        /* \"#utility.yul\":5918:5924   */\n      0x00\n        /* \"#utility.yul\":5968:5969   */\n      0x08\n        /* \"#utility.yul\":5956:5966   */\n      dup4\n        /* \"#utility.yul\":5952:5970   */\n      mul\n        /* \"#utility.yul\":5991:6088   */\n      tag_164\n        /* \"#utility.yul\":6021:6087   */\n      0xffffffffffffffffffffffffffffffffffffffffffffffffffffffffffffffff\n        /* \"#utility.yul\":6010:6019   */\n      dup3\n        /* \"#utility.yul\":5991:6088   */\n      tag_91\n      jump\t// in\n    tag_164:\n        /* \"#utility.yul\":6109:6148   */\n      tag_165\n        /* \"#utility.yul\":6139:6147   */\n      dup7\n        /* \"#utility.yul\":6128:6137   */\n      dup4\n        /* \"#utility.yul\":6109:6148   */\n      tag_91\n      jump\t// in\n    tag_165:\n        /* \"#utility.yul\":6097:6148   */\n      swap6\n      pop\n        /* \"#utility.yul\":6181:6185   */\n      dup1\n        /* \"#utility.yul\":6177:6186   */\n      not\n        /* \"#utility.yul\":6170:6175   */\n      dup5\n        /* \"#utility.yul\":6166:6187   */\n      and\n        /* \"#utility.yul\":6157:6187   */\n      swap4\n      pop\n        /* \"#utility.yul\":6230:6234   */\n      dup1\n        /* \"#utility.yul\":6220:6228   */\n      dup7\n        /* \"#utility.yul\":6216:6235   */\n      and\n        /* \"#utility.yul\":6209:6214   */\n      dup5\n        /* \"#utility.yul\":6206:6236   */\n      or\n        /* \"#utility.yul\":6196:6236   */\n      swap3\n      pop\n        /* \"#utility.yul\":5925:6242   */\n      pop\n      pop\n        /* \"#utility.yul\":5849:6242   */\n      swap4\n      swap3\n      pop\n      pop\n      pop\n      jump\t// out\n        /* \"#utility.yul\":6248:6308   */\n    tag_93:\n        /* \"#utility.yul\":6276:6279   */\n      0x00\n        /* \"#utility.yul\":6297:6302   */\n      dup2\n        /* \"#utility.yul\":6290:6302   */\n      swap1\n      pop\n        /* \"#utility.yul\":6248:6308   */\n      swap2\n      swap1\n      pop\n      jump\t// out\n        /* \"#utility.yul\":6314:6456   */\n    tag_94:\n        /* \"#utility.yul\":6364:6373   */\n      0x00\n        /* \"#utility.yul\":6397:6450   */\n      tag_168\n        /* \"#utility.yul\":6415:6449   */\n      tag_169\n        /* \"#utility.yul\":6424:6448   */\n      tag_170\n        /* \"#utility.yul\":6442:6447   */\n      dup5\n        /* \"#utility.yul\":6424:6448   */\n      tag_74\n      jump\t// in\n    tag_170:\n        /* \"#utility.yul\":6415:6449   */\n      tag_93\n      jump\t// in\n    tag_169:\n        /* \"#utility.yul\":6397:6450   */\n      tag_74\n      jump\t// in\n    tag_168:\n        /* \"#utility.yul\":6384:6450   */\n      swap1\n      pop\n        /* \"#utility.yul\":6314:6456   */\n      swap2\n      swap1\n      pop\n      jump\t// out\n        /* \"#utility.yul\":6462:6537   */\n    tag_95:\n        /* \"#utility.yul\":6505:6508   */\n      0x00\n        /* \"#utility.yul\":6526:6531   */\n      dup2\n        /* \"#utility.yul\":6519:6531   */\n      swap1\n      pop\n        /* \"#utility.yul\":6462:6537   */\n      swap2\n      swap1\n      pop\n      jump\t// out\n        /* \"#utility.yul\":6543:6812   */\n    tag_96:\n        /* \"#utility.yul\":6653:6692   */\n      tag_173\n        /* \"#utility.yul\":6684:6691   */\n      dup4\n        /* \"#utility.yul\":6653:6692   */\n      tag_94\n      jump\t// in\n    tag_173:\n        /* \"#utility.yul\":6714:6805   */\n      tag_174\n        /* \"#utility.yul\":6763:6804   */\n      tag_175\n        /* \"#utility.yul\":6787:6803   */\n      dup3\n        /* \"#utility.yul\":6763:6804   */\n      tag_95\n      jump\t// in\n    tag_175:\n        /* \"#utility.yul\":6755:6761   */\n      dup5\n        /* \"#utility.yul\":6748:6752   */\n      dup5\n        /* \"#utility.yul\":6742:6753   */\n      sload\n        /* \"#utility.yul\":6714:6805   */\n      tag_92\n      jump\t// in\n    tag_174:\n        /* \"#utility.yul\":6708:6712   */\n      dup3\n        /* \"#utility.yul\":6701:6806   */\n      sstore\n        /* \"#utility.yul\":6619:6812   */\n      pop\n        /* \"#utility.yul\":6543:6812   */\n      pop\n      pop\n      pop\n      jump\t// out\n        /* \"#utility.yul\":6818:6891   */\n    tag_97:\n        /* \"#utility.yul\":6863:6866   */\n      0x00\n        /* \"#utility.yul\":6818:6891   */\n      swap1\n      jump\t// out\n        /* \"#utility.yul\":6897:7086   */\n    tag_98:\n        /* \"#utility.yul\":6974:7006   */\n      tag_178\n      tag_97\n      jump\t// in\n    tag_178:\n        /* \"#utility.yul\":7015:7080   */\n      tag_179\n        /* \"#utility.yul\":7073:7079   */\n      dup2\n        /* \"#utility.yul\":7065:7071   */\n      dup5\n        /* \"#utility.yul\":7059:7063   */\n      dup5\n        /* \"#utility.yul\":7015:7080   */\n      tag_96\n      jump\t// in\n    tag_179:\n        /* \"#utility.yul\":6950:7086   */\n      pop\n        /* \"#utility.yul\":6897:7086   */\n      pop\n      pop\n      jump\t// out\n        /* \"#utility.yul\":7092:7278   */\n    tag_99:\n        /* \"#utility.yul\":7152:7272   */\n    tag_181:\n        /* \"#utility.yul\":7169:7172   */\n      dup2\n        /* \"#utility.yul\":7162:7167   */\n      dup2\n        /* \"#utility.yul\":7159:7173   */\n      lt\n        /* \"#utility.yul\":7152:7272   */\n      iszero\n      tag_183\n      jumpi\n        /* \"#utility.yul\":7223:7262   */\n      tag_184\n        /* \"#utility.yul\":7260:7261   */\n      0x00\n        /* \"#utility.yul\":7253:7258   */\n      dup3\n        /* \"#utility.yul\":7223:7262   */\n      tag_98\n      jump\t// in\n    tag_184:\n        /* \"#utility.yul\":7196:7197   */\n      0x01\n        /* \"#utility.yul\":7189:7194   */\n      dup2\n        /* \"#utility.yul\":7185:7198   */\n      add\n        /* \"#utility.yul\":7176:7198   */\n      swap1\n      pop\n        /* \"#utility.yul\":7152:7272   */\n      jump(tag_181)\n    tag_183:\n        /* \"#utility.yul\":7092:7278   */\n      pop\n      pop\n      jump\t// out\n        /* \"#utility.yul\":7284:7825   */\n    tag_100:\n        /* \"#utility.yul\":7384:7386   */\n      0x1f\n        /* \"#utility.yul\":7379:7382   */\n      dup3\n        /* \"#utility.yul\":7376:7387   */\n      gt\n        /* \"#utility.yul\":7373:7818   */\n      iszero\n      tag_186\n      jumpi\n        /* \"#utility.yul\":7418:7455   */\n      tag_187\n        /* \"#utility.yul\":7449:7454   */\n      dup2\n        /* \"#utility.yul\":7418:7455   */\n      tag_89\n      jump\t// in\n    tag_187:\n        /* \"#utility.yul\":7501:7530   */\n      tag_188\n        /* \"#utility.yul\":7519:7529   */\n      dup5\n        /* \"#utility.yul\":7501:7530   */\n      tag_90\n      jump\t// in\n    tag_188:\n        /* \"#utility.yul\":7491:7499   */\n      dup2\n        /* \"#utility.yul\":7487:7531   */\n      add\n        /* \"#utility.yul\":7684:7686   */\n      0x20\n        /* \"#utility.yul\":7672:7682   */\n      dup6\n        /* \"#utility.yul\":7669:7687   */\n      lt\n        /* \"#utility.yul\":7666:7715   */\n      iszero\n      tag_189\n      jumpi\n        /* \"#utility.yul\":7705:7713   */\n      dup2\n        /* \"#utility.yul\":7690:7713   */\n      swap1\n      pop\n        /* \"#utility.yul\":7666:7715   */\n    tag_189:\n        /* \"#utility.yul\":7728:7808   */\n      tag_190\n        /* \"#utility.yul\":7784:7806   */\n      tag_191\n        /* \"#utility.yul\":7802:7805   */\n      dup6\n        /* \"#utility.yul\":7784:7806   */\n      tag_90\n      jump\t// in\n    tag_191:\n        /* \"#utility.yul\":7774:7782   */\n      dup4\n        /* \"#utility.yul\":7770:7807   */\n      add\n        /* \"#utility.yul\":7757:7768   */\n      dup3\n        /* \"#utility.yul\":7728:7808   */\n      tag_99\n      jump\t// in\n    tag_190:\n        /* \"#utility.yul\":7388:7818   */\n      pop\n      pop\n        /* \"#utility.yul\":7373:7818   */\n    tag_186:\n        /* \"#utility.yul\":7284:7825   */\n      pop\n      pop\n      pop\n      jump\t// out\n        /* \"#utility.yul\":7831:7948   */\n    tag_101:\n        /* \"#utility.yul\":7885:7893   */\n      0x00\n        /* \"#utility.yul\":7935:7940   */\n      dup3\n        /* \"#utility.yul\":7929:7933   */\n      dup3\n        /* \"#utility.yul\":7925:7941   */\n      shr\n        /* \"#utility.yul\":7904:7941   */\n      swap1\n      pop\n        /* \"#utility.yul\":7831:7948   */\n      swap3\n      swap2\n      pop\n      pop\n      jump\t// out\n        /* \"#utility.yul\":7954:8123   */\n    tag_102:\n        /* \"#utility.yul\":7998:8004   */\n      0x00\n        /* \"#utility.yul\":8031:8082   */\n      tag_194\n        /* \"#utility.yul\":8079:8080   */\n      0x00\n        /* \"#utility.yul\":8075:8081   */\n      not\n        /* \"#utility.yul\":8067:8072   */\n      dup5\n        /* \"#utility.yul\":8064:8065   */\n      0x08\n        /* \"#utility.yul\":8060:8073   */\n      mul\n        /* \"#utility.yul\":8031:8082   */\n      tag_101\n      jump\t// in\n    tag_194:\n        /* \"#utility.yul\":8027:8083   */\n      not\n        /* \"#utility.yul\":8112:8116   */\n      dup1\n        /* \"#utility.yul\":8106:8110   */\n      dup4\n        /* \"#utility.yul\":8102:8117   */\n      and\n        /* \"#utility.yul\":8092:8117   */\n      swap2\n      pop\n        /* \"#utility.yul\":8005:8123   */\n      pop\n        /* \"#utility.yul\":7954:8123   */\n      swap3\n      swap2\n      pop\n      pop\n      jump\t// out\n        /* \"#utility.yul\":8128:8423   */\n    tag_103:\n        /* \"#utility.yul\":8204:8208   */\n      0x00\n        /* \"#utility.yul\":8350:8379   */\n      tag_196\n        /* \"#utility.yul\":8375:8378   */\n      dup4\n        /* \"#utility.yul\":8369:8373   */\n      dup4\n        /* \"#utility.yul\":8350:8379   */\n      tag_102\n      jump\t// in\n    tag_196:\n        /* \"#utility.yul\":8342:8379   */\n      swap2\n      pop\n        /* \"#utility.yul\":8412:8415   */\n      dup3\n        /* \"#utility.yul\":8409:8410   */\n      0x02\n        /* \"#utility.yul\":8405:8416   */\n      mul\n        /* \"#utility.yul\":8399:8403   */\n      dup3\n        /* \"#utility.yul\":8396:8417   */\n      or\n        /* \"#utility.yul\":8388:8417   */\n      swap1\n      pop\n        /* \"#utility.yul\":8128:8423   */\n      swap3\n      swap2\n      pop\n      pop\n      jump\t// out\n        /* \"#utility.yul\":8428:9818   */\n    tag_51:\n        /* \"#utility.yul\":8543:8579   */\n      tag_198\n        /* \"#utility.yul\":8575:8578   */\n      dup3\n        /* \"#utility.yul\":8543:8579   */\n      tag_79\n      jump\t// in\n    tag_198:\n        /* \"#utility.yul\":8644:8662   */\n      0xffffffffffffffff\n        /* \"#utility.yul\":8636:8642   */\n      dup2\n        /* \"#utility.yul\":8633:8663   */\n      gt\n        /* \"#utility.yul\":8630:8686   */\n      iszero\n      tag_199\n      jumpi\n        /* \"#utility.yul\":8666:8684   */\n      tag_200\n      tag_86\n      jump\t// in\n    tag_200:\n        /* \"#utility.yul\":8630:8686   */\n    tag_199:\n        /* \"#utility.yul\":8710:8748   */\n      tag_201\n        /* \"#utility.yul\":8742:8746   */\n      dup3\n        /* \"#utility.yul\":8736:8747   */\n      sload\n        /* \"#utility.yul\":8710:8748   */\n      tag_88\n      jump\t// in\n    tag_201:\n        /* \"#utility.yul\":8795:8861   */\n      tag_202\n        /* \"#utility.yul\":8854:8860   */\n      dup3\n        /* \"#utility.yul\":8846:8852   */\n      dup3\n        /* \"#utility.yul\":8840:8844   */\n      dup6\n        /* \"#utility.yul\":8795:8861   */\n      tag_100\n      jump\t// in\n    tag_202:\n        /* \"#utility.yul\":8888:8889   */\n      0x00\n        /* \"#utility.yul\":8912:8916   */\n      0x20\n        /* \"#utility.yul\":8899:8916   */\n      swap1\n      pop\n        /* \"#utility.yul\":8944:8946   */\n      0x1f\n        /* \"#utility.yul\":8936:8942   */\n      dup4\n        /* \"#utility.yul\":8933:8947   */\n      gt\n        /* \"#utility.yul\":8961:8962   */\n      0x01\n        /* \"#utility.yul\":8956:9573   */\n      dup2\n      eq\n      tag_204\n      jumpi\n        /* \"#utility.yul\":9617:9618   */\n      0x00\n        /* \"#utility.yul\":9634:9640   */\n      dup5\n        /* \"#utility.yul\":9631:9708   */\n      iszero\n      tag_205\n      jumpi\n        /* \"#utility.yul\":9683:9692   */\n      dup3\n        /* \"#utility.yul\":9678:9681   */\n      dup8\n        /* \"#utility.yul\":9674:9693   */\n      add\n        /* \"#utility.yul\":9668:9694   */\n      mload\n        /* \"#utility.yul\":9659:9694   */\n      swap1\n      pop\n        /* \"#utility.yul\":9631:9708   */\n    tag_205:\n        /* \"#utility.yul\":9734:9801   */\n      tag_206\n        /* \"#utility.yul\":9794:9800   */\n      dup6\n        /* \"#utility.yul\":9787:9792   */\n      dup3\n        /* \"#utility.yul\":9734:9801   */\n      tag_103\n      jump\t// in\n    tag_206:\n        /* \"#utility.yul\":9728:9732   */\n      dup7\n        /* \"#utility.yul\":9721:9802   */\n      sstore\n        /* \"#utility.yul\":9590:9812   */\n      pop\n        /* \"#utility.yul\":8926:9812   */\n      jump(tag_203)\n        /* \"#utility.yul\":8956:9573   */\n    tag_204:\n        /* \"#utility.yul\":9008:9012   */\n      0x1f\n        /* \"#utility.yul\":9004:9013   */\n      not\n        /* \"#utility.yul\":8996:9002   */\n      dup5\n        /* \"#utility.yul\":8992:9014   */\n      and\n        /* \"#utility.yul\":9042:9078   */\n      tag_207\n        /* \"#utility.yul\":9073:9077   */\n      dup7\n        /* \"#utility.yul\":9042:9078   */\n      tag_89\n      jump\t// in\n    tag_207:\n        /* \"#utility.yul\":9100:9101   */\n      0x00\n        /* \"#utility.yul\":9114:9322   */\n    tag_208:\n        /* \"#utility.yul\":9128:9135   */\n      dup3\n        /* \"#utility.yul\":9125:9126   */\n      dup2\n        /* \"#utility.yul\":9122:9136   */\n      lt\n        /* \"#utility.yul\":9114:9322   */\n      iszero\n      tag_210\n      jumpi\n        /* \"#utility.yul\":9207:9216   */\n      dup5\n        /* \"#utility.yul\":9202:9205   */\n      dup10\n        /* \"#utility.yul\":9198:9217   */\n      add\n        /* \"#utility.yul\":9192:9218   */\n      mload\n        /* \"#utility.yul\":9184:9190   */\n      dup3\n        /* \"#utility.yul\":9177:9219   */\n      sstore\n        /* \"#utility.yul\":9258:9259   */\n      0x01\n        /* \"#utility.yul\":9250:9256   */\n      dup3\n        /* \"#utility.yul\":9246:9260   */\n      add\n        /* \"#utility.yul\":9236:9260   */\n      swap2\n      pop\n        /* \"#utility.yul\":9305:9307   */\n      0x20\n        /* \"#utility.yul\":9294:9303   */\n      dup6\n        /* \"#utility.yul\":9290:9308   */\n      add\n        /* \"#utility.yul\":9277:9308   */\n      swap5\n      pop\n        /* \"#utility.yul\":9151:9155   */\n      0x20\n        /* \"#utility.yul\":9148:9149   */\n      dup2\n        /* \"#utility.yul\":9144:9156   */\n      add\n        /* \"#utility.yul\":9139:9156   */\n      swap1\n      pop\n        /* \"#utility.yul\":9114:9322   */\n      jump(tag_208)\n    tag_210:\n        /* \"#utility.yul\":9350:9356   */\n      dup7\n        /* \"#utility.yul\":9341:9348   */\n      dup4\n        /* \"#utility.yul\":9338:9357   */\n      lt\n        /* \"#utility.yul\":9335:9514   */\n      iszero\n      tag_211\n      jumpi\n        /* \"#utility.yul\":9408:9417   */\n      dup5\n        /* \"#utility.yul\":9403:9406   */\n      dup10\n        /* \"#utility.yul\":9399:9418   */\n      add\n        /* \"#utility.yul\":9393:9419   */\n      mload\n        /* \"#utility.yul\":9451:9499   */\n      tag_212\n        /* \"#utility.yul\":9493:9497   */\n      0x1f\n        /* \"#utility.yul\":9485:9491   */\n      dup10\n        /* \"#utility.yul\":9481:9498   */\n      and\n        /* \"#utility.yul\":9470:9479   */\n      dup3\n        /* \"#utility.yul\":9451:9499   */\n      tag_102\n      jump\t// in\n    tag_212:\n        /* \"#utility.yul\":9443:9449   */\n      dup4\n        /* \"#utility.yul\":9436:9500   */\n      sstore\n        /* \"#utility.yul\":9358:9514   */\n      pop\n        /* \"#utility.yul\":9335:9514   */\n    tag_211:\n        /* \"#utility.yul\":9560:9561   */\n      0x01\n        /* \"#utility.yul\":9556:9557   */\n      0x02\n        /* \"#utility.yul\":9548:9554   */\n      dup9\n        /* \"#utility.yul\":9544:9558   */\n      mul\n        /* \"#utility.yul\":9540:9562   */\n      add\n        /* \"#utility.yul\":9534:9538   */\n      dup9\n        /* \"#utility.yul\":9527:9563   */\n      sstore\n        /* \"#utility.yul\":8963:9573   */\n      pop\n      pop\n      pop\n        /* \"#utility.yul\":8926:9812   */\n    tag_203:\n      pop\n        /* \"#utility.yul\":8518:9818   */\n      pop\n      pop\n      pop\n        /* \"#utility.yul\":8428:9818   */\n      pop\n      pop\n      jump\t// out\n\n    auxdata: 0xa264697066735822122052f55d3c4d274f9acf1485c728d095c108efe3060928fea8c71eeb5ac350698a64736f6c634300081a0033\n}\n",
				"bytecode": {
					"linkReferences": {},
					"object": "608060405234801561000f575f80fd5b50335f73ffffffffffffffffffffffffffffffffffffffff168173ffffffffffffffffffffffffffffffffffffffff1603610081575f6040517f1e4fbdf7000000000000000000000000000000000000000000000000000000008152600401610078919061019d565b60405180910390fd5b6100908161009d60201b60201c565b505f6001819055506101b6565b5f805f9054906101000a900473ffffffffffffffffffffffffffffffffffffffff169050815f806101000a81548173ffffffffffffffffffffffffffffffffffffffff021916908373ffffffffffffffffffffffffffffffffffffffff1602179055508173ffffffffffffffffffffffffffffffffffffffff168173ffffffffffffffffffffffffffffffffffffffff167f8be0079c531659141344cd1fd0a4f28419497f9722a3daafe3b4186f6b6457e060405160405180910390a35050565b5f73ffffffffffffffffffffffffffffffffffffffff82169050919050565b5f6101878261015e565b9050919050565b6101978161017d565b82525050565b5f6020820190506101b05f83018461018e565b92915050565b610a0b806101c35f395ff3fe608060405234801561000f575f80fd5b5060043610610060575f3560e01c8063424fd42a146100645780634e70b1dc14610080578063715018a61461009e5780638da5cb5b146100a8578063cd16ecbf146100c6578063f2fde38b146100e2575b5f80fd5b61007e60048036038101906100799190610526565b6100fe565b005b610088610149565b6040516100959190610569565b60405180910390f35b6100a661014f565b005b6100b0610162565b6040516100bd9190610591565b60405180910390f35b6100e060048036038101906100db91906105d4565b610189565b005b6100fc60048036038101906100f79190610526565b6102f5565b005b610106610379565b8060025f6101000a81548173ffffffffffffffffffffffffffffffffffffffff021916908373ffffffffffffffffffffffffffffffffffffffff16021790555050565b60015481565b610157610379565b6101605f610400565b565b5f805f9054906101000a900473ffffffffffffffffffffffffffffffffffffffff16905090565b5f8060025f9054906101000a900473ffffffffffffffffffffffffffffffffffffffff1673ffffffffffffffffffffffffffffffffffffffff16836040516024016101d49190610569565b6040516020818303038152906040527fcd16ecbf000000000000000000000000000000000000000000000000000000007bffffffffffffffffffffffffffffffffffffffffffffffffffffffff19166020820180517bffffffffffffffffffffffffffffffffffffffffffffffffffffffff838183161783525050505060405161025e9190610651565b5f60405180830381855af49150503d805f8114610296576040519150601f19603f3d011682016040523d82523d5f602084013e61029b565b606091505b5091509150816102e0576040517f08c379a00000000000000000000000000000000000000000000000000000000081526004016102d7906106c1565b60405180910390fd5b80600390816102ef9190610906565b50505050565b6102fd610379565b5f73ffffffffffffffffffffffffffffffffffffffff168173ffffffffffffffffffffffffffffffffffffffff160361036d575f6040517f1e4fbdf70000000000000000000000000000000000000000000000000000000081526004016103649190610591565b60405180910390fd5b61037681610400565b50565b6103816104c1565b73ffffffffffffffffffffffffffffffffffffffff1661039f610162565b73ffffffffffffffffffffffffffffffffffffffff16146103fe576103c26104c1565b6040517f118cdaa70000000000000000000000000000000000000000000000000000000081526004016103f59190610591565b60405180910390fd5b565b5f805f9054906101000a900473ffffffffffffffffffffffffffffffffffffffff169050815f806101000a81548173ffffffffffffffffffffffffffffffffffffffff021916908373ffffffffffffffffffffffffffffffffffffffff1602179055508173ffffffffffffffffffffffffffffffffffffffff168173ffffffffffffffffffffffffffffffffffffffff167f8be0079c531659141344cd1fd0a4f28419497f9722a3daafe3b4186f6b6457e060405160405180910390a35050565b5f33905090565b5f80fd5b5f73ffffffffffffffffffffffffffffffffffffffff82169050919050565b5f6104f5826104cc565b9050919050565b610505816104eb565b811461050f575f80fd5b50565b5f81359050610520816104fc565b92915050565b5f6020828403121561053b5761053a6104c8565b5b5f61054884828501610512565b91505092915050565b5f819050919050565b61056381610551565b82525050565b5f60208201905061057c5f83018461055a565b92915050565b61058b816104eb565b82525050565b5f6020820190506105a45f830184610582565b92915050565b6105b381610551565b81146105bd575f80fd5b50565b5f813590506105ce816105aa565b92915050565b5f602082840312156105e9576105e86104c8565b5b5f6105f6848285016105c0565b91505092915050565b5f81519050919050565b5f81905092915050565b8281835e5f83830152505050565b5f61062b826105ff565b6106358185610609565b9350610645818560208601610613565b80840191505092915050565b5f61065c8284610621565b915081905092915050565b5f82825260208201905092915050565b7f4661696c656420746f2044656c69676174652063616c6c0000000000000000005f82015250565b5f6106ab601783610667565b91506106b682610677565b602082019050919050565b5f6020820190508181035f8301526106d88161069f565b9050919050565b7f4e487b71000000000000000000000000000000000000000000000000000000005f52604160045260245ffd5b7f4e487b71000000000000000000000000000000000000000000000000000000005f52602260045260245ffd5b5f600282049050600182168061075057607f821691505b6020821081036107635761076261070c565b5b50919050565b5f819050815f5260205f209050919050565b5f6020601f8301049050919050565b5f82821b905092915050565b5f600883026107c57fffffffffffffffffffffffffffffffffffffffffffffffffffffffffffffffff8261078a565b6107cf868361078a565b95508019841693508086168417925050509392505050565b5f819050919050565b5f61080a61080561080084610551565b6107e7565b610551565b9050919050565b5f819050919050565b610823836107f0565b61083761082f82610811565b848454610796565b825550505050565b5f90565b61084b61083f565b61085681848461081a565b505050565b5b818110156108795761086e5f82610843565b60018101905061085c565b5050565b601f8211156108be5761088f81610769565b6108988461077b565b810160208510156108a7578190505b6108bb6108b38561077b565b83018261085b565b50505b505050565b5f82821c905092915050565b5f6108de5f19846008026108c3565b1980831691505092915050565b5f6108f683836108cf565b9150826002028217905092915050565b61090f826105ff565b67ffffffffffffffff811115610928576109276106df565b5b6109328254610739565b61093d82828561087d565b5f60209050601f83116001811461096e575f841561095c578287015190505b61096685826108eb565b8655506109cd565b601f19841661097c86610769565b5f5b828110156109a35784890151825560018201915060208501945060208101905061097e565b868310156109c057848901516109bc601f8916826108cf565b8355505b6001600288020188555050505b50505050505056fea264697066735822122052f55d3c4d274f9acf1485c728d095c108efe3060928fea8c71eeb5ac350698a64736f6c634300081a0033",
					"opcodes": "PUSH1 0x80 PUSH1 0x40 MSTORE CALLVALUE DUP1 ISZERO PUSH2 0xF JUMPI PUSH0 DUP1 REVERT JUMPDEST POP CALLER PUSH0 PUSH20 0xFFFFFFFFFFFFFFFFFFFFFFFFFFFFFFFFFFFFFFFF AND DUP2 PUSH20 0xFFFFFFFFFFFFFFFFFFFFFFFFFFFFFFFFFFFFFFFF AND SUB PUSH2 0x81 JUMPI PUSH0 PUSH1 0x40 MLOAD PUSH32 0x1E4FBDF700000000000000000000000000000000000000000000000000000000 DUP2 MSTORE PUSH1 0x4 ADD PUSH2 0x78 SWAP2 SWAP1 PUSH2 0x19D JUMP JUMPDEST PUSH1 0x40 MLOAD DUP1 SWAP2 SUB SWAP1 REVERT JUMPDEST PUSH2 0x90 DUP2 PUSH2 0x9D PUSH1 0x20 SHL PUSH1 0x20 SHR JUMP JUMPDEST POP PUSH0 PUSH1 0x1 DUP2 SWAP1 SSTORE POP PUSH2 0x1B6 JUMP JUMPDEST PUSH0 DUP1 PUSH0 SWAP1 SLOAD SWAP1 PUSH2 0x100 EXP SWAP1 DIV PUSH20 0xFFFFFFFFFFFFFFFFFFFFFFFFFFFFFFFFFFFFFFFF AND SWAP1 POP DUP2 PUSH0 DUP1 PUSH2 0x100 EXP DUP2 SLOAD DUP2 PUSH20 0xFFFFFFFFFFFFFFFFFFFFFFFFFFFFFFFFFFFFFFFF MUL NOT AND SWAP1 DUP4 PUSH20 0xFFFFFFFFFFFFFFFFFFFFFFFFFFFFFFFFFFFFFFFF AND MUL OR SWAP1 SSTORE POP DUP2 PUSH20 0xFFFFFFFFFFFFFFFFFFFFFFFFFFFFFFFFFFFFFFFF AND DUP2 PUSH20 0xFFFFFFFFFFFFFFFFFFFFFFFFFFFFFFFFFFFFFFFF AND PUSH32 0x8BE0079C531659141344CD1FD0A4F28419497F9722A3DAAFE3B4186F6B6457E0 PUSH1 0x40 MLOAD PUSH1 0x40 MLOAD DUP1 SWAP2 SUB SWAP1 LOG3 POP POP JUMP JUMPDEST PUSH0 PUSH20 0xFFFFFFFFFFFFFFFFFFFFFFFFFFFFFFFFFFFFFFFF DUP3 AND SWAP1 POP SWAP2 SWAP1 POP JUMP JUMPDEST PUSH0 PUSH2 0x187 DUP3 PUSH2 0x15E JUMP JUMPDEST SWAP1 POP SWAP2 SWAP1 POP JUMP JUMPDEST PUSH2 0x197 DUP2 PUSH2 0x17D JUMP JUMPDEST DUP3 MSTORE POP POP JUMP JUMPDEST PUSH0 PUSH1 0x20 DUP3 ADD SWAP1 POP PUSH2 0x1B0 PUSH0 DUP4 ADD DUP5 PUSH2 0x18E JUMP JUMPDEST SWAP3 SWAP2 POP POP JUMP JUMPDEST PUSH2 0xA0B DUP1 PUSH2 0x1C3 PUSH0 CODECOPY PUSH0 RETURN INVALID PUSH1 0x80 PUSH1 0x40 MSTORE CALLVALUE DUP1 ISZERO PUSH2 0xF JUMPI PUSH0 DUP1 REVERT JUMPDEST POP PUSH1 0x4 CALLDATASIZE LT PUSH2 0x60 JUMPI PUSH0 CALLDATALOAD PUSH1 0xE0 SHR DUP1 PUSH4 0x424FD42A EQ PUSH2 0x64 JUMPI DUP1 PUSH4 0x4E70B1DC EQ PUSH2 0x80 JUMPI DUP1 PUSH4 0x715018A6 EQ PUSH2 0x9E JUMPI DUP1 PUSH4 0x8DA5CB5B EQ PUSH2 0xA8 JUMPI DUP1 PUSH4 0xCD16ECBF EQ PUSH2 0xC6 JUMPI DUP1 PUSH4 0xF2FDE38B EQ PUSH2 0xE2 JUMPI JUMPDEST PUSH0 DUP1 REVERT JUMPDEST PUSH2 0x7E PUSH1 0x4 DUP1 CALLDATASIZE SUB DUP2 ADD SWAP1 PUSH2 0x79 SWAP2 SWAP1 PUSH2 0x526 JUMP JUMPDEST PUSH2 0xFE JUMP JUMPDEST STOP JUMPDEST PUSH2 0x88 PUSH2 0x149 JUMP JUMPDEST PUSH1 0x40 MLOAD PUSH2 0x95 SWAP2 SWAP1 PUSH2 0x569 JUMP JUMPDEST PUSH1 0x40 MLOAD DUP1 SWAP2 SUB SWAP1 RETURN JUMPDEST PUSH2 0xA6 PUSH2 0x14F JUMP JUMPDEST STOP JUMPDEST PUSH2 0xB0 PUSH2 0x162 JUMP JUMPDEST PUSH1 0x40 MLOAD PUSH2 0xBD SWAP2 SWAP1 PUSH2 0x591 JUMP JUMPDEST PUSH1 0x40 MLOAD DUP1 SWAP2 SUB SWAP1 RETURN JUMPDEST PUSH2 0xE0 PUSH1 0x4 DUP1 CALLDATASIZE SUB DUP2 ADD SWAP1 PUSH2 0xDB SWAP2 SWAP1 PUSH2 0x5D4 JUMP JUMPDEST PUSH2 0x189 JUMP JUMPDEST STOP JUMPDEST PUSH2 0xFC PUSH1 0x4 DUP1 CALLDATASIZE SUB DUP2 ADD SWAP1 PUSH2 0xF7 SWAP2 SWAP1 PUSH2 0x526 JUMP JUMPDEST PUSH2 0x2F5 JUMP JUMPDEST STOP JUMPDEST PUSH2 0x106 PUSH2 0x379 JUMP JUMPDEST DUP1 PUSH1 0x2 PUSH0 PUSH2 0x100 EXP DUP2 SLOAD DUP2 PUSH20 0xFFFFFFFFFFFFFFFFFFFFFFFFFFFFFFFFFFFFFFFF MUL NOT AND SWAP1 DUP4 PUSH20 0xFFFFFFFFFFFFFFFFFFFFFFFFFFFFFFFFFFFFFFFF AND MUL OR SWAP1 SSTORE POP POP JUMP JUMPDEST PUSH1 0x1 SLOAD DUP2 JUMP JUMPDEST PUSH2 0x157 PUSH2 0x379 JUMP JUMPDEST PUSH2 0x160 PUSH0 PUSH2 0x400 JUMP JUMPDEST JUMP JUMPDEST PUSH0 DUP1 PUSH0 SWAP1 SLOAD SWAP1 PUSH2 0x100 EXP SWAP1 DIV PUSH20 0xFFFFFFFFFFFFFFFFFFFFFFFFFFFFFFFFFFFFFFFF AND SWAP1 POP SWAP1 JUMP JUMPDEST PUSH0 DUP1 PUSH1 0x2 PUSH0 SWAP1 SLOAD SWAP1 PUSH2 0x100 EXP SWAP1 DIV PUSH20 0xFFFFFFFFFFFFFFFFFFFFFFFFFFFFFFFFFFFFFFFF AND PUSH20 0xFFFFFFFFFFFFFFFFFFFFFFFFFFFFFFFFFFFFFFFF AND DUP4 PUSH1 0x40 MLOAD PUSH1 0x24 ADD PUSH2 0x1D4 SWAP2 SWAP1 PUSH2 0x569 JUMP JUMPDEST PUSH1 0x40 MLOAD PUSH1 0x20 DUP2 DUP4 SUB SUB DUP2 MSTORE SWAP1 PUSH1 0x40 MSTORE PUSH32 0xCD16ECBF00000000000000000000000000000000000000000000000000000000 PUSH28 0xFFFFFFFFFFFFFFFFFFFFFFFFFFFFFFFFFFFFFFFFFFFFFFFFFFFFFFFF NOT AND PUSH1 0x20 DUP3 ADD DUP1 MLOAD PUSH28 0xFFFFFFFFFFFFFFFFFFFFFFFFFFFFFFFFFFFFFFFFFFFFFFFFFFFFFFFF DUP4 DUP2 DUP4 AND OR DUP4 MSTORE POP POP POP POP PUSH1 0x40 MLOAD PUSH2 0x25E SWAP2 SWAP1 PUSH2 0x651 JUMP JUMPDEST PUSH0 PUSH1 0x40 MLOAD DUP1 DUP4 SUB DUP2 DUP6 GAS DELEGATECALL SWAP2 POP POP RETURNDATASIZE DUP1 PUSH0 DUP2 EQ PUSH2 0x296 JUMPI PUSH1 0x40 MLOAD SWAP2 POP PUSH1 0x1F NOT PUSH1 0x3F RETURNDATASIZE ADD AND DUP3 ADD PUSH1 0x40 MSTORE RETURNDATASIZE DUP3 MSTORE RETURNDATASIZE PUSH0 PUSH1 0x20 DUP5 ADD RETURNDATACOPY PUSH2 0x29B JUMP JUMPDEST PUSH1 0x60 SWAP2 POP JUMPDEST POP SWAP2 POP SWAP2 POP DUP2 PUSH2 0x2E0 JUMPI PUSH1 0x40 MLOAD PUSH32 0x8C379A000000000000000000000000000000000000000000000000000000000 DUP2 MSTORE PUSH1 0x4 ADD PUSH2 0x2D7 SWAP1 PUSH2 0x6C1 JUMP JUMPDEST PUSH1 0x40 MLOAD DUP1 SWAP2 SUB SWAP1 REVERT JUMPDEST DUP1 PUSH1 0x3 SWAP1 DUP2 PUSH2 0x2EF SWAP2 SWAP1 PUSH2 0x906 JUMP JUMPDEST POP POP POP POP JUMP JUMPDEST PUSH2 0x2FD PUSH2 0x379 JUMP JUMPDEST PUSH0 PUSH20 0xFFFFFFFFFFFFFFFFFFFFFFFFFFFFFFFFFFFFFFFF AND DUP2 PUSH20 0xFFFFFFFFFFFFFFFFFFFFFFFFFFFFFFFFFFFFFFFF AND SUB PUSH2 0x36D JUMPI PUSH0 PUSH1 0x40 MLOAD PUSH32 0x1E4FBDF700000000000000000000000000000000000000000000000000000000 DUP2 MSTORE PUSH1 0x4 ADD PUSH2 0x364 SWAP2 SWAP1 PUSH2 0x591 JUMP JUMPDEST PUSH1 0x40 MLOAD DUP1 SWAP2 SUB SWAP1 REVERT JUMPDEST PUSH2 0x376 DUP2 PUSH2 0x400 JUMP JUMPDEST POP JUMP JUMPDEST PUSH2 0x381 PUSH2 0x4C1 JUMP JUMPDEST PUSH20 0xFFFFFFFFFFFFFFFFFFFFFFFFFFFFFFFFFFFFFFFF AND PUSH2 0x39F PUSH2 0x162 JUMP JUMPDEST PUSH20 0xFFFFFFFFFFFFFFFFFFFFFFFFFFFFFFFFFFFFFFFF AND EQ PUSH2 0x3FE JUMPI PUSH2 0x3C2 PUSH2 0x4C1 JUMP JUMPDEST PUSH1 0x40 MLOAD PUSH32 0x118CDAA700000000000000000000000000000000000000000000000000000000 DUP2 MSTORE PUSH1 0x4 ADD PUSH2 0x3F5 SWAP2 SWAP1 PUSH2 0x591 JUMP JUMPDEST PUSH1 0x40 MLOAD DUP1 SWAP2 SUB SWAP1 REVERT JUMPDEST JUMP JUMPDEST PUSH0 DUP1 PUSH0 SWAP1 SLOAD SWAP1 PUSH2 0x100 EXP SWAP1 DIV PUSH20 0xFFFFFFFFFFFFFFFFFFFFFFFFFFFFFFFFFFFFFFFF AND SWAP1 POP DUP2 PUSH0 DUP1 PUSH2 0x100 EXP DUP2 SLOAD DUP2 PUSH20 0xFFFFFFFFFFFFFFFFFFFFFFFFFFFFFFFFFFFFFFFF MUL NOT AND SWAP1 DUP4 PUSH20 0xFFFFFFFFFFFFFFFFFFFFFFFFFFFFFFFFFFFFFFFF AND MUL OR SWAP1 SSTORE POP DUP2 PUSH20 0xFFFFFFFFFFFFFFFFFFFFFFFFFFFFFFFFFFFFFFFF AND DUP2 PUSH20 0xFFFFFFFFFFFFFFFFFFFFFFFFFFFFFFFFFFFFFFFF AND PUSH32 0x8BE0079C531659141344CD1FD0A4F28419497F9722A3DAAFE3B4186F6B6457E0 PUSH1 0x40 MLOAD PUSH1 0x40 MLOAD DUP1 SWAP2 SUB SWAP1 LOG3 POP POP JUMP JUMPDEST PUSH0 CALLER SWAP1 POP SWAP1 JUMP JUMPDEST PUSH0 DUP1 REVERT JUMPDEST PUSH0 PUSH20 0xFFFFFFFFFFFFFFFFFFFFFFFFFFFFFFFFFFFFFFFF DUP3 AND SWAP1 POP SWAP2 SWAP1 POP JUMP JUMPDEST PUSH0 PUSH2 0x4F5 DUP3 PUSH2 0x4CC JUMP JUMPDEST SWAP1 POP SWAP2 SWAP1 POP JUMP JUMPDEST PUSH2 0x505 DUP2 PUSH2 0x4EB JUMP JUMPDEST DUP2 EQ PUSH2 0x50F JUMPI PUSH0 DUP1 REVERT JUMPDEST POP JUMP JUMPDEST PUSH0 DUP2 CALLDATALOAD SWAP1 POP PUSH2 0x520 DUP2 PUSH2 0x4FC JUMP JUMPDEST SWAP3 SWAP2 POP POP JUMP JUMPDEST PUSH0 PUSH1 0x20 DUP3 DUP5 SUB SLT ISZERO PUSH2 0x53B JUMPI PUSH2 0x53A PUSH2 0x4C8 JUMP JUMPDEST JUMPDEST PUSH0 PUSH2 0x548 DUP5 DUP3 DUP6 ADD PUSH2 0x512 JUMP JUMPDEST SWAP2 POP POP SWAP3 SWAP2 POP POP JUMP JUMPDEST PUSH0 DUP2 SWAP1 POP SWAP2 SWAP1 POP JUMP JUMPDEST PUSH2 0x563 DUP2 PUSH2 0x551 JUMP JUMPDEST DUP3 MSTORE POP POP JUMP JUMPDEST PUSH0 PUSH1 0x20 DUP3 ADD SWAP1 POP PUSH2 0x57C PUSH0 DUP4 ADD DUP5 PUSH2 0x55A JUMP JUMPDEST SWAP3 SWAP2 POP POP JUMP JUMPDEST PUSH2 0x58B DUP2 PUSH2 0x4EB JUMP JUMPDEST DUP3 MSTORE POP POP JUMP JUMPDEST PUSH0 PUSH1 0x20 DUP3 ADD SWAP1 POP PUSH2 0x5A4 PUSH0 DUP4 ADD DUP5 PUSH2 0x582 JUMP JUMPDEST SWAP3 SWAP2 POP POP JUMP JUMPDEST PUSH2 0x5B3 DUP2 PUSH2 0x551 JUMP JUMPDEST DUP2 EQ PUSH2 0x5BD JUMPI PUSH0 DUP1 REVERT JUMPDEST POP JUMP JUMPDEST PUSH0 DUP2 CALLDATALOAD SWAP1 POP PUSH2 0x5CE DUP2 PUSH2 0x5AA JUMP JUMPDEST SWAP3 SWAP2 POP POP JUMP JUMPDEST PUSH0 PUSH1 0x20 DUP3 DUP5 SUB SLT ISZERO PUSH2 0x5E9 JUMPI PUSH2 0x5E8 PUSH2 0x4C8 JUMP JUMPDEST JUMPDEST PUSH0 PUSH2 0x5F6 DUP5 DUP3 DUP6 ADD PUSH2 0x5C0 JUMP JUMPDEST SWAP2 POP POP SWAP3 SWAP2 POP POP JUMP JUMPDEST PUSH0 DUP2 MLOAD SWAP1 POP SWAP2 SWAP1 POP JUMP JUMPDEST PUSH0 DUP2 SWAP1 POP SWAP3 SWAP2 POP POP JUMP JUMPDEST DUP3 DUP2 DUP4 MCOPY PUSH0 DUP4 DUP4 ADD MSTORE POP POP POP JUMP JUMPDEST PUSH0 PUSH2 0x62B DUP3 PUSH2 0x5FF JUMP JUMPDEST PUSH2 0x635 DUP2 DUP6 PUSH2 0x609 JUMP JUMPDEST SWAP4 POP PUSH2 0x645 DUP2 DUP6 PUSH1 0x20 DUP7 ADD PUSH2 0x613 JUMP JUMPDEST DUP1 DUP5 ADD SWAP2 POP POP SWAP3 SWAP2 POP POP JUMP JUMPDEST PUSH0 PUSH2 0x65C DUP3 DUP5 PUSH2 0x621 JUMP JUMPDEST SWAP2 POP DUP2 SWAP1 POP SWAP3 SWAP2 POP POP JUMP JUMPDEST PUSH0 DUP3 DUP3 MSTORE PUSH1 0x20 DUP3 ADD SWAP1 POP SWAP3 SWAP2 POP POP JUMP JUMPDEST PUSH32 0x4661696C656420746F2044656C69676174652063616C6C000000000000000000 PUSH0 DUP3 ADD MSTORE POP JUMP JUMPDEST PUSH0 PUSH2 0x6AB PUSH1 0x17 DUP4 PUSH2 0x667 JUMP JUMPDEST SWAP2 POP PUSH2 0x6B6 DUP3 PUSH2 0x677 JUMP JUMPDEST PUSH1 0x20 DUP3 ADD SWAP1 POP SWAP2 SWAP1 POP JUMP JUMPDEST PUSH0 PUSH1 0x20 DUP3 ADD SWAP1 POP DUP2 DUP2 SUB PUSH0 DUP4 ADD MSTORE PUSH2 0x6D8 DUP2 PUSH2 0x69F JUMP JUMPDEST SWAP1 POP SWAP2 SWAP1 POP JUMP JUMPDEST PUSH32 0x4E487B7100000000000000000000000000000000000000000000000000000000 PUSH0 MSTORE PUSH1 0x41 PUSH1 0x4 MSTORE PUSH1 0x24 PUSH0 REVERT JUMPDEST PUSH32 0x4E487B7100000000000000000000000000000000000000000000000000000000 PUSH0 MSTORE PUSH1 0x22 PUSH1 0x4 MSTORE PUSH1 0x24 PUSH0 REVERT JUMPDEST PUSH0 PUSH1 0x2 DUP3 DIV SWAP1 POP PUSH1 0x1 DUP3 AND DUP1 PUSH2 0x750 JUMPI PUSH1 0x7F DUP3 AND SWAP2 POP JUMPDEST PUSH1 0x20 DUP3 LT DUP2 SUB PUSH2 0x763 JUMPI PUSH2 0x762 PUSH2 0x70C JUMP JUMPDEST JUMPDEST POP SWAP2 SWAP1 POP JUMP JUMPDEST PUSH0 DUP2 SWAP1 POP DUP2 PUSH0 MSTORE PUSH1 0x20 PUSH0 KECCAK256 SWAP1 POP SWAP2 SWAP1 POP JUMP JUMPDEST PUSH0 PUSH1 0x20 PUSH1 0x1F DUP4 ADD DIV SWAP1 POP SWAP2 SWAP1 POP JUMP JUMPDEST PUSH0 DUP3 DUP3 SHL SWAP1 POP SWAP3 SWAP2 POP POP JUMP JUMPDEST PUSH0 PUSH1 0x8 DUP4 MUL PUSH2 0x7C5 PUSH32 0xFFFFFFFFFFFFFFFFFFFFFFFFFFFFFFFFFFFFFFFFFFFFFFFFFFFFFFFFFFFFFFFF DUP3 PUSH2 0x78A JUMP JUMPDEST PUSH2 0x7CF DUP7 DUP4 PUSH2 0x78A JUMP JUMPDEST SWAP6 POP DUP1 NOT DUP5 AND SWAP4 POP DUP1 DUP7 AND DUP5 OR SWAP3 POP POP POP SWAP4 SWAP3 POP POP POP JUMP JUMPDEST PUSH0 DUP2 SWAP1 POP SWAP2 SWAP1 POP JUMP JUMPDEST PUSH0 PUSH2 0x80A PUSH2 0x805 PUSH2 0x800 DUP5 PUSH2 0x551 JUMP JUMPDEST PUSH2 0x7E7 JUMP JUMPDEST PUSH2 0x551 JUMP JUMPDEST SWAP1 POP SWAP2 SWAP1 POP JUMP JUMPDEST PUSH0 DUP2 SWAP1 POP SWAP2 SWAP1 POP JUMP JUMPDEST PUSH2 0x823 DUP4 PUSH2 0x7F0 JUMP JUMPDEST PUSH2 0x837 PUSH2 0x82F DUP3 PUSH2 0x811 JUMP JUMPDEST DUP5 DUP5 SLOAD PUSH2 0x796 JUMP JUMPDEST DUP3 SSTORE POP POP POP POP JUMP JUMPDEST PUSH0 SWAP1 JUMP JUMPDEST PUSH2 0x84B PUSH2 0x83F JUMP JUMPDEST PUSH2 0x856 DUP2 DUP5 DUP5 PUSH2 0x81A JUMP JUMPDEST POP POP POP JUMP JUMPDEST JUMPDEST DUP2 DUP2 LT ISZERO PUSH2 0x879 JUMPI PUSH2 0x86E PUSH0 DUP3 PUSH2 0x843 JUMP JUMPDEST PUSH1 0x1 DUP2 ADD SWAP1 POP PUSH2 0x85C JUMP JUMPDEST POP POP JUMP JUMPDEST PUSH1 0x1F DUP3 GT ISZERO PUSH2 0x8BE JUMPI PUSH2 0x88F DUP2 PUSH2 0x769 JUMP JUMPDEST PUSH2 0x898 DUP5 PUSH2 0x77B JUMP JUMPDEST DUP2 ADD PUSH1 0x20 DUP6 LT ISZERO PUSH2 0x8A7 JUMPI DUP2 SWAP1 POP JUMPDEST PUSH2 0x8BB PUSH2 0x8B3 DUP6 PUSH2 0x77B JUMP JUMPDEST DUP4 ADD DUP3 PUSH2 0x85B JUMP JUMPDEST POP POP JUMPDEST POP POP POP JUMP JUMPDEST PUSH0 DUP3 DUP3 SHR SWAP1 POP SWAP3 SWAP2 POP POP JUMP JUMPDEST PUSH0 PUSH2 0x8DE PUSH0 NOT DUP5 PUSH1 0x8 MUL PUSH2 0x8C3 JUMP JUMPDEST NOT DUP1 DUP4 AND SWAP2 POP POP SWAP3 SWAP2 POP POP JUMP JUMPDEST PUSH0 PUSH2 0x8F6 DUP4 DUP4 PUSH2 0x8CF JUMP JUMPDEST SWAP2 POP DUP3 PUSH1 0x2 MUL DUP3 OR SWAP1 POP SWAP3 SWAP2 POP POP JUMP JUMPDEST PUSH2 0x90F DUP3 PUSH2 0x5FF JUMP JUMPDEST PUSH8 0xFFFFFFFFFFFFFFFF DUP2 GT ISZERO PUSH2 0x928 JUMPI PUSH2 0x927 PUSH2 0x6DF JUMP JUMPDEST JUMPDEST PUSH2 0x932 DUP3 SLOAD PUSH2 0x739 JUMP JUMPDEST PUSH2 0x93D DUP3 DUP3 DUP6 PUSH2 0x87D JUMP JUMPDEST PUSH0 PUSH1 0x20 SWAP1 POP PUSH1 0x1F DUP4 GT PUSH1 0x1 DUP2 EQ PUSH2 0x96E JUMPI PUSH0 DUP5 ISZERO PUSH2 0x95C JUMPI DUP3 DUP8 ADD MLOAD SWAP1 POP JUMPDEST PUSH2 0x966 DUP6 DUP3 PUSH2 0x8EB JUMP JUMPDEST DUP7 SSTORE POP PUSH2 0x9CD JUMP JUMPDEST PUSH1 0x1F NOT DUP5 AND PUSH2 0x97C DUP7 PUSH2 0x769 JUMP JUMPDEST PUSH0 JUMPDEST DUP3 DUP2 LT ISZERO PUSH2 0x9A3 JUMPI DUP5 DUP10 ADD MLOAD DUP3 SSTORE PUSH1 0x1 DUP3 ADD SWAP2 POP PUSH1 0x20 DUP6 ADD SWAP5 POP PUSH1 0x20 DUP2 ADD SWAP1 POP PUSH2 0x97E JUMP JUMPDEST DUP7 DUP4 LT ISZERO PUSH2 0x9C0 JUMPI DUP5 DUP10 ADD MLOAD PUSH2 0x9BC PUSH1 0x1F DUP10 AND DUP3 PUSH2 0x8CF JUMP JUMPDEST DUP4 SSTORE POP JUMPDEST PUSH1 0x1 PUSH1 0x2 DUP9 MUL ADD DUP9 SSTORE POP POP POP JUMPDEST POP POP POP POP POP POP JUMP INVALID LOG2 PUSH5 0x6970667358 0x22 SLT KECCAK256 MSTORE CREATE2 TSTORE EXTCODECOPY 0x4D 0x27 0x4F SWAP11 0xCF EQ DUP6 0xC7 0x28 0xD0 SWAP6 0xC1 ADDMOD 0xEF 0xE3 MOD MULMOD 0x28 INVALID 0xA8 0xC7 0x1E 0xEB GAS 0xC3 POP PUSH10 0x8A64736F6C634300081A STOP CALLER "
				},
				"gasEstimates": {
					"creation": {
						"codeDepositCost": "514200",
						"executionCost": "infinite",
						"totalCost": "infinite"
					},
					"external": {
						"num()": "2425",
						"owner()": "2559",
						"renounceOwnership()": "infinite",
						"setImp(address)": "infinite",
						"setNum(uint256)": "infinite",
						"transferOwnership(address)": "infinite"
					}
				},
				"methodIdentifiers": {
					"num()": "4e70b1dc",
					"owner()": "8da5cb5b",
					"renounceOwnership()": "715018a6",
					"setImp(address)": "424fd42a",
					"setNum(uint256)": "cd16ecbf",
					"transferOwnership(address)": "f2fde38b"
				}
			},
			"storageLayout": {
				"storage": [
					{
						"astId": 8,
						"contract": "contracts/cohort/Upgradability/Upgrade.sol:Proxy",
						"label": "_owner",
						"offset": 0,
						"slot": "0",
						"type": "t_address"
					},
					{
						"astId": 184,
						"contract": "contracts/cohort/Upgradability/Upgrade.sol:Proxy",
						"label": "num",
						"offset": 0,
						"slot": "1",
						"type": "t_uint256"
					},
					{
						"astId": 186,
						"contract": "contracts/cohort/Upgradability/Upgrade.sol:Proxy",
						"label": "imp",
						"offset": 0,
						"slot": "2",
						"type": "t_address"
					},
					{
						"astId": 188,
						"contract": "contracts/cohort/Upgradability/Upgrade.sol:Proxy",
						"label": "datas",
						"offset": 0,
						"slot": "3",
						"type": "t_bytes_storage"
					}
				],
				"types": {
					"t_address": {
						"encoding": "inplace",
						"label": "address",
						"numberOfBytes": "20"
					},
					"t_bytes_storage": {
						"encoding": "bytes",
						"label": "bytes",
						"numberOfBytes": "32"
					},
					"t_uint256": {
						"encoding": "inplace",
						"label": "uint256",
						"numberOfBytes": "32"
					}
				}
			},
			"userdoc": {
				"kind": "user",
				"methods": {},
				"version": 1
			}
		}
	}
}